:1000000040AE0020A1FA010059A803008DFA0100BA
:100010008DFA01008DFA01008DFA01008DFA0100C0
:1000200000000000000000000000000005FC0100CE
:100030008DFA0100000000009DFB01008DFA010017
:10004000C1FD0100C1FD0100C1FD0100C1FD0100B4
:10005000C1FD0100C1FD0100C1FD0100C1FD0100A4
:10006000C1FD0100C1FD0100C1FD0100C1FD010094
:10007000C1FD0100C1FD0100C1FD0100C1FD010084
:10025000C1FD010013E30300C1FD0100C1FD010068
:10026000C1FD0100C1FD0100FDE20300C1FD01006F
:10027000C1FD0100C1FD0100C1FD0100C1FD010082
:10028000C1FD0100C1FD0100C1FD0100C1FD010072
:10029000C1FD0100C1FD0100C1FD0100C1FD010062
:1002A000C1FD0100C1FD0100C1FD0100C1FD010052
:1002B000C1FD0100C1FD0100C1FD0100C1FD010042
:1002C000C1FD0100C1FD0100C1FD0100C1FD010032
:1002D000C1FD0100C1FD0100C1FD0100C1FD010022
:1002E000C1FD0100C1FD0100C1FD0100C1FD010012
:1002F000C1FD0100C1FD0100C1FD0100C1FD010002
:10030000C1FD0100C1FD0100C1FD0100C1FD0100F1
:10031000C1FD0100C1FD0100C1FD0100C1FD0100E1
:10032000C1FD0100C1FD0100C1FD0100C1FD0100D1
:10033000C1FD0100C1FD0100C1FD0100C1FD0100C1
:10034000C1FD0100C1FD0100C1FD0100C1FD0100B1
:10035000C1FD0100C1FD0100C1FD0100C1FD0100A1
:10036000C1FD0100C1FD0100C1FD0100C1FD010091
:10037000C1FD0100C1FD0100C1FD0100C1FD010081
:10038000C1FD0100C1FD0100C1FD0100C1FD010071
:10039000C1FD0100C1FD0100C1FD0100C1FD010061
:1003A000C1FD0100C1FD0100C1FD0100C1FD010051
:1003B000C1FD0100C1FD0100C1FD0100C1FD010041
:1003C000C1FD0100C1FD0100C1FD0100C1FD010031
:1003D000C1FD0100E7E20300C1FD0100C1FD010014
:1003E000C1FD0100C1FD0100C1FD0100C1FD010011
:1003F000C1FD0100C1FD0100C1FD0100C1FD010001
:10040000C1FD0100C1FD0100C1FD0100C1FD0100F0
:10041000C1FD0100C1FD0100C1FD0100C1FD0100E0
:10042000C1FD0100C1FD0100C1FD0100C1FD0100D0
:10043000C1FD0100C1FD0100C1FD0100C1FD0100C0
:10044000C1FD0100C1FD0100C1FD0100C1FD0100B0
:10045000C1FD0100C1FD0100C1FD0100C1FD0100A0
:10046000C1FD0100C1FD0100C1FD0100C1FD010090
:0C047000C1FD0100C1FD0100C1FD010043
:10048000054B00221B78826001330260034A426000
:10049000C371FF23037270479018002028010800E1
:1004A000064A074B02604FF418729B78828008223C
:1004B000C371002382710372704700BF93900100E3
:1004C00090180020064A074B02604FF43672DB7822
:1004D00082800822C371002382710372704700BFBB
:1004E000978D010090180020064A074B02604FF4D8
:1004F000B472DB7A82800822C371FF238271037297
:10050000704700BF37890100901800202DE9F341A2
:10051000C41D0028064624F007040CBF0020204616
:1005200000F02EFD071E04DA6FF00B0002B0BDE8EC
:10053000F081374DE988A88803316B7A03302A7A35
:1005400089B280B213F0F3FD0028EDDB3C44A978BA
:10055000EB78002E04F10304194424F0030400FB9B
:1005600001F10CBF0020204600F090FE20440EB99F
:100570000028D9DBEA7A0446B2B1EB7B697C1344EC
:100580001944FF29D0D80330002EAA89C9B220F01F
:1005900003040CBF0020204600F0EAFE0028C3DB65
:1005A00004440EB9002CBFDB012000F0DFFCB0B129
:1005B000A97BA1B195F82B3033B340234FF481725E
:1005C0000734002E24F007040CBF0020204604F05E
:1005D00093F80028A8DB04440EB9002CA4DBAB7A06
:1005E000FBB1EB7AB3B10734002EA97A24F00704EB
:1005F0000CBF0020204608F0E9FE002894DB0444EC
:100600007EB9002C0DDA8FE725232822D8E700BF1A
:1006100090180020012000F0A9FC10B1AB7B002B4A
:10062000E1D1734B1B6893B1A97D81B10334002ED6
:10063000EA7D24F003040CBF0020204698470028E0
:10064000FFF672AF044416B9002CFFF66DAF694B8C
:100650001B688BB1297C79B10334002E24F003048C
:100660000CBF0020204698470028FFF65DAF0444E9
:1006700016B9002CFFF658AF5F4B1F68B7B1697C05
:10068000A1B10334002E2B7D24F0030408BF002009
:10069000009318BF2046EB7CAA7CB8470028FFF6E1
:1006A00043AF044416B9002CFFF63EAF072000F01C
:1006B0005DFC98B1A97D89B10334002E2A7E24F017
:1006C00003040CBF0020204600F040FF0028FFF686
:1006D0002BAF044416B9002CFFF626AFB6FA86F706
:1006E00095F823007F09A0B103346B7FA97E24F025
:1006F000070419443B4644F00404C9B2224600F002
:1007000065FF0028FFF610AF044416B9002CFFF671
:100710000BAF95F8241000294CD004F10708002EE7
:10072000EA8C28F007080CBF0020404613F013FDA8
:10073000041EFFF6F9AE4444002E3ED1002CFFF615
:10074000F3AEA97F002945D095F82230002B41D087
:100750002A8C0734002E02F1240224F007080CBF73
:100760000020404692B213F0F6FC0028FFF6DCAE03
:10077000404416B90028FFF6D7AE03302B7FA97E80
:1007800020F0070019443B4640F0040495F822008D
:10079000C9B2224600F00CFF0028FFF6C5AE0444A3
:1007A00086B9002CFFF6C0AEEB6AF3B1C6B1EC62BD
:1007B0000020BBE6002EC4D08846E98C40460FF0EE
:1007C00005FCBEE72A8C4046A97F083292B20FF0A2
:1007D00003FCE9E7002EE7D0002211461046F6E7B9
:1007E00028343FF5A1AE2046A0E6002EE0D1FAE77E
:1007F0006C05002070050020740500201FB572B63E
:10080000194B1C6BECB9BFF34F8F1849184BCA68D2
:1008100002F4E0621343CB60BFF34F8F00BFFDE7EC
:10082000B2FBF6F22B465D1C002AF9D1DBB203F1D4
:1008300010056D4405F80C2C0A2233B901A8A04715
:10084000E1E7024600230A26EDE7013BDBB203F1B4
:1008500010050DEB0506B0FBF2F502FB150030307C
:1008600006F80C0C2846E8E79018002000ED00E0A0
:100870000400FA0513B5124C68462389ADF8003020
:10088000E388ADF80430A388ADF8023006F0B8FA7A
:1008900018B1FC219C20FFF7B1FF207D06F014FB6E
:1008A00008B1FF21F6E7E07C06F008FB10B14FF439
:1008B0008071EFE794F829000DF036FF02B010BD0B
:1008C0009018002070B5054600285BD012F0D4FACD
:1008D00018B94FF0FF34204670BD11F00FFFB0F58E
:1008E000FA7FF6D8294C012629482563002500F017
:1008F000B9FA284684F83450257084F82B50E56204
:1009000084F82A500FF004FB1A22294604F10F0044
:1009100018F073FF1B2308210322A3802846E380DD
:100920000223A1721F216372E375F72322722384CD
:10093000FB23A2734922E3840A23A1812946E2749E
:1009400084F82930A670E670E672A674267604F064
:1009500073FE2A463146304604F02AFE044620B192
:1009600040F2AD319C20FFF749FF0246014604F0FA
:100970004DFEEFF3108572B600F04EFE002DAAD1A9
:1009800062B6A8E76FF01504A5E700BF9018002035
:100990007508000038B51446002840F0EE80784D08
:1009A00095F83430032B00F0E58019B312B96FF0DD
:1009B000150038BD0139172900F2DF80DFE811F09A
:1009C000180029002C0042006C00750094004800BB
:1009D00078007B008E004E005400620067009A0091
:1009E0009D00AC00AF00B200A300B500B900D2007A
:1009F0001378AB700020FFF789FD0028B7BF0123F3
:100A000002236FF00B0085F83430A8BF85F834302E
:100A1000CFE71378EB70EDE71379002BC7D053794C
:100A2000002BC4D01288FB2AC1D863881B3B9BB221
:100A3000E02BBCD81A2ABAD92368A2886B60514B24
:100A40009A80D7E71378EA7B9342B0D3EB72D1E771
:100A50001378EA7A9342AAD8EB73CBE71378EA7A51
:100A60009342A4D86B74C5E71378002B9FD05378BA
:100A7000013BDBB2F82B9AD8138892786B82424BF9
:100A80009A70B7E7107868750DF048FEB2E71378F2
:100A9000002B8CD02B76ADE7012000F067FA23788D
:100AA00008B1012B83D9AB73A4E71388AB81A1E70D
:100AB0001378AB759EE7072000F058FA18B9237831
:100AC000012B7FF674AF072000F050FA18B123789D
:100AD000002B3FF46CAF2378EB758BE71378082B72
:100AE0003FF665AF2B7485E71388FF2B3FF65FAFAA
:100AF000AB727FE713786B767CE713780E2B3FF6AB
:100B000056AFAB7676E72368204AC5F81E30636897
:100B10005360238913816DE71378EB766AE71378C6
:100B20006B7767E713782B7764E7137885F82830BD
:100B300060E704F037FD98B1007900F001026178B8
:100B4000207804F035FD00287FF433AF6378012B63
:100B50007FF650AF0FF0E2F900287FF44BAF26E7A5
:100B60000246ECE713785A1E092A3FF620AF85F8B3
:100B700029303FE74FF0FF301BE76FF02C0018E7FC
:100B80009018002094180020A2180020AE18002011
:100B9000F8B50D46064630B329B311F0070422D14B
:100BA000124F97F83430012B02D16FF00B00F8BDD3
:100BB000032B02D14FF0FF30F9E700F07DF8002859
:100BC000F8D02846FFF7A2FC0028EEDB18F034FB33
:100BD0003046F96A06F05AFAFFF74CFE0323204626
:100BE00087F83430E3E76FF01500E0E79018002055
:100BF00010B5074C94F83430032B03D106F062FA99
:100C000007F07AFB13F0F3FB002084F8340010BDEA
:100C10009018002050B1074B03F1140253F8041B45
:100C2000934240F8041BF9D1002070476FF0150083
:100C3000704700BF33AE040008B506F0B1F90349B0
:100C40000320BDE8084000F089B900BFE9040000B6
:100C500008B506F0B9F903490220BDE8084000F0E4
:100C60007DB900BFC504000008B5094B93F82B30CF
:100C70005BB106F0E9F90749012000F06FF9064978
:100C80000020BDE8084000F069B906F0BFF9F2E7BE
:100C90009018002081040000A104000002680020D8
:100CA000014B1A60704700BFC8180020014B1B6839
:100CB000184700BFC8180020024B1868003818BF3A
:100CC00001207047C8180020F7B504462D4E071DB7
:100CD0002C48376007F030FB0228054606D1294929
:100CE000204612F091FB284603B0F0BD042842D103
:100CF0003378092B0AD0262B1ED03146204612F01D
:100D0000FDFBB0F5817F2DD3722112E005213E203D
:100D100012F04CFB0028F0D1F37801A93279684633
:100D200043EA0223ADF8003012F0D9FF0028CFD0FB
:100D300053210820FFF762FD1A213E2012F036FBF6
:100D40000028DAD17368694601A8C3F30F23ADF810
:100D5000043011238DF8063012F0E3FF0028B7D0DD
:100D60006521E6E70028B3D0A178207812F01EFBB9
:100D70000028B8D1ACE70828B5D10249204612F0C6
:100D80007BFBB0E7CC180020074B4FF0FF3141F65A
:100D9000FF72C3E9001205490022C1E900221F21A8
:100DA000C3E90212704700BF00050020D0190020DF
:100DB0003F280CD801380B4BC0F3421200F01F0043
:100DC00053F8223023FA00F000F001007047FF28AA
:100DD00006D04038044BC0F3421200F01F00EFE78A
:100DE0000120704700050020D0190020074B014664
:100DF000006849681A4603C240F48C221A6041F028
:100E0000107242F4FF625A60704700BF0005002074
:100E10000246024B0068516803C37047D019002096
:100E20000246024B0068516803C370470805002062
:100E300008B5382800F1FF33DBB205D106F0AAF976
:100E40004078C0F3C00008BD5909054A03F01F03EC
:100E500002EB81029068D84000F00100F3E700BF88
:100E600000050020014B1860704700BFD819002012
:100E700010B5FFF789FF14F098FD034B04461B687B
:100E800003B19847204610BDD81900200A8870B5D4
:100E900095B2C67CC2F30E020488023602F1180332
:100EA0003444C35AA4B233442344013BB3FBF4F3A8
:100EB00003FB0422438892B29342044B8BBF2B4026
:100EC000AB4313439BB20B8070BD00BF0080FFFF9C
:100ED0004A1E062A08B50346084604D84FF4D171C5
:100EE0001520FFF78BFC094A914202D940F2A31169
:100EF000F6E711B903B1196008BD2BB11B680022D8
:100F0000C3E901211A1D1A600430F5E7FAFFFF7FDB
:100F100010B5114B00EB41041A786389B3FBF2F36F
:100F200003FB0223013A1A44B2F5706F027980780C
:100F300028BF00231A440B18B2FBF0F100FB11216B
:100F40005B1AB3FBF0F100FB113313446FEA434328
:100F50006FEA5343638110BDDC190020024B03EBA1
:100F600080035960704700BFDC190020034B03EB7E
:100F700080035868003818BF01207047DC19002032
:100F80002DE9F04F10F0070A85B0054604D040F275
:100F900061111720FFF732FC534F04464FF0010B4D
:100FA00007F15406B146B04657F8043B8DF80BA044
:100FB0003BB101A898479DF80A30082B01D9E821D8
:100FC000E7E79DF80B1041BB05B131604F4506F1D5
:100FD0000406E9D1002D6ED00022DFF8109114270D
:100FE000964689F8002058F827A0013FBAF1000F73
:100FF00054D09AF804609AF802C0FF2E5FD03946A8
:101000000023481C37D19C44BCF1FF0F3ED90AB1E4
:1010100089F800E040F22711BBE79DF80AC04B1D9C
:1010200060465A0004EB4303022838BF0220441EE6
:1010300040422344BDF808406444CCF1000C034016
:10104000013C04EA0C04B4F5803F01D3F821A0E789
:1010500075B19A1A32609170148082F803B09DF8CD
:101060000C00107101984FEA104C1081A2F806C0D4
:1010700004FB0134AAE758F8210028B190F804B025
:10108000B34504BF80781B180139BAE7DBB2E645E7
:101090008AF804303CBF5FFA8CFE01227B1CA2D18F
:1010A0000AB189F800E0142640F6FF6A58F8267065
:1010B000B7B9013EFAD2601B05B0BDE8F08F00233E
:1010C000E5E707EB410309F101093846A3F80AA057
:1010D000FFF71EFF5FFA89F1BB788B42F1D8E8E792
:1010E0004FF00009F6E700BFE0190020DC190020EE
:1010F00038B54FF6FF7302460380184B03EB8103AC
:10110000986DA8B184780379B3FBF4F104FB113333
:10111000DBB2194600EB4105B5F90A50002D0EDB94
:101120000131B1FBF4F504FB1511C9B28B42F1D1C9
:10113000002038BD6381BDE8384012F0D4BF00EB19
:1011400041046389C3F30E031380C278002AF1D1EE
:101150004FF4D5711720FFF751FB00BFDC190020B9
:101160001C4B03EB810370B59C6D054644B303042F
:1011700004D54FF4DC711720FFF740FB01462046F1
:1011800012F094FFFF28014604D02046BDE87040CD
:1011900012F0A9BFA078B5FBF0F300FB1353DBB24C
:1011A00019460A1D04EB4206B6F90260002E09DB5F
:1011B0000131B1FBF0F200FB1211C9B28B42F0D148
:1011C000002070BD8B4201D00023E37004EB42028B
:1011D0005580DAE7DC190020094B03EB8103014657
:1011E00010B59C6D204612F061FFFF28014604D027
:1011F0002046BDE8104012F076BF002010BD00BFB1
:10120000DC190020F8B5104B074603EB81030146BB
:101210009C6D204612F04AFFFF28054611D0E28857
:10122000238953EA024606D00146204612F05BFFAE
:1012300001463846B04720462946FFF769FE0020A0
:10124000F8BD0520FCE700BFDC19002038B50E4BC7
:101250000446827903EB8203986D08B9052038BDF6
:101260008278E1799142F9D24B1CE37100EB4103A2
:101270005D89B3F90A30002BF3DBA58012F033FF50
:1012800020600020EBE700BFDC19002070B50446A9
:1012900010F003000E4603D04E211820FFF7AEFADF
:1012A000FFF716FE054624B1034831460460FFF7F8
:1012B0000FFE284670BD00BF881A00202DE9F14FAF
:1012C000DFF870B01E4607460D46DBF8003090464A
:1012D0009DF828A09DF82C901BB960211820FFF7DD
:1012E0008DFA52460921404612F060FD4A4684B20A
:1012F0000921304612F05AFD81B2DBF8000021448A
:1013000012F0A8FE386018B9286001B0BDE8F08F6F
:1013100004445346414609222C60386812F009FD06
:101320004B4609223146286801B0BDE8F04F12F063
:1013300000BD00BF881A002070B50E46044612F0AA
:1013400048FD0546304612F044FD044B2A1821465C
:101350001868BDE8704012F0A2BE00BF881A0020D5
:10136000024B186808B112F069BE7047881A002055
:101370001F2AF8B5044613460ED89200033222F015
:101380000303B3F5803F2DD2184DACB1A00710D0A8
:101390005F210920FFF732FAFF2B4FEA420204D9FE
:1013A000FF339A42A8BF1A46E8E77C2AB8BF7C22DE
:1013B000E4E729706C602B8122F0030228230127C7
:1013C000120403FB01F06B680025120CEEB2B1426F
:1013D00000D8F8BD14B126181F705E6010440135A6
:1013E0002833F3E74FF0FF30F3E700BF8C1A0020FB
:1013F000154A002170B553681578C8B2854203D8E4
:10140000AB210920FFF7FAF91C461846013114F800
:10141000286B0EB92346F0E7002199700124128948
:10142000996103F126055C709208D96103F11E04ED
:10143000596824F8022FA54243F8041F1144F8D13B
:1014400000234361037070BD8C1A00200A4B1B8976
:10145000B3F5FF7F4FEA930006D25A089B1A9BB25E
:10146000984238BF18467047B3F5EE6F01D8FF2297
:10147000F4E740F27263F3E78C1A00204B782DE911
:10148000F04106460C4602F0040702F0FB05E3B10A
:10149000A5BBFF23A3707B0804EB57073A7D032A03
:1014A00002D1022D18BF0133E2180121117503F199
:1014B0000C01002204EB830324F811205B68A27066
:1014C00030463360B280BDE8F081002DE1D10123C8
:1014D00001F11E028D6120464B7004F1260C1A4B5F
:1014E000CD611B8949689B0822F8023F944540F86A
:1014F000041F1944F8D100236361CAE7D1F80480BE
:1015000014220021A018617018F077F90E4B1B8986
:10151000B3F5FF7F0FD25A089B1A9BB208EB030169
:10152000C4F804802384A1606284C4F80C80A3847E
:101530002161E284ADE7B3F5EE6F4FF0FF02EBD926
:1015400040F27263EAE700BF8C1A00202DE9F843ED
:1015500005460C46F7200521914612F027FC061E91
:1015600021DB1DB906FB04F0BDE8F88315F0030785
:1015700003D098211920FFF741F9DFF83080C8F82F
:101580001050A8F81460BBB29C42EBD9B8F81450C4
:101590004B46D8F810000522F72107FB050001375C
:1015A00012F0C7FBEFE74FF0FF30DDE7A01A002095
:1015B00007B5CDE900230B4603490246081D12F08A
:1015C000F0FE03B05DF804FBB81A002013B5064C1A
:1015D000CDE900230B46024604F1080104F10C009A
:1015E00012F0DFFE02B010BDB81A002008B54B1E85
:1015F000032B03D923219020FFF700F90028054A87
:101600000CBF05230C2303EB8103053323F00103F7
:10161000137008BDC81A00201F4B4FF0FF30002187
:101620001A6801235360C2F80803C2F80015C2F813
:1016300004351A4A12685360C2F80803C2F800154C
:1016400040F6FE71164A1748C2F80815B0F9002096
:10165000002A0CDB510902F01F02934001F1200225
:10166000114941F82230BFF34F8FBFF36F8FB0F9AC
:101670000030002B09DB5A09012103F01F039940B8
:1016800002F16003084A42F82310054B40F6FE724F
:10169000C3F80825704700BF702600206C26002084
:1016A000002008508426002000E100E00A46064899
:1016B0003D2302F8033BC368C1F80330036953605C
:1016C00043699360704700BFD01A0020024B5A8CC8
:1016D00002435A845B6A1847D01A0020014B00214C
:1016E0005B6A1847D01A002010B5154C0EF01EF892
:1016F0000DF082FA208DFFF7F1FF237E63B12246C1
:10170000104904F1190052F80C3BE3606368536020
:10171000A368936015F096FF0B4B228D93E80300AE
:1017200007F084FE236B188807F006FEA36B94F87D
:10173000341094F835009847002384F83C3010BDED
:10174000D01A0020AD160000FC1A0020034B93F8BD
:101750003C300BB1FFF7C8BF704700BFD01A002064
:1017600070B5254C0646256B636C95F89420236470
:1017700094F8483095F8751003EB82002EB9FF28D5
:1017800003D195F874308B4201D00DF04BFE95F8E3
:10179000943053B3E06C0EF0ABF894F82C30E16C5D
:1017A000003B206C18BF012384F87030D5E93C233E
:1017B000C4E918230DF0A4F95EB995F87530033B20
:1017C000012B2B8F8CBF00202820184480B20EF0F4
:1017D000EFF8A88E0DF098FD95F8741000200EF02B
:1017E0002FF9022384F83C3070BD206C0EF080F895
:1017F0000DF002FAE0E700BFD01A00200138C0B2B5
:10180000032808B504D940F29D410620FEF7F6FFF3
:10181000014B185C08BD00BFF313040008B5094B69
:1018200093F83C20022A04D040F24F212720FEF7F3
:10183000E5FFDA7A42F00102DA72BDE80840FFF70C
:1018400053BF00BFD01A002003280B4B10B504462D
:1018500005D19A6FD278022A01D1002010BDD86F2D
:1018600012F036FB0028F9D1032CF6D005F09AFED1
:1018700080F00100C0B2F1E7D01A002038B52F4C3B
:10188000054694F82C307BB101280DD1638C1807E4
:101890000AD5A26F137803F00303032B04D1D37886
:1018A000022B01D1012038BD0129FBD8D4F88030AA
:1018B000284698470028F5D094F834000028F1D144
:1018C00094F82C301BB9012D03D01846EBE7002DFE
:1018D000E9D194F8845025B194F88500FFF7B4FF5E
:1018E0000546606C15F002FED4F88830ABB9B4F848
:1018F0008C30B3FA83F35B0994F82C10628C71B1CD
:1019000091070CD5A26F137803F00303032BC9D101
:10191000D078023818BF0120C5E70123ECE7002A80
:10192000C0D1012814BF002303F0010343EA0500DE
:1019300080F0010000F00100B5E700BFD01A0020E0
:101940002DE9F043334C85B00746884694F83C3087
:10195000012BDEB204D040F204512720FEF74EFFE7
:10196000256B02A8A16F12F044FD95F884309DF814
:10197000089053B10021042085F88410FFF7A6FEDB
:1019800094F82C300BB185F88660B9F1030F29D09B
:10199000BDF80C30002B18BF022695F8943085F85E
:1019A0008A60CBB194F82C30216B003B94F84860EE
:1019B00091F8750018BF012384F87030D5E93C23F5
:1019C000C4E91823FFF71AFF0022034612490092C8
:1019D000022032460CF0C2FF6FB105B0BDE8F04303
:1019E000FFF782BE95F88A301BB9A16F0220FFF77E
:1019F0006DFE0326D1E7B8F1000FEED03946384628
:101A0000FFF73CFF0028E8D105B0BDE8F043FFF741
:101A1000A7BE00BFD01A0020201B002010B5094C23
:101A2000D4F8883023B940F2F6412720FEF7E6FECD
:101A3000B4F88C201846216C033211F0E7FB2064C7
:101A400010BD00BFD01A00202DE9F341714C0023D6
:101A5000256B8DF8053095F8741058B995F89420D9
:101A600094F8483003EB8203FF2B03D195F87530CF
:101A70008B4202D0FF200DF0D5FC95F88A30032B65
:101A800000F2BB80DFE803F0023598AB94F88E30AB
:101A90006148ADF80630A5F8643005F059FD58B13D
:101AA0000121A36F85F88510DB781B2B1DD105F173
:101AB00010000DF003FD18E00DF105020DF1060117
:101AC000E06F12F0ADF9A06798B195F8CF3083B907
:101AD0009DF805302BB9038001218370A06F15F0AC
:101AE000F5FCA36FBDF806205A70012384F88F30EF
:101AF00001E04A4BA367A76F95F88B203B78D20093
:101B000003F0030603F0F30302F008023046134328
:101B100095F88C20920002F0040213433B70FFF70B
:101B200093FE3B7823F0100343EA00133B70A06F51
:101B300090F8018015F0DEFC95F89330071E18BF71
:101B40000127002B5CD0B8F1000F59D0E06C0DF0EC
:101B5000CFFE94F82C30E16CB3FA83F3A06F5B09ED
:101B600084F87030D5E93A23C4E918233A460EF0D8
:101B7000FFF818B9A16FE06C0CF056FF304612F078
:101B800065FCE88E0DF0C0FB95F87510012001256D
:101B90000DF056FFA06F84F8935015F0A7FCA36FCB
:101BA00084F884001B7884F83C5003F0030384F825
:101BB000853002B0BDE8F081B5F864300DF1050262
:101BC0000DF10601E06FADF8063012F029F9A067BB
:101BD00000288AD140F2F1212720FEF70FFE0E489F
:101BE00005F0B6FC10B940F2FB21F5E7A36FDB78F6
:101BF0001B2B7FF47AAF012159E740F20931EBE763
:101C0000A06F0DF075FE0CF0F7FF3946A06F17F0CE
:101C100047FBB3E7D01A0020481B0020601B0020C0
:101C2000064B10B593F83C2002F0FF0422B91C7655
:101C300007F0F4FB204610BD0C24FBE7D01A00206F
:101C40000A4B0B4A70B506460D461A60FFF7E8FFCF
:101C500018B1F4212720FEF7D1FD064C012104F133
:101C6000900015F033FC6664E56470BD78050020D3
:101C700000240000D01A0020024B012283F8942097
:101C8000704700BFD01A0020F0B585B09A4C02AE64
:101C90000A9F86E8030094F83C1001F0FF0511B993
:101CA0000AB103B127B940F283112720FEF7A6FD40
:101CB00096E8030004F12C0C84F8945084F8345016
:101CC00084F8955084F8355084F8935084F88F50F8
:101CD000658425856262C4F88030A7638CE80300C0
:101CE000256B0DF00DFC0CF087FF95F97C000DF0D5
:101CF0006DFCAE6A286A0DF06FFC30460DF0DCFD1D
:101D000095F8A4000DF072FC94F82C60002E40F0C1
:101D1000A78016F016FB95F87420784B4FF47A7173
:101D200053F8223003F5FA73B3FBF1F35433191867
:101D300030460DF0E7FC724B724E05F5847718685B
:101D40000DF0C0FD6B69E367AB69C4F8983005F12D
:101D5000F8031868083353F8041C3246BB4203C228
:101D60001646F6D15968684AD5F8080103C2226BB5
:101D700092F88E3092F87460A3F12601012903D9FC
:101D800092F88F10262976D194F82C30002B6FD141
:101D900092F80A12304612F049FB064605F13C075C
:101DA0003146384615F025FD314615F006F8B5F8F0
:101DB000483095F87510834228BF0346384684F8AA
:101DC0008E3015F0C4FC95F8751095F894700429C0
:101DD000B5F8506008BF032114F0EFFF0FB90430CD
:101DE00080B2864228BF0646F6B284F89C6006F0B0
:101DF0007FFB28B106F082FBB04238BF3046C6B246
:101E000094F82C7084F84860002F5AD195F89330DC
:101E10008BB1012395F8740084F87030D5E93A232A
:101E2000C4E91823FFF7EAFCFB22034635490420E6
:101E300000970CF093FD0120FFF706FE00232360BE
:101E40006360A360B5F8883063802B88238095F8A1
:101E5000A4302371AB6F0BB101221A6005B0F0BD45
:101E600016F06FFA95F8752000F17601012060E711
:101E700092F8A2128EE7213B012B11D8242911D010
:101E800094F82C30CBB192F82E315A0713D413F0BA
:101E900001017FF47FAFC3F340035B00D9B279E760
:101EA00024290AD194F82C303BB192F82E3192F8C3
:101EB0006D201340E9E704216CE7032E08BF0426D8
:101EC0006CE795F8943093B1012395F8750084F888
:101ED0007030D5E93C23C4E91823FFF78FFC0022BA
:101EE000034608490092022032460CF037FD0120DB
:101EF000FFF736FCA2E700BFD01A0020301704001D
:101F000078050020201B0020381B002008B5114B4D
:101F100093F83C201AB9BDE80840FFF7E5BB93F8F9
:101F20002C2042B993F83C30012B12D040F22D21E5
:101F30002720FEF763FC93F83C20022A02D040F2EF
:101F40003121F5E71B6BD3F8D801BDE808400DF04F
:101F500003BD08BDD01A0020014B1876704700BFA2
:101F6000D01A0020014B93F893007047D01A00203C
:101F7000044B93F88F0018B993F82900C0F30010B0
:101F8000704700BFD01A0020024B93F82900C0F31D
:101F9000C0007047D01A0020014B93F8950070479D
:101FA000D01A00202DE9F043314D85B004460F468C
:101FB00002A8296C2E6B12F01CFA14F00109BDF86E
:101FC0000C8004F0020428D0002385F89D3094B1E1
:101FD000FFF724FD0DF1020201A9D5F8980012F0D7
:101FE00023F8019812F006F8012238604146D5F82E
:101FF000980011F0AEFFB9F1000F0BD0D6E93C32DA
:10200000013342F10002C6E93C3296F88C300133CC
:1020100086F88C3005B0BDE8F08395F89D30032B31
:1020200020D801A252F823F0CF1F00003920000071
:102030005320000053200000002CEBD0FFF7EEFCF3
:1020400000224146D5F8980005B0BDE8F04311F0F4
:1020500080BF002CDED0D5F8980005B0BDE8F04375
:1020600011F0DEBF40F2A2412720FEF7C7FB00BF00
:10207000D01A00202DE9F04F0023B74C87B08046DE
:102080008A46276BCDE9023394F83C30022B04D00A
:1020900040F28B512720FEF7B1FB216C04A812F00F
:1020A000A8F9BDF8146097F89430B8F1000F00F06B
:1020B00059819DF810909DF811B0002B3AD00CF08A
:1020C000A9FDB8BB6EB197F88C3003F001035B45F6
:1020D0000BD1012384F83530FFF706FB07B0BDE8CC
:1020E000F08FA4F88C60002006E0A4F88C603146E4
:1020F000D4F8980011F00DFF238D9DF8122043F4C1
:102100000073C4F88800238597F88B3003F001032F
:102110009A4200F0C880256B95F88A30002B3FD09A
:10212000022B13D102A9E06F11F09CFE38B940F2E6
:102130003B41AFE7A4F88C60002ED4D0D7E7D5E9B7
:102140003A32013342F10002C5E93A32002194F8F3
:102150002C3085F88A103BB195F8863023B11020D9
:1021600085F88610FFF7B2FA95F885309BB100210B
:1021700085F8851005F0FEF9002110B940F25241B2
:1021800088E70820FFF7A2FAD5E93A32013342F195
:102190000002C5E93A3295F88B30013385F88B306F
:1021A000238D002543F40063238597F88C3003F0DA
:1021B00001035B4579D0002648464FF0000912F034
:1021C00045F997F89330B3B194F82C3097F8740030
:1021D000B3FA83F35B0984F87030D7E93A23C4E992
:1021E0001823FFF70BFB002203465C4900920420F2
:1021F000FB220CF0B3FBBAF1000F00F0DE800DF013
:1022000055FC002E40F0F1804FF00109238D5A0655
:1022100006D44020FFF762FA238D43F04003238564
:1022200085B194F82C3043B1B4F80720B4F80530E8
:102230001343B7F88820134304D0B4F809300133AE
:10224000A4F80930B8F1000F00F0D480B4F80530DC
:102250000133A4F80530002384F89530404807F096
:1022600059F8029830B111F0C5FE216B00220272BC
:1022700006F0A6F8039B33B1216B00221A720C22E0
:10228000039806F06BF8B9F1000F7FF425AF238DAA
:102290001B063FF523AF8020FFF720FA238D43F084
:1022A000800323851AE745467FE7B9F1020FD4F88A
:1022B00030B012D8B9F1000F1DD19BF88C3001332A
:1022C0008BF88C30002E3FF476AFDBE93C320133E3
:1022D00042F10002CBE93C326DE7B9F1030FECD1DA
:1022E000238D0120216C43F480538BF884002385D7
:1022F000FFF7ECF9E1E7002EDFD0238D9BF894B0D7
:1023000043F4805323850DF00DF8042894F89C3095
:1023100007D1BBF1000F0CBF1F221B22934228BF25
:1023200013469E420BD8D4F88830002B3FF443AFBD
:1023300094F894306BB12020FFF7D0F93BE794F884
:102340003430012043F0100384F834300FF0FCF9EE
:1023500031E7464630E700BFD01A0020201B00209E
:10236000FC1A00200BB10CF069FC94F89530013395
:1023700084F89530238D43F48063238597F8753076
:10238000033B012B11D801200FF0DEF90CF0CAFF3E
:10239000011FD1F1000949EB01091B2E4FF0000686
:1023A00098BF4FF0000935460BE706F0A1F88146CB
:1023B0000028E8D10646054603E794F89510012069
:1023C000FFF75CFA00287FF41AAF1EB103A90120C1
:1023D000FFF7E8FD0020FFF737FB002E3FF416AFB4
:1023E00003A90220FFF7DEFD10E703A90320FFF792
:1023F000D9FD09E7B4F807300133A4F807302DE719
:102400001D18000075200000411900004D17000044
:102410000D4B0321186830B50D4690F8A52090F8B3
:102420004B400132B2FBF5F303EB4303D31ADAB2AC
:1024300044FA03F3DB0703D4013911F0FF01F0D1B3
:1024400080F8A52030BD00BF701B0020014B18682C
:1024500012F0CDB8701B002008B505F0EDFC014B63
:10246000187008BD10050020054B10B41C68827C54
:10247000836804F1420194F8410010BC14F052BB8F
:10248000701B00202DE9F041054617461E460C46FC
:1024900019B1AB6853BB01201FE0DFF86080D8F8AA
:1024A000000000F15B0390F85A2000F1780190F8E9
:1024B0007E0014F037FBD8F804305A79D8F8003091
:1024C000082A04D093F84E40A21A5442544193F87B
:1024D0005630012BDDD023B1002000F00100BDE813
:1024E000F0810028D5D1002CD3D1F5E7002FD2D12F
:1024F000002EF1D02846FFF7B7FFEEE7701B002053
:10250000024B18686C3002F05FB900BF701B0020EE
:1025100038B50F4CFFF7F4FF656802F00FF96368F8
:102520002860186820B940F2EC413220FEF766F9C5
:1025300012F054FA10B940F2EE41F6E70DF0D8F976
:1025400000200DF035FA636804221A7138BD00BF0F
:10255000701B002038B5194D04466B681B79022B9F
:1025600004D940F6FA013220FEF748F92B68027CC4
:1025700083F8A4201A44C168996692F8242183F84C
:1025800020214268C3F88820037A022B0ED00CF079
:10259000B7FF0DF03BFA0CF045F909480DF092F940
:1025A00008480DF089F908480DF016F8637C23B14E
:1025B0002B685B6E0BB101221A6038BD701B0020C6
:1025C0008405002055555500D6BE898E38B5054680
:1025D0000C4604F0E3FD420704D4A37803F0E003C3
:1025E000402B30D004F0DAFD830704D4A37803F045
:1025F000E003202B27D0237803F03F03242B22D89D
:102600000CF096FE94F90030A278002B637802F06B
:102610001F02B4BF4FF496711E2143EA02234B43BD
:102620001A1AB2F5877F0ED398420CD8074B294669
:1026300018682388A0F82131A37880F82331BDE8F9
:10264000384012F0C5BC002038BD00BF701B002010
:1026500008B5074B93F900207F2A04D140F292314C
:102660003220FEF7CBF802707F221A7008BD00BF3F
:102670001005002010B504788EB004F00F0404A9F2
:10268000224612F0EAF9FFF7E7FE042C33D11B4C87
:10269000059A2368107893F8781088422BD15078E7
:1026A00093F87910884226D1907893F87A1088426E
:1026B00021D1D07893F87B1088421CD1107993F8FF
:1026C0007C10884217D1517993F87D20914212D124
:1026D0009DF8212093F87E309A420CD10DF10F0025
:1026E000FFF7B6FF9DF90F3004A90093237B227AF0
:1026F000606812F085F903200EB010BD701B002039
:102700002DE9F04387B0194C06460F460DF117002E
:10271000FFF79EFF65682B79032B20D02B79062BC2
:1027200014BF4FF001094FF00309236803F1420879
:102730000CF0F8FD9DF917303A46CDF80C90314673
:102740000293237ACDE900034346284602F0C2F8FB
:1027500040B1606807B0BDE8F04302F057B84FF0F1
:102760000009E2E707B0BDE8F08300BF701B00205E
:102770002DE9F043304D87B004460F466E68B379BB
:102780008BB3D5F8008098F8953033B90378002BD7
:1027900014BF0223012388F895303379062BDAB26F
:1027A00025D0072A0CBF4FF002094FF001090DF1A7
:1027B0001700FFF74DFF0CF0B5FD9DF91730CDF870
:1027C0000C903A46029321462B7ACDE9000308F19A
:1027D0004203304602F07EF828B16378DB0609D464
:1027E000686802F013F8002007B0BDE8F0834FF0EE
:1027F0000309DCE7A1690220FFF7E8FEB8B1002277
:102800002B6883F8962062696AB15178C1F303118D
:1028100083F897101178527802F00F0241EA0222F1
:10282000A3F89820E0E7FF2283F89720DCE76868A8
:1028300002F01CF8D7E700BF701B002010B504465B
:102840008AB0FFF709FE237803F00F03072B02D0AD
:1028500001200AB010BD6946204612F091F9684681
:1028600012F036FA9DF80030002BF1D19DF80130BE
:10287000DB07EDD50C4C019922689DF8110002F19F
:10288000780392F87E2014F04DF90028E0D02068FB
:102890000121A03013F0C6FEFF216846FFF768FF54
:1028A0000130C0B2D5E700BF701B00200D4A53684D
:1028B00010B51979022904D841F2AD413220FDF753
:1028C0009DFF1979082902D941F2AE41F6E71B793B
:1028D000126903F180439268033BBDE8104052F84F
:1028E00023301847701B002010B5054C637A2BB1BC
:1028F0000DF08CF80BF096FF0023637210BD00BF43
:10290000701B002010B5054C23792BB10DF07EF81B
:102910000BF088FF0023237110BD00BFC0220020F0
:1029200010B5094CFFF7E0FF012263681A7100231C
:102930002268A2F8213182F82331FFF7E1FD2068F7
:10294000BDE8104012F011BD701B002008B5044B0B
:10295000586801F08BFFBDE8084011F055BE00BF7C
:10296000701B0020062938B51D469DF8104019D966
:1029700008291BD802B18CB143689BB912B94378BE
:10298000DB0615D40B4B5B68186812F048F800B1F1
:1029900034B92DB904F0BCFF00F00104204638BD65
:1029A0000120F9E79DF814402C43F7E70024F5E7F0
:1029B0000124F3E7701B002038B50D1E04460CBF40
:1029C00005200320104405F0B9F8094B587270B186
:1029D0005DB9033C012C8CBF502455240BF0F6FE4E
:1029E0002046BDE838400DF005B84024F6E738BD74
:1029F000701B0020F8B53D4CFFF782FD656801F0C3
:102A00009DFE63682860186820B940F24941322071
:102A1000FDF7F4FE11F0E2FF054610B940F24B411C
:102A2000F5E7236893F8A6306BB123681A6D93F825
:102A3000A710C3F8102193F854200A4383F85420B8
:102A4000002283F8A620206890F8A430034493F86D
:102A50002471636880F820711A7952B11B79012BB7
:102A600007D0002112F0B4FA18B9BDE8F840FFF71A
:102A700057BF23681E4A93F8A530D05C0CF0B6FD12
:102A8000236893F8A420134493F82461022E2BD0DA
:102A900004D8012E05D040F2FA71B8E7F31E012BDD
:102AA000F9D801F045FE31460CF0BCFC28460CF08C
:102AB0001FFF314601200CF0C3FD7B1E2A4638461D
:102AC00059425941FFF778FF62680821002351718C
:102AD00021722168D3801372E37281F89530A3725A
:102AE000237303231371F8BD0D20DCE7701B002056
:102AF000F7130400124A10B5536800B931B91846EB
:102B000001F0B4FEBDE81040FFF70ABF19790829AB
:102B100004D841F27D413220FDF770FE19790C296D
:102B200002D941F27E41F6E71B79126903F1804335
:102B30005268093BBDE8104052F82330184700BFE7
:102B4000701B002010B50B4C0521206812F040FAD4
:102B500030B9606801F08AFEBDE81040FFF7E0BEC2
:102B60002368012093F820110CF06AFF63680B22A0
:102B70001A7110BD701B0020054B1A6892F8542082
:102B8000920703D05B68186801F002BE586970476D
:102B9000701B002070B5304D06466B681A79032A09
:102BA0000BD01A79042A08D0FFF7E6FF044640B993
:102BB00041F2B5313220FDF721FE186811F00EFF09
:102BC000F4E72B6893F8543013B941F2BB31F1E7C5
:102BD00076B114F046FC30B16B681A79022A0ED82F
:102BE00041F23B31E6E7204614F056FC0028F3D1D1
:102BF0006B681A79022A17D841F29B31DAE71A7901
:102C0000082A02D941F23C31D4E71B7920462A69CF
:102C100003F180431269033B52F8233098470C2894
:102C200012D941F2CE31C5E71A79082A02D941F208
:102C30009C31BFE71B792A6903F180435269033B4A
:102C400052F823309847EAE72B69DB68BDE870400B
:102C500053F82030184700BF701B002038B5FFF72D
:102C60008BFF044620B940F213513220FDF7C6FD18
:102C70000B4DFF202B6893F820110CF0D3FB20465E
:102C80000CF036FE2B6893F82031033B012B94BFE8
:102C9000282000200CF08CFE6B6807221A7138BDCA
:102CA000701B002038B5134C0E20236893F82011B8
:102CB0000CF0B8FBFFF760FF054620B94FF4A061A8
:102CC0003220FDF79BFD0CF013FE236893F82031B2
:102CD000033B012B94BF282000200CF069FE2368E1
:102CE0002A46002193F82001FFF766FE6368082258
:102CF0001A7138BD701B002010B5074C606801F0D8
:102D000085FDFFF7A9FB20680021A03013F08AFCA5
:102D1000BDE81040FFF704BE701B002007292DE915
:102D2000F043064687B00F4690464568634C23D172
:102D30001DBB002A49D1D4E9001091F8543013F09A
:102D4000030218BF012213F00403827103D0337809
:102D50005A1E53425341C37191F894304BB12368CA
:102D6000D3F89000503015F0D8FA10B963680122FA
:102D70001A7207B0BDE8F0833DB32946707C11F0AC
:102D800074FB072F814661D1637A63B158B1B8F102
:102D9000000F52D0656813F009FF636868715B79B2
:102DA00023720123A37263685879082855D171688A
:102DB000707C15F0A8FA6268054671680532707C6F
:102DC00004F0ACFD6368002859D0236893F85400E0
:102DD00010F003000AD093F84C3039460195304684
:102DE0006268927900924246FFF7BCFD62682368F0
:102DF000907193F8540010F0040009D093F84D300E
:102E0000394601953046D27900924246FFF7AAFD35
:102E10002B4B65681B68E8711BB1414630469847EB
:102E2000287272686AB3717C236883F87E10116817
:102E300099679288A3F87C2023E0236893F82011F7
:102E40000129A7D1284604F04BFE6072637A002B5B
:102E5000A9D0B9F1000FA6D09CE704AA0DF10F018B
:102E600004F026FE20B940F6A7313220FDF7C6FC5B
:102E700004A99DF80F0015F046FA0546A5E7D8808D
:102E800018726268137AB3B9D388003B18BF012364
:102E9000B06800283FF46DAF072F7FF46AAF517917
:102EA00008293FF466AF002B3FF463AF04F036FE11
:102EB0000123E3725DE70123EAE700BF701B0020F6
:102EC000800500202DE9F84FDFF8C0A091460446A8
:102ED0008846DAF800201F468168807C11F0C5FA28
:102EE00092F848609AF80930054686F00106002BF2
:102EF0003AD092F854305B071DD592F84D30D3B1DB
:102F000092F84EB0BBF1080F23D0584604F0E4FC11
:102F10003043C6B245B39AF80B303BB313F050FEC2
:102F2000002304468AF80B3089F8004088F80050E6
:102F30003E70BDE8F88F636823B1DAF8043093F887
:102F400005B0DFE7DAF80430186811F068FD0028F2
:102F5000F3D1CDB19AF80A1031B9A06804F0C0FDE0
:102F600004468AF8090038B90024DDE7A16858460C
:102F700004F08EFE0446D7E713F018FE0828F3D0BD
:102F8000DAF804305871CFE72C46CDE7701B0020EB
:102F90002DE9F043874D87B004462E6896F85730E8
:102FA000002B47D06F68BB7923B9FA7912B93A7A06
:102FB000002A3FD094F80080B8F1010F72D0B8F128
:102FC000020F00F0D380B8F1000F33D196F85420EF
:102FD00091072FD00BB93B7A63B3637813F0100FCE
:102FE000C3F300170CBF012208229A4322D100220A
:102FF000A3688DF814208DF81520002B47D00DF113
:10300000160305AA0DF115012046FFF75BFF2B689B
:1030100093F841609DF8143083B92046FFF724FAF5
:1030200070B92B6893F85530023B012B02D89DF8FC
:10303000153083BB032007B0BDE8F08346F00206DD
:103040005FB30DF117004FF00008FFF701FBD5E962
:10305000003903F142070CF065F99DF9173032464B
:10306000CDF80C80214602932B7ACDE900033B4634
:10307000484601F02FFC0028DCD0A1690120FFF7B1
:10308000A5FA0028D6D02B6883F896803BE0FF266F
:103090008DF81630D4E7FE26D2E731462046FFF7FA
:1030A0002FFBC7E796F820216378022A3DD103F071
:1030B0001903192BBED196F854305A0739D40DF1A3
:1030C0001700FFF7C5FAD5E9003703F142060CF007
:1030D00029F90023FF22214603939DF9173002931B
:1030E0002B7ACDE900033346384601F0F3FB002884
:1030F000A0D0A1690120FFF769FA00289AD02B68B7
:10310000012283F896206269002A4ED05178C1F3DB
:10311000031183F897101178527802F00F0241EAF8
:103120000222A3F89820022085E703F01803182B49
:10313000C0E7616800232046B1FA81F11A464909C7
:10314000FFF7A0F900283FF475AFA3692A689B78C0
:103150001F2B04D892F84930002BB0D16AE703F056
:10316000E003402BABD192F84A30F5E796F85430A3
:103170009B073FF45FAF637803F01803182B7FF4CD
:1031800059AF0DF11700FFF763FA0CF0CBF80023ED
:10319000FF22214603939DF9173002932B7ACDE944
:1031A000000306F14203384663E7FF2283F89720C5
:1031B000B9E700BF701B0020014B586801F056BBF7
:1031C000701B00202DE9F04F044689B0062900F25B
:1031D000C580DFE811F06000E7000700C300C3000E
:1031E000C30026006E4D0CF0A1FA2F6897F85430FA
:1031F000980714D06E68B3798BB10DF11F00FFF7FB
:1032000027FA9DF91F3002222146029330462B7A7D
:103210000193FF23009307F1420311F0E1FB032028
:103220001FE05F4D6E68B379002B00F097802F6828
:1032300097F85420910717D50DF11F00FFF708FAF2
:103240009DF91F3030460622029321462B7A0193C6
:10325000FF23009307F1420311F0C2FB0023092072
:103260002B7309B0BDE8F08FD30777D5570701D589
:103270000CF05CFA0DF11F00FFF7EAF99DF91F2031
:103280002B6802922A7A42330192FF220092062290
:1032900021466868C1E7424D2B6893F854205607D1
:1032A00037D56968CA79002A33D0426893F85B0041
:1032B0001678864255D1567893F85C00864250D1F4
:1032C000967893F85D0086424BD1D67893F85E00ED
:1032D000864246D1167993F85F00864241D15079F3
:1032E00093F8602090423CD1627C93F85A00101A07
:1032F0004242424193F8560001284ED0002A4CD158
:1033000093F84E30082B02D04A799A4245D00CF0FF
:103310000DFA6E68B379002B3DD02F6897F85420D2
:10332000930720D50DF11F00FFF792F99DF91F308B
:1033300030460022029321462B7A0193FF2300930B
:1033400007F1420311F04CFB012309202B736B683A
:10335000DA79002A85D19B79002B82D10CF0E6F92D
:103360005DE70022C6E7D60715D5500701D50CF05A
:10337000DDF90DF11F00FFF76BF99DF91F202B6898
:10338000214602922A7A42330192FF2200920022C1
:10339000686811F025FB0320D9E70A20D7E700BFB2
:1033A000701B0020644D81682A68807C11F05DF8F4
:1033B00092F854306E68074692F84890590796F88C
:1033C00006A096F807B089F0010940F18E8092F8C6
:1033D0004D30002B00F0898092F84E60082E00F0EE
:1033E0008680304604F078FA49EA00005FFA80F9F6
:1033F000002F7ED03046A16804F04AFC06462B68B8
:1034000093F8542093F84180520749D5626893F8A5
:103410005B10107888426ED1507893F85C10884227
:1034200069D1907893F85D10884264D1D07893F890
:103430005E1088425FD1107993F85F1088425AD1AC
:10344000517993F86020914255D1627C93F85A10DB
:10345000501A424242416968497908294DD093F88F
:103460004E30591A4B424B41002E48D1B9F1000F52
:1034700047D02046CDE90423FEF7F6FFDDE904231B
:10348000BBF1000F0AD0296891F8561001294ED0DF
:1034900021B9002A4BD108B1002B4AD10CF046F9D2
:1034A0002B6893F854309B073FF4B9AE0CF03EF90B
:1034B000BAF1000F3FF4B3AE2046FEF7D5FFD5F8C2
:1034C000009000B9FEB10DF11F0048EA4608FFF771
:1034D000BFF89DF91F3002932B7A01935FFA88F3AE
:1034E0000093012209F14203D2E6767976E70026BD
:1034F00085E73E4683E70022ADE70023B4E70120DD
:10350000BEE73046BCE799F85530023B012B3FF649
:1035100086AE002F3FF483AE0DF11F00FFF798F841
:103520009DF91F3002932B7A0193FE23D8E70028E0
:10353000B4D00A2095E600BF701B002030B58BB0D8
:103540000546FEF789FF114B1B6893F8543013F0C2
:10355000060F04D001229621002015F094FE2C784D
:103560006946284604F00F04224611F076FA00223C
:1035700021466846FFF7D2FB21466846FFF722FE48
:103580000446FFF7B1F920460BB030BD701B002098
:1035900030B505468BB0FEF75FFF2C7828466946AC
:1035A000294D04F00F0411F0EBFA2B68072C16D10B
:1035B00093F82011684611F0ECFA00222146684683
:1035C000FFF7ACFB2B6893F82031022B32D017D8D1
:1035D000012B1AD041F236213220FDF70FF993F872
:1035E000542012F0060FE8D093F8A420134493F867
:1035F0002421012AE1D19621002015F044FEDCE7C8
:10360000033B012BE6D8072C19E0062C02D00BD87F
:10361000022C0BD821466846FFF7D4FD0446FFF77D
:1036200063F920460BB030BD072C09D00CF07EF8B2
:103630000324F4E7072CFBD19DF80030012BF7D1D0
:103640006846FFF7A5FCE9E7701B002038B5154D6B
:103650002C6894F84830F3B16FF00043D4E920129D
:103660009A4208BFB1F1FF3F15D00DF067FED4E9D3
:103670002023904299410ED32B6893F848305BB9D0
:103680002D6804F00FFA04460DF058FE064BE4FBDB
:103690000301C5E9200138BD012004F0C5FA002866
:1036A000F9D0EDE7701B002040420F0010B5044632
:1036B000FEF750FF237A032B04D140F62911322064
:1036C000FDF79CF80BB9FEF7A3FE064B1B6893F9B8
:1036D00058000BF07BFFFFF78DF9BDE81040FFF7B6
:1036E000B5BF00BF701B002070B51E4D06462A688E
:1036F00092F8233192F821015F2B4FEA531100F029
:103700003F0097BF184B00245B18DC780BF06EFF6E
:103710002B6893F958000BF059FFFEB12B68224635
:10372000996E01200BF0EEFF2B68214693F896303E
:10373000022B14BFFF2040200BF074FEFFF71CFA91
:103740002B68064693F8951019B902462046FFF7F4
:1037500033F93046BDE870400CF0CAB82246AA21C1
:10376000DFE700BF701B0020F7130400F7B52C4CF7
:103770000746226892F823315F2B4FEA531197BF17
:10378000284B00255B18DD78936E13B10120FFF7FD
:10379000ABFF2368D3F888000CF0DEF8236893F8B9
:1037A0005420910703D593F89610022905D05207AB
:1037B0000ED593F89620012A0AD1042D26D193F82C
:1037C0005930012B0CBF0321042100200CF038F9E3
:1037D000D4E9006318689A36D7B911F020F9636804
:1037E0000746186811F021F921680246304691F821
:1037F000963091F820110091394611F01DFA236896
:1038000083F820510023A37203B0F0BD2946DCE702
:1038100011F017F90146304611F003FAEFE700BF47
:10382000701B0020F713040008B50120FFF79EFF6E
:10383000024B06225B681A7108BD00BF701B002096
:1038400008B50020FFF792FF024B05225B681A7152
:1038500008BD00BF701B002010B50446FEF77AFEBD
:10386000237A032B0AD1194B1B68986E20B140F6BE
:103870003F113220FCF7C2FFFFF736FF237A012BFE
:1038800006D003D9023B012B12D910BDFEF7C0FDB3
:103890000E4C236893F958000BF098FE2368002221
:1038A00083F89520FFF7A6F8BDE81040FFF7CEBEDD
:1038B000064B1B6893F895301BB9BDE81040FFF725
:1038C000BFBFBDE81040FFF7AFBF00BF701B0020B7
:1038D00008B5044B586800F099FFFEF7BDFD0120C4
:1038E00008BD00BF701B002008B5FEF7B5FD054BF5
:1038F00000211868A03012F095FEBDE80840FFF7DF
:103900000FB800BF701B00202DE9F3414C4D002380
:103910000E4607462A6841F27070116D53720B888B
:103920005381CB69A3F57A74844295BF4FF47A70C2
:1039300040F2E240B3FBF0F3B3FBF0F398BF03F5C2
:1039400050639BB213848B8C5384CB8C93844FF441
:103950007F43D3844FF6FF73138517B3012130469D
:1039600013F0B9FC01463078C0092C6894F848304F
:1039700004F11402FBB110F078FDE0B10B68636153
:103980008B88287A938004F10E0208284AD004F12B
:103990000D0104F08DF888B941F204413220FCF7A2
:1039A0002DFF6946686913F05EFB6B6969461878FC
:1039B000C0F38010D9E700236361E2E72C68637BE2
:1039C00004F11A0843F00203637347B30021304641
:1039D00013F081FC0368C4F81A308388A8F8043017
:1039E0002B6893F95810186D04F0FCF928681549F4
:1039F00013F01FFE28681449036D2A301A88A0F8B6
:103A0000092093F89630C37213F01CFE0221286837
:103A100001F030FAFEF774FD02B0BDE8F08104F168
:103A20007800D7E794F87E306373A36FC4F80E3044
:103A3000B4F87C3093800023C4F81A30E383CFE7D6
:103A4000701B0020C74401008344010008B5FEF745
:103A50004BFF044B00205969FFF756FFBDE80840B3
:103A6000FEF7F4BC701B00202DE9F04705468AB034
:103A7000FEF7F2FC2B7803F00F03082B05D04FF074
:103A8000010840460AB0BDE8F0876946284611F0B3
:103A900015F89DF80080B8F1000FF0D19DF80130C5
:103AA00003F00303032BEAD12D4C266896F84D3022
:103AB000002B3BD096F84E70637A002B39D14FF033
:103AC000000906F1780396F87E2001999DF811000F
:103AD00013F028F8B9F1000F01D10028CFD02368E6
:103AE00093F8419003F1420A96F8483023B13846E2
:103AF00004F008F9024638BB52469DF812A002991C
:103B0000504610F0B2FC134606464A46504613F0A3
:103B100009F8E0B120680121A03012F083FDFEF722
:103B2000E3FE29460120FFF7EFFEAAE763685F790D
:103B3000C2E713F03BF80828C1D0C31B2072D3F1B1
:103B4000000949EB0309BCE74FF00109D5E7002E56
:103B500095D00299384604F09BF80028DAD18EE718
:103B6000701B00202DE9F8436D4F0023064689465F
:103B70007869D7F80080037043700BF0D5FE0546D6
:103B800030B90025032004F009FC2846BDE8F8837D
:103B90007C69032E237834D123F00F0343F0030311
:103BA00023700C236370D8F878307869C0F8093036
:103BB000B8F87C30A0F80D3098F87E1013F067FA52
:103BC0000021786915F06CFB3B6893F8482003F1FD
:103BD000420993F84180002A7FD14C462368414630
:103BE0007869C0F80330A388A0F8073013F042FAD0
:103BF0004C4BD3F80C32002B00F084800BF096FD78
:103C0000BFE723F02F032222396843EA4913627089
:103C100043F0050323700B6D1B6AC4F80F300A6D67
:103C2000936A180AE3741B0C2075637592F87E0082
:103C3000138E00284BD04FF0640CB3FBFCF3A3753C
:103C4000D36A002846D06420B3FBF0F3E375C3F3D6
:103C5000072341F270702376D369A3F57A7C8445FB
:103C600095BF4FF47A7040F2E240B3FBF0F3B3FB40
:103C7000F0F398BF03F550639BB263761B0AA376FB
:103C8000938CE3761B0A2377D38C63771B0AA37785
:103C9000D2F89730C4F81F3092F89B3094F8242063
:103CA00084F823300B6D22F01F0293F8A23003F04A
:103CB0001F03134384F8243003F096FA94F8243059
:103CC00003F01F0343EA401384F824306BE740F20B
:103CD000E24CB2E740F2E240B6E793F854205207D4
:103CE0000DD593F84D2052B193F84E0004F00AF828
:103CF000044600283FF471AF4FF001086EE77B687F
:103D00005879F3E7052E7FF440AF3B6821681A6DC0
:103D1000C2F80A10A188D1811B6D83F8098034E7AD
:103D2000701B002000A0085010B500210320FFF7F1
:103D300019FF18B9BDE81040FEF7F2BD074C03218A
:103D4000206811F045F90028F4D0012108460BF055
:103D500077FE636809221A7110BD00BF701B002036
:103D600038B5184D6B68186810F038FE044620B955
:103D70004FF4AB613220FCF741FD6B680A22002151
:103D800028681A7101F076F82B6805201A6D2378DF
:103D900092F8964004EA531404F001042146FFF718
:103DA000E1FE18B9BDE83840FEF7BABD0421286825
:103DB00011F00EF90028F5D02B681B6D83F89640A2
:103DC00038BD00BF701B002010B5114C0C22012122
:103DD000636820681A7101F04DF800210520FFF793
:103DE000C1FE18B9BDE81040FEF79ABD0621206853
:103DF00011F0EEF80028F5D02368012093F8201187
:103E00000BF01EFE236801221B6D83F8962010BD67
:103E1000701B00202DE9F041044690B00D46FEF7DE
:103E20001BFB237803F00F03072B06D00124FFF7B9
:103E3000C3F9204610B0BDE8F0812046A14C06A988
:103E400010F09EFE206806A99A3010F013FF236838
:103E50009DF8181093F89620914248D1032D03D174
:103E600093F89720FF2A13D09DF8192012073ED50A
:103E70000B9993F897004A78B0EB121F37D1097865
:103E800002F00F02B3F8983041EA02229A422ED192
:103E90002A46072106A8FEF741FF6368DA880AB9B7
:103EA0001B7A23B30023089E8DF814308DF815304B
:103EB0008DF81630F6B10DF1160305AA0DF11501B6
:103EC00006A8FEF7FFFF23689DF8146093F84150A1
:103ED00045EA4605EDB29DF818209DF81580012AA7
:103EE0009DF8163008D0022A7AD0002A4BD0FFF76E
:103EF00063F914E0FF25EEE79DF81900226800F051
:103F0000090792F89A10092F02D041B1070706D588
:103F100092F85420500704D463689B799BB901241C
:103F200059E06268D279002AF6D0324606A8FEF738
:103F3000A9FA0028F0D02068A03012F095FB0028E4
:103F4000EAD00C2447E0236893F854309A07E6D06F
:103F50009DF819309B0700F1BC80FF2106A8FEF7F1
:103F6000CFFBDCE706A8FEF77FFA002840F0B4801C
:103F7000236893F85530023B012BD0D8B8F1000FDD
:103F8000CDD0FE21EAE7236893F854309F07C6D0CE
:103F90009DF81930980721D56EB906A8FEF764FA86
:103FA00048B9236893F85530023B012BB7D8B8F1D4
:103FB000000FB4D0FE2563681B7A33B1424B1B68F7
:103FC0001BB10D9808B10F999847294606A8FEF72E
:103FD000CFFB441CE4B2FEF787FC2AE7FF25EAE7A3
:103FE000226892F85420910799D061688979002954
:103FF00095D09DF8197007F0090109298FD1920712
:1040000007F0020762D5002F38D026B30DF1170054
:10401000FEF71EFB00210320FFF7A4FD0646D4E9AE
:10402000003803F142070BF07DF901232A4606A967
:1040300003939DF917300293237ACDE900033B46A1
:10404000404600F047FC76B900283FF468AF60684E
:1040500000F0DCFB63E7002B8AD006A8FEF704FA29
:104060000028D3D184E700283FF459AF2068A0305E
:1040700012F0FAFA0028EAD00B24ACE70DF1170091
:10408000FEF7E6FA39460320FFF76CFD0646D4E951
:10409000003803F142070BF045F901232A4606A92F
:1040A00003939DF917300293237ACDE900033B4631
:1040B000404600F00FFC0EB10028D7D1606800F038
:1040C000D5FB2CE7701B00207C050020002F3FF45F
:1040D00044AF002E3FF446AF29463FE7036D10B5CD
:1040E000044623B94FF456713220FCF787FB0222B5
:1040F000074942721B884381FF2380F827304FF61F
:10410000FF73038513F095FA0023236510BD00BFEC
:10411000C7440100F8B5184F0E4601217861002010
:10412000FDF71EF8054620B940F683013220FCF762
:1041300065FB4FF49472002115F05FFB01210846E6
:10414000FDF70EF8044620B14FF49472002115F0EB
:1041500054FB3B6913B940F68D01E7E7304610F098
:1041600096FA284610F0A2FF24B12046BDE8F84098
:1041700010F09CBFF8BD00BF701B0020014B024A2D
:104180001A617047701B002074060020014B024A20
:104190001A617047701B00208C060020036810B560
:1041A00023B940F66E113220FCF728FB044A136055
:1041B0006C3353601369BDE810401B68184700BF9B
:1041C000701B002008B5044B586800F04FFBBDE899
:1041D0000840FEF7A5BB00BF701B002038B50446A1
:1041E00090F8400000F0FD0004F14201003818BFD3
:1041F000012084F8410003F0FDF994F84030023BBF
:10420000DBB2012B94BF0123002384F8483015D87A
:1042100003F048FC05460DF091F8094BE5FB03015E
:1042200094F84830C4E9200143B1002003F0FCFCBD
:1042300020B940F616213220FCF7E0FA38BD00BF65
:1042400040420F000149363013F0F6B9A544010091
:1042500010B5084C0222636820681A7100F0D8FC7F
:1042600038B9206810F073FB2068BDE8104011F0E9
:104270007CB810BD701B0020013808B5C0B20A4BD5
:1042800041B1032801D8185C08BD4FF4E871332010
:10429000FCF7B4FA032802D803441879F4E74FF482
:1042A00061710620F4E700BFFD13040008B50FF0AC
:1042B0008AFF054AD2E84F3F0133DBB2C2E8413FF3
:1042C0000029F7D108BD00BF881B0020024BA0F1D8
:1042D00008015868FFF7EABF881B00202DE9F84F56
:1042E0001E463C4B0D46934600211A7804689DF803
:1042F00028709DF82C809DF930909DF834A00160C5
:1043000032B9A4F108015868BDE8F84FFFF7CEBFF5
:104310001A2204F1090015F070FA0123A372BBF10F
:10432000060F4FD8DFE80BF00433394E434E3D0003
:10433000E37A23F0130343F01303E372012304F140
:104340000E0241462846237547F6FF7384F81890FD
:10435000E38204F10D0310F015FBE37A5B0736D519
:10436000BA1E04F11C03012A8BBFAA6832681168C7
:10437000E2618ABFE161B28892889A80E776002381
:10438000237215492046BDE8F84F13F055B9E37A7A
:1043900023F0150343F01503CFE7E37A43F010034E
:1043A000CBE7E37A23F0120343F01203C5E7E27A86
:1043B0004AF01A0A22F01B020AF01B0A42EA0A0219
:1043C000E272BBE740F242413320FCF717FAFF23C9
:1043D000E376D4E7881B0020DD4300002DE9F04F91
:1043E00005468DB00C4600200121FCF7F5FE06467F
:1043F00020B94FF4EF713320FCF700FAA83010F029
:10440000DAFD18B196F85430042B2ED1304610F056
:1044100033F950BBB64C04F1080604F10C07AB6A43
:1044200093B92846FFF752FF4FF40073ADF80430FC
:104430009DF80430002063F307009DF8053063F316
:104440000F200DB0BDE8F08FA96A0B68B142AB62D6
:104450004FF000030B704B708B70CB70DFD0B94204
:10446000DDD06068FFF722FFD9E7AF6A37B3A14B11
:104470009F4226D0043B9F4223D007F13B0A4FF0D6
:10448000000802F043FE8146B8F1000F40F00081C1
:1044900002A9504610F074FBB9F1000F16D004F1D8
:1044A0000D00EE7A16F0100613D09DF818600599ED
:1044B00032460EF0ABFE4FF0010828E005F1330A5A
:1044C000DDE74FF001084FF0000ADAE704F11C00C5
:1044D000E7E7002FEFD09DF80830022BEBD0014624
:1044E00095F83230E522504612F03FFF95F8323011
:1044F00006460344504685F8323012F02EFF95F8F8
:104500003280A8EB0000D0F1000848EB0008B9F1B8
:10451000000F00F0C180EB7AD90604D45B216AE772
:10452000C8460026F7E713F0040FAA7A95F80DE0C5
:1045300004F1060005F10E0C30D0E97EFE292DD1E4
:104540001123E27084F805E02370130102336370D5
:1045500001232371D5F80E30C4F80630BCF80430BE
:1045600083802173EB69C4F80D302B8CA4F81130D3
:104570002B7EE3745E4E06F1080A57453BD1237942
:10458000022205F1280062F34613237110F016FA97
:1045900002272846FFF79AFE04263FE006F10A03A9
:1045A0000321E27053432170023384F805E0637005
:1045B000D5F80E30C4F80630BCF80430838026737A
:1045C00026442B7E7373EA7A12F0080002D004238B
:1045D0002371CFE702F00303032B01D12071C9E758
:1045E000520701D50123F3E7022BF1D00BB921715A
:1045F000C0E7A221FFE606F10C094F4515D105F1F0
:10460000280010F0DBF96A7D6AB92379042662F389
:104610004613237102272846FFF758FE8DF80460E1
:104620008DF8057004E70026F4E747B3B8F1000FF2
:1046300020D005F12808404610F0C0F939467068CE
:10464000FFF734FEAB6A0022534585F8322096D03E
:104650004B4505D12379404662F34613237195E714
:104660009DF80830022B05D1237923F06803012738
:10467000237191E72379012262F34613F7E7EE7A7B
:1046800016F01006CAD0237967F3461323717FE72B
:1046900000287FF445AF0646042305F1230123706B
:1046A00006F11803AA7A5343E270221D02336370A5
:1046B00005F10B0353F8040B8B4242F8040BF9D1BC
:1046C00095F814A095F815B002F05EFDC1F34029ED
:1046D00050464946FFF7D0FD6073BBF1000F04D090
:1046E00049465846FFF7C8FDA073E67642E700BF8B
:1046F000881B0020941B0020343270B5054692B20E
:104700000C461E460FF027FD25B1034A5560147470
:104710005674147070BD00BF881B002010B5034C88
:1047200060680FF03AFD237C237010BD881B0020C9
:10473000014B587C704700BF881B002038B5134DD3
:1047400068680FF030FD044620B940F2551133205F
:10475000FCF754F8D5E84F3F013BDBB2C5E8413FD9
:104760000029F7D104F108033422184615F045F862
:1047700047F6FF720121E462E283FF22627584F84A
:104780002320E27C61F34612E27438BD881B0020CE
:1047900038B5436A044693B90A4D68680FF003FDC3
:1047A000606220B94FF4B7713320FCF727F8D5E8E1
:1047B0004F3F013BDBB2C5E8423F002AF7D1606AB8
:1047C0003B3038BD881B0020036810B504468BB110
:1047D0009A6A22B140F28B113320FCF70FF8596A24
:1047E00041B101F108008342074B08BF22605868BD
:1047F000FFF75CFD216831B1034B08395868FFF7BA
:1048000055FD0023236010BD881B002038B50468C7
:1048100005469CB11349204612F017FF124B0022A7
:104820001A735A739A73DA73EFF3108272B6A16A2D
:104830000C3399B9A362E36202B962B62C68616A6B
:1048400049B101F108039C4203D0074B5868FFF7B8
:104850002DFD0023636200232B6038BDE16A0B60ED
:10486000E9E700BFDD430000881B002070B5066843
:10487000044656B3716A154D41B101F108039E42D9
:1048800002D06868FFF712FD0023736221684E7D35
:10489000B6B100232B726B72AB72EB72EFF3108226
:1048A00072B6886A0A4B40B98B62CB6202B962B6B3
:1048B0002046BDE87040FFF7A9BFC86A0360F4E76F
:1048C00008396868FFF7F2FC266070BD881B00207D
:1048D000901B00202DE9F0470468914606460D46DE
:1048E0009A469DF820209DF82C8024B940F237315B
:1048F0003320FBF783FF664F3B78B3B9B8F1020F63
:104900000DD009D9B8F1030F0CD03368002B00F09B
:104910008A804FF45571EBE7FFF756FFF5E7FFF795
:1049200075FFF2E7FFF7A2FFEFE7636A0BB94021DB
:10493000DEE783F81180CB687BB1097C238E0B44C2
:1049400040F272618B4207DDFFF790FF3368002B66
:1049500069D040F27131CBE723860123A3729DF920
:1049600028302376B8F1000F60D122756B691BB136
:104970005B78C3F30313A375EB6913B15B88A4F8E9
:1049800019302A78511E4B424B41E17A63F3000102
:10499000C1F34003022A08BF43F0010363F341015E
:1049A000C1F34003002A14BF002303F0010363F3A3
:1049B000C301AB68E1721BB1CBB243F00403E372F5
:1049C0002B6A13B193F90030E3756B6843B104F1BE
:1049D0000D0304F10E029DF8241028460FF0D2FFBB
:1049E000AB688BB1A9F1020104F11C02012995BF4A
:1049F000DAF800301968E361E16194BFBAF8043075
:104A00009B88938084F81B90A969B8F1000F0FD19F
:104A100079B38B784A7803F01F0352EA032228D136
:104A20003046FFF7D1FE0020BDE8F08762759DE7B4
:104A30000022636A1A705A709A70DA70A26AEAB930
:104A4000A362E36289B14A78897801F01F0152EAD2
:104A500001220AD1A16A3A727A72BA72FA720D4AC6
:104A600079B9A2620023E26233600B49204612F05A
:104A7000ECFD636A3BB94FF4D77139E7E26A136022
:104A8000DFE71A60EEE7002301206362CCE700BF96
:104A9000881B0020901B0020DD43000010B590F81B
:104AA00054308A1E012BD2B205D1022A2CD8184BC1
:104AB00033F8120010BD03291DD002291FD14FF475
:104AC000E1700024124B03EB4403DB8803390344F9
:104AD000012903F196038CBF00202820022A4FEA07
:104AE000400094BF0B4940F64802184498BF31F883
:104AF00012201044DEE740F264600124E2E740F255
:104B0000E6204FF4B073E1E740F64800D2E700BF7B
:104B10000614040006140400014610B504460E48AD
:104B20000CF034FC202884F8170111D021460A48E3
:104B30000CF02CFC202884F81E010BD194F81701EE
:104B40000CF014FC20B940F28F212120FBF756FE17
:104B5000002010BD0120FCE7D9500100014B187066
:104B6000704700BF110500207FB590F8143103F0A5
:104B7000FF0223B140F2B7212120FBF73FFE0C7862
:104B8000039214F0010318BF8D68CDE9012218BF0C
:104B90000195A60707D504ADCE6805EB8305013363
:104BA000DBB245F80C6C65072BD504AD0E6905EB3F
:104BB00083050133DBB245F80C6C013B134D80F8E3
:104BC0001D314B68C0F8C830C0F8F83040F271238E
:104BD000A0F8FC30002315F8011B0C420BD004A9EF
:104BE00000EB820601EB8201013251F80C1CD2B2BB
:104BF0002B39C6F8CC100133DBB2032BEBD104B058
:104C000070BD002BD9D14FF43471B5E712140400F4
:104C100090F823315F2B4FEA53112DE9F04F0446F2
:104C200089B000F2A5808F4A0A4492F80F90B9F13A
:104C3000040F04D100224FF0030980F81F2194F9DA
:104C4000212103F01F0394F82271002A47EA032769
:104C500094F82131B4BF4FF496721E22DB0902FB97
:104C600007F70CBF4FF01E0B4FF4967B0AF060FB6A
:104C70003D1A0AF09FFB94F82131804605EB0B0AA0
:104C800013F0400FB8440CBF4FF4FA76322611F0FF
:104C9000FAFC754B0644B5F5977F0AFB06F606F558
:104CA000742606F23F26B6FBF3F66AD394F8153164
:104CB00003F0FF0A002B5ED148460BF049F86B4B1E
:104CC0004FF47A7253F8297007F52243B133B3FBDE
:104CD000F2F5E2355D4405EB4605054448460BF028
:104CE00037F8019048460BF03BF84946834620468A
:104CF000FFF7D4FE00F18C03019AA7EB0B072B44BE
:104D00008DF808A08DF811A09B1A4FF47A72B7FBAA
:104D1000F2F7DF1BD4E92C320397BB3B42F1FF32A1
:104D200013EB080342F100029B1B62F10002CDE984
:104D300006324F4B1878FE2803D094F854305A07A7
:104D400001D40CF069FC8DF8100002A994F8170149
:104D5000C4F8D870C4F81851DDE90623C4E92E233D
:104D60000CF092FB38B940F204712120FBF746FDAC
:104D70004FF0000963E70AF035FD0CF0E2FA01207C
:104D80005EE048464FF47A7A0AF0E2FF374B53F878
:104D9000295005F2E737B7FBFAF720375F4447445D
:104DA0003744074448460AF0D3FF019048460AF0CA
:104DB000D7FF834649462046FFF770FEA5EB0B055B
:104DC00000F18C03019AD4F8D8903B44B5FBFAF576
:104DD0009B1A5D1BA94514D394F81C31A8F1100847
:104DE00002A802948DF818300223A8EB0606039758
:104DF0008DF81030002305968DF81930FFF7CEF9A5
:104E0000BDE71B4B93F800A0BAF1FE0F03D094F856
:104E100054305B0702D40CF0FFFB824650460CF086
:104E200005FCA5EB09035146192B38BF1923834212
:104E300028BF034618461D460CF08DFB18B1002014
:104E400009B0BDE8F08FD4F8D8302B44A3F182002C
:104E5000C4F8D830C4F8E0000CF062FC0028BBD1E4
:104E6000EDE700BF0614040040420F001C170400C9
:104E70001105002001292DE9F347064605D902292D
:104E800000F0A08040F6520150E001F00104D0E9AA
:104E90002CA70AF06BFA96F82081814620464146FD
:104EA00011F0C1FF054640460AF05AFF0246002CA9
:104EB0003FD0A8F10203DBB2022B3AD8574901EBED
:104EC00043035B8A15EB09052CBF0121002115EB7B
:104ED0000A0547EB0107524951F8280000F2E73074
:104EE00010444FF47A72B0FBF2F02D1A67F100070C
:104EF000ED1847F1000713F024FA5430D6F810816A
:104F00002C1AD8F81C9067F1000504F053FB06F149
:104F1000E803834210D04A46CDE90045D8E9720142
:104F200013F01DFA81451DD240F27B312120FBF7A1
:104F300065FC4FF4FC73C5E798F87D0090B1D6E9A5
:104F40003A7A04F08FFB30B9B8F9EC31A8F8EC01EB
:104F5000DF194AEBE37A4A4638465146CDE9004527
:104F600013F0FDF92F4B1A68D6F81031824293F8EE
:104F70007E100BD9DE693218DE6279B941F66A011A
:104F80008842198616D340F2E471CFE749B1642212
:104F9000B0FBF2F151430246401AD9624FF4FA7164
:104FA000EEE740F2E242B0FBF2F151430246D96231
:104FB000401AE3E7121945F10005C3E9722502B072
:104FC000BDE8F087D0F8103113B940F2EF71ADE7CA
:104FD000002583F8F05190F8201183F8741083F8BD
:104FE0007510FF2483F876400339D0F810010129A9
:104FF00000F13C008CBF0021012112F0E2FBD6F849
:10500000100113F077FFC6F8105186F816410AF028
:10501000E9FB02B0BDE8F0470CF093B906140400B8
:10502000301704009C1B002008B50B4B30B1012841
:105030000DD040F665012120FBF7E0FB18601A68EF
:1050400041F669039A4206D940F66E01F3E740F64D
:10505000C4121A60F3E708BD9C1B00202DE9F04F35
:1050600004468FB01E468B460392BDF860800CF05C
:1050700065F98146204604910FF097FED4F8CCA044
:105080000546002E00F02482002800F042822046CF
:1050900010F016F8039B80F00106F6B2002B00F02A
:1050A000188119F5FA630593049B43F100030693F5
:1050B00004F0CCFA04F084FA074604F1E80039461B
:1050C000079004F04FFAD4F8101111B107980FF0BF
:1050D000C6FF1FB1B7F92420A4F80C21B5B1D4F84C
:1050E000F050B7B1B868059BD7E90021009380184C
:1050F000069B2A4641F10001019313F030F98542E5
:1051000008D240F267312120FBF778FBD4F8C85071
:10511000E7E73846079004F09FFA059B0798D4F814
:10512000C8C0C518069B43F10007B8F1000F00F096
:10513000CB801FFA88F842F2107329463A46E8FB02
:1051400003120CF2CF730344B3FBFCF30CFB03F329
:10515000EB1A67F10000C4E93A300123C4E92A12CE
:105160004FF0000804EB08022046069392F8241141
:105170000FF0DEFD0590069BD4E92A21521B61EB5E
:105180000701012A71F100004FF00000C0F2908188
:105190009245884100DB924604EB8808D8F8CC2081
:1051A000524594BFC4F8DC20C4F8DCA026BB1BB376
:1051B0005900B4F90C0189B212F09AFBB4F80C2131
:1051C000D4F810314FEAE07C121A12B2A4F80C2184
:1051D00043B1A3F8EC21D3E9722112184CEB010181
:1051E000C3E97221D4E93A322D184CEB07071B189A
:1051F0004CEB0202C4E93A32039B2BB1D4E93A23C7
:10520000C4E92C57C4E93023059B4FF000082A4617
:105210002046C4F8D8303B46C4E92E578BF80980A5
:105220000FF0D9FD059B8BF80800CBF80430002E59
:1052300000F04981012304998BF80030D4E92A3227
:10524000B3EB090362EB0102012B72F10001C0F222
:105250003181B34F9F4278EB020200DB1F46D4F846
:105260001031D4F8C880002B40F029810726204651
:10527000A8FB06560FF099FD002800F01D81D4E927
:105280002C32ED1846EB0206A945049BB3410FD220
:10529000B5EB0905049B66EB03066FF00103AB4217
:1052A0004FF00003B34102D3AF4228BF2F46B846A8
:1052B000CBF81080D4F8DC00059B984234BF002066
:1052C00001200FB0BDE8F08F4FF0FF316FF00042CA
:1052D00037E7002E38D06FF00043D4E92A129A4203
:1052E00008BFB1F1FF3F2AD094F81C312046234477
:1052F00093F824110FF01CFD039B19F1AB02054636
:105300008DF82030049B099008A843F10003CDE9F3
:105310000C230223ADF828300CF0F0F810B94FF44C
:105320009661F0E6D4E92A320C995B1A0D9962EB8A
:1053300001025B1B62F10003002BC0F2B2804D46FC
:10534000049F012600230BE7D4E93A37D4F8C8506C
:105350000026A9EB03025919B2FBF5F205FB02F294
:1053600047F100075218A2EB090147F10007AA29EB
:105370000DD8D4F8B810C91AB1FBF5F105FB01330B
:10538000D31AB3FBF5F3AD1847F10007E8E694F83C
:10539000241120460FF0CCFCD4F8B820D4F8C85023
:1053A000099020468DF820608DF82960D4E93A13E1
:1053B000521AB2FBF5F26A43521843F10003CDE9E9
:1053C0000C230FF008FD29468DF8280008A811F0DD
:1053D000C4FC0346DDE90C57C2E651F8042F013343
:1053E00002F12B0CBC459FBF821A08F10108BF18BF
:1053F0005FFA88F8DAB29645EFD804EB0803204646
:1054000093F824110FF094FC384404EB8803D3F88C
:10541000CC30834209D3A3EB070ABAF1000F24DA98
:105420004FF48D616FE62F466AE094F81D11D4F8B1
:10543000C820414511D908F1010895425FFA88F862
:1054400008D204EB8803D3F8CC3003F12B029A4640
:105450001546E2E740F2424155E69542F7D3520045
:105460009542F4D340F25F414DE6AD19059B2046CD
:105470004FF0000643F10007D4E92C230FF030FC75
:10548000D4F8C8305843D4E93A321B18204642F1C8
:105490000002C4E93A323B462A460FF021FC03469B
:1054A00060E6039B4D46049F01269A46984659E6BE
:1054B000824671E64746D2E6D4E93032E1E64FF063
:1054C000FF352E46E0E68BF80060CBE90457F1E6A5
:1054D000039B002B7FF4E5ADD4F8C87009F1AB0550
:1054E000D4E93A23A9EB0206B6FBF7F67E43B618D9
:1054F000A5EB060543F10003AF42059393D8EF1BDC
:10550000002394F81DE104F1C8016FF02A009846C9
:1055100070E7039B002B3FF417AF2E46C1E500BF99
:105520000040420F0138C0B2032808B504D94FF437
:1055300061710620FBF762F9014B185C08BD00BFE2
:10554000221404000138C0B2032808B504D94FF46E
:1055500061710620FBF752F9014B185C08BD00BFD2
:105560003F1404000138C0B2032808B504D94FF431
:1055700061710620FBF742F9014B185C08BD00BFC2
:10558000A01404000138C0B2032808B504D94FF4B0
:1055900061710620FBF732F9014B185C08BD00BFB2
:1055A000A9150400014B1868704700BF741C002047
:1055B00008B5034610465A1E032A10D84A1E032A6D
:1055C0000DD8084A012951700CBF00210A21107121
:1055D000937091721946FCF709F8002008BD6FF02E
:1055E0001500FBE72C0D0020074B5A8A38B142F01A
:1055F0001002987A5A82DA8A9A839877704722F052
:10560000100298835A82F8E72C0D002010B4094C40
:10561000637A58B143F004030029637210460CBF4B
:1056200000230723637110BCFFF7DEBF03F0FB0309
:10563000F2E700BF2C0D002040EA4100014BD8707A
:10564000704700BF2C0D002010B504460FF0C7FEB8
:1056500008B9002010BDE0430FF0C1FE0028F8D0CB
:10566000E31683EAA4635A1E1A42F2D0E3B25A1E2A
:1056700013405A1E1342ECD0A0B212F08DF90B2841
:10568000E7D8204612F084F91828E2D8A3B2B3EB89
:10569000144F04D184EA142313F0FF1FD9D0044B14
:1056A0006340581E1840003818BF0120D2E700BFE1
:1056B000D6BE898EF0B5070C164BA7F5AA4203EAB1
:1056C0009023543A012A20D927F4004042F6AA2216
:1056D000801A18BF0120002216211F24164687EACF
:1056E000060562EA0505013511D0DD0301394FEAEF
:1056F0005303ADB245EA56064FEAC4354FEA5404A7
:10570000ADB245EA5202EAD1F0BD0020E3E7002045
:10571000FAE700BFE0FF3F00F8B50D46074640F648
:105720007A4CBDF81860A81FBDF81C1080B2604507
:1057300015D8941FA4B264458CBF0020012087B9FE
:10574000194C247984B188B96FF45067EC19062C90
:1057500004D86FF450641419062C07D9F8BD002042
:10576000EDE797F87D40EDE70028F7D0954218D88F
:1057700003FB0111B1F5FA7F13DCA6F10A0340F631
:1057800076409BB283420CD810460FF013FF42F2D2
:10579000107341435E43B6EB410F8CBF01200020E4
:1057A000DCE70020DAE700BF801C0020304BF0B5BA
:1057B000B0F868700C4611461A88B0F8666085B07B
:1057C00097425D8828BF1746964228BF16461B2E73
:1057D0002ED0B5F5A47F2DD040F6480301AA9D42F6
:1057E00028BF1D460FF023FFBDF80A30BB4228BF7B
:1057F0003B46E380BDF80C30AB4228BF2B462381EB
:10580000BDF80630B34228BF33466380BDF8083088
:10581000AB4228BF2B46A380FF232370E3881B3BAA
:105820009BB2E02B08D940F2EE613920FAF7E6FF8F
:105830001B2FCED105B0F0BD63881B3B9BB2E02B84
:1058400002D94FF4DE61F0E7238940F64812A3F550
:10585000A4739BB2934202D940F2F261E5E7A388B8
:10586000A3F5A4739BB29342E4D940F2F461DCE760
:10587000801C0020F7B5002304460E461746CDE9EC
:1058800000336846FBF7E2FC08B1002016E0009DFB
:10589000A542F6D03046EB1C0FF086FE3946AA78BA
:1058A00011F040F90028ECD005F10A036A7A04F1FE
:1058B0000A01607A11F036F90028E2D003B0F0BD99
:1058C000054A134692F8202053F8211B11F8030BC8
:1058D000C0F3801011F026B90022002001281ED844
:1058E000022B0DD1A2F57A700F4B984219D8A1F571
:1058F0007A70984215D88A428CBF122000207047D7
:105900000A4882420DD8012B0CBF40F2527340F678
:10591000C3139A4205D9A1F6C410054BE9E712203A
:1059200070473020704700BFA7F970028FFD7002EA
:10593000CBF3700210B504460A480EF0D7FF0A49AF
:105940002046FFF711F920460EF0F7FE38B1204649
:10595000FEF744FC20460EF0C6FF002010BD1220CA
:10596000FCE700BF9C1C0020A41C00202DE9FF4187
:1059700006788046012E40F09A8031460020FBF7E1
:105980002BFC054620B940F62C713920FAF736FF7A
:10599000B8F80430002B40F082800EF06DFE002835
:1059A0007FD195F81431002B7DD12846FFF7C2FF37
:1059B0000446002879D1594F31463046FBF70CFC9C
:1059C00097F83810064619B110B940F64871DCE76F
:1059D0003A7F0023CDE9023312F001031CBFF86ABD
:1059E0000290520741BF04AA02EB83037A6B43F88B
:1059F000082C002945D096F81431002B41D0B8F876
:105A00000230002B3DD13B7F3046009302ABBA6A97
:105A1000B97F0EF012FFA0B330460FF0D2FA06F1B4
:105A20004003804605F14002683653F8041BB34238
:105A300042F8041BF9D12846FFF77CFF024610B15B
:105A400040F66F71A1E7B8F10C0F07D10146284667
:105A50000FF07EFCF8B940F6737196E7B8F1000FCD
:105A600002D040F6787190E77B7F2846296D43F09D
:105A7000040385F854300FF047FC60B940F67A71A2
:105A800083E7B8F804202846B8F802100FF060FC4D
:105A9000002808BF0724204604B0BDE8F081112487
:105AA000F9E73A24F7E70C24F5E71224F3E701219C
:105AB0000020FBF791FB054610B940F68D7164E7B5
:105AC0000FF00EFA04460028E5D195F8543095F809
:105AD000A62022B195F8A720134385F8A600053B20
:105AE000012BD8D82B6D13B940F69D714DE70121DC
:105AF0000846FBF771FB29464FF4947206460DF0F9
:105B000085FB0423316D304686F854300FF0FCFBE2
:105B10000028C0D140F6A27137E700BF801C0020EA
:105B20002DE9F04F9A4685B0754B04460DF10809F2
:105B3000744F186888461B791646029089F804301D
:105B400097F8563013B1484602F0A0F96E4D002187
:105B5000204611F099F8AB68A4F80080E36396F84A
:105B60004A2006EB4202B2F82AB058460FF022FD56
:105B700001466FF4506000238344BBF1060F6BD9DC
:105B8000908C4FF0961284F87E302387626340F247
:105B9000E2420FF00FFD03F06BFD40F2E2430146DD
:105BA000A4F8DC312046E161C4F8D81113F092F971
:105BB000834601F0E9FA8306297C53BF1B236B88D7
:105BC000AA881A46A4F86630504BA4F868201B68CF
:105BD00084F84410A4F846B01BB194F97C104046F8
:105BE00098473B79003B18BF012384F87D30484B30
:105BF0001B6813B147492088984701236386464BA9
:105C00001B6813B1454920889847454B1B6813B161
:105C1000444920889847444B1B680BB1208898471B
:105C2000424B1B680BB120889847AB8804F11400E5
:105C30006A8869780333033201919BB2297892B262
:105C4000009104F11801FBF739FB636973B941F264
:105C5000DB113920FAF7D2FD4FF04D1223870123D3
:105C6000626384F87E304FF47A7399E7A36913B9BD
:105C700041F2DC11EDE70FF077FC2062BAF1000F82
:105C800004D002F059FC20F07F40A06296F84A3020
:105C90002046E96806EB4306338EA384F38EE38443
:105CA00013F015F9494604F1960011F02EF997F812
