:100000002881002051300100FBB402003D30010086
:100010003D3001003D3001003D3001003D30010028
:10002000000000000000000000000000B5310100E9
:100030003D300100000000004D3101003D30010065
:10004000713301007133010071330100713301001C
:10005000713301007133010071330100713301000C
:1000600071330100713301007133010071330100FC
:1000700071330100713301007133010071330100EC
:100250007133010087E50200713301007133010041
:10026000713301007133010071E502007133010047
:1002700071330100713301007133010071330100EA
:1002800071330100713301007133010071330100DA
:1002900071330100713301007133010071330100CA
:1002A00071330100713301007133010071330100BA
:1002B00071330100713301007133010071330100AA
:1002C000713301007133010071330100713301009A
:1002D000713301007133010071330100713301008A
:1002E000713301007133010071330100713301007A
:1002F000713301007133010071330100713301006A
:100300007133010071330100713301007133010059
:100310007133010071330100713301007133010049
:100320007133010071330100713301007133010039
:100330007133010071330100713301007133010029
:100340007133010071330100713301007133010019
:100350007133010071330100713301007133010009
:1003600071330100713301007133010071330100F9
:1003700071330100713301007133010071330100E9
:1003800071330100713301007133010071330100D9
:1003900071330100713301007133010071330100C9
:1003A00071330100713301007133010071330100B9
:1003B00071330100713301007133010071330100A9
:1003C0007133010071330100713301007133010099
:1003D000713301005BE502007133010071330100EC
:1003E0007133010071330100713301007133010079
:1003F0007133010071330100713301007133010069
:100400007133010071330100713301007133010058
:100410007133010071330100713301007133010048
:100420007133010071330100713301007133010038
:100430007133010071330100713301007133010028
:100440007133010071330100713301007133010018
:100450007133010071330100713301007133010008
:1004600071330100713301007133010071330100F8
:0C04700071330100713301007133010091
:10048000064A074B02604FF41A725B78828008229A
:10049000C371002382710372704700BFCDD9000081
:1004A00098120020064A074B02604FF490725B7A64
:1004B00082800822C371FF2382710372704700BFDC
:1004C000F5D4000098120020F8B5C41D0028054698
:1004D00024F007040CBF0020204600F0E5FA071EB8
:1004E00002DA6FF00B00F8BD254EB1887088033139
:1004F000F3790330B27989B280B20AF045FE002860
:10050000EFDB3C4473783178002D04F10304194487
:1005100024F0030400FB01F10CBF0020204600F092
:1005200047FC23180DB9002BDBDB717A184679B133
:100530000333002D728923F003040CBF00202046F2
:1005400000F0A8FC0028CCDB20440DB90028C8DB53
:10055000317A91B1737A83B1C41D002D24F0070460
:100560000CBF0020204603F0ADFB0028B9DB0DB125
:100570000020B8E72018B6D5B3E7002DF8D1B2E7D0
:10058000981200201FB572B6194BDC68ECB9BFF3A6
:100590004F8F1849184BCA6802F4E0621343CB60CE
:1005A000BFF34F8F00BFFDE7B2FBF6F22B465D1C99
:1005B000002AF9D1DBB203F110056D4405F80C2CCB
:1005C0000A2233B901A8A047E1E7024600230A2620
:1005D000EDE7013BDBB203F110050DEB0506B0FBC7
:1005E000F2F502FB1500303006F80C0C2846E8E75F
:1005F0009812002000ED00E00400FA050A4B07B550
:10060000DA886846ADF800209A885B88ADF8042047
:10061000ADF8023001F05AFE18B1FC219C20FFF722
:10062000B1FF03B05DF804FB9812002038B5054611
:1006300040B309F0E3FE10B94FF0FF3038BD09F0C8
:1006400037FBB0F5FA7FF7D8104C1148E56000F0A1
:10065000A7F9002323744FF4807323801B23638046
:10066000A38040F20323E3804FF4847323811F238C
:100670006381EFF3108472B600F0E2FC04B962B655
:100680000020DBE76FF01500D8E700BF98120020CC
:10069000FD05000010B5002840D1234C237C032B1E
:1006A00039D059B1002A3CD00239052936D8DFE8C3
:1006B00001F0031227352A2D137863700020FFF70D
:1006C00003FF0028B7BF012302236FF00B00237440
:1006D000A8BF237410BD13791BB353790BB31188D2
:1006E000FB291ED853881B3B9BB2E02B19D81A2933
:1006F00017D913689288C4F802300C4B9A80DDE752
:1007000013786372DAE713886381D7E71388FF2BC6
:1007100007D82372D2E74FF0FF30DBE76FF02C00F1
:10072000D8E76FF01500D5E7981200209A12002044
:10073000F8B50D46064620B319B311F0070420D1D1
:10074000114F3B7C012B02D16FF00B00F8BD032B46
:1007500002D14FF0FF30F9E700F060F80028F8D040
:100760002846FFF7B1FE0028EEDB0DF094F9304685
:10077000214601F03FFEFFF741FF032320463B7473
:10078000E4E76FF01500E1E79812002010B5064C81
:10079000237C032B03D101F045FE02F0A1FD0AF0FA
:1007A000ECFD0020207410BD9812002050B1074BC2
:1007B00003F1140253F8041B934240F8041BF9D1CF
:1007C000002070476FF01500704700BFA1A2030022
:1007D00008B501F0D9FD03490120BDE8084000F04B
:1007E0005BB900BFA504000008B501F0E1FD0349B5
:1007F0000020BDE8084000F04FB900BF81040000B0
:1008000002680020014B1A60704700BFAC12002044
:10081000014B1B68184700BFAC120020024B186840
:10082000003818BF01207047AC1200202DE9F743B3
:100830000446264E071D2548376002F069FD022850
:10084000054607D1214920460AF048F8284603B05A
:10085000BDE8F0830428F9D13378072B18D13E2066
:1008600000F04AF878B9F37801A93279684643EA8A
:100870000223ADF800300AF061FA0028DBD05321E2
:100880000820FFF77FFE052000F076F80028EAD068
:10089000314620460AF05AF8B0F5817F01D3722123
:1008A000EEE70028C7D094F8008094F80290404604
:1008B00000F022F80028BED0B8F13E0FC6D148465D
:1008C00000F05AF80028C1D1B5E700BFB0120020EF
:1008D000074B4FF0FF3141F6FF72C3E900120549A3
:1008E0000022C1E900221F21C3E90212704700BFA4
:1008F00000050020F41200203F280CD801380B4BD3
:10090000C0F3421200F01F0053F8223023FA00F027
:1009100000F001007047FF2806D04038044BC0F3B8
:10092000421200F01F00EFE7012070470005002091
:10093000F4120020074B0146006849681A4603C2BA
:1009400040F48C221A6041F0107242F4FF625A6047
:10095000704700BF000500200246024B0068516846
:1009600003C37047F41200200246024B006851682E
:1009700003C3704708050020431EF428DBB21FBFE5
:10098000064A590903F01F0302EB81021DBF90685C
:10099000D84000F001000020704700BF0005002093
:1009A000014B1860704700BFFC12002010B5FFF724
:1009B0008FFF0AF0A3FE034B04461B6803B1984760
:1009C000204610BDFC1200200A8870B595B2C67C86
:1009D000C2F30E020488023602F118033444C35AEB
:1009E000A4B233442344013BB3FBF4F303FB0422DE
:1009F000438892B29342044B8BBF2B40AB431343CB
:100A00009BB20B8070BD00BF0080FFFF4A1E062A0C
:100A100008B50346084604D84FF4D1711520FFF7F6
:100A2000B1FD094A914202D940F2A311F6E711B98A
:100A300003B1196008BD2BB11B680022C3E9012175
:100A40001A1D1A600430F5E7FAFFFF7F10B5114B4D
:100A500000EB41041A786389B3FBF2F303FB022332
:100A6000013A1A44B2F5706F0279807828BF0023EA
:100A70001A440B18B2FBF0F100FB11215B1AB3FB17
:100A8000F0F100FB113313446FEA43436FEA534321
:100A9000638110BD00130020024B03EB80035960FB
:100AA000704700BF001300202DE9F04F10F0070A37
:100AB00085B0054604D040F261111720FFF762FDB2
:100AC000524F044607F10C06B146B04657F8043BB6
:100AD0008DF80BA03BB101A898479DF80A30082B70
:100AE00001D9E821E9E79DF80B1041BB05B1316060
:100AF0004F4506F10406E9D1002D6ED00022DFF843
:100B000010910227964689F8002058F827A0013F47
:100B1000BAF1000F54D09AF804609AF802C0FF2E80
:100B20005FD039460023481C37D19C44BCF1FF0FED
:100B30003ED90AB189F800E040F22711BDE79DF8DF
:100B40000AC04B1D60465A0004EB4303022838BF1D
:100B50000220441E40422344BDF808406444CCF1C6
:100B6000000C0340013C04EA0C04B4F5803F01D3BF
:100B7000F821A2E775B19A1A0120326091701480B1
:100B8000D0709DF80C00107101984FEA104C108144
:100B9000A2F806C004FB0134AAE758F8210028B1E6
:100BA00090F804B0B34504BF80781B180139BAE748
:100BB000DBB2E6458AF804303CBF5FFA8CFE0122C6
:100BC0007B1CA2D10AB189F800E0022640F6FF6A38
:100BD00058F82670B7B9013EFAD2601B05B0BDE8DF
:100BE000F08F0023E5E707EB410309F101093846DF
:100BF000A3F80AA0FFF72AFF5FFA89F1BB788B42BE
:100C0000F1D8E8E74FF00009F6E700BF0413002031
:100C10000013002038B54FF6FF7302460380184BCF
:100C200003EB81031869A8B184780379B3FBF4F16D
:100C300004FB1133DBB2194600EB4105B5F90A504C
:100C4000002D0EDB0131B1FBF4F504FB1511C9B227
:100C50008B42F1D1002038BD6381BDE838400AF0F5
:100C60006FBA00EB41046389C3F30E031380C278AB
:100C7000002AF1D14FF4D5711720FFF783FC00BF94
:100C8000001300201C4B03EB810370B51C69054663
:100C900044B3030404D54FF4DC711720FFF772FC52
:100CA000014620460AF02FFAFF28014604D02046CC
:100CB000BDE870400AF044BAA078B5FBF0F300FB41
:100CC0001353DBB219460A1D04EB4206B6F9026063
:100CD000002E09DB0131B1FBF0F200FB1211C9B2A9
:100CE0008B42F0D1002070BD8B4201D00023E37015
:100CF00004EB42025580DAE700130020094B03EBB6
:100D00008103014610B51C6920460AF0FCF9FF2852
:100D1000014604D02046BDE810400AF011BA002078
:100D200010BD00BF00130020F8B5104B074603EBC1
:100D3000810301461C6920460AF0E5F9FF280546B3
:100D400011D0E288238953EA024606D001462046A4
:100D50000AF0F6F901463846B04720462946FFF723
:100D600075FE0020F8BD0520FCE700BF0013002041
:100D700038B50E4B0446827903EB8203186908B933
:100D8000052038BD8278E1799142F9D24B1CE3719C
:100D900000EB41035D89B3F90A30002BF3DBA5803A
:100DA0000AF0CEF920600020EBE700BF001300201E
:100DB00070B5044610F003000E4603D04E211820F3
:100DC000FFF7E0FBFFF722FE054624B1034831465A
:100DD0000460FFF71BFE284670BD00BF1C130020F7
:100DE0002DE9F14FDFF870B01E4607460D46DBF8DF
:100DF000003090469DF828A09DF82C901BB96021EA
:100E00001820FFF7BFFB52460921404609F0FBFFBF
:100E10004A4684B20921304609F0F5FF81B2DBF879
:100E2000000021440AF043F9386018B9286001B085
:100E3000BDE8F08F04445346414609222C603868CF
:100E400009F0A4FF4B4609223146286801B0BDE8ED
:100E5000F04F09F09BBF00BF1C13002070B50E4679
:100E6000044609F0E3FF0546304609F0DFFF044B76
:100E70002A1821461868BDE870400AF03DB900BF45
:100E80001C130020024B186808B10AF004B970471F
:100E90001C1300201F2AF8B5044613460ED89200F2
:100EA000033222F00303B3F5803F2DD2184DACB1CD
:100EB000A00710D05F210920FFF764FBFF2B4FEA4A
:100EC000420204D9FF339A42A8BF1A46E8E77C2AB7
:100ED000B8BF7C22E4E729706C602B8122F003020A
:100EE00028230127120403FB01F06B680025120C74
:100EF000EEB2B14200D8F8BD14B126181F705E6082
:100F0000104401352833F3E74FF0FF30F3E700BF1B
:100F100020130020154A002170B553681578C8B217
:100F2000854203D8AB210920FFF72CFB1C4618464D
:100F3000013114F8286B0EB92346F0E700219970AF
:100F400001241289996103F126055C709208D96128
:100F500003F11E04596824F8022FA54243F8041F28
:100F60001144F8D100234361037070BD20130020A9
:100F70004B782DE9F04106460C4602F0040702F0DA
:100F8000FB05E3B1A5BBFF23A3707B0804EB570768
:100F90003A7D032A02D1022D18BF0133E218012144
:100FA000117503F10C01002204EB830324F81120D6
:100FB0005B68A27030463360B280BDE8F081002DDE
:100FC000E1D1012301F11E028D6120464B7004F135
:100FD000260C1A4BCD611B8949689B0822F8023FF9
:100FE000944540F8041F1944F8D100236361CAE70F
:100FF000D1F8048014220021A01861700CF0ECFFDD
:101000000E4B1B89B3F5FF7F0FD25A089B1A9BB278
:1010100008EB0301C4F804802384A1606284C4F84F
:101020000C80A3842161E284ADE7B3F5EE6F4FF04D
:10103000FF02EBD940F27263EAE700BF2013002001
:101040001F4B4FF0FF3000211A6801235360C2F894
:101050000803C2F80015C2F804351A4A1268536032
:10106000C2F80803C2F8001540F6FE71164A174888
:10107000C2F80815B0F90020002A0CDB510902F073
:101080001F02934001F12002114941F82230BFF3C1
:101090004F8FBFF36F8FB0F90030002B09DB5A0977
:1010A000012103F01F03994002F16003084A42F84E
:1010B0002310054B40F6FE72C3F80825704700BFA9
:1010C000001B0020FC1A002000200850141B0020E8
:1010D00000E100E00A460648192302F8033BC36812
:1010E000C1F803300369536043699360704700BFE0
:1010F00030130020024B5A8C02435A845B6A184713
:1011000030130020014B00215B6A18473013002088
:1011100010B5154C05F08CFE05F05CFA208DFFF73C
:10112000F1FF237E63B12246104904F1190052F801
:101130000C3BE36063685360A36893600BF049FB6A
:101140000B4B228D93E8030002F0ECFD236B188813
:1011500002F06EFDA36B94F8341094F835009847B4
:10116000002384F83C3010BD30130020D51000005F
:101170005C130020034B93F83C300BB1FFF7C8BF62
:10118000704700BF3013002070B51D4C0646256B1C
:10119000636C95F88C20236494F8483095F86910B6
:1011A00003EB82002EB9FF2803D195F868308B42FB
:1011B00001D005F0F1FC95F88C30D3B1E06C05F06E
:1011C000EFFE0123E16C84F87030206CD5E93A23FE
:1011D000C4E9182305F082F916B9304605F028FF56
:1011E00095F86810002005F06BFF022384F83C306E
:1011F00070BD206C05F0D4FE05F0ECF9ECE700BF03
:101200003013002008B5094B93F83C20022A04D083
:1012100040F24F212720FFF7B5F9DA7A42F00102B8
:10122000DA72BDE80840FFF773BF00BF301300203B
:1012300003280B4B10B5044605D19A6FD278022AC9
:1012400001D1002010BDD86F09F06FFE0028F9D140
:10125000032CF6D001F0A8FA80F00100C0B2F1E74B
:10126000301300202DE9F043474C85B005468846F1
:1012700094F83C30012BDFB204D040F20451272017
:10128000FFF780F9266B02A8A16F0AF078F896F8AC
:101290007C309DF808903BB10021042086F87C103A
:1012A000FFF728FF86F87E70B9F1030F25D0BDF84F
:1012B0000C30002B18BF022796F88C3086F882700D
:1012C000ABB10123216B94F8487084F8703091F829
:1012D0006900D6E93A23C4E918230AF06DF8002220
:1012E00003462A49009202203A4605F037F86DB1CC
:1012F00005B0BDE8F043FFF70BBF96F882301BB98D
:10130000A16F0220FFF7F6FE0327D5E7B8F1000F23
:10131000EED0D4F88030284698470028E8D094F8DA
:101320003430002BE4D194F8843023B194F8850054
:10133000FFF77EFF0546606C0BF0C0F9D4F88830EB
:10134000B3B9B4F88C30B3FA83F35B09628C9107BC
:1013500010D5A26F137803F00303032BC8D1D37801
:10136000022BC5D1002005B0BDE8F043FFF70CBF4C
:101370000123EBE7002ABBD1012814BF002303F0AF
:1013800001032B43EED1B3E730130020801300207C
:1013900010B5094CD4F8883023B940F2F641272023
:1013A000FFF7F0F8B4F88C201846216C033209F0EE
:1013B000CDF9206410BD00BF30130020064B10B5DE
:1013C00093F83C2002F0FF0422B91C7602F0A2FC44
:1013D000204610BD0C24FBE7301300200A4B0B4ABB
:1013E00070B506460D461A60FFF7E8FF18B1F42104
:1013F0002720FFF7C7F8064C012104F18E000BF0FF
:101400004DF96664E56470BD480500201C1C0000B1
:1014100030130020024B012283F89120704700BF57
:1014200030130020F0B585B0754C02AE0A9F86E8F7
:10143000030094F83C1001F0FF0511B90AB103B1A3
:1014400027B940F283112720FFF79CF896E80300A4
:1014500004F12C0C84F8915084F8345084F89250A4
:1014600084F8355084F8935084F894506584258529
:10147000C4F880306262A7638CE80300256B05F036
:10148000BDFB05F0A7F895F9700005F5807705F02C
:1014900011FC6E6AE86905F013FC304605F072FD38
:1014A00095F89C0005F016FC04F150060BF045FD84
:1014B00095F8692000F17601012005F0A5FC514B5B
:1014C000186805F065FD2B69E3676B69C4F898300F
:1014D00005F1F0031868083353F8041C3246BB4288
:1014E00003C21646F6D15968474A236BD5F8000166
:1014F00093F8686003C293F88620A2F125010129C0
:1015000003D993F8871025295DD193F83E322BB18A
:10151000012E03D0012B0CBF0126022605F1300756
:10152000314638460BF0E5F931460AF00BFFAB8F38
:1015300095F86910834228BF0346384684F89C30EA
:101540000BF0C0F995F8691095F88C700429B5F87E
:10155000446008BF03210AF0F5FE0FB9043080B2E1
:10156000864295F88C3028BF0646F6B284F89D6016
:1015700084F8486093B10123D5E93A0184F87030CA
:10158000C4E9180195F8690009F016FF0022034626
:101590001E4900920220324604F0E0FE0120FFF7CF
:1015A000F3FD002323606360A360B5F8803063809F
:1015B0002B88238095F89C302371EB6E0BB10122B0
:1015C0001A6005B0F0BD203A012A0DD823290DD0AC
:1015D00093F8263113F0010202D19B079ED5022217
:1015E000012E18BF164699E7232905D193F8262125
:1015F00093F861301340EDE7032E08BF04268DE712
:10160000301300204805002098130020801300208C
:1016100008B50C4B93F83C201AB9BDE80840FFF719
:1016200077BD93F83C20022A04D040F231212720D4
:10163000FEF7A8FF1B6BD3F8B001BDE8084005F02A
:10164000CBBC00BF30130020014B1876704700BFA1
:1016500030130020014B93F89300704730130020A3
:10166000024B93F82900C0F3C000704730130020EC
:10167000014B93F892007047301300202DE9F0439E
:10168000314D85B004460F4602A8296C2E6B09F037
:1016900076FE14F00109BDF80C8004F0020428D095
:1016A000002385F89E3094B1FFF772FE0DF102021F
:1016B00001A9D5F8980009F0E4FC019809F0C7FCED
:1016C000012238604146D5F8980009F06FFCB9F165
:1016D000000F0BD0D6E93A32013342F10002C6E9DD
:1016E0003A3296F88430013386F8843005B0BDE88C
:1016F000F08395F89E30032B20D801A252F823F0F6
:10170000A7160000111700002B1700002B17000070
:10171000002CEBD0FFF73CFE00224146D5F89800A4
:1017200005B0BDE8F04309F041BC002CDED0D5F88F
:10173000980005B0BDE8F04309F09FBC40F2A2411B
:101740002720FEF71FFF00BF301300202DE9F04FC8
:101750000023A94C89B080468946276BCDE9043324
:1017600094F83C30022B04D040F28B512720FEF736
:1017700009FF216C06A809F002FE97F88C30B8F139
:10178000000F00F027819DF819B0BDF81C60002BF8
:1017900039D004F02DFFB0BB6EB197F8843003F060
:1017A00001035B450BD1012384F83530FFF7B0FC12
:1017B00009B0BDE8F08FA4F88C60002006E0A4F822
:1017C0008C603146D4F8980009F0D0FB238D9DF849
:1017D0001A2043F40073C4F88800238597F88330F7
:1017E00003F001039A4263D0256B95F88230002BF9
:1017F0003DD0022B13D104A9E06F09F060FB38B98A
:1018000040F23B41B2E7A4F88C60002ED5D0D8E777
:10181000D5E93832013342F10002C5E938320021FE
:1018200095F87E3085F8821023B1102085F87E105F
:10183000FFF760FC95F87D30A3B14FF0000A85F802
:101840007DA000F09BFF10B940F252418EE7514657
:101850000820FFF74FFCD5E93832013342F100028E
:10186000C5E9383295F88330013385F88330238D0C
:101870004FF0000A43F40063238597F8843003F0A7
:1018800001035B4544D19DF81830256B022B11D81C
:10189000EBB995F88430013385F88430002E37D0C9
:1018A000D5E93A32013342F10002C5E93A322FE07C
:1018B000C246E2E7032BECD1238D0120216C43F4D7
:1018C000805385F87C002385FFF714FCE1E7002EA8
:1018D000DFD0238D95F88C5043F48053238505F099
:1018E0000DF9042894F89D3006D1002D0CBF1F225D
:1018F0001B22934228BF1346B34261D3D4F88830E9
:1019000033B194F89130002B73D02020FFF7FAFB0D
:10191000002697F88B308BB1002597F86800D7E93F
:10192000382384F87050C4E9182309F045FDFB22E0
:10193000034632490420009504F010FDB9F1000F70
:101940005ED1638C94F89210180708D5A26F1378B3
:1019500003F00303032B02D1D378022B50D00129CB
:101960004ED8D4F8803001209847002848D094F809
:101970003430002B44D11EB105A90120FFF77EFEB3
:10198000256B002395F88C208DF80D3094F84830A5
:1019900095F8681003EB8203FF2B03D195F86930AB
:1019A0008B4202D0FF2005F0F7F895F88230032B28
:1019B00000F21B81DFE813F07B00A600000111019B
:1019C00094F83430012043F0100384F8343007F0E9
:1019D00095F99DE70BB104F01FFE94F892300026B4
:1019E0000133B24684F89230238D43F4806323851B
:1019F0008FE746468DE700BF30130020801300209C
:101A000005F06AFB002E4DD14FF00109238D5A06D7
:101A100006D44020FFF776FB238D43F04003238557
:101A2000BAF1000F0DD0B4F80720B4F80530134315
:101A3000B7F8802013431EBFB4F809300133A4F86F
:101A40000930B8F1000F00F0DC80B4F80530013344
:101A5000A4F80530002384F892306D4802F0D6F8DF
:101A6000049830B109F0F3FA216B0022027201F000
:101A700093FC059B33B1216B00221A720C2205984E
:101A800001F058FCB9F1000F7FF490AE238D1B06D6
:101A90003FF58EAE8020FFF735FB238D43F08003AA
:101AA000238585E605A90320FFF7E8FDACE794F858
:101AB0009C305848ADF80E30A5F8583000F04EFE76
:101AC00028B1012385F87D3084F894301CE00DF1B5
:101AD0000D020DF10E01E06F09F0CFF9A06788B19A
:101AE00095F8C73073B99DF80D302BB903800121EB
:101AF0008370A06F0AF0D2FDA36FBDF80E205A705C
:101B00000123E1E7444BA367D4F878B095F883202C
:101B10009BF80000D20000F0F30300F0030002F095
:101B20000802134395F88420920002F00402134344
:101B30008BF80030FFF77CFB9BF8003023F010039C
:101B400043EA00138BF8003095F88B30A06F002B20
:101B50004ED04378002B4BD0E06C05F021FA0022E8
:101B6000D5E9380184F87020C4E91801E16CA06F50
:101B700005F0F0FB18B9A16FE06C04F043FC95F898
:101B800069100120012505F09BFAA06F84F893509D
:101B90000AF094FDA36F84F884001B7884F83C500D
:101BA00003F0030384F88530002E3FF42FAF05A91E
:101BB0000220FFF763FD29E7B5F858300DF10D025B
:101BC0000DF10E01E06FADF80E3009F056F9A06787
:101BD000002895D140F2F121C8E50E4800F0BEFD85
:101BE00000288DD140F2FB21C0E540F20931BDE56E
:101BF00005F0D6F904F0EEFC0021A06F0BF072FFA7
:101C0000BDE7B4F807300133A4F8073025E700BF7B
:101C10005C130020A8130020BE1300200512000052
:101C20004D1700006512000075110000304BF0B533
:101C30005A8885B0B0F85C700C46B0F85A6097428C
:101C40009D8828BF1746964228BF16461B2E2ED0C9
:101C5000B5F5A47F2DD040F6480301A99D4228BFC9
:101C60001D4609F00EFCBDF80A30BB4228BF3B46BA
:101C7000E380BDF80C30AB4228BF2B462381BDF872
:101C80000630B34228BF33466380BDF80830AB420C
:101C900028BF2B46A380FF232370E3881B3B9BB206
:101CA000E02B08D940F2F5613920FEF76BFC1B2FC1
:101CB000CED105B0F0BD63881B3B9BB2E02B02D9AF
:101CC00040F2F761F0E72389A3F5A4739BB2B3F563
:101CD000E06F02D940F2F961E6E7A388A3F5A473A7
:101CE0009BB2B3F5E06FE4D940F2FB61DCE700BFE3
:101CF000D013002010B501210020FEF7FFFF04469D
:101D000070B90121FEF7BEFF044620B940F29331BD
:101D10003920FEF737FC034B93F906100BF0BCFBA0
:101D2000204610BDD013002008B50AF027FA00F0B5
:101D3000DFFE00F0A5FB0AF024FD01F0D5FF01F065
:101D4000DDF80022084B1B214FF4A4701A60074BEA
:101D500098801A8059800648064B186099805A74FA
:101D60005A829A829A7508BD4C050020D013002033
:101D700003021B00FC170020044B41F64C52C3E940
:101D800002221B221A74FFF7CFBF00BFFC170020EE
:101D900073B5234D0446AB680363224B83610BF09C
:101DA00036FA064600F05CFB8306297C53BF1B23F2
:101DB0006B88AA881A46A4F85A301B4BA4F85C20FA
:101DC0001B6884F8381066871BB194F9701020885E
:101DD0009847164E204631460AF0D5FA01236A8804
:101DE00004F110006978E3850332AB88019192B267
:101DF00016F8121C033300919BB204F11401FEF794
:101E0000EFFF236923B940F2CC613920FEF7BAFB1A
:101E1000636913B940F2CD61F7E7002002B070BDED
:101E2000FC17002000093D00500500200E1800207E
:101E3000F7B504460D460BF062FB00286DD0204636
:101E40000BF039FC38B1B5F80130013B7F2B02D9DA
:101E5000122003B0F0BD20460BF031FC08B90C2075
:101E6000F7E720460BF0C9FA0028F8D120460BF01E
:101E700004FB06460028F2D1204603F055F800285E
:101E8000E6D042F21073B5F80170E97820465F435E
:101E90000BF0FDFB20460BF006FC014648B93A4624
:101EA000204602F04FFAB0B341F6A5413920FEF7C3
:101EB00069FB31460DF10600FEF7ACFE054608B998
:101EC0000D20C6E731460AF0B5F9BDF806302046C8
:101ED00029462B800BF0FDFB20460BF0F6FB88B962
:101EE000216A20460BF0F3FB01462846FFF750FF1E
:101EF0003A462946204602F025FA024620B141F62C
:101F0000C841D3E70121F0E7054B9B681BB105F5FC
:101F10008D712846984700209BE7422099E700BF33
:101F2000D0130020024B1B6803B118470C207047E8
:101F30004C050020034B5A8802801B7883700020D8
:101F4000704700BFFC17002037B5837805461A2B71
:101F500008D8042B04D9144A22FA03F3DB0705D46A
:101F600012241AE0292B01D03B2BF9D12888B0F597
:101F7000706FF5D269460AF050F988B9019B93F861
:101F8000182102F0FF046AB9AA7883F81921FF2208
:101F900083F8182168460AF0CFFB204603B030BD15
:101FA0000224FAE70C24F8E7200038040188A1F1A4
:101FB0001B039BB2E02B0CD8428844F24810A2F5D8
:101FC000A4739BB2834204D8034B002059809A80AB
:101FD00070471220704700BFD0130020034B5A886F
:101FE0009B88028043800020704700BFD0130020F0
:101FF00038B50278447802F0010302F0020254EA94
:10200000030101D1112038BDBAB98578002DF9D06E
:10201000002B18BF002400E01D46204609F0DCF923
:102020000028EFD0284609F0D7F90028EAD0054B60
:1020300000209C74DD749882E5E7002BECD000242E
:102040002546EAE7FC17002013B5008869460AF028
:10205000E4F818B10224204602B010BD019A92F8AB
:10206000DC31DBB292F8A820002AF3D113F0FB0F89
:10207000F0D0019890F82A310BB13A24EBE790F8B0
:10208000D23003F0FF04002BF7D190F8C9309B0742
:1020900006D1FF2380F82A3168460AF04DFBDAE7C3
:1020A0000249CA300AF095FBD5E700BFADCE00006B
:1020B000F7B5077805460C46EF2F0FD890F90120A9
:1020C0004378002A0ADB8278900707D113F01000CA
:1020D0001DD1990603F0030202D51AB1122442E081
:1020E000032AFBD01E07F9D42979EA78EE7942EA6F
:1020F0000122697942EA0142A97941EA06212E7A50
:1021000041EA06418A42E9D81F2A0FD8E6E713F0D0
:10211000600FE3D103F00702052A05D003F00F0199
:102120000D22CA40D107D9D51A07DDD56A7A013AFE
:10213000062AD3D8AA7A032AD0D813F0040102D1F0
:10214000023A012A03D8EA7A012AC7D811B9AA7C2F
:10215000032AC3D82A7D48B1012ABFD12A7E012A89
:10216000BCD830B91124204603B0F0BD022AF5D105
:10217000B4E7DB0712D46B782A7D03F01803082B31
:1021800011D1022AEED101213846FEF7B7FD0646ED
:1021900078B10BF032F9B8B10C24E4E700F024F97F
:1021A0000028E8D1DEE7022AEDD02B7F002BEAD011
:1021B000D8E701213846FEF765FD064640B3154BCA
:1021C00093F906100BF068F930460BF069FA2946CE
:1021D0002070E87430460BF0AEF9EB7E0446002B1D
:1021E000C1D00028BFD10246316B6846FEF7C0FE61
:1021F0002246306B012109F00EF8316B684604224B
:10220000FEF7B6FE22462146306B09F004F8AAE735
:102210000724A8E7D013002030B502798BB003461D
:10222000042A4FD84088B0F5804F4BD82649002467
:102230008D5C1144ADF800404A798DF8084042F0B9
:1022400010028DF8244042EA45028D7AC97B42EAA9
:10225000850242EAC102694602F01F028DF80020A1
:10226000BDF80020ADF809201A888DF80E00000A8C
:102270008DF80B20120A8DF80D408DF80C208DF88A
:102280000F008DF810405A7BD3F807008DF811200D
:102290005A79059002A88DF812209A798DF81320AA
:1022A000B3F80B209B7BADF818208DF81A307F23F4
:1022B0008DF81B304FF00113CDE90734FFF7F8FE1E
:1022C0000BB030BD1220FBE7C015030002780346B7
:1022D00072B1427862B142881A2A09D982881A2AD0
:1022E00006D90068034A106000209B8893807047DD
:1022F00012207047FC17002002680020014B9A60F2
:10230000704700BFFC1700200378A3F10A02112ACE
:102310009BBF024A0020122013747047FC17002054
:1023200008B5052000F090F803F00EFF014B024ABB
:102330009A6008BDD01300202D1C000008B502F0E3
:10234000DBFD02F0EBF80248BDE8084002F0BEBD3C
:10235000DC1300200B4A012310B5144682F8023129
:1023600002F0D2FD0BF055FB09F006FF04F2031159
:102370002046FFF733F8002008F0EAFEBDE81040E1
:1023800000F0BEBFDC13002010B5064C064904F572
:10239000027009F0B1FD04F503700449BDE8104076
:1023A00009F0AABDDC130020540500205C050020C4
:1023B00010B5094C094904F5027009F09DFD04F5BA
:1023C0000370074909F098FD04F504700549BDE85C
:1023D000104009F091BD00BFDC130020640500200F
:1023E0006C05002074050020014B93F80201704732
:1023F000DC13002010B5074C00F05EFFD4F8080293
:1024000009F072FDFFF7B8FC01F08CF8012384F8A5
:10241000143210BDDC130020014B93F814027047F6
:10242000DC13002010B5074CD4F80C0209F05CFD59
:10243000D4F8100209F058FDFFF776FC002384F869
:10244000143210BDDC130020C208044900F007005C
:1024500001238340885C03438B54704710050020A0
:10246000014BD3E90001704710050020034B1868A9
:10247000C0F30020400040F001007047100500202C
:1024800008B507F015FC0023074A32F823108142F3
:1024900005D302EB83029378044A137008BD01331D
:1024A0000C2BF2D10023F7E7D4150300F11500201F
:1024B00010B54468238884F86711A4F8683194F84B
:1024C0006830012B06D0022B04D04FF46171062036
:1024D000FEF758F884F86A3194F86930012B01D07E
:1024E000022BF2D184F86B3104F5AF7003490AF086
:1024F00070F9002384F8243110BD00BF73BF0000C1
:1025000040680749038800F25110A0F8093010F81C
:10251000F13CC37210F8F03C03730AF054B900BFE9
:1025200089BF00002DE9F04389460979456885B0E7
:1025300099F8058001F00701044695F8866008F0D7
:1025400007084B1E08F1FF320B4002EA0802134352
:1025500095F88720232A3BD105F18707FBB9404630
:1025600009F053FD00283DD095F86830984239D0E5
:1025700095F8262118EA020F11D0212E32D095F8B5
:10258000612018EA020F2DD1013B01384D4ADBB220
:10259000C0B2032B105C20D8D35C834222D995F8BB
:1025A0002431012B53D11E212046FFF781FF212E1C
:1025B00051D16368182283F80921092283F8862003
:1025C00093F8C230002B3ED14FF43171AE2007E0BA
:1025D000212E75D105F18607C0E74FF40F71062053
:1025E000FDF7D0FF084609F010FD38B195F86930C5
:1025F000834203D095F827311942D0D0B9F806604C
:1026000003AB284642460093334609F00BFD63684E
:10261000054678BB93F82421012A28D1014620469B
:10262000FFF746FF3D70636803F18702974202D1CE
:10263000002283F88720636803F1870297423BD129
:1026400020460AF0E2F9002005B0BDE8F08300233F
:1026500085F82431ABE7002320463B700AF0D5F91A
:102660001821204605B0BDE8F0430AF0F6B983F81A
:102670002401D8E7B3F88020A3F83C62013EB61AE3
:1026800047F6FD72B6B2964206D92822204683F854
:10269000A92001F0BFF8CEE793F887200D2A02D0D9
:1026A0000A3A012A01D82A22F0E7BDF80C20A3F843
:1026B0003E2225233B70BEE7002283F8C220C2E7FA
:1026C0000220C1E704160300044B002283F82220F5
:1026D0004FF6FF729A84DA841A857047F21500204B
:1026E000054B9A8C824201BF002283F822204FF6CC
:1026F000FF729A84704700BFF2150020014BD88406
:10270000704700BFF2150020084B4FF6FF72998CFE
:10271000914206D193F82220012A04D003600120BF
:102720007047002303600020704700BFF2150020AF
:10273000064B93F82220012A1BBF0120DA8C0020CF
:1027400083F8220018BF9A84704700BFF21500205A
:10275000014B1885704700BFF2150020064B02465A
:10276000198D988C884205D193F8220018B1012068
:102770001360704700207047F2150020094B998CB8
:102780001A8D914201D0002070474FF6FF729A8453
:1027900093F82220002AF6D00022012083F822207C
:1027A000704700BFF2150020054B998C1A8D91429D
:1027B00003BF93F82200B0FA80F04009012070476F
:1027C000F215002050B90A4A0120134603F8010B04
:1027D0000868C2F801008A889A807047012805D1EC
:1027E000034B0A68D8719A608A889A81704700BF43
:1027F0001C16002050B90B4B187888B1D3F8012073
:10280000B3F805300A6001208B807047012806D19B
:10281000044BD87920B19A689B890A60F3E70020BD
:10282000704700BF1C16002010B9044B1878704781
:10283000012806BF014BD879002070471C160020E4
:10284000F7B58A8800238DF80600ADF804200868E3
:102850000B4A8DF807300146147802F5A872019DE5
:10286000D8B2844201D8082007E052F8087F01332B
:102870005668AE4208BF8F42F2D103B0F0BD00BF30
:1028800030160020084B0146002230B55C7803F278
:102890000113D0B2844201D8082004E013F8015F8C
:1028A00001328D42F5D130BD30160020F8B52D4CE7
:1028B00063782218013B92F80251DBB283426370C5
:1028C00030D01A010101961C8F1C2644274406F1C2
:1028D000100C56F804EB664547F804EBF9D1823248
:1028E00082312244214402F1100652F8047BB242A4
:1028F00041F8047BF9D1E118221891F8026182F8BD
:10290000026106267343704303F5857300F58570F5
:10291000E618E35827182350B388BB8091F83A3162
:1029200082F83A312846FFF7ADFF082818D12378FE
:10293000013BDBB29D42237012D02B3305F12B02F9
:1029400004EBC30304EBC20293E8030082E8030034
:102950002078FFF797FF08281CBF241884F802513D
:10296000F8BD00BF30160020F0B5254D89B095F8B0
:10297000984105F299116846224607F0E7FE214684
:10298000684609F01AFC0446B8B300EB400102A8FF
:10299000C9B2FDF73DFF631E95F8A1610124DBB2CA
:1029A00095F8981105E0721CB2FBF1F001FB1022C2
:1029B000D6B206F120020DEB020010F8202C002AFE
:1029C000F1D103EB430100F8204C06EB4602203125
:1029D0002A44694411F8187C82F8A27111F8177C16
:1029E00011F8161C82F8A37182F8A411013BAA19F0
:1029F000DBB282F89941FF2BD2D109B0F0BD00BF04
:102A00003016002070B5064688B00C46002A4ED01D
:102A1000294A92F8A131D01890F8991119B9FF21DB
:102A20002820FDF7AFFD03EB43010133114491F87A
:102A3000A251E57091F8A35191F8A411257161712B
:102A4000002180F8991192F89811B3FBF1F001FB85
:102A5000103382F8A13192F8C23123B9174902F537
:102A6000DD7009F0B3FE65790D220021684605F09E
:102A70003F0545F0400565710BF0AEFAE37804AA16
:102A800069468DF80F30304623798DF80D508DF85A
:102A90000E3004230BF00AFA9DF81F3023709DF8C6
:102AA0001E3063709DF81D30A37008B070BD032107
:102AB0006018FDF7ADFED6E730160020692900004A
:102AC000044B5A78824286BF1B1893F84A010020B3
:102AD000704700BF30160020044B5A78824286BFF0
:102AE0001B1893F842010020704700BF30160020E9
:102AF000064B00224FF461711A8083F8C32183F8DA
:102B0000C421A3F8C61183F8C221704730160020F3
:102B10002DE9F0478246894617469846FFF790FE12
:102B200008280546064603D0FFF7ACFE082860D10A
:102B3000324C6378072B5ED8082D15D12678731C8C
:102B4000072E237003D96C212820FDF71BFD06F109
:102B50002B02D9F8000004EBC20344F83200B9F8A4
:102B6000042083F806A09A80657807F110026B1C98
:102B7000290163704B1C234412F8010DBA4203F87B
:102B8000010FF9D1813108F11003214413F8012D0F
:102B9000984501F8012FF9D125441021404609F04C
:102BA00095FB102185F84201384609F08FFB85F826
:102BB00002616678002385F84A013146104885F89D
:102BC0003A3109F0FAFA0128054607D831460D488E
:102BD00009F0F3FA002818BF0135EDB284F89851D6
:102BE0000025284684F8A151FFF7BEFE2846BDE81F
:102BF000F0871220FBE70720F9E700BF301600201E
:102C0000721700207A170020064B10B5587801384B
:102C100040B2002800DA10BDC4B22046FFF746FEDD
:102C2000601EF5E730160020014B83F8C3017047A2
:102C300030160020014B93F8C30170473016002076
:102C4000431E4AF2B7129BB293429DBF024BA3F8B8
:102C5000C60101200020704730160020014BB3F858
:102C6000C6017047301600200A4B30B55C788442AC
:102C70000ED9184490F802012B3003EBC004A5795B
:102C80000D7053F8300010600120A388938030BD90
:102C90000020FCE7301600200246074810B590F8E7
:102CA000C34124B1417821B1023003F073FA2046C8
:102CB00010BD0C46FBE700BF301600202DE9F74F92
:102CC0002F4C9A46804689466378834256D923180A
:102CD00093F8425185F00105F9B193F84A31E3B90F
:102CE00045F002070135BAF1000F18D1FA070AD5ED
:102CF000062104EB0810524601FB0841823001F521
:102D00008571FFF77FFEBB0734D504EB08105246F0
:102D100049460230FFF776FE2CE02F46E3E794F8B1
:102D2000A1614FF0010B002DE0D0A31993F8991188
:102D3000019399B90092DAB100F0C4FB019B06EB54
:102D40004601009A4FEA102C83F899B1214481F88A
:102D5000A201000C81F8A3C181F8A401013694F806
:102D60009831013DB6FBF3F103FB1166F6B2DAE7E9
:102D700047F00407384603B0BDE8F08F0027F9E7B5
:102D800030160020074B5A78824209D91A1892F857
:102D900042212AB9062202FB003000F585707047F7
:102DA0000020704730160020064B5A78824281BFBF
:102DB0001B1893F83A01B0FA80F0400998BF002040
:102DC000704700BF30160020F8B50E4607460621B2
:102DD0001546304609F07AFA044670B10C4B0022D1
:102DE000587803F23913D1B2884202D80124204620
:102DF000F8BD013203F8015FF5E73146384609F0C6
:102E0000F8F90828F3D0024B034483F83A51EDE770
:102E10003016002030B5002442F21075A0F8404072
:102E2000B0F844404C43B4FBF2F4A0F84440541EC4
:102E300005FB0343B3FBF2F3A0F84230084BB3FBAE
:102E4000F2F30133A0F84830838F05FB0344436B52
:102E50005943B4FBF2F4B1FBF2F18463416330BD3A
:102E6000005A6202034B80F870101B680BB1008897
:102E7000184770477C0500200B2808B504D940F29C
:102E8000C7112920FDF77EFB014B33F8100008BD68
:102E900008160300074B93F900301844142804DC8B
:102EA00010F17F0F03DB40B27047142070476FF0C2
:102EB0007E007047F81700207F2307B50DF107004B
:102EC0008DF8073004F0F0F803469DF9070053B180
:102ED000094B5B785B425BB21844142806DC10F1A6
:102EE0007F0F05DB40B203B05DF804FB1420FAE766
:102EF0006FF07E00F7E700BFF8170020024B0022BA
:102F00001A705A70704700BFF817002003464078C7
:102F100098B1DB783F2B05D8084AD35C1B1A58427E
:102F20005841704703F10C02D2B2042A04D8034A74
:102F3000134413F8B43CF1E7012070472016030056
:102F40003F2908B5C17003D80B4B5B5C437008BDCB
:102F500001F10C03DBB2042B04D8074B0B4413F82C
:102F6000B43CF3E7FF2904D040F23A412A20FDF7B0
:102F700009FB0123EAE700BF201603002DE9F34710
:102F8000894669461546984609F047F9044620B92E
:102F9000019E35B9012386F88D30012002B0BDE8CD
:102FA000F08737692946384607F011FF01460028A7
:102FB000F4D0164B5B88AB4225D3384608F043F873
:102FC00096F88D3082460480002B84700CBF4946F1
:102FD000022109F063FB41462A460AF1030007F08B
:102FE000B5FB2946384607F02DFF18B97E212B2066
:102FF000FDF7C8FA684609F09FFB019BA3F8A241C0
:1030000086F88D40C9E72046C8E700BFFC170020BE
:10301000024B987DC04300F001007047FC17002070
:10302000044B987DC0F3400080F0010000F00100E7
:10303000704700BFFC17002083230B70014B1B78E7
:10304000CB707047141800202DE9F84FD0F8048099
:103050000D46D8F81460304607F0E7FF044618B96B
:10306000FF211020FDF78EFA0146304607F0EBFFF6
:10307000B4F800B082461FFA8BF9B9F1000F02D103
:1030800040F20311EDE71E4BC71C1B688BB9B8F863
:103090000030A5F806B0AB8000236B729AF80030C0
:1030A00003F00303012B0FD0022B0DD040F21D11B2
:1030B000D7E74A463946B8F8000098470446002842
:1030C000E5D12046BDE8F88F30462B7207F0C1FFEE
:1030D000044610B94FF49371C3E7B9F1FB0F02D95D
:1030E00040F23511BDE7286810B94FF49B71B8E77D
:1030F0004A46394607F02AFB304607F005FFE0E76D
:10310000800500202DE9F3478246894605270026E1
:10311000DFF84881D9F8103053B11B7A1BB98021F0
:103120001020FDF72FFAD9F81040B4B9002071E053
:10313000D9F80440237A012BF8D0EFF3108372B64C
:10314000D9F804201268C9F8042003B962B6C9F896
:103150001040237A0BB9A621E2E7257AEDB2277257
:103160006B1E0B2B6AD8DFE803F066061C3463691C
:103170003D6969696958636813B94FF4D771CFE73E
:103180002046514698470420EFF3108272B6237A06
:10319000052BD9B25CD12672C9F81060B2B962B6FB
:1031A00014E0636813B940F2B711B9E751462046FD
:1031B00098470346ADF80400C0B2C3F30723012BC0
:1031C0003FD0022BE0D10023C9F810300028A1D055
:1031D00020E0636813B940F2BF11A1E72046984789
:1031E0000020D1E763680BB9B52199E70B220024D1
:1031F0008AF800200122198818698AF80220AAF8A2
:1032000003108AF805208AF8064007F07DFE0420A6
:10321000C9F8104002B0BDE8F087D8F80030514638
:1032200020469847034660B10220C9F81060F1E7D4
:103230004FF4FB7174E740F2F91171E74FF4FE713E
:103240006EE725720028E5D1002B7FF463AF6DE7B0
:1032500011B940F21D2163E700209FE7840500209B
:1032600038B5134C14220021201D0AF0B5FE0125AB
:10327000257404F108031422002104F11800C4E9A4
:1032800001330AF0A9FE84F8245004F11C03094A12
:10329000C4E906330023E362236384F83430C4F8BE
:1032A0003530C4F8393084F83D30136038BD00BF84
:1032B000141800208005002010B5084C2378FF2B3F
:1032C00004D04FF4A0711020FDF75CF907F072F9FB
:1032D0002070BDE81040FFF7C3BF00BF1D050020F0
:1032E00010B5034C207807F07FF9FF23237010BD41
:1032F0001D050020014B187807F086B91D05002038
:10330000014B024A1A6070478405002049300000D2
:1033100010B506490446FFF7F5FE28B920460449D2
:10332000BDE81040FFF7EEBE10BD00BF2C18002016
:1033300018180020134610B5027A22B140F29921E4
:103340001020FDF71FF90A4601460248BDE810406B
:1033500009F019BA18180020044890F834301BB945
:1033600003492C3009F02CBA704700BF1418002014
:1033700079C700000346064890F83E203AB190F81D
:103380003D2022B9034900F8353B09F019BA7047CE
:1033900014180020393000000A4610B5037A23B112
:1033A00040F2A1211020FDF7EDF801460723024865
:1033B000BDE8104009F0E7B92C1800201346027A46
:1033C0000AB1037270470A460146014809F0DBB9A9
:1033D000181800201B234FF01B1283840384826182
:1033E0008382C260038539B94FF4A473034AC3844E
:1033F0004384C261C3820261704700BF4801480133
:1034000003460846F0B4B3F85420B3F84840B3F884
:1034100056109442B3F84460DF8F28BF1446B3F8C7
:103420004C20B3F842508A42DC8728BF0A46B3F8E2
:1034300046109142A3F8422038BF1146A64238BF39
:103440002646A742A3F84610A3F844601FD1AA1A43
:1034500018BF0122B3F84A50B3F85040B3F8527085
:10346000A5429E8FB3F8401028BF2546B3F84E40C2
:10347000BC429D8728BF3C46AE42A3F8404002D1E3
:10348000A14200D12AB10449F0BC09F0A2B901223D
:10349000E0E7F0BC704700BFD9C700000B8BA2F873
:1034A00009001046A2F80B304B8BA2F80D308B8B25
:1034B000A2F80F30CB8B0249A2F8113009F083B982
:1034C00029C80000094AD2E90003434083EAB01149
:1034D00081EA43214FEAF34311605360044B5843A0
:1034E0004FEAF06000EB8000704700BF54180020E6
:1034F000BB79379E094AD2E90003434083EAB01101
:1035000081EA43214FEAF34311605360044B58436F
:103510004FEAF06000EB8000704700BF20050020FC
:10352000BB79379E10B50A4C08210948FDF770F9A0
:10353000D4E900321343F7D0064CFFF7DBFF2060DD
:10354000FFF7D8FF236860601843F6D010BD00BFB6
:103550002005002054180020174B184A9A60184A7A
:103560005A60184A1A60184A9A62184ADA62184A67
:10357000DA60184A9A61184A1A63184A1A62184A95
:10358000DA64184A9A64184A5A62184B184A9A60C0
:10359000184A5A62184ADA62184A1A61184A5A6175
:1035A000184A9A61184A1A63184A9A64184ADA64DF
:1035B000184A9A63704700BF88050020EFCA0000D0
:1035C0001FCB00008BCB0000F1CC000045CD0000EC
:1035D0003D3900005BCD0000753B0000213A000042
:1035E00029CE000045CE0000693A00009C0600206C
:1035F0000BCB0000FBCD00007DCD000021CD0000F5
:10360000A1CD0000C1390000CBCE000073CE000078
:1036100065CE0000E1CD0000044B054A5A65054B1C
:10362000054A1A65054A5A65704700BF880500209B
:103630003FCC00009C06002025CC00009DCC000063
:10364000054B064A9A65064A1A66064B064A9A656B
:10365000064ADA65704700BF88050020A7C0000051
:10366000252500009C060020F1BF000059C1000084
:10367000252A0346084610B518D8012A19D9023A56
:10368000232A16D8DFE802F01A1525242431153331
:10369000152439444815154C24245F5F757515159C
:1036A0001515151515151515157C878FFF2A00F0B2
:1036B00082804FF4A1615120FCF764FF1A785B68A7
:1036C000012A02D193F8103101E093F81931037106
:1036D00010BD5968D1F8BE214260D1F8C221826084
:1036E0005B68D3F80431C360F2E75B68EAE7014640
:1036F0001846BDE8104000F007BA102303715923A3
:103700004371002383712023C37130230372DFE7E9
:103710005B6893F80A31DAE7BDE8104000F0E4B9DD
:103720005A681B784BB992F8103133B192F80D31C9
:10373000037192F80C314371CAE792F80B310371AF
:1037400092F80A31F7E75B68B3F854200271120A65
:103750004271B3F812218271120AC271B3F850207B
:103760000272120A4272B3F8103183721B0AC372DA
:10377000AEE75B6893F82621027193F82731DAE708
:10378000114A1468002CA3D001461A462320234670
:10379000BDE8104018470C4A1468002C98D0014628
:1037A0001A462420F3E7084A1468002C90D00146FA
:1037B0001A462520EBE75B68BDE8104093F83722F6
:1037C000D3F8381208F07EBFB00700203F2803D896
:1037D000064B53F82000704700F10C03DBB2042BBA
:1037E00001D8B438F4E70020704700BF88050020F6
:1037F0003F2803D8064B53F82000704700F10C0314
:10380000DBB2042B01D8B438F4E70020704700BFC6
:103810009C060020F7B5456804464FF6FF772E69F1
:103820000DF102010DF101023046ADF8027007F012
:1038300024FB01A9304607F042FB40B1019807F094
:1038400006FC616800220272FFF7A6FDE8E7044962
:1038500005F1A00003B0BDE8F04008F0B4BF00BF20
:103860007DCA0000F0B5044685B00D46FF2600F87D
:10387000856C10F8863CF3B1184F3B781BB148219A
:103880001F20FCF77FFE0C21381DFCF7C1FF3E70A6
:10389000002304F8853C07232A4602F8033BD4F8AA
:1038A0000930C5F80330D4F80D305360D4F8113026
:1038B000936005B0F0BD01A80C21FCF7A9FFA4F5A9
:1038C0001373039AC3F8042101AB03CB44F88E0CA5
:1038D00044F88A1C04F8866CDAE700BF5C18002004
:1038E00010B5054C23782BB90C21201DFCF790FF57
:1038F000FF23237010BD00BF5C180020024690F823
:10390000C631BBB990F8C73103F0FF010BB10020FD
:103910007047094B18780028F9D01970D96804331A
:10392000C2F8041103CBC2F8BE01C2F8C211FF23D2
:1039300082F8C631012070475C180020426838B513
:1039400092F8873004460D463BB1132B05D0113B4E
:103950000B2B8CBF0120082038BD92F8C83013B95A
:10396000204609F048F86268D5F80E30C2F8B63142
:10397000D5F81230C2F8BA316368D5F81620C3F80A
:1039800000211A88A3F855226A68C3F85722AA684A
:10399000C3F85B226368AA89A3F85F2263680025E5
:1039A00083F8C6516068054900F5137008F008FFF8
:1039B00063681522284683F88720CDE76538000024
:1039C00038B54368044693F887201C2A04D04FF486
:1039D000DE711F20FCF7D6FD002293F8C8101D8869
:1039E00003F5C97083F8C72069B10B4983F8C82073
:1039F000A3F89C5183F89B2108F0E2FE6368002243
:103A000083F8872038BD012283F89B11A3F89C51CD
:103A1000024983F89E21EFE7DDCC0000CFCC000007
:103A200038B54568AB6F13F0010417D14A680C4BE9
:103A3000896813400B4AC5F8D830C3F307630A40BE
:103A400043F00803C5F8DC2085F8DB3008F0D3FF2D
:103A5000AB6F204643F00103AB6738BD0120FCE7A4
:103A60002FC904F76FDB0080406808B590F88630F6
:103A7000042B24D14B688A68C0F8D830C3F307639D
:103A8000C0F8DC2043F0080380F8DB30002380F826
:103A9000C23080F8863090F8743103F0FF020BB129
:103AA000002008BD038800F5B670427243814B6860
:103AB000C3608B680349036108F082FEF0E70120D0
:103AC000EFE700BFBFCD0000406890F8743143B904
:103AD000038800F5B670034943811A23437208F046
:103AE0006FBE7047BFCD000010B50446FEF7B8FCAE
:103AF000034A044B02400B406260A36010BD00BF4C
:103B00002FC904F76FDB008037B50C464568FEF718
:103B1000A7FC084B084A03400A4095F8D8100093C8
:103B20000B4001928DF800306B4603CB6060A160C2
:103B300003B030BD2FC904F76FDB008038B5DB045C
:103B4000154604D5037D13B10023436338BD446B90
:103B50000134446309F09AF9836B9C42F6D3002345
:103B6000034943632846BDE8384008F032BE00BF31
:103B70001BCE000038B54468054694F88630012B0A
:103B800002D0A36F98073CD494F8C9309A0715D493
:103B90000A79D80784F8D320B1F80520A4F8D420F6
:103BA000B1F80720A4F8D62043F0020284F8C92017
:103BB0000FD5154904F1CA0008F00BFE94F8C9307E
:103BC000D90711D4A36F9A0708D555214020FCF7D7
:103BD000D9FC94F82A31002BEBD1EFE743F0020334
:103BE0002846A36708F007FF94F88630012B4FF0B2
:103BF000000301D0002038BD84F8863084F8C2303C
:103C0000F8E70120F7E700BFADCE000070B54568CA
:103C10000446FFF751F9054B014685F885001B68FE
:103C20001BB12046BDE87040184770BDB8070020A2
:103C3000024B1B6803B11847704700BFB407002050
:103C4000F0B51F4D00242B7814709BB1013B6D68BB
:103C5000DBB21E1B012E0FDC05EBC40655F83470D9
:103C600076688E4208BF874227D0B84271EB0606BD
:103C700012D214700020F0BD1E197710C6F347064B
:103C800055F837C005EBC70E8445DEF804708F4148
:103C90002CBF33463446DCE705EBC30455F83350FC
:103CA00064688C4208BF854206D0A84271EB0404C8
:103CB00028BF01331370DDE71C4601201470DAE7DA
:103CC0007C18002010F0070208B503D063214820BB
:103CD000FCF758FC18B1034B197258601A70C800F1
:103CE00008BD00BF7C180020014B00221A707047ED
:103CF0007C1800200A460648822302F8033B03682A
:103D0000C1F803304368536083689360704700BF15
:103D1000851800201622002101480AF05DB900BF75
:103D20008518002082B002AB03E903000D48437DF3
:103D3000B3B1530614D50A880C30B1F8803020F89E
:103D40000C2CD1F8182220F80A3C40F8082CD1F8A5
:103D50001C22054940F8042C022202B0FFF72EBBBA
:103D600002B0704785180020F53C0000094B53F85D
:103D7000203003F5224370B5B13316464FF47A7202
:103D80000C46B3FBF2F5344403F0D4FA2C4420443F
:103D900070BD00BF5C1703002DE9F04F8BB00446E7
:103DA00098460F46039290F8699008F0E0F8824632
:103DB00094F87300FFF760F8824409F0BEF894F8B5
:103DC000873000F14D061FFA8AFA0293039B83BBEA
:103DD00094F8DC31032B2CD1029B0D2B29D1B4F8A4
:103DE0003C32BB4225D1D4F8E4312046B4F8B421AA
:103DF000C4F8D031A369C4F8D431B4F82A321344DA
:103E0000C4F8D83102F070F9D4E99023A262B4F872
:103E10003E22A361A285D4F84822226241F64B5289
:103E200093428CBF0023012384F87230022384F86C
:103E3000DC31B4F8285204F5FC73B4F880E07D1B43
:103E40000493A7EB0E0E2DB20FFA8EFE002D10DAA2
:103E50007546D4E98423C4E98823012294F8DC312F
:103E6000032B00F26C81DFE813F00600FB00550025
:103E70001D014246F2E70121002008F099FA81462F
:103E8000A06A5146484405F0C7FE5146C4F8E00117
:103E9000A06905F0C1FE07A9C4F8E40108A803F071
:103EA0002BF9079B0093DDE90823D4E9880104F08E
:103EB00026FF8346204609F058F8A26AD4F82C322F
:103EC00094F86900D51803F03DFAD4F8E01100F534
:103ED0002240203D4FF47A73B13032466D1A3031B2
:103EE000AD1BB0FBF3F04D44A38DA5EB0B0503EB2D
:103EF00041012D1A94F86900FFF738FFD4F82C32ED
:103F0000C4F8E801EB1ACC2B59D840F2FC41302020
:103F1000FCF738FBA36A5146D4F8D401184405F0E5
:103F20007BFE5146C4F8E001A06905F075FEC4F8B7
:103F3000E401204609F019F8A36AD4F8D4511D44CD
:103F4000B4F8B431002B40F08780B8F1000F00F0D6
:103F5000838094F8690003F0F5F9D4F8E011D4F8FF
:103F6000183200F522406D1A94F86920B130203DD6
:103F70001D448D4B53F822204FF47A7302F2E7323E
:103F8000D4E9849AB2FBF3F2A5EB0905B0FBF3F098
:103F90001544AD1B2D1AD4F8D821D4F8D03194F89B
:103FA000690002FB0313A18D3246303301EB43015C
:103FB000FFF7DCFE0123C4F8E80184F8DC31A369D3
:103FC000D4F8E421A93B9B1A9E1B0023864284F867
:103FD000F831D4E9883228BF064604F130005B1975
:103FE000C4F8B06142F10002C4E9823208F068FC12
:103FF0003044A4F82872C4F8FC01D4E98223C4E94F
:104000008823B4F8A031DB1B1BB2002BD4BF0022E5
:104010000122520084F80022029A0D2A00F09280B8
:10402000B8F1000F40F0918094F8DC31002B00F0E3
:10403000A880A16904F5FC70D4F8E431C91A08F02D
:1040400051F980B2002800F09C80149B03B11880C5
:1040500001200BB0BDE8F08FD4F8E0116D1A9AE79B
:10406000D4F8E421A369B4F8B4C19B1AD4F8D811E8
:10407000F444D4F8D0015D43D4F8E031ACEB010C4A
:1040800030330CF1FF3C00FB0133A18D94F8690043
:1040900002FB0C33324601EB4301FFF767FEC4F825
:1040A000E8018CE7D4F8E4A1A369A3EB0A035D431C
:1040B00094F88630252B03D094F88730252B09D12E
:1040C000B4F83C32FB1A1B0404D494F83F32002BA2
:1040D00018BF9946B4F8B4C142B3BCF1000F25D162
:1040E000D4E98623D4E98401904271EB030302D31F
:1040F0004FF4AA610BE794F869104FF47A7B2A4BCE
:10410000203A53F82130D4E98401CDE9040103F2C7
:10411000E73103F522430498B133121AB1FBFBF1E6
:10412000B3FBFBF30A44D21A921B15440CEB0E01AD
:10413000324648460AFB01F130314900ADE74FF401
:10414000AD61E4E6B8F1000F1BD0B4F8C80110B3BC
:10415000B4F8CA1194F8CC214D1CA4F8CA1101FB83
:10416000022290420DDD002B0BDD0023A4F8CA5182
:1041700084F80032FFF7A6F900F00700013084F858
:10418000CC0104F5FC7194F8F70104F057FC20B958
:1041900040F2B151BBE60146DCE7039B83F001032B
:1041A00084F8F431002054E75C170300F7B50446A7
:1041B00018B9E2213020FCF7E5F9072900F2BC80AC
:1041C000DFE801F00484464641BA33B704F02CFD21
:1041D000C4E94001204600F0CFFFD4F8F400A43831
:1041E00004F078FD10B940F27B21E3E7204609F0A6
:1041F00062FA0546F8B90146204609F085F900F152
:10420000AE06D4F8F400B04209D2301A03211928BE
:1042100038BF192004F079FC051E18BF0125C4F829
:10422000F460204609F061FA3DB1204603B0BDE8D4
:10423000F04009F05BBA0025F3E7D4E94023C4E974
:104240003A2303B0F0BD03B0BDE8F04002F060BF18
:1042500009F065F9002307460E4684F8F93004F0AA
:1042600047FB0722A7FB023502FB0655D4F8EC20DA
:104270000192D4F8E8209B18019A45EB0205D4F886
:10428000CC2032B157EA060203D0984271EB050206
:1042900016D2022284F8F820D4F80821D4F80CC1F0
:1042A000121A6CEB010C94F818E1BEF1000F09D161
:1042B000012A7CF1000E11DA204600F065FF05E0CE
:1042C0000122E7E7012A7CF1000CF5DB94F8C80035
:1042D00004F026FB002384F81031B2E7984271EB1A
:1042E000050E0ED23E430CD01B1A65EB01019A421B
:1042F0007CEB010005DB012B71F10000A4BF1A4625
:104300008C460F49012394F8C800914284F811317A
:104310004FF0000384F8F03073EB0C03B8BF0A468B
:1043200004F1F00104F0F6FC00288AD140F2EF61BC
:1043300040E74FF480713DE74FF482713AE700BFE8
:104340000040420F2DE9F04104460E46154690F814
:10435000103103F0FF071BB10C273846BDE8F08190
:104360000146474804F0ECFA20288046F4D0572252
:10437000394604F1C90009F02FFE84F8C880C4F85A
:10438000CC60FF2384F8103136B1FFF7B3F800F0AA
:104390000700013086F8CC0102234FF00008A4F892
:1043A000F83084F8F08005F08DFC00F149062046D5
:1043B00009F081F90146B6B2002839D007F0D7FDDF
:1043C00000F5CD61284689B205F026FC2844AE3DB3
:1043D000C4F8F40004F08CFA3018A4F8268041F1F7
:1043E0000001C4E94001012084F8D00009F01AFA64
:1043F0002D1AC4F8D4504FF0FF356FF0004194F8F7
:10440000C800D4E94023C4E94251002504F1F00179
:10441000C4E93823C4E93A2384F8115142F21072F6
:1044200004F078FC38BB40F2EB113020FCF7AAF81E
:104430002046DFF8508009F067F8AE30C4F8F40089
:10444000B8F8000048B1E08C38B1FFF753F8B8F87D
:104450000030B0FBF3F202FB1300064404F048FA0C
:10446000361841F10001C4E94061002DC3D0AD19F7
:1044700041F10001C3E72946204609F039F96CE70C
:10448000AD410000A8180020F0B5002385B0CDE9AB
:10449000003301238DF806306846FCF769FC70B1E3
:1044A0001D4E01230027B370CDE9027702A8FCF767
:1044B0005FFC0546C8B10023B37005B0F0BD00989D
:1044C00008F06EFEE8E790F8F70104F0E9FA94F8D6
:1044D000F70104F08FFB94F8F70184F8DC5104F045
:1044E0001FFA202384F8F731DEE7029B002BDDD092
:1044F00093F8F721202AD9D018884FF6FF739842F5
:10450000D9D02946FCF7FAFB04460028DBD140F25B
:1045100037113020FCF736F8A8180020044B002291
:10452000DA709A7042F210721A80FFF7ADBF00BFC6
:10453000A8180020014BD870704700BFA8180020B1
:1045400008B502F0E1FA044B5A6882422ABF987813
:10455000002080F0010008BDA8180020F7B504462F
:1045600006297AD8DFE801F0042715252B307400DE
:104570003B4B9B7803F0FF025BB900920123B0F83C
:10458000A411FFF709FC38B140F21E713020FBF78F
:10459000F9FF042384F8DC3102F0A0FC04F0ABF94D
:1045A0000023B4F88020A4F82A32A4F8F22184F879
:1045B000F53103B0F0BD032380F8DC31F9E709F0F1
:1045C00087FAC4E98601F4E790F8690008F0BDFCB9
:1045D0007730D4F8E4319528A569214F8CBF0020AD
:1045E000C0F19600C218954288BFED1AFB7894BFBF
:1045F00000252D1A1BB9236B9D4228BF1D46D4F8F8
:10460000B06104F1300008F05BF90644022004F0C8
:10461000E7FA0221AD1B25EAE575854228BF05466C
:10462000284604F072FA00B92E4401234FF4807238
:104630003146204608F0A1F9D4F8B0317860A0697D
:10464000184404F047FB0028B3D140F2A3319DE7A2
:1046500003B0BDE8F04008F088BC40F2ED7195E78A
:10466000A81800202DE970430C4615466ABB024687
:10467000174994F8C80004F085F920B940F2FD719B
:104680003020FBF77FFF02F03FFA84F8D050064657
:10469000D4E9408984F810510121D4F8CC0007F006
:1046A000C9FDD4F8CC00C0E9848994F8C830C0F8BA
:1046B0002C6280F8F731C0E9888908F046FD02F0E5
:1046C0000DFCBDE8704304F016B940F61801D7E7B9
:1046D00085CF0000014B1880704700BFA81800204C
:1046E0000346074A1068D3F85120C0F80320B3F8F6
:1046F0005520A0F8072093F8501007F054BF00BFD2
:10470000B018002070B504460E461346407F6588F9
:10471000324615F0040118BF04F15F01FEF7CEFA2E
:104720004107054621D4C2070BD50123607F84F8D9
:104730005030FEF727FB0368C4F851308388A4F893
:104740005530AB0701D4012070BD094B0121186819
:10475000D4F85F3084F85E10C0F80930B4F86330E4
:10476000A0F80D3007F028FFEDE70020ECE700BFD0
:10477000B018002038B5C38D04460F4D0133C3F384
:104780000E03C385AB7C2BB102F080FC01F060FD11
:104790000023AB7400232B7194F871302BB10121ED
:1047A0002046BDE8384008F0A6BD637C13B1E28D19
:1047B0009A42F4D20021F3E7B018002010B5094C5A
:1047C0002379012B02D02379022B05D1A37C1BB1C5
:1047D00002F05CFC01F03CFDE069BDE81040FFF731
:1047E000C9BF00BFB018002070B5294C2379012B38
:1047F00007D02379022B04D040F65C412D20FBF733
:10480000C1FEA0B90125A37C1BB102F03FFC01F061
:104810001FFD002D3AD0E06908F0E7FC002830D0F9
:1048200002F006FB236ABDE870409B6818472168C8
:10483000E26911F8095B02F1510392F85020E8098E
:1048400007F09DFC0028DDD00021206807F0D9FE8C
:104850000028D7D02379E069012B05D02379022BDA
:1048600002D040F63541C9E7237905F00F01226AED
:1048700003F180435269013B52F8233098470546C3
:10488000C1E7E069BDE87040FFF774BF70BD00BFCD
:10489000B01800200346074AD06903B909B9FFF7E9
:1048A00069BF1379126A03F180431269033B52F81E
:1048B00023301847B018002003292DE9F04305469E
:1048C00085B0174607D14388980723D40024204693
:1048D00005B0BDE8F083428890F87030D107DBB2B4
:1048E000F4D5002BF2D14FF00108DFF8D49099F8FD
:1048F0001260C6B107F087FC0828387016D002AAEB
:104900000DF10701FEF7B0F938B940F6D4612D205A
:10491000FBF738FE4FF00208E7E702A99DF8070011
:1049200008F001FB06463B78082B08D1D9F80010A7
:1049300011F8030BC0F3801008F0F5FA0646D9F819
:10494000001005F1580395F8572011F8030BC0F338
:10495000801007F014FCD9F80010044611F8030B7E
:10496000C0F3801007F045FC8146FEF71DFA40B108
:10497000B9F1080F1BD04846FEF7A2F880F00103FA
:10498000D8B23A78082A14D01CB96C7FA21A5442C3
:1049900054416A8853079AD4002897D176B9EC7CA1
:1049A000444518BF002C0CBF012400248FE70020D1
:1049B000E7E780F001022240D4B2EAE7344686E716
:1049C000B01800202DE9F04F85B0082305210446DA
:1049D0000DF107028DF80730FFF76EFF064620B98C
:1049E0000026304605B0BDE8F08F744F396807F1F6
:1049F0001403FA7C11F8030BC0F3801007F0BFFB1F
:104A000080460028ECD13B6840F2E249216A184612
:104A100091F88E2010F8035B02EA55121D4602F051
:104A2000010281F88E20D3F80320C1F80320828888
:104A3000A1F8072015F81F1B226AC1F3801191709D
:104A400002A9D3F81F00029028790871D3F80F004B
:104A5000D061587D1D7D000440EA0520DD7C28439F
:104A60005062B3F8190082F8728009FB00F090617F
:104A70009D7DC5EB451005EB800505EB85056D00BB
:104A80009585B3F8170009FB00F09062B3F81B009E
:104A90001084B3F81D00508493F8243003F01F00F5
:104AA0005B0982F89A0082F87330256A94F912A0A3
:104AB00005F18E0007F0D2FC40F20113A5F8683032
:104AC0004FF0FF0B85F86AB0414605F13000FEF764
:104AD00081FC51462846FEF7C5F9236A84F87B809D
:104AE00004F186011A8884F899B0A4F87C204FF666
:104AF000FF729DF80700A4F89A209A69B2FBF9F2B8
:104B0000A4F892201A8CA4F894205A8CA4F8962029
:104B100093F8732084F89820227F5AB394F8502099
:104B2000012A27D194F8562002F0C002402A21D150
:104B3000D4F85120C4F88620B4F855208A8008287B
:104B40009A7803F1030504F18C0184F87F2004F1C5
:104B50008002D3F8033027D0C4F88C30AB888B8028
:104B600004F17F01FEF780F840B940F6BB312D20FB
:104B7000FBF708FD0022C4F88620DFE794F87F30B9
:104B800043F0020384F87F3004F172000C4907F00F
:104B900017FE0C4B0022206A1B683A71002B3FF471
:104BA00020AF214698471CE7C4F88030AB8893803B
:104BB0000023C4F88C308B80E6E700BFB0180020DB
:104BC0001FD40000C0070020032973B5044604D099
:104BD000052956D0012002B070BD08230DF107024F
:104BE0008DF80730FFF768FE0028F3D0237C294DAD
:104BF00003B39DF8070094F8BE30DBB9237808288A
:104C000004F1C10284F8BF302CD004F1C001FEF7DA
:104C10002BF820B940F64A712D20FBF7B3FC94F82D
:104C2000C03043F0020384F8C0301B4904F1B600E1
:104C300007F0C6FD2B680622042620465A701E7017
:104C4000FFF74EFDE16B94F84020286807F0CAFC9E
:104C500028682E7102F0A4F90021286808F042FFAC
:104C60000020B8E72868034613F8031BC1F380113E
:104C700084F8C010D0F80310C4F8C1109B8893804A
:104C8000D3E7064B1B68002BEAD0984780F0010061
:104C9000C0B2A0E7B018002007D40000BC07002075
:104CA000F8B504460F4619B300F12805284608F068
:104CB00096FDA0B963881A072ED5284608F0A4FDF2
:104CC0000646284608F08BFD301AC0B208F0AAFD4F
:104CD000494A936803442846936008F05FFD2846DC
:104CE00008F061FD01F0F6FF2179252001F054FF65
:104CF000414E002394F85E2030680370437063884F
:104D0000103B0D2B68D8DFE803F063675F0C674446
:104D100067676767676767442046BDE8F840FFF745
:104D200029BD06234370202303702046FFF7D8FCDB
:104D3000638823F008039BB2152B05D094F8382024
:104D4000616B306807F03FFC306802F029F9002100
:104D5000306808F0C7FE032321790020337101F089
:104D6000E3FF054607B9F06063881B0704D508F028
:104D700056FD0544C4F8D8506388103B0D2B36D837
:104D8000DFE803F038352F2F352F353535353535FC
:104D9000352F0C2321214370034603F8091B52B120
:104DA000D4F85F200121C0F80920B4F863209A806C
:104DB00007F002FCB9E7A26DC0F80920B4F85C2046
:104DC0009A8094F85710F3E7062303704370ACE71A
:104DD000022303700623F9E740F236612D20FBF72A
:104DE000D1FB21790120BDE8F84002F069B940F615
:104DF000CF41F3E7F8BD00BFB018002038B54388B5
:104E00000446102B04D10121BDE83840FFF748BF0C
:104E10000B4DAB7C23B101F0EFF9402002F02AF9F1
:104E2000286802F0BDF8608810F0040002D12179F2
:104E300002F046F9002002F0FBF801232B7138BD87
:104E4000B0180020024B0121D869FFF729BF00BF2D
:104E5000B018002010B5134CA37C1BB102F016F95A
:104E600001F0F6F9E06908F0C0F970B12379012B7F
:104E700010D12379226A03F18043E069D268013BB3
:104E8000BDE8104052F823301847E069BDE81040F3
:104E9000FFF770BC2379022BEBD040F65E312D205A
:104EA000FBF770FBB0180020074810B5037903F03A
:104EB000FF0433B918222146043009F08DF820464A
:104EC00010BD0C24FBE700BFB018002010B5002374
:104ED000084C23712060FFF7E7FF20B140F2EF217B
:104EE0002D20FBF74FFB236A13B940F2F221F7E7BD
:104EF00010BD00BFB0180020014B024A1A62704773
:104F0000B0180020CC510000034B044A1A60044B37
:104F1000044A1A60704700BFBC070020C549000062
:104F2000C007002065460000F8B5057D0446AF1EA9
:104F3000FFB2002D3AD0012F2DD800F1580190F882
:104F4000570007F056F90828064624D0FDF7C4FD9F
:104F500010BB023D18BF0125012F84F85050667721
:104F60008CBF002701272777FDF778FE054603F061
:104F7000BFFC0022164B84F85E20E5FB0301C4E968
:104F8000120111462046FFF7BDFB70B940F27A418D
:104F90002D20FBF7F7FA0826022D09D104F1510163
:104FA0000020FDF727FC80B90020F8BD0826F5E7B2
:104FB000E37E002BF8D0D4F815300125C4F8513029
:104FC000B4F81930A4F85530C6E70025C4E700BF8F
:104FD00040420F00F0B5464E85B00446327902F0EB
:104FE000FF0312B90278FF2A04D140F6B9112D202F
:104FF000FBF7C8FA3382B3607371B37180F8713014
:105000003C4B684604F1280500933B4B01933B4B16
:105010000293336A5B68039301F0BAFF01F0EEFD7F
:1050200002F034F801F014F9354801F049FE354832
:1050300001F0A8FF284608F0B1FB284608F0B3FBB2
:1050400001F048FE2179252001F0A6FD94F9120017
:1050500001F030FE04F13401206B06F0FAF8074647
:1050600004F13C01206B06F01BF90546E7B194F80A
:105070002430CBB1B4F92E50ED43ED0F237F13B99B
:1050800063885B0709D56FF00043D4E912129A4296
:1050900008BFB1F1FF3F0ED1A5B930680330FDF76D
:1050A000FBFDB07405B0F0BD002DE7D094F825509D
:1050B000002DDFD1E2E703F01BFCD4E9122390427C
:1050C0009941E9D3012229462046FFF71BFB50B145
:1050D000FDF7C4FD054603F00BFC0B4BE5FB03019C
:1050E000C4E91201D9E7002DD7D040F6F6117EE7CA
:1050F000B0180020554E0000E94700009548000018
:10510000D6BE898E5555550040420F0073B50446F2
:10511000FFF760FF00212046FFF7C2FDA36E0BB131
:1051200001221A606388DB0720D50023104E256A10
:10513000CDE90033FF23F3746846FBF719FEA8B9E5
:10514000009CA542F8D005F10A036A7A04F10A012D
:10515000607A07F014F80028EED0A378F374D4F83E
:105160000300044B7061B4F807209A8002B070BD50
:10517000B0180020C4180020024BD8611B6A1B68BD
:10518000184700BFB018002043881B0710B504461D
:105190000ED5036A3C220849723042721B88438153
:1051A000FF2380F827304FF6FF73038507F008FBD5
:1051B000FF2384F8713010BD1FD4000071D40000AB
:1051C000FD4D000077D40000C94B00000D510000D8
:1051D000BD470000454E0000BC510000C05100001A
:1051E000C85100000138022808B503D9C3212F2077
:1051F000FBF7C8F913290A4B05D811290CD8102937
:1052000007D0D121F3E71529FBD103EB4003D88860
:1052100001E033F8100008BD03EB40039889FAE77A
:10522000A61603000C4A0346117889B9906833B971
:10523000B0F85810828F91420AD8FFF781B993894C
:105240001B0707D590F88800073818BF0120704762
:105250000020704701207047D41800202D4AF8B56F
:105260000346948990681C43402B948104D1042107
:10527000BDE8F840FFF772B9802B01D10521F7E7AF
:1052800003F00304032C04D140F6D6213120FBF7B0
:1052900079F913F0020418BF1161DD0705D55161DA
:1052A000C97806290DD00B2917D02CB11169C978FE
:1052B00005291DD00B2927D09B0644BF0823137056
:1052C000F8BD90F887101829EFD10026002701219A
:1052D000C0E9386780F88B10E7E790F8871012294B
:1052E00001BF002180F88B10012180F8C810DCE795
:1052F00090F887101629DFD1002400250121C0E98C
:105300003A4580F88C10D7E790F887101129D3D14F
:105310000021F6E7D418002073B5044640680D4616
:10532000836F13F0300F47D109891A2903D96B898C
:10533000B3F5A47F06D2E978204602B0BDE87040FC
:1053400007F08BBBAA881A2AF5D9EE88B6F5A47F98
:10535000F1D33030009607F0C5FA184B9A899207BE
:105360000ED51B69DB78142B0AD16268936F43F06A
:1053700010039367204607F03EFB002002B070BD8B
:10538000636893F886201D2AEFD093F81B31002B19
:10539000EBD1636893F81A31002BE6D16268936F02
:1053A000114602F59F7243F0200331F8300B42F8AA
:1053B000C63CFEF773F8DDE70120DFE7D4180020D4
:1053C00037B5044601A8FDF79FF920B940F6BB01A7
:1053D0003120FBF7D7F822220021019808F0FCFDCC
:1053E000019D0321284607F059F92B78214623F027
:1053F00010032B700198FDF7A3FD22460199054883
:10540000FEF736F9FDF794F910B940F6C501DFE76C
:1054100003B030BDD8180020264B70B59C6894F8B6
:105420003E5294F83F62002D3DD194F86810002E52
:105430003BD194F8693084F8681084F86930FF2310
:1054400084F86A301C4B1B680BB12046984794F8CF
:105450002431012B01D0354303D000211748FDF73B
:1054600027F804F13006304607F02AFA04F2351125
:1054700005462046FDF7C4FF20460621FFF76EF8DB
:10548000304607F01DFA8542044610D203F09EFB19
:105490000146601B192838BF192003F036FBB0FA0B
:1054A00080F0400970BD2946C1E73346C3E70120BB
:1054B000F8E700BFD4180020D0070020D81800203B
:1054C000154B1B6910B51979436893F88620092A92
:1054D00009D193F809218A4205D1002283F8862058
:1054E00083F8C22010BD9A6F12F0080406D022F093
:1054F0000802BDE810409A6707F087BAFF2905D176
:10550000332283F8344283F88620EBE740F25C5183
:105510003120FBF737F800BFD4180020F8B50D791B
:105520000446A5F10E03DBB2152B0DD8012640F27F
:10553000512206FA03F7174208D14268152B92F858
:10554000862028D0082B08D00020F8BD024631461E
:105550002846BDE8F84008F069B9212A01D02E2A72
:10556000F2D1204607F03EFA636893F88720222A9A
:10557000EAD093F8D9201A21204622F0010283F8BC
:10558000D920626892F8D93023F0080382F8D93024
:10559000FCF78EFFD8E7282AD6D1034B1B68002BD7
:1055A000D2D09847D0E700BFCC0700202DE9F041CA
:1055B000A0F10E0400291346E4B208BF1F21172CE6
:1055C0000AD8012640F25127A6403E4207D116F4E0
:1055D000600F23D1082C07D00020BDE8F081002106
:1055E000BDE8F04108F022B9546894F88620212AD9
:1055F00008D11846FCF75CFF002384F8863084F855
:10560000C230E9E72E2AE7D194F88720A2F12001E1
:105610000629F1D92E2AEFD02A21EAE7054A146893
:10562000002CD9D00A46014618462346BDE8F04171
:10563000184700BFC80700202DE9F7437F4D0646F5
:10564000AC68002840F0A480AB891A0724D594F8F0
:105650000E31FE2B04D140F2DF513120FAF792FFD8
:10566000FE2384F80E3194F887301A2B06D184F883
:10567000C700281D07F0C9F984F8876094F88630C0
:10568000202B33D0332B3FD094F88830072B02BF28
:1056900002232B7684F80E31AB89DB073DD4AB892E
:1056A0005F0700F1AB80990740F1B280AB6801223F
:1056B00083F80F212B69DF780D2F00F0A680112FC2
:1056C00000F0B180072F00F0B0803846FEF790F868
:1056D0000346002840F09A80FF2F40F0A880AA6877
:1056E000332182F8340282F8861091E094F88730F2
:1056F000A3F12002062A05D92E2B03D0212384F8FA
:105700008630C1E72E23FAE7012384F835320023DF
:1057100084F8863084F8C230B6E7D5F80890D5F81A
:10572000148099F88730113B0B2B0BD898F8033075
:10573000023BDBB2092B7DD840F2333222FA03F36D
:10574000D80777D54046FDF7E1FB98F8037020B9FC
:1057500039463B4807F081F949E0012F01D9162F5E
:1057600030D199F8860007F065F940B199F8863094
:10577000202B04D0212B07D12E2389F886303846E0
:10578000FEF724F803462AE0162F14BF022620262F
:105790002B781B0712D594F88730113B0B2B4BD974
:1057A000002501A903200195FBF768FF019B2BB1A0
:1057B0001D720C2221460198FDF7BCFD304603B056
:1057C000BDE8F083112F0ED005D8072F14D00D2F70
:1057D000D5D11C4B08E0142FD1D11B4B1B681BB932
:1057E00098F80310B5E7194B6969154898470028E0
:1057F0003FF455AF0646CBE7154BF5E794F8882004
:10580000062A04BF01222A764DE7124B0C4898471E
:10581000AB89DA06BCD594F887300A2BB8D10B23B4
:1058200084F88730B4E70C4BF0E70C4BEEE740F21E
:10583000D25112E70826ABE70820C0E7D4180020B1
:10584000D81800206BD90000C4070020B3D900008D
:105850001D550000FBD8000019D90000C1540000FC
:105860002DE9F74FB64F0E468046B989BC688D05C5
:1058700004F1780A54BFB4F8B8200023504653BF4F
:105880000132A4F8B83084F8AF31A4F8B82008F099
:105890005BF830B10B4604F5967221465046FEF790
:1058A0004DF9BB8903F4C0632BB194F88A30002B07
:1058B00047D0032B4CD094F88A20BB89012A04D10D
:1058C000180544BF022284F88A20B8F1000F40F086
:1058D0009580590657BFB4F8C8214246013292B2AA
:1058E000A4F8C82103F00A020A2A0DD13A69D27835
:1058F000022A09D123F008033046BB81FFF79CFE42
:1059000030430823C6B2BB813046FFF795FEBD6821
:10591000304395F80E31C6B2FE2B3CD1DEBB95F874
:105920008830063B012B36D995F81831ABB195F884
:10593000193101220221A5F8BC6085F810312846F2
:105940002BE1012184F88A102046FEF707FEB2E71A
:105950000223012184F88A30F6E795F88790A9F1AF
:1059600010095FFA89F9B9F10C0F40F2ED80AB6FC5
:10597000DA0702D532460921E1E7980740F1938022
:1059800032460C21284607F09FFF95F8C93043F0B6
:10599000010385F8C930B4F8A83194F8AC5101334B
:1059A000A4F8A831002D00F0FD81FBF759FE10B1DD
:1059B0000023A4F8A83194F88A10012940F2278224
:1059C00094F88830072B40F00582B4F8B830022BE9
:1059D00040F21D82B4F8BA500135ADB2B4F880304F
:1059E0002B44A4F8A03194F8AD31002B00F01382C1
:1059F0000123B4F880201344A4F8A431BB89BD6806
:105A00005B0657BFB5F8B4310023B5F8A6219B1843
:105A100058BF9BB2A5F8B43195F8183123B995F861
:105A20008830063B012B06D8B5F8BC30B5F8A62166
:105A30001344A5F8BC3095F8C21031B1B5F8BE30AA
:105A4000B5F8A6211344A5F8BE3095F9C620002A62
:105A5000C1BFB5F8C430B5F8A6011B18A5F8C4300D
:105A600095F8A93063B9B8F1000F40F065823B7E2C
:105A7000022B40F0178295F81031062B18BF162321
:105A800095F8A82022B92F4885F8A930FDF7C2FE65
:105A9000284607F0C7FF002384F8AB3103B0BDE808
:105AA000F04FFCF76BBE590702D53246132146E78B
:105AB0001A0706D595F80831324685F810310721C6
:105AC0003DE713F0300F35D095F81B31002B4AD14C
:105AD00095F81A31CBB195F8873005F58D7105F23F
:105AE0003E22252B24D095F88630A3F12500434291
:105AF0004341284606F0E8FEAB6F23F0200343F055
:105B00001003AB67002385F81A31AB6FDA062AD58C
:105B100005F235112846FDF773FCB5F85230002226
:105B20001521A5F81031B5F85630A5F8123106E761
:105B30000123DEE75B0616D500222421FFE600BF25
:105B4000D4180020D8180020D7F808B09BF8873068
:105B5000113B0B2B0ED8DFE803F01D0D0D0D232C90
:105B60000D0D0D0D0D55B86890F88730222B4FD0D4
:105B7000312B4AD095F88630002B59D195F88730D3
:105B8000103B0C2B5CD995F8B630002B58D0012275
:105B90001221D4E600220B21584607F095FEFAE6C2
:105BA0005846FDF7ABFE00283FF4F5AE0022042175
:105BB000F2E79BF83032012B08D10022052158462C
:105BC00007F082FE00238BF83032E4E69BF8303297
:105BD000022BD9B27FF4DFAE9BF8C85025B1062363
:105BE00000228BF81031EAE703210622B34806F0C1
:105BF0001BFF9BF8D8302A4613F0040F0CBF0D2171
:105C00001121DCE700220621C6E700221121C4E7AA
:105C100090F82431022B02D100221721BDE790F821
:105C20002431012BA6D190F82531002BF4D0A1E727
:105C3000092B05D195F80931012285F810313EE78D
:105C4000B9F10C0F7FF6A7AED7F8089099F886B097
:105C5000BBF1000F40F08C8099F82B313BB1012251
:105C60000E21484607F030FE89F82BB1ADE799F8D0
:105C70002A3193B199F8C9B01BF003030DD14BF051
:105C8000010B01220C214846019307F01DFE89F803
:105C9000C9B0019B89F82A3197E799F81A3133B3D3
:105CA00099F81B311BBB99F8873009F58D7109F202
