:1000000040C10020F1F1010007BB0300DDF1010058
:10001000DDF10100DDF10100DDF101000000000073
:10002000000000000000000000000000CDF2010010
:10003000DDF1010000000000F9F40100DDF1010034
:1000400071F501000BF3030071F5010071F501007A
:1000500071F5010071F5010071F5010071F5010004
:1000600021F3030071F5010071F5010037F303007E
:1000700071F5010071F5010071F5010071F50100E4
:1000800071F5010071F5010071F5010071F50100D4
:1000900071F5010071F5010071F5010071F50100C4
:1000A00071F5010071F5010071F5010071F50100B4
:1000B00071F5010071F5010071F5010071F50100A4
:1000C00071F5010071F5010071F5010071F5010094
:1000D00071F5010071F5010071F5010071F5010084
:1000E00071F5010071F5010071F5010071F5010074
:1000F00071F5010071F5010071F5010071F5010064
:1001000080EA101404F0F01480EA0410604081EAE0
:10011000111404F0F01481EA0411614082EA12140F
:1001200004F0F01482EA0412624083EA131404F02B
:10013000F01483EA0413634080EA102404F47F443B
:1001400080EA0420604081EA112404F47F4481EABB
:100150000421614082EA122404F47F4482EA0422EA
:10016000624083EA132404F47F4483EA0423634057
:1001700081EA500404F0553480EA4400614083EA87
:10018000520404F0553482EA4402634082EA900447
:1001900004F0333480EA8400624083EA910404F07E
:1001A000333481EA84016340704700BF82EA9004DF
:1001B00004F0333480EA8400624083EA910404F05E
:1001C000333481EA8401634081EA500404F05534F9
:1001D00080EA4400614083EA520404F0553482EA24
:1001E0004402634080EA102404F47F4480EA04203F
:1001F000604081EA112404F47F4481EA04216140D3
:1002000082EA122404F47F4482EA0422624083EAF0
:10021000132404F47F4483EA0423634080EA101427
:1002200004F0F01480EA0410604081EA111404F034
:10023000F01481EA0411614082EA121404F0F0140F
:1002400082EA0412624083EA131404F0F01483EA91
:1002500004136340704700BF2DE9F14F94464FEA05
:10026000930B8A68CB6808684968FFF749FF0BF170
:10027000060E33E083EA134480EA134582EA13470B
:1002800046BA96EA3444604000F00F1684EA063419
:1002900020F00F1684EA161054BA94EA0106724050
:1002A00002F00F1486EA043622F00F1486EA1412C4
:1002B0004CBA6540694001F00F1485EA043521F01D
:1002C0000F1485EA14115CBA67407B4003F00F14E9
:1002D00087EA043723F00F1487EA1413BCE8F00010
:1002E0006040694072407B4000F0E03400F010351F
:1002F00000F00F3040EA540040EAC50080EA900464
:1003000004F0332480EA8400604001F0E03401F01E
:10031000103501F00F3141EA540141EAC50181EA8B
:10032000910404F0332481EA8401614002F0E03456
:1003300002F0103502F00F3242EA540242EAC502DE
:1003400082EA920404F0332482EA8402624003F0D9
:10035000E03403F0103503F00F3343EA540343EA6B
:10036000C50383EA930404F0332483EA84036340DF
:1003700081EA324787EA134581EA354690EA060466
:1003800084EA034B82EA1B4280EA044484EA05447F
:1003900083EA144A85EA14448BEA044B84EA37441E
:1003A00081EA0B4181EA164104EA0A00454082EAEB
:1003B00004082BEA080041408AEA0B0602EA06001C
:1003C00084EA34438AEA3A4603EA0607784045401D
:1003D000414088EA38478BEA3B4007EA000985EA52
:1003E000090583EA0709464006EA0906714085EADD
:1003F000010005EA3546464006EA314181EA3041CE
:1004000081EA364606EA304686EA3546344008EA4E
:10041000010886EA01052A4086EA364003405A4030
:1004200081EA31431F407C4080EA030709EA07095B
:1004300088EA0908544088EA020806EA0A0601EA3E
:100440000B018AEA0B0215408AEA3A421040454005
:100450008BEA3B4003405E404240174079404D40AC
:100460004E40E443F64386EA18435D4085EA054082
:1004700083EA134386EA034183EA384284EA11435C
:1004800083EA04435FEA3343BEF1010E3FF6F2AE66
:100490001ED4BCE8F0006040694072407B4020BC44
:1004A000FFF784FE28606960AA60EB60BDE8F08F0A
:1004B0002DE9E0414FF2F00280EA1031114080EA6C
:1004C0000130484041088208C3084FF0000E4FE752
:1004D00000F0113001F0113102F0113203F011334C
:1004E00040EA410040EA820040EAC3004FF2F002D5
:1004F00080EA1031114080EA01304840BDE8E081D7
:100500002DE9F04F02F11C050646074600EB850871
:1005100051F8040B043A46F8040BF9D14FF0010CE2
:10052000FFF7C6FF5FEA302080EA0C001ECF414093
:100530004A4053405C401EC62000464517D04FEA53
:100540004C0C1CF4807F18BFACF1E50C2C2DE7D0CF
:100550003C2D06D1FFF7ACFF06CF41404A4006C60E
:10056000100006CF41404A4006C61000D8E736E9E1
:100570000F00FFF7C5FD043D86E80F00F7D1BDE889
:10058000F08F00BF2DE9F14F03F11C0402EB840C46
:100590004FEA930B8A68CB6808684968FFF7B0FD9B
:1005A0003CE9F0006040694072407B400BF1060E70
:1005B0004EE083EA134480EA134582EA134746BAC1
:1005C00096EA3444604000F00F1684EA063420F0C6
:1005D0000F1684EA161054BA94EA0106724002F02B
:1005E0000F1486EA043622F00F1486EA14124CBA6D
:1005F0006540694001F00F1485EA043521F00F14BD
:1006000085EA14115CBA67407B4003F00F1487EA57
:10061000043723F00F1487EA141344BA44404DBA48
:100620004D4056BA56405FBA5F4087EA174886EA9F
:10063000174B84EA17464FEA38488BEA1B4485EA91
:100640001B4788EA1B4580EA3440694072407B4082
:1006500000F0703400F0803500F00F3040EA4400C4
:1006600040EAD50080EA900404F0332480EA840054
:10067000604001F0703401F0803501F00F3141EA43
:10068000440141EAD50181EA910404F0332481EA6E
:100690008401614002F0703402F0803502F00F32C4
:1006A00042EA440242EAD50282EA920404F0332488
:1006B00082EA8402624003F0703403F0803503F074
:1006C0000F3343EA440343EAD50383EA930404F077
:1006D000332483EA84036340C943DB4381EA000493
:1006E00083EA044686EA020183EA014382EA33454B
:1006F00083EA14435C4084EA00077FEA040A8AEA3A
:10070000024A8AEA010B87EA11488AEA374A80EAF4
:10071000060181EA1A418AEA030A04EA0A0045400E
:1007200088EA040707EA0B0041408AEA0B0608EA58
:10073000060084EA34428AEA3A4602EA060358404E
:100740004540414087EA37438BEA3B4003EA0009D2
:1007500085EA090582EA0309464006EA090671406E
:1007600085EA010005EA3546464006EA314181EA5C
:10077000304181EA364606EA304686EA354634405C
:100780000F4086EA010508EA050886EA364002407D
:1007900088EA020881EA314213405C4080EA0203A1
:1007A00009EA030987EA0907674088EA040806EAB4
:1007B0000A0601EA0B018AEA0B0425408AEA3A4458
:1007C000204045408BEA3B4B02EA0B02564084EA4C
:1007D0000B04234059406E40694087EA364080EA66
:1007E000384080EA060380EA104481EA134585EA2E
:1007F000344585EA17427D4082EA354180EA05406A
:100800003CE9F0006040694072407B40BEF1010E5F
:100810003FF6CFAE20BCFFF7C9FC28606960AA6034
:10082000EB60BDE8F08F00BFFFF76ABE2DE9F0076F
:1008300091E8F807B2E802105B1854EB0C04B2E838
:1008400002104D4156EB0C06B2E802104F4158EB36
:100850000C08B2E8021059EB01095AEB0C0A80E8C7
:10086000F80780410130BDE8F00770472DE9F00737
:1008700091E8F807B2E802105B1A74EB0C04B2E8D6
:1008800002108D4176EB0C06B2E802108F4178EB36
:100890000C08B2E8021079EB01097AEB0C0A80E847
:1008A000F80780414042BDE8F00770472DE9F007A6
:1008B000524290E87800B1E880071740DB1918EA47
:1008C000020854EB080419EA020955EB09051AEA73
:1008D000020A56EB0A0678C090E87800B1E8800773
:1008E00017407B4118EA020854EB080419EA020990
:1008F00055EB09051AEA020A56EB0A0678C0804150
:100900000130BDE8F00770472DE9F007524290E84A
:100910007800B1E880071740DB1B18EA020874EB87
:10092000080419EA020975EB09051AEA020A76EBCE
:100930000A0678C090E87800B1E880071740BB410C
:1009400018EA020874EB080419EA020975EB0905B4
:100950001AEA020A76EB0A0678C080414042BDE8F6
:10096000F00770472DE9F00152424FF0040890E87B
:10097000300091E8C000A31B1340E41AF618EB1BEB
:100980001340ED1AFF1830C0C0C1B8F10108EED114
:10099000BDE8F001704700BF00B592E8DC072DE923
:1009A000DC07B1E8805702B4A7FB02510A95A8FB07
:1009B000020BE7FB6310E9FB62B00B91A8FB03514C
:1009C000EAFB6201E7FB64B5E7FB6605E8FB661539
:1009D000CDF830B0A9FB03B6EAFB6316ECFB635617
:1009E000E8FB640BE9FB641BEAFB645BECFB646BF8
:1009F0000D90ACFB0230059CEEFB6250E9FB64609D
:100A0000EAFB64B0E7FB6431E8FB6451069CE8FB59
:100A10006461E9FB64B1EAFB64010E93A7FB043255
:100A2000079CE7FB6462E8FB64B2E9FB6402EAFB53
:100A30006412049CE9FB6453EAFB6463089CE7FBD3
:100A400064B3E8FB6403E9FB6413EAFB64230F95DA
:100A50005DF8049B99E80006DDF80080A9FB0854C6
:100A6000EAFB68B4DDF81080ECFB6804EEFB681468
:100A7000E9FB6824EAFB6834DDF80480EEFB686576
:100A8000E9FB68B5EAFB6805DDF81480ECFB681546
:100A9000EEFB6825E9FB6835EAFB68450F96DDF853
:100AA0000880AEFB0876E9FB6806EAFB6816DDF80D
:100AB0001880ECFB6826EEFB6836E9FB6846EAFB2B
:100AC0006856DDF80C80ECFB68B7EEFB6807E9FBC5
:100AD0006817EAFB6827DDF81C80ECFB6837EEFB43
:100AE0006847E9FB6857EAFB686708B000BD00BFCC
:100AF0002DE9F14F87B0FFF74FFFDDF81C8008F1BB
:100B0000200888E8FF00FFBC87E87F08BDE8F08F79
:100B100000B591E89857A3FB03520195A3FB04018C
:100B2000E3FB6420E3FB67100292A3FB0752E3FBA5
:100B30006802E4FB6415E3FB6805E3FB69250391A8
:100B4000A4FB07B6E3FB6926E3FB6A56E4FB670BED
:100B5000E4FB682BE3FB6A5BE3FB6C6B0490A4FB98
:100B60000810E4FB6950E3FB6C60E3FB6EB0E7FB4D
:100B70006721E4FB6951E4FB6A61E3FB6EB1E4FBCE
:100B80006E010592A7FB0832E4FB6A62E4FB6CB2DB
:100B9000E4FB6E02E7FB6E12E7FB6853E7FB696359
:100BA000E4FB6CB3E7FB6C03E7FB6E13E8FB6E231F
:100BB0000695A7FB0954E7FB6AB4E7FB6C04E8FB66
:100BC0006C14E8FB6E24E9FB6E34E8FB6865E7FB18
:100BD0006AB5E8FB6A05E8FB6C15E9FB6C25E9FBE7
:100BE0006E35EAFB6E450796A8FB0976E8FB6A06B8
:100BF000E9FB6A16E9FB6C26EAFB6C36EAFB6E46FB
:100C0000ECFB6E56E8FB69B7E9FB6907E9FB6A177D
:100C1000EAFB6A27EAFB6C37ECFB6C47ECFB6E5790
:100C2000EEFB6E6700BD00BF2DE9F14F87B0FFF707
:100C30006FFFDDF81C8008F1200888E8FF00FFBC8A
:100C400087E87F08BDE8F08F30B44FF0000310F85C
:100C5000014B11F8015B013A84EA050443EA0403FD
:100C6000F5D1A3F101034FEAD37030BC704700BF48
:100C70004FF0000310F8012B013943EA0203F9D1C8
:100C8000A3F101034FEAD370704700BF30B411F8ED
:100C9000014B12F8015B6C4000F8014B013BF6D1AF
:100CA00030BC70472DE9F00791E8F807B2E8021070
:100CB0005B1854EB0C04B2E802104D4156EB0C06E5
:100CC000B2E802104F4158EB0C08B2E8021059EBA1
:100CD00001095AEB0C0A8941B3F1FF3374F1FF3477
:100CE00075F1FF3576F1000677F1000778F100081D
:100CF00079F101097AF1FF3A51F100015B184C4199
:100D00004D4156F1000657F1000758F1000859EB24
:100D1000D1795AEB010A80E8F807BDE8F00770477F
:100D20002DE9F00791E8F807B2E802105B1A74EBBE
:100D30000C04B2E802108D4176EB0C06B2E802100A
:100D40008F4178EB0C08B2E8021079EB01097AEBDD
:100D50000C0A89415B184C414D4156F1000657F190
:100D6000000758F1000859EBD1795AEB010A80E8E5
:100D7000F807BDE8F007704718EB040859EB0509C0
:100D80005AEB060A5BEB070B5FF0000C4CF1000C12
:100D900018EB050859EB06095AEB070A5BEB070B42
:100DA00050EB0C005FF0000C51EB0C0152EB0C020D
:100DB00063414CF1000CB8EB070879F100097AF1B6
:100DC000000A7BEB040BA841B141A241B3416CF195
:100DD000000CBBEB050BB041B941AA41BB416CF122
:100DE000000C4CF001068CF0020718EB060859EBDA
:100DF0006C095AEB6C0A7BEB6C0B70EB6C0471EBBF
:100E00006C0572EB670653EB6C076CEB6C0C18EB24
:100E10000C0059EB0C015AEB0C025BF1000354F18E
:100E2000000455F1000556EBDC7657EB0C077047D4
:100E30002DE9F14F87B0FFF7AFFDDDF81080DDF849
:100E40001490DDF818A0FFF797FFBDE8000FFFF73B
:100E500093FF03B05DF8048B88E8FF00BDE8F08FD6
:100E60002DE9F14F87B0FFF753FEDDF81080DDF874
:100E70001490DDF818A0FFF77FFFBDE8000FFFF723
:100E80007BFF03B05DF8048B88E8FF00BDE8F08FBE
:100E9000054B1B780022013382600260034A4260E6
:100EA000C371FF2303727047E00E00208001080029
:100EB000064B074ADB7802604FF422728280C371CE
:100EC0000822002382710372704700BFE00E0020E9
:100ED00033750100064B074A1B7902604FF43872E4
:100EE0008280C3710822002382710372704700BFA1
:100EF000E00E00205B640100064B074A9B7B02600A
:100F00004FF4B8728280C3710822FF23827103728A
:100F1000704700BFE00E0020295E010010B50446B6
:100F200003F0C6FC084AD378127900EB4000134462
:100F30000022A2602260C0000422E371FF2310306F
:100F4000A2712372A08010BDE00E00202DE9F341B4
:100F5000C41D002824F00704064614BF20460020C4
:100F600000F046FC071E04DA6FF00B0002B0BDE88B
:100F7000F0818D4D2989E888EB7AAA7A0331033014
:100F800089B280B211F021FD011EEDDBEB782A79E8
:100F90003C4413440334002EDBB224F0030403FB6F
:100FA00001F114BF2046002000F0CEFD20440EB910
:100FB000B042D9DBAA7B0446B2B12B7C697C1344D6
:100FC0001944FF29D0D80330002E20F0030414BFA9
:100FD00020460020AA89C9B200F02AFE0028C3DBFF
:100FE00004440EB9B442BFDB704FD7F80080B8F1AB
:100FF000000F17D0E97BA9B195F82E30002B00F037
:10100000FC8040234FF481720734002E24F0070443
:1010100014BF20460020C0470028A5DB04440EB9B9
:10102000B442A1DBA978A1B1AB7B1BB93B6883B10A
:10103000EB7B73B10734002E24F0070414BF204665
:10104000002005F08DFC00288EDB04440EB9B4426C
:101050008ADB574B1B6893B1E97D81B10334002EC5
:1010600024F0030414BF204600202A7E984700285D
:10107000FFF67AAF044416B9B442FFF675AF4D4B94
:101080001B688BB1A97D79B10334002E24F00304D1
:1010900014BF2046002098470028FFF665AF04449F
:1010A00016B9B442FFF660AF434B1F68AFB1697C1D
:1010B00099B12B7D00930334002E24F0030414BF58
:1010C00020460020EB7CAA7CB8470028FFF64CAFF6
:1010D000044416B9B442FFF647AF384B1B6893B1CE
:1010E000E97D81B10334002E24F0030414BF2046AF
:1010F00000206A7E98470028FFF636AF044416B9F0
:10110000B442FFF631AF95F82500B6FA86F77F09AD
:10111000A0B1AB7FE97E033424F00704194444F006
:1011200004043B462246C9B200F07CFE0028FFF6CC
:101130001BAF044416B9B442FFF616AF95F826105B
:1011400000295DD004F10708002E28F0070814BF1D
:10115000404600202A8D11F04CFC041EFFF604AF1F
:101160004444002E4FD1B442FFF6FEAE95F8201055
:10117000002956D095F82430002B52D06A8C0734C1
:10118000002E02F1240224F0070814BF404600207C
:1011900092B211F02EFC0028FFF6E6AE40447EB974
:1011A000B042FFF6E1AE0BE0E00E00201C1C002078
:1011B000201C00202C1C0020241C0020281C0020A7
:1011C0006B7FE97E033020F0070040F004041944EF
:1011D00095F824003B462246C9B200F015FE0028CF
:1011E000FFF6C2AE04449EB9B442FFF6BDAE2B6B0F
:1011F00013B3E6B12C630020B8E62523282203E7C9
:10120000002EB3D08846298D40460DF0C9FDADE7CC
:101210006A8C95F82010083292B240460DF0C6FD57
:10122000E5E7002EE3D0002211461046F6E7283409
:101230003FF59AAE204699E6002EDCD1FAE700BFD2
:1012400008B5014672B6094B5B6B0BB1084898476D
:10125000BFF34F8F0749084BCA6802F4E06213439B
:10126000CB60BFF34F8F00BFFDE700BFE00E002053
:101270000395040000ED00E00400FA0513B5114CDD
:101280006389ADF800302389ADF804306846E388FF
:10129000ADF8023003F090F918B148F65300FFF7AB
:1012A000CFFF207D03F0DEF910B14CF2CD70F6E7F0
:1012B000E07C03F0D1F910B144F29C50EFE702B0AA
:1012C00010BD00BFE00E002038B50546002848D00C
:1012D00010F0A6FB10B94FF0FF3038BD0EF0AAF9A0
:1012E000B0F5FA7FF7D8204B204C00211960204B35
:1012F00065632722601D84F83810217084F82E1051
:101300002163196010F05EFE1B22E280228102221E
:1013100001230321E27222761F20F7220825E370C1
:101320002371A172A081A373E173A3744921637631
:10133000628484F82A30FB224FF480730A20E1741F
:101340002285A385A57003F0ADFA28460BF01EFE9A
:10135000EFF3108472B600F075FD04B962B6002098
:10136000BBE76FF01500B8E71C1C0020E00E002062
:10137000281C002010B5002840F0B7805C4C94F881
:101380003830032B00F0AE80A9B1002A78D00139A3
:10139000172900F2AA80DFE801F00C1D20375F67F3
:1013A000803D6A6D7B4349565B858895989B8DA8E7
:1013B000A89E1378E3700020FFF7C8FD0028B7BF90
:1013C0000123022384F838306FF00B00A8BF84F8A3
:1013D000383010BD13782371EDE71379002B4FD00F
:1013E0005379002B4CD01188FB2949D853881B3BDB
:1013F0009BB2E02B44D81A2942D91368C4F80630AE
:101400003C4B92889A80D6E71378227C934237D35C
:10141000A373D0E71378A27B934231D82374CAE731
:101420001378A27B93422BD86374C4E713783BB341
:101430005378013BDBB2F82B22D8138863822E4B02
:1014400092789A70B7E7107860750BF0ABFDB2E751
:101450001378ABB16376AEE71378284A12680AB105
:10146000012B0DD9E373A6E71388A381A3E71378B3
:10147000E375A0E722491378096821B9012B04D844
:101480006FF01500A5E7002BFAD01378237692E7CA
:101490001378082BF4D8A3758DE71388FF2BEFD8AA
:1014A000A37088E71378A37685E713780E2BE7D827
:1014B000E37680E713681349236253684B6013890E
:1014C0000B8178E71378237775E71378A37772E7B2
:1014D000137863776FE71078431E092BD0D803F099
:1014E000E1F968E74FF0FF3073E76FF02C0070E729
:1014F000E00E0020E60E0020F20E00201C1C002052
:10150000281C0020000F0020F8B507460D4630B318
:1015100029B311F0070422D1124E96F83830012B6E
:1015200002D16FF00B00F8BD032B02D14FF0FF305A
:10153000F9E700F0C3FC0028F8D02846FFF706FDC5
:101540000028EEDB16F01DFA3846316B03F028F95F
:10155000FFF794FE032386F838302046E3E76FF068
:101560001500E0E7E00E002010B5074C94F8383085
:10157000032B03D103F02CF904F01CF911F07FFBCD
:10158000002084F8380010BDE00E002008B5064B9E
:1015900093F83830032B03D002F004F9002008BD83
:1015A0004FF0FF30FBE700BFE00E002008B503F06E
:1015B000A3F8BDE808400249042000F011B900BFBB
:1015C000F90E000008B503F0ABF8BDE80840024989
:1015D000032000F005B900BFD50E000008B503F0E8
:1015E000C1F80649012000F0FBF80549002000F091
:1015F000F7F8044B044A1A6008BD00BF910E0000C2
:10160000B10E00001C1C0020F5B2000008B5054911
:10161000112000F0E5F803F04FF8BDE808400BF0AA
:10162000A9BC00BF1D0F000008B50549112000F03E
:10163000D7F803F041F8BDE8084008F045BB00BF0B
:101640001D0F0000074B4FF0FF3141F6FF72C3E959
:10165000001205490022C1E900221F21C3E902123C
:10166000704700BFC00400201C0F00203F280CD88A
:1016700001380B4BC0F3421200F01F0053F8223028
:1016800023FA00F000F001007047FF2806D0403830
:10169000C0F34212034B00F01F00EFE70120704738
:1016A000C00400201C0F00200146054A006849685C
:1016B000134603C340F48C2313600020704700BF1F
:1016C000C00400200246034B0068516803C3002099
:1016D000704700BF1C0F00200246034B0068516892
:1016E00003C30020704700BFC80400203F280DD866
:1016F0000138074BC0F3421203EB820300F01F00D6
:101700009B6823FA00F000F001007047002070474A
:10171000C0040020F0B50C88C37B0288A5B2C4F3D6
:101720000E0404F110060233865B1A44334497B268
:1017300013FA82F3013B4288B3FBF7F313FB074331
:101740009BB29A42034A86BF2A40134322EA05030A
:101750000B80F0BD0080FFFF08B54B1E062B03D8A1
:101760004CF2A650FFF76CFD094B994202D947F2A3
:101770004660F7E719B900B10160084608BD28B115
:1017800003680022C3E901211A1D1A600431F4E73D
:10179000FAFFFF7F10B5114B00EB41041A78638903
:1017A000B3FBF2F303FB0223013A1A44B2F5706F64
:1017B000027928BF00231A448378B2FBF3F019445E
:1017C00003FB1020091AB1FBF3F003FB10131344C1
:1017D0006FEA43436FEA5343638110BD240F002037
:1017E000024B03EB80035960704700BF240F0020B9
:1017F0002DE9F04F10F0070A85B0054603D04EF6EC
:10180000A700FFF71DFDDFF85C8108F15806B1461F
:10181000044637464FF0010BD8F800308DF80BA086
:1018200043B101A898479DF80A30082B02D94CF61D
:101830003910E6E79DF80B1061BB05B1316008F186
:101840000408C84506F10406E6D1002D72D0DFF881
:101850001891002389F8003098464FF0150C57F87E
:101860002CA00CF1FF3CBAF1000F53D09AF80460A1
:101870009AF802E0FF2E45D060460022411C36D186
:101880009644BEF1FF0F3ED90BB189F8008044F6B3
:10189000E620B6E79DF80A00BDF808200244013AA8
:1018A00043421A40B2F5803F02D34EF61650A8E7E5
:1018B000022838BF02204B1D00F1FF3C04EB43041B
:1018C0006444404204407DB1A4EB4303336099700B
:1018D0001A8083F803B09DF80C00187101981881E4
:1018E0004FEA104CA3F806C002FB0144A7E757F8E3
:1018F000201029B191F804B0B34504BF897852187B
:101900000138BBE70022F0458AF804203CBF5FFAAB
:101910008EF80123BCF1FF3FA1D10BB189F8008003
:10192000152640F6FF6A57F82680B8F1000F15D14A
:10193000013EF8D2601B05B0BDE8F08F08EB410313
:101940004046A3F80AA0FFF725FF09F1010998F81E
:1019500002305FFA89F18B42F0D8E9E74FF00009D5
:10196000F5E700BF280F0020240F002038B54FF600
:10197000FF730380174B03EB8103DB6DABB19C78E6
:101980001A79B2FBF4F104FB1122D2B2114603EB37
:101990004105B5F90A50002D0FDB0131B1FBF4F51B
:1019A00004FB1511C9B28A42F1D1002038BD628111
:1019B0001846BDE8384010F0E5BF03EB41046289EA
:1019C000C2F30E020280D8780028F0D14FF6EF1053
:1019D000FFF736FC240F00201A4B03EB810370B590
:1019E000DC6D05461CB3030421D40146204610F0EB
:1019F000ABFFFF28014604D02046BDE8704010F040
:101A0000C1BFA078B5FBF0F300FB1353DBB219465E
:101A10000A1D04EB4206B6F90260002E09DB013113
:101A2000B1FBF0F200FB1211C9B28B42F0D10020E1
:101A300070BD8B4201D00023E37004EB420255805D
:101A4000DAE700BF240F0020094B03EB810310B538
:101A5000DC6D0146204610F077FFFF28014604D0D8
:101A60002046BDE8104010F08DBF002010BD00BF23
:101A7000240F0020F8B5104B03EB81030746DC6D03
:101A80000146204610F060FFFF28064611D0E2888C
:101A9000238953EA024506D00146204610F072FF22
:101AA00001463846A84720463146FFF773FE00201E
:101AB000F8BD0520FCE700BF240F002038B50E4B11
:101AC000827903EB82030446D86D08B9052038BD3E
:101AD0008278E1799142F9D24B1CE37100EB41032A
:101AE0005D89B3F90A30002BF3DBA58010F04AFFC3
:101AF00020600020EBE700BF240F002008B5114B49
:101B000003EB8103DB6D1BB94EF6C520FFF798FB95
:101B10009A78C01A511DA0EB41001988B0FBF1F072
:101B2000002801DB824202DC41F2B740EEE703EB22
:101B300040035889B3F90A30002B02DA4EF63450CC
:101B4000E4E708BD240F002070B5044610F0030040
:101B50000E4603D04BF6BD00FFF772FBFFF7FCFD0E
:101B6000054624B1034831460460FFF7F5FD2846D9
:101B700070BD00BFD80F00202DE9F14FDFF874B021
:101B80009DF828A09DF82C701E46DBF8003080469A
:101B90000D4691461BB945F61E00FFF751FB524614
:101BA0000921484610F097FD3A4684B20921304693
:101BB00010F091FD14FA80F1DBF8000010F099FEAE
:101BC000C8F8000018B9286001B0BDE8F08F2044C3
:101BD0002860D8F8000053464946092210F042FD1B
:101BE00028683B460922314601B0BDE8F04F10F0AD
:101BF00039BD00BFD80F002070B50E46044610F066
:101C00007DFD0546304610F079FD044B2A1821462B
:101C10001868BDE8704010F090BE00BFD80F0020DB
:101C2000024B186808B110F058BE7047D80F00205A
:101C30001F2AF8B50ED89200033222F00303B3F541
:101C4000803F2ED2184CB0B1850711D04FF6FC0062
:101C5000FFF7F6FAFF2A4FEA420304D9FF329A420D
:101C6000A8BF1A46E8E77C2BB8BF7C231A46E3E7F7
:101C700021706060238122F003022823120464682B
:101C80004B4300250127120CEEB2B14201D8184691
:101C9000F8BD10B1C61827706660134401352834AA
:101CA000F2E74FF0FF33F2E7DC0F002070B5154A82
:101CB000157853680021C8B2854203D849F28140A3
:101CC000FFF7BEFA1C46184614F8286B01310EB90E
:101CD0002346F0E700219970128999610124D961A6
:101CE00059685C70920803F11E0403F1260524F87C
:101CF000022FA54243F8041F1144F8D10023436189
:101D0000037070BDDC0F00200A4B1B89B3F5FF7F09
:101D10004FEA930006D25A089B1A9BB2984238BFEA
:101D200018467047B3F5EE6F01D8FF22F4E740F292
:101D30007263F3E7DC0F00204B782DE9F041064693
:101D40000C4602F0040702F0FB05EBB1002D34D184
:101D5000FF23A3707B0804EB57073A7D032A02D1C7
:101D6000022D18BF0133E21803F10C00012104EB2E
:101D700083031175002224F810205B68A270C6E965
:101D800000323046BDE8F081002DE1D101234B70D7
:101D90001C4B8D611B89CD61084601F11E0249680B
:101DA0009B0804F1260C22F8023F944540F8041FDA
:101DB0001944F8D100236361CAE7D1F804801422E2
:101DC00000216170A01810F0FDF80E4B1B89B3F5CF
:101DD000FF7F0FD25A089B1A9BB208EB0301C4F88D
:101DE00004802384A1606284C4F80C80A3842161F0
:101DF000E284ADE7B3F5EE6F4FF0FF02EBD940F2AE
:101E00007263EAE7DC0F002007B5CDE900230B463B
:101E100003490246081D10F00CFF03B000BD00BFCF
:101E20000810002013B5CDE900230B4602460349F4
:101E3000034810F0FEFE02B010BD00BF10100020DD
:101E400014100020134B012200214FF0FF309A6044
:101E5000C3F80012C3F80803C3F80015C3F804253B
:101E60009A60C3F80803C3F80015C3F804250A49AB
:101E70000A4A03F580334FF40040C3F80825C1F83F
:101E80008000BFF34F8FBFF36F8FC1F88001C3F89D
:101E90000825704700F0004000E100E00000F63F38
:101EA000024B02681A600020704700BF1810002023
:101EB000014B1B68184700BF18100020024B186820
:101EC000003818BF01207047181000208C469B2353
:101ED00000B50CF8033B054B8E4607CBCEF803004C
:101EE000CCF80410CCF8082000BD00BF281000205A
:101EF00010B5154C0CF06AF90CF09AFC636A608C12
:101F000000219847237E93B9618CA06A04F084FE77
:101F1000A36AB3F8B20004F0D9FC236B94F82C1038
:101F200094F82D009847002384F8343010BD94E8CD
:101F3000070004F10C0383E80700044904F11900C9
:101F400012F046FDE0E700BF1C100020CD1E00008F
:101F5000034B93F8343003B97047FFF7C9BF00BF94
:101F60001C10002010B5304A946A94F8B03082B04A
:101F70007BB101281CD0012917D892F82C10A1B9E7
:101F8000518C11F0200110D113BB012823D0184629
:101F90000CE00028EFD1B2F836C01CF0040FEAD0F4
:101FA00094F810C0BCF1070FE5D1012002B010BDBC
:101FB000B2F836C01CF0080FDDD092F838C0BCF182
:101FC000000FF2D194F810C0BCF1080FD3D1ECE7A8
:101FD00008B10846EAE701930BF06AFA61698142A9
:101FE000E3D3A17C0029E0D10F4A019BD18E33B10C
:101FF0008B0704D592F8383083F00100D6E700292A
:10200000D3D192F839301BB992F83A30002BCCD0AA
:10201000936AD3F81811B3F824210B8A93422CBF8A
:1020200000200120C2E700BF1C10002008B5084BAB
:1020300093F83420022A07D1DA7A42F00102DA72E8
:10204000BDE80840FFF754BF49F6FB50FFF7F8F82A
:102050001C10002021494278D1F83CC09CF8003087
:10206000D20002F0080203F0F303134382789200D7
:1020700002F004021343C278120102F0100203F0CE
:10208000EC031343027802F0030213438CF8003090
:10209000B1F848308CF801300223A1F84030D1F873
:1020A0003CC000799CF80030420123F0200302F08C
:1020B0002002134301288CF800300DD18B6A93F86D
:1020C000C22093F8C330032A08BF002203F01F0385
:1020D00043EA82138CF80230704700BF1C100020C6
:1020E000F0B5174CE66C83B02EB3A36D1BB33378F9
:1020F000354601F0030123F003030B4305F8033BCE
:102100000746B4F85C20A16D28460FF0E1FF0DF101
:10211000020201A9206E2665A56510F0D4FB019886
:1021200010F0BFFB0346B4F85C10206E3B6010F06B
:102130009AFB03B0F0BD42F6D410FFF781F800BF60
:102140001C1000202DE9F041B54C86B0A56A002393
:1021500004938DF814308DF80930ADF80A302B7ADD
:10216000062B00F27281DFE813F09300D8004000E4
:1021700040007001070007000DF10A0103A802F0FA
:10218000BBFD002800F00481039B002B00F00081C0
:1021900006210A462972BDF80A10E3630120A4F85B
:1021A000481084F87000002900F0898103336364CB
:1021B000B5F80910ADF81110053A012A00F2B78000
:1021C0001B780322022B8DF8102000F00881E06EAE
:1021D00010F013FB0346002840F0D580626C1278A3
:1021E0001B2A00F06381002233E0B5F82431E06E51
:1021F000ADF80A300DF109020DF10A0110F0A4FA50
:102200000346002800F06281012284F870202A7AB7
:10221000BDF80A10E363A4F84810002900F0958087
:1022200003336364B5F80910ADF81110022AC3D165
:102230000223E06E8DF8103010F0DFFA034600281C
:102240007ED1009002F072FD009A80F001038DF8BB
:102250001330697E8DF8142084F8393004A821B138
:10226000B4F84830002B40F09780FFF7F3FEE06BA6
:10227000FF210BF075FD0CF0DBFA01200BF06AFF7B
:10228000012384F8783084F8343006B0BDE8F0815A
:1022900095F8B0300022A5F84C20002B62D0AB7B23
:1022A000243B072B5ED9EB7B243B072B5AD995F8AF
:1022B0003031CDE900300BF0F5F80328D4F828C010
:1022C000009B01994FF0000200F0E880BCF81EE18D
:1022D0000138714538BFAEEB010EC0B238BF1FFAEE
:1022E0008EF203289BBF4F4951F8201092004A43B9
:1022F000013BDBB2032B9CBF4A4901EB8303B4F8DB
:10230000681094BF1B690423B2FBF3F2BCF81C31C4
:102310000A44934228BF134626E00023A4F848301D
:102320006364414AB5F80930E263ADF81130012326
:10233000E06E8DF8103010F060FA0346002880D06F
:1023400001228DF81320002283E7B5F80930ADF89B
:102350001130022A61643FF46BAF053A012A40F262
:10236000B380E4E7B4F86830A5F824310DF10A0130
:1023700003A8ADF80A3002F0BFFC98B3039B8BB3FF
:1023800005210A4606E701228DF81320626C26E734
:1023900045F24E40FEF754FFFFF75CFE606FFF21F1
:1023A0000BF0DEFCE16B606F0CF0CCF965E7CDE97A
:1023B00000320DF031FB019A009B80458A4157D2D3
:1023C00001232B72A4F848606664174A8DF8103018
:1023D000B5F80930ADF80A60E263ADF811300023BA
:1023E0001A4636E7BDF80A3003B3A36A93F85D30A6
:1023F0001E46DBB9E06E0DF10A010DF1090210F085
:10240000A3F9034690B19DF8092012BB00221A805F
:102410009A7003222A720322012184F87010F7E6D1
:102420001C100020500F0400801000200023012207
:102430002A72A4F848306364264AADF80A30B5F829
:102440000930E263ADF8113071E74DF63B60FEF7FD
:10245000F7FE1946E06E009310F01FFA10F021FA13
:102460000368426853EA020198460746009B9ED1E2
:102470009DF8091000223A707A70BA70FA703A71B9
:102480007A71BA71FA710029C0D0197801F003018C
:102490000129BED02A7702222A72BDE71A293FF607
:1024A00027AFC1F11B0212B2920121E7012105F110
:1024B000C20000930BF028F8009B0122C9E6B5F892
:1024C0000930ADF811306164002379E64DF647001C
:1024D000FEF7B6FE801000202DE9F04FA54C94F8D1
:1024E0003420A56A8BB00023022ACDE9083340F0DE
:1024F000A982236D80461A7803200E465978A4F8E5
:102500005C100344A4F85400A36502EA000B4FEAF0
:102510002219C2F3001AB8F1000F2DD1AB7E002BA7
:1025200040F0778194F87A30013384F87A30638C04
:1025300043F4806363840AF0B5FF0328E26C00F083
:102540000081002A00F0888109F0010384F83A3004
:10255000002E40F00681002794F87A100120FFF742
:1025600001FD002800F0368107900BF02FFE079F39
:10257000638C5A066CD463E0002940F04D816B7A7D
:10258000E164618C013341F40071618483EA92015A
:1025900011F001071FD1297A002900F0ED800329ED
:1025A0006B7200F29E81012900F0E680B5F84C3094
:1025B000E06EA5F84E3008A9079210F0EAF8079AE5
:1025C000002800F04F82AB6F0133AB67EB6F43F134
:1025D0000003EB67D4E04746AB7EC2F3C002002B9A
:1025E0007AD0B4F85C30002B00F09980CDF81C80D4
:1025F000B04616460CF038F90328FBD002283246C4
:102600004646DDF81C8000F0DF80002864D1AB7AFC
:1026100003F001039A4200F0D480E36C002B00F039
:10262000028109F0010384F83A30002E00F086811F
:102630000BF0CCFD638C580600F1E4803E46474623
:10264000636A002140209847638C43F04003638411
:10265000A06A7EB1EB8843B990F8B0302BB1B4F8E2
:102660000530B4F80720134304D0B4F8093001331F
:10267000A4F80930B035B8F1000F00F09C80B4F830
:1026800005300133A4F80530002384F87A3004F0D3
:102690000DF9089830B110F004F9002202722946B1
:1026A00003F0A0F9099B33B100221A720C22099899
:1026B000294603F065F9002F40F08680638C1B06E5
:1026C00007D4636A394680209847638C43F08003BF
:1026D00063840BB0BDE8F08FA97A01F001039A4240
:1026E0009BD1B4F85C3003B30BF1FF32012A40F206
:1026F00040810131BBF1030FA97200F02181D5F8AF
:1027000080200132C5F88020D5F8842042F10002F3
:10271000C5F88420E26C002A83D1914686E0A97A2C
:1027200001F001039A427FF478AF0131BBF1030F4E
:10273000A97200F00581E36C002B7FF472AF99461B
:1027400074E0B4F85C301B2B94BF00270127002AEB
:1027500000F0E68009F0010384F83A30002E3FF4DF
:10276000FBAE0BF033FD668C16F0400620D101273E
:1027700066E700BF1C100020B5F84C30A5F84E30BD
:10278000A36A0021297293F8B0305BB16B794BB129
:10279000E38E697143F01003E3861020636A0792A9
:1027A0009847079A638C43F400636384002713E718
:1027B000A06AB0350127B4F807300133A4F8073018
:1027C00065E7012384F82D30FFF792FB0BB0BDE8DD
:1027D000F08F4F46687E002843D195F83021B5F838
:1027E000E8100BF07BF9B4F85C00FFF7ABFCBFE638
:1027F0000BF0ECFC594609A8FFF772FC638C5906F4
:102800007FF51CAFA06A002F7FF424AFB035474698
:1028100035E70CF067F885E6206E079210F00DF8AA
:10282000079A0146ABE69946B4F85C30002B14BF1A
:1028300000220AF0010284F83A20002E40F01681AE
:1028400094F87A100120FFF78DFB3E460028C0D097
:102850000BF0BCFC01278BE6B4F85C3091461746C0
:10286000E4E70023079395F83031013BDBB2032BFB
:1028700000F2F4804FF0FB0CD5E91E9A95F83A016E
:10288000CDE902C305F198034FF0010E0193002337
:10289000CDF814E00493A36A93F8B0C0BCFA8CFCA2
:1028A0004FEA5C1C80005346CDF800C000F0FC00ED
:1028B00005F188014A460BF0A1FE95F83021B5F8E4
:1028C000E81000200BF00AF9B4F85C00FFF73AFCBE
:1028D000079B002B3FF44CAE594609A8FFF700FCBC
:1028E00046E60539012900F2B180B5F84C30A5F86B
:1028F0004E30079202F00EFA002800F0AB80E38E13
:1029000043F00803E3863946636A08209847AB6FB3
:10291000079A0133AB67EB6F43F10003EB672FE7D7
:10292000B946174682E709F0010384F83A30638C10
:1029300043F020036384002E7FF47AAE3E460AE61D
:10294000638C4D4943F480536384E38E012043F04C
:102950000103E3862871636A9847D5F88030013314
:10296000C5F88030D5F8843043F10003C5F88430D1
:1029700053E6638C43F480536384AB7E07930AF081
:1029800091FD0328B5F81E2107D1079B002B0CBF32
:102990001F231B239A4228BF1A46B4F85C30E16C0F
:1029A000934234D800293DD094F87930002BBAD125
:1029B00009F0010384F83A30D5F880300133C5F8C6
:1029C0008030AB7A03F10103AB72D5F8843043F168
:1029D0000003C5F88430002E7FF40AAF94F87A1013
:1029E0000120FFF7BFFA034600287FF401AF6A7E9B
:1029F000079222BB95F83021B5F8E8100BF06EF87D
:102A0000B4F85C00FFF79EFB3E46079F64E794F82E
:102A10002C2042F0100284F82C2000297FF401AE13
:102A2000894603E78B4214BF00220AF0010284F8B2
:102A30003A20B146002E3FF403AF3E4608E73E463B
:102A40001F4610E745F22F60FEF7FAFB40F66E7066
:102A5000FEF7F6FB48F2D640FEF7F2FB4DF2FB1014
:102A6000FEF7EEFB4DF29950FEF7EAFB0BF0AEFBE2
:102A70003B4637461E467BE5741000202DE9F043A7
:102A8000534C94F83430012B89B040F09880A56AFB
:102A90002A7906460F467AB1E28E079342F0040285
:102AA0000021E2862971626A04209047A26A92F8A6
:102AB000B0200AB1079B6B712B7A052B06D006B9A3
:102AC000DFB909B0BDE8F043FFF712BAE38E414920
:102AD00043F00203E3860220636A9847A36A93F8EF
:102AE000B030002BEBD0636C1B78A3F10203B3FA78
:102AF00083F35B0984F83830E1E731463046FFF76D
:102B000031FA0028DDD1AB7ED4F82890002B37D1E4
:102B100099F83121B9F8EA1001200AF0DFFFA56A1F
:102B2000D4F88000AB7EB4F87C104FF48172C4E915
:102B30001402DBB90BF014F90BF07AFE95F8313181
:102B4000B5F8EC20B5F8EA10033B012B8CBF002050
:102B50002820104480B20BF05BFA00200BF0FAFA48
:102B6000022384F8343009B0BDE8F0830431606F8B
:102B700089B20BF0F5F8616F206D0BF025FEDDE7F3
:102B800099F83131013BDBB2032B1CD8B4F87CC07F
:102B900005F19802D5E92078CDE90336CDE9012C7D
:102BA0000120059005F1880199F8B050AD1B18BFC0
:102BB00001253A46434600950BF020FDA8E749F26F
:102BC000C870FEF73DFB4DF2FB10FEF739FB00BF6E
:102BD0001C1000206010002010B50C4C0C4A94F81A
:102BE00034300C4911601BB148F67620FEF728FB03
:102BF00003F0FF02227604F007F801F001FEC4F8AA
:102C0000800001F001FE606710BD00BF1C100020B5
:102C1000301C0020D42E0000084A92F834300BB14A
:102C20000C20704700B583B003F0FF0010760190D0
:102C300003F0EAFF019803B000BD00BF1C100020A4
:102C400070B58E4C94F8346086B0002E40F00E8142
:102C5000002900F00B81002A00F00881054606F0EB
:102C6000FF0084F87930C4E90915226384F82C0048
:102C700084F87A0084F82D0084F87800E086608477
:102C800084F8390084F83A0084F8700084F8380039
:102C9000E0636064A4F848002065A065A4F85C00C7
:102CA0000AF090FC0BF0C4FD95F938010AF0DCFC49
:102CB000D5F8DC60D5F8D4000AF0DEFC30460BF025
:102CC00027F895F82B000AF0E1FCB5F8E830642B02
:102CD00066D9B5F8EA30642B62D9A36A93F8B0607C
:102CE000002E64D093F8DE32002B7AD103F070FF0F
:102CF00095F8312100F16B0101200AF0DBFE604BF9
:102D000018680BF00BF8AB7BD5E93212243B072B8C
:102D1000E166226668D9EB7B243B072B64D9B5F8C2
:102D2000FA30B5F81E61A4F8683002F0A9FFA36A72
:102D3000B04238BF304693F8B02081B2A4F87C107E
:102D4000002A48D0AA7E002A5AD19B7ED4F880005F
:102D500020654FF481726265002B47D10BF000F8BB
:102D60000BF066FD00200BF0F5F9A36A0222D3F800
:102D7000E00184F834200BF00FF90023C4E900339C
:102D8000A360D5F83431E888B5F8B21095F82B2057
:102D90006080218022710BB101221A6006B070BDE3
:102DA0000AF078FBA36A93F8B060002E9AD103F082
:102DB0000FFF95F83021334B334933F8123003F5C8
:102DC000FA738446A1FB03130CEB931130464A318E
:102DD0000AF070FE93E76B7E63BB0020FFF7B2F949
:102DE000CBE70AF0D1FB81E71B239AE70431606F40
:102DF00089B20AF0B5FF616F206D0BF0E5FCB1E719
:102E000095F83131013BDBB2032B33D8039301201A
:102E10000023CDE9043005F19803CDE9013105F136
:102E20008801D5E9202300900BF0E8FBA36AB4F8F1
:102E30007C108AE795F83031013BDBB2032B19D8BF
:102E4000049295F83A010393FB230122029305F1C2
:102E50009803CDE9002305928000D5E91E2300F0F8
:102E6000FC0005F188010BF0C9FBB6E740F6043021
:102E7000FEF7E6F94DF2FB10FEF7E2F91C10002018
:102E8000301C0020D4110400D34D6210FFF730B87D
:102E9000014B93F8780070471C100020054A538CB2
:102EA00013F4C06F03D092F8700000B17047C3F301
:102EB000003070471C100020024B93F82300C0F331
:102EC000C00070471C100020014B93F87A00704737
:102ED0001C1000202D200000D92400007D2A0000B5
:102EE000511F00002DE9F3410024134D0746884689
:102EF00026462B78CDE900668DF806306846FEF749
:102F0000DDFD30B10134082C05F10405F1D10020BC
:102F100005E06B88009AD058B84203D1012002B076
:102F2000BDE8F081B8F1000FE8D0784011F053FF10
:102F30000128E3D8F2E700BFE02C010010B50446F9
:102F40000FF09FFE08B9002010BDE0430FF099FE7E
:102F50000028F8D0E31683EAA4635A1E1A42F2D07E
:102F6000E3B25A1E13405A1E1342ECD0A0B211F025
:102F70007CFF0B28E7D8204611F073FF1828E2D811
:102F8000A3B2B3EB144F04D184EA142313F0FF1F50
:102F9000D9D0044B63405A1E1A4214BF01200020AE
:102FA000D2E700BFD6BE898EF0B5070CA7F5AA42BE
:102FB000144B543A012A03EA90231FD927F4004006
:102FC00042F6AA22801A18BF0120002216211646B6
:102FD0001F2487EA060562EA0505013510D0DD03E6
:102FE000ADB245EA5606E503ADB2013945EA5202F3
:102FF0004FEA53034FEA5404EBD1F0BD0020E4E75D
:103000000020FAE7E0FF3F000138C0B2032808B50E
:1030100003D94EF23F70FEF713F9014B185C08BD5F
:10302000700F04000138C0B2032808B503D94EF26E
:103030003F70FEF705F9014B185C08BDC00F040096
:103040000138C0B2032808B503D94EF23F70FEF72D
:10305000F7F8014B185C08BD941004000138C0B2A9
:10306000032808B503D94EF23F70FEF7E9F8014B8B
:10307000185C08BD1C110400F7B50023CDE900332E
:1030800005460E4617466846FEF718FD08B10020B3
:103090001AE0009CAC42F6D030460FF031FE04F14D
:1030A000B50394F8B420394610F025FF0028EAD083
:1030B00094F8BB2095F8BB0004F1BC0305F1BC01FA
:1030C00010F019FF0028DED003B0F0BD054A516AA8
:1030D00011F8030B02F11D03C0F38010127F10F0F2
:1030E0000ABF00BF6C160020012817D80D48824285
:1030F00016D8012B0DD140F252739A4210D90A4BC7
:10310000A1F6C41098420BD88A428CBF122000202E
:103110007047042BF3D140F6C313EEE7122070473B
:10312000302070478FFD7002CBF3700210B504465B
:103130000A4813F013FC2046094908F0C9F9204653
:1031400013F03FFB38B1204607F020FE204613F075
:1031500002FC002010BD1220FCE700BF541100202B
:103160005C110020F8B58C1FA4B240F67A47BC422F
:10317000BDF81860BDF81C5016D8941FA4B2BC420C
:103180008CBF0024012488B91A48C07B88B194B947
:103190006FF45067C819062804D86FF450601018EF
:1031A000062808D92046F8BD0024ECE790F88900ED
:1031B000ECE7002CF6D0914219D803FB0555B5F584
:1031C000FA7F14DCA6F10A039BB240F676408342F4
:1031D0000DD810460FF0B4FD42F210735E4300FBB1
:1031E00005F1B6EB410F8CBF01240024DAE700247F
:1031F000D8E700BF201100202DE9F04398467F4B0F
:103200007F4D85B0044618681B798DF80C3095F811
:10321000643002900F46164613B102A802F0E4F99A
:103220003946204610F0AEFFAB69C4F8F03096F88E
:103230004A2006EB4202B2F82A9048460FF080FD81
:1032400001466FF450608144B9F1060F7DD9908C2E
:103250000FF076FD4FF09612002384F83A31C4F84F
:10326000E820A4F8EC3040F2E24203F05BFC40F2CC
:10327000E2430146A4F8E431C4F8D010C4F8E011E8
:1032800001F00AFB830654BF1B23EB88A4F8FC3033
:1032900058BF1A465B4BA97B1B6848BF2A89A4F814
:1032A000FE2084F8F8101BB194F93811384698477D
:1032B000EB7B003B18BF012384F83931524B1B686C
:1032C0001BB15249B4F8B20098470123A4F8E63084
:1032D0004F4B1B681BB14F49B4F8B20098474E4B97
:1032E0001B681BB14D49B4F8B20098474C4B1B68A2
:1032F00013B1B4F8B20098474A4B1B6813B1B4F845
:10330000B2009847484B1B6813B1B4F8B200984715
:10331000464B1B6813B1B4F8B20098472B89EA8872
:103320006979019129790091033303329BB292B2FA
:1033300004F1CC0104F1C800FEF71EFCD4F8C8303B
:1033400083B94AF64950FDF77BFF012384F83A31EF
:103350004FF04D13C4F8E8300023A4F8EC304FF4DC
:103360007A7387E7D4F8CC3013B945F6CF00EAE793
:103370000FF097FCC4F8D400B8F1000F05D002F0AC
:103380009DFC20F07F40C4F8DC0096F84A30E969E3
:1033900006EB43062046338EA4F8D830F38EA4F80B
:1033A000DA3013F076FF02A904F11D0010F078FF67
:1033B00095F8643013B9FF2384F82D32AB6E0BB14E
:1033C000204698471A4904F1B00010F0FBFA02F0C9
:1033D00075FC0C23B0FBF3F202FB1300431D0D3010
:1033E000C0B2DBB2082B98BF034684F829302046D0
:1033F00002F0D0F805B0BDE8F08300BFD5A204000C
:10340000201100204C1C0020601C002044110020D2
:103410005C1C00207A110020581C00206C11002038
:10342000401C0020441C0020341C0020641C002090
:103430002A11002010B504210020FEF705FB0446E8
:1034400068B90421FEF7C8FA044618B946F6BC105C
:10345000FDF7F6FE034B93F96C1012F0AAFC204620
:1034600010BD00BF20110020014BD888704700BF5D
:103470002011002010B510F03DFD01F0F3FD01F02A
:103480006FFA11F07EFA03F07DFA02F0CDF809F040
:10349000D5FD012001F0BCF9164B174C174A00214D
:1034A00019601B23C4E90123F9232382144B6363AE
:1034B00010224FF4E06304F13C002180A181E1730C
:1034C000A17484F83110238784F83A100EF07AFD45
:1034D000012304F15A0042F21072C4E9102284F868
:1034E0003C30237514F0E4F804F14C00BDE81040C2
:1034F00014F002B9481C00202011002003021B0018
:1035000001010002044B41F64C521B21C3E9062283
:1035100099731A62FFF7AEBF2011002073B5404DBA
:10352000AB69C0F8F030EB7BAE7B003B18BF0123EA
:1035300080F839313B4BC0F8D030044602F09AFB9A
:10354000002818BF002601F0A7F9830654BF1B23EB
:10355000EB88A4F8FC3058BF1A46334B48BF2A8981
:103560001B68A4F8FE2084F8F86023B194F93811A0
:10357000B4F8B20098472D4B1B681BB12C49B4F826
:10358000B20098472B4904F1B00010F01BFA012358
:10359000A4F8E630284B1B681BB1B4F8B200002138
:1035A0009847264B1B681BB1B4F8B200002198471E
:1035B000234B1B6813B1B4F8B2009847214B1B682A
:1035C00013B1B4F8B20098471F4B1B6813B1B4F89D
:1035D000B20098471D4B1B6813B1B4F8B20098476E
:1035E0002B89EA88697901912979009103330332A3
:1035F0009BB292B204F1CC0104F1C800FEF7BCFA10
:10360000D4F8C8301BB942F20B20FDF719FED4F8EC
:10361000CC3013B94FF65420F7E702B070BD00BFAD
:103620002011002000093D004C1C0020601C0020DF
:10363000441100202A1100205C1C0020581C00208E
:10364000401C0020441C0020341C0020641C00206E
:103650002DE9F34105460F4612F0EBFB002800F080
:103660009080284612F012FD40B1B7F80130013BBE
:103670007F2B03D9122002B0BDE8F081284612F05A
:1036800009FD08B90C20F6E7284612F05FFA002879
:10369000F8D1284612F077FB06460028F2D12846DA
:1036A00005F01AF80028E5D0F978B7F80180284627
:1036B00012F0D7FC05213878FEF7C6F90721044639
:1036C0003878FEF7C1F924B138B14CF25120FDF73A
:1036D000B7FD08B390F8E56004462B4F3B68DBB1BB
:1036E0004034204611F0CDFFB0B1204611F0BAFFB2
:1036F00090B93EB1254B20461B68984760B14DF20A
:103700007350E4E722493B68096A324620469847ED
:1037100010B140F6B920DAE742F21073284603FBF5
:1037200008F812F0ABFC014638B94246284604F0CE
:103730002BF820B34FF68800C9E703210DF10600EE
:10374000FEF714F9044608B90D2094E7BDF80610F9
:1037500010F045FD2146284612F0CCFC2046FFF72C
:10376000DDFE42462146284604F00EF810B141F233
:10377000D770ACE7064B9B6E0BB1204698470020F4
:1037800079E7422077E700BF541C0020501C00203E
:1037900020110020024B1B6803B118470C20704712
:1037A000481C002008B509F015FC0FF035FB024B52
:1037B00083F86C0008BD00BF20110020014B93F975
:1037C0006C00704720110020034BDA8802801B79BF
:1037D00083700020704700BF2011002070B58378EF
:1037E0001A2B064608D8042B04D92C4A22FA03F3D4
:1037F000DB0705D412200BE0292B01D03B2BF9D19C
:10380000308810F099FC70B190F83C210AB10C207E
:1038100070BDB27880F83D21FF2280F83C210FF086
:10382000E4FB0020F4E730880A21FEF70DF9044696
:1038300090B3B0F8AC0110F07FFC05460028E6D04C
:10384000B4F8AE010921FEF7FFF818B949F2BC003F
:10385000FDF7F6FC03781BB994F8C831032BD6D1D9
:1038600095F85231002BD2D194F8F031002BCED103
:10387000B4F8B031A5F8543194F8B83185F8563120
:10388000037D85F85731B37885F8583184F8F031E5
:10389000FF2385F85231C4E70220B9E7200038043D
:1038A00038B50278447802F0010354EA030101D1EB
:1038B000112038BD92071AD48578002DF8D0002B3E
:1038C00018BF002400E01D4620460FF0AFFA002884
:1038D000EED028460FF0AAFA0028E9D0064B1A7B52
:1038E0009C7222F00302DD721A730020E1E7002BC4
:1038F000E9D000242546E7E72011002010B5008814
:1039000010F033FCD0B190F84E2112B13A24204689
:1039100010BD90F8682002F0FF04002AF6D190F85C
:103920005F20920705D1FF2280F84E210FF05DFB4A
:10393000EDE70349603011F04BF8E8E70224E6E7D1
:10394000C95501002DE9F0470378032B044603D93C
:1039500012252846BDE8F08743780F2BF8D813F0DE
:103960000C0F57D162789308120759D4637EA5785B
:10397000002B5AD1012DEBD100F0E4FF85434DD14E
:1039800094F8028018F0010506D02269A168E07859
:103990000123FFF7A9FB054618F0020F07D02269A3
:1039A000A168E0780223FFF79FFB2843C5B218F017
:1039B000040F00F08D8094F803A0D4F808902269D9
:1039C000042349465046FFF78FFB284310F0FF05BC
:1039D000BFD1B8F1050F0ED194F80480E168626997
:1039E00004234046FFF780FB05460028B1D1C245BD
:1039F00014D1894512D1237E013BDBB2062BA7D817
:103A000001210020FEF720F80546A0B941F68A60A2
:103A1000FDF716FC0FF0A1F90028A3D1112598E7B6
:103A200003F00303032BA1D092E715F0FA0F8FD117
:103A3000002D8DD0A0E7A83013F00FFA18B195F83B
:103A400054309B0742D1657EE278A0786378A16804
:103A500094F8009094F818E0003D18BF0125012A61
:103A60001ABFB2FA82F25209022210F0010F03F0DB
:103A70000308C3F3810C00F0040323D026695BB173
:103A80006769F319994207D24B089E4228BF1E4628
:103A90008B1B9F4228BF1F460F4B83F83A50C3E948
:103AA000101683F8340083F8352083F8369083F8B5
:103AB000378083F838C083F839E083F83C009F648E
:103AC000002546E7002BE7D02769E5E70C2540E70E
:103AD000002D90D03DE700BF2011002000B5837974
:103AE000032B89B02AD88DF8053001238DF80630D4
:103AF00003788DF80730B0F8013042798DF8042052
:103B000040F271214B430393B0F803204A430D491F
:103B1000059291F839108DF81C1000218DF81D10B8
:103B20000949A2F6C4128A420AD8A3F6C4138B42EA
:103B300006D801A8FFF706FF09B000BD1220FBE779
:103B40003020F9E7201100203C369C002DE9FF4190
:103B500007460078012813D17B78012B03D9022B6B
:103B60000CD1BB8853B17A88B2B1BB88A3B10A210A
:103B70004A434FF4A0614B439A420DDB122479E093
:103B80000028FBD10121FDF75FFF0546002840F02A
:103B90008D8042F2665007E001210020FDF754FFBE
:103BA000054618B947F2E250FDF74AFBBB88002BE7
:103BB00076D112F095FD002874D195F81431002BC0
:103BC00072D12846FFF7B2FA04460028D6D1012167
:103BD0000846DFF83081FDF737FF98F813100646E6
:103BE00019B110B94CF2C400DEE798F83420002374
:103BF000CDE9023312F001031CBFD8F84400029053
:103C0000520741BF04AA02EB8303D8F8482043F8C7
:103C1000082C002941D096F81431002B3DD07B8828
:103C2000DBBB98F834300093D8F8402098F8361071
:103C300002AB304612F03AFE78B3304613F013F977
:103C400006F14003074605F14002683653F8041BAD
:103C500042F8041BB342F9D12846FFF767FA014640
:103C600010B140F2EF609FE70C2F07D102462846C3
:103C700013F0AEFA204604B0BDE8F08117B147F268
:103C80008C1091E798F83530296D43F0040385F8DE
:103C90005430284613F07CFAECE7BA887988E6E7D6
:103CA0001124E7E73A24E5E70C24E3E713F086F86C
:103CB00004460028DED195F8543095F8A62022B1AC
:103CC00095F8A720134385F8A600053BDBB2012B2E
:103CD000D0D82B6D13B943F6AE6065E701210846D5
:103CE000FDF7B2FE4FF4C072294606460EF0F0F919
:103CF000002386F894300423316D86F85430304622
:103D0000C8E700BF201100202DE9F04F457AAA072F
:103D10008BB0044618D545F001054572072D15D81E
:103D200000F010FE35EA000040F0958094F848302D
:103D30008BB9012D0AD1A369A64AA3F2537393420A
:103D400000F24681012609E06B07E7D112242046E4
:103D50000BB0BDE8F08F15F00106ECD1AF0745BF01
:103D6000731CB1464FF0FF09DEB26D070AD5B31DD3
:103D7000994A54F82330A3F6C413934200F22881E1
:103D80000136F6B204F1080704F122054FF00008ED
:103D90005FFA88F39E422ED80EF0DFFF237810B929
:103DA0009A1E022A57D9042BD0D813B9A378012B15
:103DB000CCD86378032BC9D894F84930013BDBB2E7
:103DC000062BC3D8854F01210020FDF73DFEFB7C6B
:103DD0000546002B46D101210846FDF735FE002897
:103DE00018BF054605F1A80013F037F8064600286D
:103DF00052D00C24ABE799452FD0D7F804A03B69EB
:103E00005345A3D86A8B2B8C9A429FD8B5F814B02F
:103E10006988EB892A890120CDE900B00020CDE92D
:103E20000213FFF79FF9002800F0D280B8F1000FCD
:103E300013D028880299884288D1E988914285D197
:103E4000AA89039B9A4281D16B8A5B457FF47EAF3E
:103E50003B689A4501D0112479E708F1010804373D
:103E6000023595E7A83012F0F8FF0028B3D0D5E965
:103E70002A126FF000439A4208BFB1F1FF3FAAD166
:103E8000637A0093E268617804F11803284612F01F
:103E90000DFD064600289ED0284612F027FC08B1EA
:103EA0003A2454E7284612F01BFC0028F8D1BB7CCA
:103EB00043B9CDE9063307238DF81E3006A8FDF778
:103EC000FDFD60B300210DF11600FDF74FFD074623
:103ED00000287BD0BDF8161001232246FFF78CF98D
:103EE000384613F0EEF91EB96178284612F09CFCB2
:103EF00004F10308A27821784346284612F040FCDA
:103F000000286DD11224B7F8B2000021FDF7B2FDF0
:103F100000283FF41CAF4DF62D70FDF791F9069B7C
:103F200093F8CD20802AC9D093F8E530002BC5D076
:103F30005FE7637A8DF8186013F001011FBFA06975
:103F4000089001208DF81800481CC0B213F0020F31
:103F5000E268079218BF014658071BD59DF8180064
:103F6000063103F0050354F82110099140F00400D4
:103F7000052B8DF818000DD108980B189A4209D21C
:103F80005308834228BF0346D21A08938A4294BF3B
:103F90000992099106A9284607F09AFA94F8481060
:103FA000003918BF0121284612F0E7FB94F84910A8
:103FB000284612F0C8FB284612F0CDFC39462846A8
:103FC00013F0E6F80024C2E60B249CE70D24BEE6BD
:103FD0003024BCE63CF67002CBF3700220110020C6
:103FE00016B9284606F0D2FE2178A2784346284624
:103FF00012F027FC94F8099000F0A4FC09EA0001F3
:1040000001F00501284612F0A1FB16B9042385F83A
:1040100054302F65A0780EF073FE424601462846C4
:1040200012F029FC237833B9A17842463846FFF7CD
:1040300023F80028C8D1002E3FF47BAF0421284686
:1040400012F0C8FB0028BDD10C245CE710B5437901
:10405000032B94B057D823F002038DF80630D0F824
:104060000630CDF807304389ADF80B3001238DF8C9
:104070000D30038802798DF8042040F27121027B13
:104080008DF805204B43049342884A430792847B72
:10409000417B41EA0421ADF82810047CC17B41EA50
:1040A0000421ADF82E10847C417C41EA0421ADF856
:1040B0003410047DC17C41EA0421ADF83A10417D01
:1040C000847D41EA0421ADF84010C17D007E41EAC3
:1040D0000021ADF8461000218DF84C100C488DF8E9
:1040E0004E100C4990F839008DF84D00A2F6C4121C
:1040F0008A420AD8A3F6C4138B4206D801A8FFF758
:1041000003FE14B010BD1220FBE73020F9E700BF1A
:10411000201100203C369C0073B507230024CDE914
:1041200000448DF806306846FDF7C8FC08B100264B
:1041300010E0009C94F8CD30802BF4D094F8E5602A
:10414000002EF0D094F83131002BECD194F8CC3023
:10415000002BE8D101210020FDF776FC054618B9B7
:104160004DF6D140FDF76CF8A83012F076FE234BE7
:10417000DB7C7BB3E8B195F85430053BDBB2012B17
:1041800017D8284612F06FFE044610B14FF24920AE
:10419000E8E7284606F06AFD95F8543023F004035A
:1041A00085F8543022462146284613F011F80024A1
:1041B0000DE001210846FDF747FC054610B941F620
:1041C0006740CFE7A83012F048FE60B90C242046C3
:1041D00002B070BD28B9002EF8D0FF2384F8CC308F
:1041E000E5E7002EF9D1284612F03DFE04460028EE
:1041F000EDD1284606F03AFDE9E700BF2011002086
:1042000013B504460FF0CAFE002851D0204601F035
:10421000FBF90023CDE90033FF246846FDF74EFC8F
:1042200068B3244B1B6803B1984700244FF48023E4
:10423000CDE90043FF246846FDF740FC18B3002099
:104240004FF4A023CDE90003FF246846FDF736FCB8
:10425000E8B100214FF4E023CDE90013FF246846C4
:10426000FDF72CFCB8B100224FF43023CDE9002338
:104270006846FDF723FC90B1002002B010BD009B02
:1042800083F82D42C9E7009B83F89A40D3E7009B4F
:1042900083F83440D9E7009B83F83440DFE7009B84
:1042A00093F83820032AE3D1FF2283F82220DFE7A6
:1042B0001220E2E7381C002070B583780A2B0646EE
:1042C00034D800880FF038FF044688B330881121B5
:1042D000FDF7BAFB18B948F68B70FCF7B1FF94F8FC
:1042E000503113B10C25284670BD837A03F0FF05C9
:1042F000002BF7D194F871301B0706D4FF2384F804
:104300004F31FF2384F85031EDE794F87530DB0925
:1043100007D0037BB178427B8B4228BF0B469A4281
:10432000EFD30449023010F04AFBDCE71225DAE74C
:104330000225D8E767770100F8B50678EF2E044626
:104340000F4601D91220F8BD4378827813F010018E
:1043500028D19D0603F003000CD50028F2D11807E0
:10436000F0D45D0758B208D50028EBDB12F0030F3C
:10437000E8D104E00328F2D1E4E70028F6DA207956
:10438000E278E57942EA0022607942EA0042A079C7
:1043900040EA0520257A40EA05408242D2D81F2A09
:1043A00014D8CFE71806CDD402F0030203F0600062
:1043B0000243C7D1DD075BD503F00E02022A03D00A
:1043C00003F00602042ABDD11807D8D5627A013A53
:1043D000D2B2062AB6D8A27A032AB3D813F00403BD
:1043E00002D1023A012A03D8E27A012AAAD813B9E3
:1043F000A37C032BA6D8237D00293CD0012BA1D17F
:10440000237E012B9ED8002942D06378D90703D59B
:1044100000F0A2F9002842D094F90130002B03DA11
:104420000EF09BFC00283AD004213046FDF70CFB2F
:104430000546002843D104213046FDF7CDFA054654
:10444000002857D02C4B93F96C1011F0B2FC0021CE
:10445000304613F007F9002837D1284611F00BFE3B
:104460003870E07421462846BDE8F84011F012BDCE
:1044700013F00C0F7CE7022B3FF464AFA37D013BEC
:10448000DBB2022B3FF65EAFE37D0F2BB8D959E7C5
:1044900000F058FA820707D4237D022B01D11120A6
:1044A00051E7A37D022BFAD000F04CFA4307ACD4BD
:1044B000237D032BF3D0A37D032BA6D1EFE711F0CF
:1044C00045FB0028C3D00C203DE7403011F0D9F85F
:1044D0000028C2D0637803F03303002B7FF432AF9F
:1044E000296AA67D284611F0E2FDFEF78DFD864281
:1044F000B3D0E8E7072026E72011002030B5037984
:10450000042B8BB0024652D84188B1F5804F4ED86B
:10451000284818440024037BC579ADF8044043F0D3
:10452000100343EA4503457C807D8DF80C4043EA47
:10453000850343EAC00303F01F038DF80430BDF880
:104540000430ADF80D3013888DF80F301B0A8DF84C
:10455000103021F07F438DF812301B0A8DF8133094
:10456000537B8DF8153053798DF8163093798DF88B
:104570001730B2F80B30ADF81C30937BD2F807003F
:104580008DF81E307F2306908DF81F3001A94FF063
:10459000011303A88DF811408DF814400893ADF86D
:1045A00024408DF82640FFF7C7FE0BB030BD122027
:1045B000FBE700BF700F04000278034672B1427837
:1045C00062B142881A2A09D982881A2A06D9044A6D
:1045D000006850609B88138100207047122070474C
:1045E00020110020024B02689A610020704700BF32
:1045F00020110020024B0268DA610020704700BFE2
:10460000201100200378A3F10A02112A9DBF024A5B
:104610000020937312207047201100200378FF2B95
:1046200015D14378FF2B12D18378FF2B0FD1C3789C
:10463000FF2B0CD1037923F0E0021F2A07D11F2B97
:1046400005D0044A5B0982F83930002070471220F7
:10465000704700BF20110020014B187400207047E4
:1046600020110020014B58740020704720110020B9
:10467000024B1B6803B11847112070473C1C0020F7
:1046800008B5052000F0D0F812F092FF014B024A65
:104690009A6608BD201100208D5A000008B505203B
:1046A00000F0C2F805F004FB014B024A9A6608BD0F
:1046B000201100208D5A000008B53F2000F0B4F80A
:1046C00002F07EF8014B024A1A6008BD401C00202F
:1046D000FF77010008B5074B01221A7103F0E6FFCE
:1046E00004F0D0FC0FF02DF901F07CF8BDE8084093
:1046F00003F014BA9011002010B5054905480FF0D9
:10470000BBF8BDE81040044904480FF0B5B800BF3D
:104710002C05002098110020340500209C11002059
:1047200010B5094C094904F108000FF0A5F804F18F
:104730000C0007490FF0A0F804F110000549BDE88E
:1047400010400FF099B800BF901100205C050020C8
:104750006405002054050020014B1879704700BF04
:104760009011002010B50A4C072000F05DF804F10C
:10477000080008490FF080F804F10C0006490FF01A
:104780007BF804F110000549BDE810400FF074B843
:1047900090110020440500204C0500203C0500201D
:1047A00038B5074C0D4600F0F3FFA06825600FF008
:1047B0005BF8FEF7A7FE01F099FA0123237538BDD7
:1047C00090110020014B187D704700BF9011002010
:1047D00010B50A4CE0680FF047F820690FF044F874
:1047E000FEF748FE202000F033F8262000F030F8D5
:1047F000292000F02DF80023237510BD9011002012
:1048000000487047A511002000487047A7120020FB
:10481000014B83F81902704790110020014B93F867
:104820001902704790110020C208074900F00700E4
:1048300001238340885C03438B5404490B789342E3
:1048400038BF13460B707047D0040020AA13002015
:1048500010B50F4BC40803EBD002012100F0070094
:1048600001FA00F0195D21EA0001195509490B7898
:10487000A34204D10020147814B100B10B7010BD14
:10488000002BFAD0013B013ADBB20120F3E700BF75
:10489000D0040020AA130020014BD3E90001704787
:1048A000D0040020014B5870704700BFAA130020AD
:1048B000014B5878704700BFAA130020004870478A
:1048C000D8040020064B1878072881BF0838182321
:1048D000B0FBF3F001308CBFC0B20020704700BFC6
:1048E000AA130020004870478C0F040070B50C46D6
:1048F0001121FDF7A9F800B3114AA4F14001C1F359
:1049000047135478052B94BF01222B22944215D3D0
:1049100006241826B3FBF4F2D5B204FB123306FBCF
:1049200005001030DBB201F01F0150F823300122E6
:104930008A401A4214BF0120002070BD0020FCE70D
:10494000AA130020054B1868C0F3C022C0F3002052
:10495000400040EA820040F001007047D00400208F
:1049600008B50AF067FE084A002332F82310814296
:1049700005D302EB83029378044A137008BD013318
:104980000C2BF2D10023F7E7900F0400AC130020AA
:10499000024B1878072828BF07207047AC13002067
:1049A0002DE9F04786B090F80F80ADF80C3090F804
:1049B0006F3043EAD3030446D8070F4616465DD549
:1049C00094F8B050002F5ED038468DF81300002EBA
:1049D0005CD1FFF7B7FF304B8DF81400D3F800A07F
:1049E000BAF1000F0DD0A8F126014B424B410093C4
:1049F000284605AB0DF1130204F1B001D04705467E
:104A000030B99DF8132012B19DF814302BB9092547
:104A1000B8F1260F2ED100231A4694F8391129B186
:104A2000920737D59B0735D502231A46FF2184F814
:104A3000491194F8481101F0FF0549BB9DF8381061
:104A400084F84B31BDF80C3084F84811A4F84C318F
:104A500084F84A21BDF80C308DF8147005A904F1D2
:104A6000B0008DF81560ADF816300EF0ABFF0023E6
:104A700084F84931284606B0BDE8F087B8F1260F22
:104A80009ED01A25F6E7FFF75DFF9EE73046A2E7C6
:104A90003A25ECE70925EDE7681C002010B5B0F8D1
:104AA000B23080F87B110446A0F87C3190F83001D8
:104AB000FEF7B8FA84F87E0194F83101FEF7B2FAF5
:104AC00084F87F01034904F5B970BDE810400FF088
:104AD0007FBF00BF8B39010030B5C1F30722CCB2D4
:104AE000174985B009780190C5B2C0F3072349B9C9
:104AF000114620460EF054FF20B9194628460EF004
:104B00004FFFC0B12B40234002EA030004460EF0E1
:104B10000AF9024620460EF006F9032A06D19DF84E
:104B2000063003F00303012B08BF0422D2B242EA8D
:104B3000002005B030BD05EA02001C40E7E700BFD9
:104B4000AD130020F0B5052A857B85B0044633D12E
:104B5000C37B272B3AD100F10F064F788A7807F0F4
:104B6000070702F007027B1E501E3B401040034324
:104B700022D110460EF0BDFF88B394F83031984230
:104B80002DD094F84AC112EA0C0F15D0252D26D04D
:104B900094F829C112EA0C0F21D1013BDBB2032B9F
:104BA00019D8DFF808C1013863445CFA80F093F843
:104BB00004C003799C4512D9A5F1250359425941F6
:104BC000204605B0BDE8F0400EF05FBF252D6BD14B
:104BD00000F10E06C1E74DF67D40FCF731FB38468B
:104BE0000EF087FF38B194F83131834203D094F846
:104BF0004B311F42E0D0B1F8035003AB009339466C
:104C00002B4620460EF082FF04F10F0738BB94F8C4
:104C10004831012B20D1B4F84C3194F8301163F3B2
:104C20000F0004F52A72E3880EF0D2FF054680B922
:104C300001462046FFF732FF84F848513570BE42E6
:104C40001FD10023E373204610F068F9002005B05F
:104C5000F0BD2C23A373F2E784F84801EFE7E38863
:104C6000A4F8A852013DED1AADB247F6FD739D427E
:104C70000BD9282384F83730204601F0AFFBBE4221
:104C8000E1D0002384F85630E0E7E37B0D2B02D01F
:104C90000A3B012B01D82A23ECE7BDF80C30A4F81D
:104CA000AA3229233370EAE70220D0E7C00F0400BC
:104CB000024B002283F832209A867047AE13002000
:104CC000044B93F83220012A1ABF03600120002010
:104CD000704700BFAE130020064A92F83230012B15
:104CE0001FBF0123908682F83230184608BF00208B
:104CF000704700BFAE130020054A92F832302BB146
:104D0000026009B1938E0B800120704718467047EE
:104D1000AE130020044B93F8320000229A8610B1A3
:104D200083F8322001207047AE130020034B93F824
:104D30003200B0FA80F04009704700BFAE13002087
:104D400050B90A4A1346012003F8010B0868C2F85B
:104D500001008A889A807047012805D1034B0A68B0
:104D60009A608A88D8719A81704700BFE413002046
:104D700050B90B4B187888B1D3F80120B3F805303F
:104D80000A608B8001207047012806D1044BD87936
:104D900020B19A680A609B89F3E70020704700BF42
:104DA000E413002010B9044B18787047012806BF9F
:104DB000014BD87900207047E4130020F7B5002399
:104DC0008A888DF80600ADF804208DF807300B4A6C
:104DD0000868019D147802F5AC72D9B28C4201D8F2
:104DE000082108E052F8087F5668AE4208BF8742A3
:104DF00003F10103F1D1084603B0F0BDF813002020
:104E000030B5094B00211C7A03F20F13CAB2944249
:104E100001D8082205E013F8015F854201F1010184
:104E2000F4D1104630BD00BFF81300202DE9F8433F
:104E30002A4C257A013DEDB204EB000E85429EF826
:104E400010612572074628D005F1010804EB08130C
:104E500000F1010C0FCB04EB0C1989E80F0004EBF7
:104E6000081380330FCB09F1800C8CE80F00631915
:104E700093F810218EF8102106225543574305F56B
:104E80008C7507F58C776059E0516219E1199288A9
:104E90008A8093F848318EF848313046FFF7B0FFEA
:104EA000082818D12378013BDBB29E42237012D030
:104EB0002C3304EBC30393E8030006F12C0204EB4C
:104EC000C20282E803002078FFF79AFF08281CBF7F
:104ED000241884F81061BDE8F88300BFF81300209F
:104EE000F0B5244D95F8A04189B0224605F2A111F4
:104EF00068460DF0EDF8214668460FF020F80446AC
:104F0000002835D000EB4001C9B202A8FCF7D0FF61
:104F100095F8A9310120013C95F8A021E4B205E003
:104F20000133B3FBF2F102FB1133DBB203F12001D9
:104F30000DEB010616F8201C0029F1D104EB440109
:104F40002031694403EB43022A4411F8187C82F8AB
:104F5000AA7111F8177C11F8161C82F8AB7182F84F
:104F6000AC1106F8200CEA1882F8A101002CD2D16D
:104F700009B0F0BDF813002070B5064688B00C46A5
:104F8000002A4ED0294890F8A931C11891F8A121E2
:104F90001AB941F64F20FCF753F903EB43020244E0
:104FA000013392F8AA51E57092F8AB5192F8AC2116
:104FB00062710022257181F8A12190F8A021B3FB34
:104FC000F2F102FB113380F8A93190F8CA3123B90C
:104FD000174900F5E1700FF0F8FC657905F03F0521
:104FE00045F0400565710D22002168460CF0EAFF8E
:104FF000E3788DF80F3023798DF80E3004AA04235E
:10500000694630468DF80D500CF0D0FD9DF81F30EC
:1050100023709DF81E3063709DF81D30A37008B09A
:1050200070BD03216018FCF743FFD6E7F81300209A
:10503000E14E0000044B1A7A824286BF1B1893F897
:1050400058010020704700BFF8130020044B1A7A63
:10505000824286BF1B1893F850010020704700BFA2
:10506000F8130020074B00224FF461711A701A7276
:1050700083F8CB2183F8CC21A3F8CE1183F8CA2181
:10508000704700BFF8130020014B93F8CC01704724
:10509000F813002010B51446FFF790FE082813D02F
:1050A000FFF7AEFE094B1A7A82420DD904B1207087
:1050B000034493F8482193F85801012A08BF40F0AF
:1050C000010000F0010010BD0120FAE7F8130020F4
:1050D0002DE9F0478246894617469846FFF76EFE4F
:1050E00008280546064603D0FFF78AFE08285FD148
:1050F000314C237A072B5DD8082D15D12678731CE7
:10510000072E237003D94FF6C370FCF799F806F108
:105110002C02D9F8000044F8320004EBC203B9F8BD
:1051200004209A8083F806A0257A6A1C04EB0211F9
:10513000227207F11003013913F8010D01F8010F74
:105140009F42F9D104EB021208F110037F3213F8E9
:10515000011D02F8011F9845F9D1102140460EF0BB
:1051600033FF2544102185F8500138460EF02CFFFE
:10517000002385F85801217A104885F8106185F8D8
:1051800048310EF0DCFE0128054606D8217A0C488D
:105190000EF0D5FE002818BF013584F8A051002577
:1051A000284684F8A951FFF79BFE2846BDE8F08702
:1051B0001220FBE70720F9E7F8130020481500202C
:1051C0005015002010B5064B187A013840B200285F
:1051D00000DA10BDC4B22046FFF728FE601EF5E7D6
:1051E000F8130020014B83F8CB017047F81300201F
:1051F000014B93F8CB017047F8130020431E9BB27C
:105200004AF2B71293429DBF024BA3F8CE01012090
:1052100000207047F8130020014BB3F8CE0170470F
:10522000F813002030B50A4B1C7A84420ED918447A
:1052300090F810012C3003EBC004A5790D7053F8E1
:1052400030001060A3889380012030BD0020FCE76F
:10525000F813002070B506460D4608F049FF07F028
:1052600095FF0A4890F8CB4164B1017A61B100F131
:10527000900310303246002D08BF184607F04CFF4F
:1052800007F0ACFF204670BD0C46FBE7F81300208A
:1052900008B50246054801F1090300EB031001219E
:1052A00007F03AFFBDE8084007F098BFF813002068
:1052B0000246074810B590F8CB4124B1017A21B1DC
:1052C000103007F029FF204610BD0C46FBE700BF59
:1052D000F81300202DE9F74F304E00929A46337AAA
:1052E00083428046894657D9331893F8504184F059
:1052F000010409B393F85831F3B944F002070134BB
:10530000BAF1000F1AD1FA070BD5062101FB08618B
:1053100008F10900524601F58C7106EB0010FFF709
:105320002BFEBB0734D508F101005246494606EB77
:105330000010FFF721FE2BE02746E1E796F8A95180
:105340004FF0010B002CDED0721992F8A1319BB9FD
:10535000009BDBB1019200F099FC05EB450333445F
:10536000019A83F8AA014FEA102C000C83F8ABC114
:1053700083F8AC0182F8A1B196F8A0310135B5FBF4
:10538000F3F203FB1255EDB2013CDBE747F00407F3
:10539000384603B0BDE8F08F0027F9E7F813002086
:1053A000F8B5184C064640B3217A04F5A8700EF003
:1053B000C6FD94F8A0510746294604F2A1100EF04C
:1053C000BEFD2D1AEDB2AF4219D80025237AE8B2FE
:1053D000834201D80120F8BD231893F8503153B906
:1053E000062101FB00410930324601F58C7104EBC6
:1053F0000010FFF7C1FD0135E8E70546E6E70020AC
:10540000E9E700BFF8130020F0B51B4F3B7A834259
:1054100089B006460D462DD93B1893F850414CBB38
:105420000D22214668460CF0CDFDEB788DF80F304B
:105430002B798DF80E3006F109006B798DF80D305F
:1054400004AA0423694607EB00100CF0AFFB2A788E
:105450009DF81F309A420AD16A789DF81E309A4210
:1054600005D1AC789DF81D30E31A5C425C412046C2
:1054700009B0F0BD0020FBE7F8130020074B1A7AB3
:10548000824209D91A1892F850212AB9062202FB41
:10549000003000F58C70704700207047F813002032
:1054A000064B1A7A824281BF1B1893F84801B0FA62
:1054B00080F0400998BF0020704700BFF81300201B
:1054C000F8B50E4607460621304615460EF07CFD1F
:1054D000044670B10C4B0022187A03F24713D1B284
:1054E000884202D801242046F8BD03F8015F01324A
:1054F000F5E7314638460EF03DFD0828F3D0024B63
:10550000034483F84851EDE7F8130020034B80F87B
:1055100088101B680BB14088184770476C1C00202E
:105520000B2808B503D94FF28250FBF789FE024BD6
:1055300033F8100008BD00BFC80F040030B50024C8
:10554000D0F8D030A0F84840C464B0F8504042F2DF
:1055500010755C43B4FBF1F4A0F850404C1E05FB01
:105560000242B2FBF1F2A0F84A20094AB2FBF1F282
:105570000132A0F85420B0F8442005FB0244C26B6D
:10558000B4FBF1F453430464B3FBF1F3C36330BDE4
:10559000005A620240F6B83310B5B0F8DA20A0F82D
:1055A0004430D0F8D010FFF7C9FF90F8B03004466F
:1055B00093B10B4B1B68062B01D001330DD1094B66
:1055C0001B68063B083308D9D4F8D400FDF7ECFC7F
:1055D00018B9012384F8DE3210BD0023FAE700BFBA
:1055E000981B00209C1B0020054B1B7833B9054BF2
:1055F0001A681B7902600371012070470020704710
:10560000C8150020E0040020054BFF221A70054A4F
:10561000016811600179117100221A70704700BF92
:10562000C8150020E004002007B5054B186800905D
:105630001B798DF804306846FFF7E6FF03B000BD24
:10564000D5A2040069B13F280DD8084B1B5C03F0BC
:105650007F02914207D08CBF0120002000EAD310C6
:105660007047084670470120704700BFE00F0400F4
:10567000FF230B7002234B7083238B70014B1B782D
:10568000CB707047CC1500202DE9F84F4768FE69B4
:1056900030460D460DF0EFF8044618B94DF2DF30F4
:1056A000FBF7CEFD014630460DF0F3F8B4F800A04C
:1056B0001FFA8AF88346B8F1000F02D14FF64970FD
:1056C000EEE71C4B1B68ABB9BB78FA782B706B7894
:1056D000A5F802A062F3030323F0C0036B709BF8EC
:1056E000003003F00303012B0ED0022B0CD04BF241
:1056F000EC00D5E7C11C424678889847044600284C
:10570000E2D12046BDE8F88F6A7863F305126A702B
:1057100030460DF0C8F8044610B94EF65B00BFE7FE
:1057200042460BF10301281D0CF0D2FC30460DF06F
:1057300053F8E6E7741C002038B5134C1022002102
:10574000201D0CF03FFC01252574102204F10803F4
:10575000002104F11400C4E901330CF033FC84F897
:10576000205004F11803C4E90533084A002363629A
:10577000A36284F82C30C4F82D30C4F8313084F89A
:1057800035301360A36338BDCC150020741C002095
:1057900010B5074C2378FF2B03D040F2B250FBF733
:1057A0004FFD0CF049FA2070BDE81040FFF7C4BF70
:1057B000E504002010B5034C20780CF057FAFF23C5
:1057C000237010BDE5040020014B18780CF05EBA80
:1057D000E5040020014B024A1A607047701C00204B
:1057E00089560000014B024A1A607047701C002065
:1057F00089560000F7B55E4D0646AB68AC69227A63
:10580000012A20D1AA6B4AB1137A1BB94BF2A730F7
:10581000FBF716FDAC6BCCB9002091E01A7A012A97
:10582000FAD0544A1C46EFF3108172B650680068F3
:10583000506001B962B6A34208BFAC63237A2BB9AA
:1058400047F61930E4E705F11402ECE7277AFFB2D6
:10585000052323727B1E0B2B7AD8DFE803F0760634
:105860002134734C3D3D3D3D3D68636813B94FF2B3
:105870000E00CDE72046314698470420EFF3108212
:1058800072B6237A052BD9B24FF0000365D123728B
:10589000A96BA14200D1AB63002A44D162B642E0B9
:1058A000636813B947F2B840B2E7314620469847DB
:1058B0000346C3F30723012BADF80400C0B23DD06B
:1058C000022BDBD12AE0636813B94BF29B609FE7A0
:1058D000204698470020D1E7274B1B68002BF9D0C2
:1058E00060683A4631469847A7F10A02534253414D
:1058F0005B000420E4E7636813B94CF2CB6087E7F0
:105900008622327001225988B27072710022986921
:10591000A6F80310B2710CF05FFF0420AB6BA3423A
:1059200001D10023AB6300283FF467AF08E0134BBD
:1059300031461B6820469847034660B9277290B1EC
:1059400003B0F0BD43F26B2062E74DF667205FE7DE
:1059500047F66B005CE70220E0E711B944F6380037
:1059600056E7184698E7002B7FF447AF54E700BF8F
:10597000CC150020D0150020781C0020701C0020C1
:1059800010B51346027A1AB144F28140FBF758FC75
:105990000A46BDE81040014601480EF0F4BF00BFC2
:1059A000D0150020044890F82C301BB9034924304E
:1059B0000FF005B8704700BFCC15002077490100F3
:1059C0000346064890F83C203AB190F8352022B9B9
:1059D00000F82D3B02490EF0F2BF7047CC150020B5
:1059E0007156000010B50A46037A1BB143F29510B8
:1059F000FBF726FC0146BDE81040024806230EF0E6
:105A0000C2BF00BFE01500201346027A0AB103723C
:105A100070470A46014601480EF0B5BFD015002078
:105A2000034B1B221A804FF4A4725A80704700BFA8
:105A30000A160020002900F110024FF01B110CBFC4
:105A40004FF4A4734FF42963826201611B22016247
:105A5000C1620649828302834281C3834383C38236
:105A60008382C38401638286838470471B0048015C
:105A700012B9024B18805980704700BF0A160020E7
:105A8000014909300EF0A4BF574A010038B5044659
:105A900010F8B01FB1FA81F1002304F59F72490993
:105AA0000FF0BCF82A4BB4F8442119885D88B4F88B
:105AB0004631B4F840018A4228BF0A46AB4228BFAB
:105AC0002B46884228BF0846B4F84211A4F8442166
:105AD000A94228BF29461B28A4F84631A4F8400152
