:1000000070DC00200DCD0100334B0300F9CC010062
:10001000F9CC0100F9CC0100F9CC0100F9CC0100C8
:10002000000000000000000000000000DDCD010025
:10003000F9CC010000000000C5CF0100F9CC01009F
:1000400045D0010045D0010045D0010045D0010058
:1000500045D0010045D0010045D0010045D0010048
:1000600045D0010045D0010045D0010045D0010038
:1000700045D0010045D0010045D0010045D0010028
:1002500045D00100C176030045D0010045D0010022
:1002600045D0010045D00100AB76030045D0010028
:1002700045D0010045D0010045D0010045D0010026
:1002800045D0010045D0010045D0010045D0010016
:1002900045D0010045D0010045D0010045D0010006
:1002A00045D0010045D0010045D0010045D00100F6
:1002B00045D0010045D0010045D0010045D00100E6
:1002C00045D0010045D0010045D0010045D00100D6
:1002D00045D0010045D0010045D0010045D00100C6
:1002E00045D0010045D0010045D0010045D00100B6
:1002F00045D0010045D0010045D0010045D00100A6
:1003000045D0010045D0010045D0010045D0010095
:1003100045D0010045D0010045D0010045D0010085
:1003200045D0010045D0010045D0010045D0010075
:1003300045D0010045D0010045D0010045D0010065
:1003400045D0010045D0010045D0010045D0010055
:1003500045D0010045D0010045D0010045D0010045
:1003600045D0010045D0010045D0010045D0010035
:1003700045D0010045D0010045D0010045D0010025
:1003800045D0010045D0010045D0010045D0010015
:1003900045D0010045D0010045D0010045D0010005
:1003A00045D0010045D0010045D0010045D00100F5
:1003B00045D0010045D0010045D0010045D00100E5
:1003C00045D0010045D0010045D0010045D00100D5
:1003D00045D00100D776030045D0010045D001008B
:1003E00045D0010045D0010045D0010045D00100B5
:1003F00045D0010045D0010045D0010045D00100A5
:1004000045D0010045D0010045D0010045D0010094
:1004100045D0010045D0010045D0010045D0010084
:1004200045D0010045D0010045D0010045D0010074
:1004300045D0010045D0010045D0010045D0010064
:1004400045D0010045D0010045D0010045D0010054
:1004500045D0010045D0010045D0010045D0010044
:1004600045D0010045D0010045D0010045D0010034
:0C04700045D0010045D0010045D001003E
:10048000054B00221B78826001330260034A426000
:10049000C371FF23037270473810002080010800E9
:1004A000064A074B02604FF42672DB7882800822EE
:1004B000C371002382710372704700BF4756010069
:1004C00038100020064A074B02604FF43E721B7939
:1004D00082800822C371002382710372704700BFBB
:1004E0009D52010038100020064A074B02604FF46D
:1004F000B0729B7B82800822C371FF2382710372DA
:10050000704700BF654C010038100020094991F880
:100510002B30CA7803EB43030979DB000A4400213E
:100520001033C27181608380042301608371FF23D3
:1005300003727047381000202DE9F341C41D0028D4
:10054000064624F007040CBF0020204600F070FC93
:10055000071E04DA6FF00B0002B0BDE8F081994D80
:100560002989E8880331EB7A0330AA7A89B280B20C
:1005700010F067FA0028EDDB3C44E9782B79002E77
:1005800004F10304194424F0030400FB01F10CBF3F
:100590000020204600F0F6FD20440EB90028D9DBEB
:1005A000AA7B0446B2B12B7C697C13441944FF2911
:1005B000D0D80330002EAA89C9B220F003040CBFA2
:1005C0000020204600F050FE0028C3DB04440EB992
:1005D000002CBFDB7C4FD7F80080B8F1000F17D09C
:1005E000E97BA9B195F82C30002B00F0FD80402369
:1005F0004FF481720734002E24F007040CBF002052
:100600002046C0470028A5DB04440EB9002CA1DB1E
:10061000A978A1B1AB7B1BB93B6883B1EB7B73B10C
:100620000734002E24F007040CBF0020204607F0FA
:1006300041F900288EDB04440EB9002C8ADB634BA1
:100640001B6893B1E97D81B10334002E2A7E24F02A
:1006500003040CBF0020204698470028FFF67AAF1D
:10066000044416B9002CFFF675AF594B1B688BB1CB
:10067000A97D79B10334002E24F003040CBF0020BF
:10068000204698470028FFF665AF044416B9002CB1
:10069000FFF660AF4F4B1F68B7B1697CA1B103345F
:1006A000002E2B7D24F0030408BF0020009318BF08
:1006B0002046EB7CAA7CB8470028FFF64BAF0444E9
:1006C00016B9002CFFF646AF434B1B6893B1E97D8A
:1006D00081B10334002E6A7E24F003040CBF002095
:1006E000204698470028FFF635AF044416B9002C81
:1006F000FFF630AFB6FA86F795F825007F09A0B16E
:100700000334AB7FE97E24F0070419443B4644F0F0
:100710000404C9B2224600F0A3FE0028FFF61AAF77
:10072000044416B9002CFFF615AF95F826100029E1
:100730005DD004F10708002E2A8D28F007080CBFB1
:100740000020404610F091F9041EFFF603AF444428
:10075000002E4FD1002CFFF6FDAE95F82010002999
:1007600056D095F82430002B52D06A8C0734002ED6
:1007700002F1240224F007080CBF0020404692B288
:1007800010F073F90028FFF6E5AE404416B90028D2
:10079000FFF6E0AE03306B7FE97E20F007001944DE
:1007A0003B4640F0040495F82400C9B2224600F00C
:1007B00049FE0028FFF6CEAE044406BB002CFFF62F
:1007C000C9AE0BE0381000209C1D0020A01D0020A9
:1007D000AC1D0020A41D0020A81D00202B6B13B30E
:1007E000E6B12C630020B7E62523282202E7002E7D
:1007F000B3D08846298D40460DF008FAADE76A8CE3
:10080000404695F82010083292B20DF005FAE5E75F
:10081000002EE3D0002211461046F6E728343FF5BB
:1008200099AE204698E6002EDCD1FAE7014608B5DD
:1008300072B6094B5B6B0BB108489847BFF34F8FFB
:100840000749084BCA6802F4E0621343CB60BFF368
:100850004F8F00BFFDE700BF381000207F0F04005E
:1008600000ED00E00400FA0513B5134C68466389F7
:10087000ADF800302389ADF80430E388ADF80230DC
:1008800004F0AEFF18B148F65300FFF7CFFF207D0C
:1008900004F0FCFF10B14CF2CD70F6E7E07C04F000
:1008A000EFFF10B144F29C50EFE794F82B000BF0EF
:1008B00045FD02B010BD00BF3810002070B50546E0
:1008C000002857D00FF090FA18B94FF0FF342046A7
:1008D00070BD0DF0BFFEB0F5FA7FF6D8274C0126AB
:1008E000274B65630025284684F83850257084F826
:1008F0002C501D6025630DF02BF9224B2622294632
:10090000601D1D6015F03EFD082303221F212846AF
:10091000A3701B23A272E38023810223E273492286
:10092000E3722376F723A18129466384FB23E274D3
:1009300023850A23E67084F82B302671A673A674EB
:10094000667603F0F7FB2A463146304603F0C4FBD7
:10095000044618B14AF6B030FFF768FF014603F0CD
:10096000D7FBEFF3108572B600F0A0FD002DAED1DD
:1009700062B6ACE76FF01504A9E700BF381000209D
:100980009C1D0020A81D002038B51446002840F00A
:10099000DA806E4D95F83830032B00F0D180B9B174
:1009A00012B96FF0150038BD0139172900F2CB805C
:1009B000DFE801F00C1D20376169813D6C6F7B43DE
:1009C00049575C878A989B9E90A1A5BE1378EB70CF
:1009D0000020FFF7B1FD0028B7BF012302236FF00D
:1009E0000B0085F83830A8BF85F83830DBE713787E
:1009F0002B71EDE71379002BD3D05379002BD0D096
:100A00001288FB2ACDD863881B3B9BB2E02BC8D849
:100A10001A2AC6D92368A288C5F806304C4B9A809A
:100A2000D6E713782A7C9342BBD3AB73D0E7137815
:100A3000AA7B9342B5D82B74CAE71378AA7B93425A
:100A4000AFD86B74C4E71378002BAAD05378013B5E
:100A5000DBB2F82BA5D8138892786B823D4B9A7045
:100A6000B6E7107868750BF009FCB1E71378002B36
:100A700097D06B76ACE71378374A12680AB1012B2E
:100A80008FD9EB73A4E71388AB81A1E71378EB75DB
:100A90009EE71378314A126822B9012B81D9237855
:100AA0002B7695E7002BFAD17BE71378082B3FF6DE
:100AB00078AFAB758CE71388FF2B3FF672AFAB7046
:100AC00086E71378AB7683E713780E2B3FF669AF92
:100AD000EB767DE72368224A2B62636853602389A3
:100AE000138175E713782B7772E71378AB776FE78D
:100AF00013786B776CE7137885F82A3068E703F092
:100B0000E5FA98B1007900F001026178207803F0ED
:100B1000E3FA00287FF447AF6378012B7FF658AFE4
:100B20000DF01CF800287FF453AF3AE70246ECE7DB
:100B300013785A1E092A3FF634AF85F82B3047E761
:100B40004FF0FF302FE76FF02C002CE7381000201B
:100B50003E1000204A1000209C1D0020A81D0020EF
:100B600058100020F8B50D46064630B329B311F0F1
:100B7000070422D1124F97F83830012B02D16FF0C1
:100B80000B00F8BD032B02D14FF0FF30F9E700F066
:100B9000C3FC0028F8D02846FFF7CEFC0028EEDB87
:100BA00014F0CAFE3046396B04F024FFFFF75CFEF8
:100BB0000323204687F83830E3E76FF01500E0E7BD
:100BC0003810002010B5074C94F83830032B03D1AF
:100BD00004F028FF05F0B0FD10F089F8002084F83B
:100BE000380010BD3810002008B504F0AFFE0349EE
:100BF0000320BDE8084000F013B900BFE90400007D
:100C000008B504F0B7FE03490220BDE8084000F033
:100C100007B900BFC504000008B504F0CDFE0649C1
:100C2000012000F0FDF80549002000F0F9F8044B20
:100C3000044A1A6008BD00BF81040000A10400003E
:100C40009C1D00205538000008B50449122000F012
:100C5000E7F8BDE8084004F043BE00BF0D05000002
:100C600008B50449122000F0DBF8BDE8084004F0A4
:100C700049BE00BF0D050000074B4FF0FF3141F6A4
:100C8000FF72C3E9001205490022C1E900221F21B9
:100C9000C3E90212704700BF200500207410002035
:100CA0003F280CD801380B4BC0F3421200F01F0054
:100CB00053F8223023FA00F000F001007047FF28BB
:100CC00006D04038044BC0F3421200F01F00EFE79B
:100CD000012070472005002074100020074B0146BA
:100CE000006849681A4603C240F48C2200201A604A
:100CF00041F0107242F4FF625A60704720050020F4
:100D00000246034B0068516803C30020704700BFD0
:100D1000741000200246034B0068516803C3002092
:100D2000704700BF280500203F280DD80138074B29
:100D3000C0F3421200F01F0003EB82039B6823FA0A
:100D400000F000F0010070470020704720050020EF
:100D50000A8870B595B2C67BC2F30E0204880236CB
:100D600002F110033444C35AA4B233442344013B78
:100D7000B3FBF4F303FB0422438892B29342044B87
:100D80008BBF2B40AB4313439BB20B8070BD00BFA6
:100D90000080FFFF4A1E062A08B50346084603D80E
:100DA0004CF2A650FFF742FD094A914202D947F2A0
:100DB0004660F7E711B903B1196008BD2BB11B6894
:100DC0000022C3E901211A1D1A600430F5E700BFB3
:100DD000FAFFFF7F10B5114B00EB41041A786389CD
:100DE000B3FBF2F303FB0223013A1A44B2F5706F2E
:100DF0000279807828BF00231A440B18B2FBF0F167
:100E000000FB11215B1AB3FBF0F100FB113313441B
:100E10006FEA43436FEA5343638110BD7C100020A7
:100E2000024B03EB80035960704700BF7C10002029
:100E30002DE9F04F10F0070A85B0054603D04EF6B5
:100E4000A700FFF7F3FC544F04464FF0010B07F1E6
:100E50005806B146B04657F8043B8DF80BA043B195
:100E600001A898479DF80A30082B02D94CF6391092
:100E7000E7E79DF80B1041BB05B131604F4506F126
:100E80000406E8D1002D6FD00022DFF8109115275D
:100E9000964689F8002058F827A0013FBAF1000FC4
:100EA00055D09AF804609AF802C0FF2E60D03946F7
:100EB0000023481C38D19C44BCF1FF0F3FD90AB134
:100EC00089F800E044F6E620BBE79DF80AC04B1D18
:100ED00060465A0004EB4303022838BF0220441E38
:100EE00040422344BDF808406444CCF1000C034068
:100EF000013C04EA0C04B4F5803F02D34EF61650D0
:100F00009FE775B19A1A32609170148082F803B02D
:100F10009DF80C00107101984FEA104C1081A2F856
:100F200006C004FB0134A9E758F8210028B190F865
:100F300004B0B34504BF80781B180139B9E7DBB2B0
:100F4000E6458AF804303CBF5FFA8CFE01227B1C28
:100F5000A1D10AB189F800E0152640F6FF6A58F8D9
:100F60002670B7B9013EFAD2601B05B0BDE8F08F1C
:100F70000023E5E707EB410309F101093846A3F82F
:100F80000AA0FFF727FF5FFA89F1BB788B42F1D8FF
:100F9000E8E74FF00009F6E7801000207C10002001
:100FA00038B54FF6FF7302460380174B03EB8103FE
:100FB000D86DA8B184780379B3FBF4F104FB113345
:100FC000DBB2194600EB4105B5F90A50002D0EDBE6
:100FD0000131B1FBF4F504FB1511C9B28B42F1D11B
:100FE000002038BD6381BDE838400FF007BD00EB3D
:100FF00041046389C3F30E031380C278002AF1D140
:101000004FF6EF10FFF712FC7C1000201C4B03EB97
:10101000810370B5DC6D05463CB3030403D546F689
:101020003870FFF703FC014620460FF0CAFCFF288A
:10103000014604D02046BDE870400FF0DFBCA07828
:10104000B5FBF0F300FB1353DBB219460A1D04EBAA
:101050004206B6F90260002E09DB0131B1FBF0F265
:1010600000FB1211C9B28B42F0D1002070BD8B423F
:1010700001D00023E37004EB42025580DAE700BFA1
:101080007C100020094B03EB8103014610B5DC6D99
:1010900020460FF096FCFF28014604D02046BDE80C
:1010A00010400FF0ABBC002010BD00BF7C10002032
:1010B000F8B5104B074603EB81030146DC6D204673
:1010C0000FF07FFCFF28054611D0E288238953EA00
:1010D000024606D0014620460FF090FC01463846F5
:1010E000B04720462946FFF775FE0020F8BD0520D1
:1010F000FCE700BF7C10002038B50E4B0446827917
:1011000003EB8203D86D08B9052038BD8278E179F8
:101110009142F9D24B1CE37100EB41035D89B3F9B5
:101120000A30002BF3DBA5800FF068FC2060002064
:10113000EBE700BF7C10002008B5114B03EB8103E7
:10114000DA6D1AB94EF6C520FFF770FB9178831A55
:10115000481DA3EB40031088B3FBF0F3002B01DB29
:10116000994202DC41F2B740EEE702EB4302B2F9EA
:101170000A305089002B02DA4EF63450E4E708BDFD
:101180007C10002070B5044610F003000E4603D01A
:101190004BF6BD00FFF74AFBFFF7FCFD054624B107
:1011A000034831460460FFF7F5FD284670BD00BFD7
:1011B000301100202DE9F14FDFF870B01E460746D0
:1011C0000D46DBF8003090469DF828A09DF82C9045
:1011D0001BB945F61E00FFF729FB52460921404680
:1011E0000FF0B5FA4A4684B2092130460FF0AFFA43
:1011F00081B2DBF8000021440FF0B8FB386018B969
:10120000286001B0BDE8F08F0444534641460922EE
:101210002C6038680FF061FA4B4609223146286885
:1012200001B0BDE8F04F0FF058BA00BF30110020F8
:1012300070B50E4604460FF09DFA054630460FF095
:1012400099FA044B2A1821461868BDE870400FF03F
:10125000B1BB00BF30110020024B186808B10FF07D
:1012600079BB7047301100201F2AF8B50446134699
:101270000ED89200033222F00303B3F5803F2DD243
:10128000184DACB1A00710D04FF6FC00FFF7CEFA16
:10129000FF2B4FEA420204D9FF339A42A8BF1A46F5
:1012A000E8E77C2AB8BF7C22E4E729706C602B81D8
:1012B00022F0030228230127120403FB01F06B68CC
:1012C0000025120CEEB2B14200D8F8BD14B12618B8
:1012D0001F705E60104401352833F3E74FF0FF3094
:1012E000F3E700BF34110020154A002170B55368A0
:1012F0001578C8B2854203D849F28140FFF796FAC3
:101300001C461846013114F8286B0EB92346F0E745
:101310000021997001241289996103F126055C70FE
:101320009208D96103F11E04596824F8022FA542DE
:1013300043F8041F1144F8D100234361037070BDCA
:10134000341100200A4B1B89B3F5FF7F4FEA93004D
:1013500006D25A089B1A9BB2984238BF184670476B
:10136000B3F5EE6F01D8FF22F4E740F27263F3E7C2
:10137000341100204B782DE9F04106460C4602F06E
:10138000040702F0FB05E3B1A5BBFF23A3707B08B4
:1013900004EB57073A7D032A02D1022D18BF01330F
:1013A000E2180121117503F10C01002204EB830303
:1013B00024F811205B68A27030463360B280BDE82B
:1013C000F081002DE1D1012301F11E028D61204643
:1013D0004B7004F1260C1A4BCD611B8949689B08A0
:1013E00022F8023F944540F8041F1944F8D1002325
:1013F0006361CAE7D1F8048014220021A01861704B
:1014000014F0C0FF0E4B1B89B3F5FF7F0FD25A08B3
:101410009B1A9BB208EB0301C4F804802384A160EB
:101420006284C4F80C80A3842161E284ADE7B3F543
:10143000EE6F4FF0FF02EBD940F27263EAE700BFB4
:101440003411002007B5CDE900230B4603490246BD
:10145000081D0FF026FC03B05DF804FB60110020AE
:1014600013B5064CCDE900230B46024604F10801F2
:1014700004F10C000FF015FC02B010BD601100204B
:1014800008B54B1E032B03D94CF27300FFF7CEF9BE
:101490000028054A0CBF05230C2303EB8103053309
:1014A00023F00103137008BD70110020114B0122BD
:1014B0004FF0FF3000215A60C3F80803C3F800154D
:1014C000C3F804255A6040F6FE72C3F808034020B2
:1014D000C3F8001503F570330749C3F80825C1F8B0
:1014E0008800BFF34F8FBFF36F8FC1F88801C3F837
:1014F000082570470060045000E100E00268002009
:10150000014B1A60704700BF74110020014B1B682B
:10151000184700BF74110020024B1868003818BF2C
:1015200001207047741100200A4606489C2302F8E7
:10153000033BC368C1F80330036953604369936098
:10154000704700BF78110020024B5A8C02435A8426
:101550005B6A184778110020014B00215B6A18472D
:101560007811002010B5154C0BF0B2FF0CF0B6FA54
:10157000208DFFF7F1FF237E63B12246104904F16D
:10158000190052F80C3BE36063685360A3689360F2
:1015900012F015F9218DE06A06F0E0FAE36AB3F87B
:1015A000B20006F03DF9636B94F8301094F8310006
:1015B0009847002384F8383010BD00BF7811002010
:1015C00029150000034B93F838300BB1FFF7CABF61
:1015D000704700BF781100202DE9F0412B4C0546E3
:1015E0008846E06A10F0E1F910B10120BDE8F08111
:1015F000E66A96F8B0704FB3012D09D1638C1A07D3
:1016000006D594F83930002BEFD1337C082BECD081
:10161000B8F1010FE9D894F83030002BE5D1238DD3
:101620009906E2D4D7B9012DE0D10BF013FB736911
:101630008342DAD3B37C002BD7D1638C8FB19A0766
:101640000FD594F8390080F00100CFE7002DDFD1ED
:10165000638C5B07DCD5337C072BD8E7002DC5D125
:10166000E3E7002BC1D194F83A301BB994F83B3032
:10167000002BBAD0E36AD3F81821B3F82431908A4A
:1016800098422CBF00200120B0E700BF7811002055
:1016900070B5184C4FF481730646E56AE06BA4F808
:1016A0004430AB7E94F850102064D3B90BF04EFE5A
:1016B0000CF014FA76B995F83131B5F8EA10033B1D
:1016C000012BB5F8EC308CBF00202820184480B2E4
:1016D0000BF0A2FE00200BF0DDFE022384F8383070
:1016E00070BD606D04310BF031FE616D206C0CF04B
:1016F00087F9DFE77811002008B5084B93F8382008
:10170000022A03D049F6FB50FFF790F8DA7A42F04C
:101710000102DA72BDE80840FFF724BF781100200B
:1017200010B590F8761086B0D1B9C2880B460591F5
:101730000021CDE903110C4991F85040029400F1C9
:1017400098040194C96A91F8B010003918BF0121BA
:10175000009100F1880102200CF06EF806B010BD77
:10176000D0E92023E3E700BF781100202DE9F04104
:10177000274C06460F4694F83830012B5FFA83F861
:1017800003D049F2C870FFF751F8E56A2B7953B1DD
:10179000002104202971FFF7D7FEE36A93F8B030E7
:1017A0000BB185F8058094F858308BB92B7A052B4E
:1017B0000ED118490220FFF7C7FEE36A93F8B03054
:1017C00033B1636E1B789A1E5342534184F839300B
:1017D0001EB1BDE8F041FFF7C5BE002FF9D031467C
:1017E0003046FFF7F9FE0028F3D1AB7EE46A13B16F
:1017F0002846FFF795FF94F831210120B4F8EA104C
:101800000BF09AFC0020BDE8F041FFF741BF00BF9C
:1018100078110020DC1100207FB590F87610D1B946
:10182000C2880B4605910021CDE90311FB210291ED
:1018300000F1980101910949C96A91F8B010B1FA13
:1018400081F14909009100F1880104200BF0F4FFB7
:1018500007B05DF804FBD0E91E23E3E77811002010
:101860001E4A10B5D46D41782378C90003F0F30304
:1018700001F008010B438178890001F004010B435A
:10188000C178090103F0EC0301F010010B4301786A
:1018900001F003010B432370B2F868306370022338
:1018A000D16DA2F8603004790B786001012C23F02F
:1018B000200300F0200043EA00030B700CD1D36A30
:1018C00093F8C22093F8C330032A03F01F0308BF24
:1018D000002243EA82138B7010BD00BF78110020F4
:1018E000F7B5174C0646E56E0DB1A36C1BB942F671
:1018F000D410FEF79BFFB4F84C3001F003012F46E3
:101900006B702B7823F003030B4307F8033B384637
:10191000B4F84C20A16C0EF0D3FB0DF1020201A92A
:10192000206F2564A7640FF00BF801980EF0F6FF06
:10193000B4F84C103060206F0EF0D2FF03B0F0BD51
:10194000781100202DE9F04FB74C87B00023814675
:10195000D4F82C8004AA049302A98DF814304046D0
:1019600084F8583001AB10F015F80746002841D034
:10197000029ABDF804301AB940F6F520FEF756FF7A
:10198000E265A4F8683003B1D31C6366012384F8D0
:1019900058309DF8133004A8003B18BF012384F889
:1019A0003A3098F81930002B00F06181B4F86830B3
:1019B000002B00F05C81FFF753FFFF21606D0BF0FF
:1019C000C5FC9DF81420616D003AE06D18BF01223E
:1019D0000BF03AFE18B9E16D606D0BF0A3FF01202A
:1019E0000BF058FD012384F8803084F8383007B0BC
:1019F000BDE8F08FE56A8DF803002E7AADF8060099
:101A0000062E00F21781DFE816F007001801E70044
:101A1000E7001501FD00FD000023A5F84C3095F806
:101A2000B030002B45D194F87730A5F824310DF172
:101A3000060103A8ADF8063004F060FABDF80630E0
:101A4000002870D0039E002E6DD0012284F87820EB
:101A500005222A72E665A4F8683003B1F31C6366B8
:101A60006A7A2E7A8DF81120022EAA7A8DF8122029
:101A700004D0053E012E8CBF012603268DF8106090
:101A8000002F00F0DD8000209DF810308DF813004D
:101A9000032B40F0EA80636E1B781B2B40F0E5803F
:101AA000012105F1C2000BF0F9F801238DF8143083
:101AB0006FE7AB7B243B072BB5D9EB7B243B072B94
:101AC000B1D995F830A10BF0BFF8E36A03285FFAAB
:101AD00089F900F1FF3014BF93F81E211B22C0B218
:101AE0000AF1FF3A91455FFA8AFA3CBFA2EB09027C
:101AF000D6B2032896BF4D4A04221256BAF1030FFC
:101B000002FB06F697BF494A042252441279B6FBFB
:101B1000F2F6B3F81C2194F8773033449A4234BF7C
:101B2000D3B2DBB281E7002B4FD0E36A93F85D308C
:101B3000002B4AD10DF103020DF10601E06F0EF00A
:101B400040FE0646002840D09DF803705FB9002390
:101B50003380B37003232B720123002784F878307D
:101B6000BDF8063076E70146E06F0EF0D3FE0EF0CA
:101B7000D5FED0F800B0D0F804A081465BEA0A0395
:101B80001DD100239DF8032089F8003089F8013029
:101B900089F8023089F8033089F8043089F8053073
:101BA00089F8063089F80730002AD0D0327802F060
:101BB0000302012ACED002222B772A72CCE714F03E
:101BC00036F883457AEB0101DBD200230122184E5F
:101BD000ADF806302A723DE7B5F824310DF1030265
:101BE0000DF10601E06FADF806300EF0EAFD064695
:101BF00010B94DF64700C1E6012384F87830BDF8EE
:101C0000063027E70DF1060103A804F077F908B1C3
:101C1000039E16B945F24E40B0E6012384F87830B1
:101C200006232B72EBE700BF78110020479D0300CD
:101C3000EC1100204DF63B60A0E6154E002309E7AD
:101C4000032E03D11B78022B3FF41DAFE06F0EF083
:101C50000FFE40B9032E3FF416AF04F06BF980F08D
:101C60000100C0B210E701200EE700231EE7FFF7D6
:101C7000F7FDE06DFF210BF069FB0BF02FFF9DF8E6
:101C80001410E06D003918BF012113F0AFFEA6E675
:101C9000EC1100202DE9F04FAF4C87B000278046B3
:101CA00094F83830E56A022B5FFA83FB05F1B00A3D
:101CB0000191CDE9027703D045F22F60FEF7B6FD22
:101CC000216C03200B784A780144A4F84400A164F5
:101CD00003EA0001A4F84C208DF81010C3F3C001F2
:101CE0008DF81110C3F380018DF81210C3F30011A9
:101CF000C3F340138DF813108DF81430B8F1000FB2
:101D000000F06B8104A928460FF046FE064630B964
:101D1000B4F84C1049B3206F0EF0CBFD0746238D6D
:101D20009DF8121043F40073E76623856B7A013344
:101D3000DAB203F0010399425BD12B7AEBB1032BAA
:101D40006A7214D8012B08BF4FF0010BB5F84C3064
:101D5000BBF1020FA5F84E3015D102A9E06F0EF0CD
:101D600052FDE8B94DF29950A8E70746D7E7053B81
:101D7000012B05D940F66E70A0E74FF0040BE5E7A4
:101D80004FF0030BE2E7BBF1030F10D104F0C4F8EE
:101D900010B948F2D64091E700210820FFF7D4FBA4
:101DA000D5E91E32013342F10002C5E91E3200219D
:101DB000E36A297293F8B0302BB16B791BB1102014
:101DC0006971FFF7C1FB238D4FF0000B43F40063F3
:101DD0002385AB7EDBB1B4F84C30C3B10BF098FE79
:101DE0000328FBD0022806D1FFF7BCFB07B0BDE8F3
:101DF000F08FC346EDE750B9AB7A9DF8112003F0A0
:101E000001039A4203D1012384F83130ECE7B4F89E
:101E10004C70002E66D09DF81330591E4B424B413A
:101E200084F83B30002F40F000810027B946019B29
:101E3000002B00F001810BF04BFBB9F1000F00F01B
:101E40001C819DF8101003A8FFF74AFD0127238D80
:101E50005A0606D44020FFF77FFB238D43F0400352
:101E60002385E06ABBF1000F0FD0EB8843B990F8EF
:101E7000B0302BB1B4F80530B4F80720134304D0C8
:101E8000B4F809300133A4F80930B8F1000F00F0BC
:101E90000481B4F805300133A4F80530002384F838
:101EA000823005F0ADFC029830B10EF037FD002213
:101EB0000272514604F064FD039B33B100221A7292
:101EC0000C225146039804F029FD002F8CD1238D5C
:101ED0001B068BD48020FFF73FFB238D43F080034C
:101EE000238583E7AB7A9DF8112003F001039A4222
:101EF00024D19DF81030002F32D05A1E012A2FD83D
:101F0000238D95F81A9043F4805323850AF09CFEA4
:101F1000032895F81E3107D1B9F1000F0CBF1F221D
:101F20001B22934228BF1346B4F84C209A4208D98A
:101F300094F8303043F0100384F830304FF000094B
:101F400032E0E36E002BF9D094F8813033B1238D69
:101F500043F020032385F1E7781100209DF810302D
:101F6000AA7A032B02F10102AA7210D1238D01205B
:101F70004D4943F4805328712385FFF7E5FAD5E9ED
:101F80002032013342F10002C5E92032D6E75A1E61
:101F9000012A1DD8002FD1D0C146D5E92032013306
:101FA00042F10002C5E92032E26E9DF81310002ACA
:101FB00040D1B4F84C20B2FA82F25209012914BF80
:101FC000002202F001023746002684F83B202EE76B
:101FD000002FB3D0002BB1D1D1E7AB7E0BB10BF00A
:101FE000B1FD94F88230013384F88230238D43F4BC
:101FF0008063238595F83131033B012B0DD80AF01E
:1020000023FE03280DD1B4F84C604FF000091B2EBD
:10201000CB4694BF00260126C6E704F087FD0028C2
:10202000EDD10026B146B346BEE7238D43F480537D
:102030002385FAE60122C1E794F882100120FFF718
:10204000CBFA00287FF4F7AE6A7E12B12846FFF77C
:10205000E3FB002095F83021B5F8E8100BF06CF8A0
:10206000B4F84C00FFF76EFCB9F1000F0DD09DF8ED
:10207000101003A8FFF734FCE9E6002E3FF4E6AEAB
:102080000949E06A0FF08AFCE0E6002E3FF4DFAE7B
:102090000549E06A0FF082FCD9E6B4F80730013355
:1020A000A4F80730FDE600BFC0110020064B10B5B4
:1020B00093F8382002F0FF0422B91C7605F046FDA3
:1020C000204610BD0C24FBE778110020094B0A4A7A
:1020D00010B51A60FFF7EAFF18B148F67620FEF750
:1020E000A5FB064C03F0BAFCE06303F0BBFC6065A3
:1020F00010BD00BFB01D0020CC22000078110020D0
:1021000070B55E4C054694F8386006F0FF000EB9D5
:1021100001B11AB940F60430FEF788FB84F881302B
:102120006162626384F8300084F8820084F83100D0
:1021300084F880006084208584F83A0084F83B00AD
:1021400084F8780084F83900E0656066A4F86800D7
:102150002064A064A4F84C00E5620AF0CDFD0BF009
:10216000BDFC95F938010AF031FED5F8DC60D5F8F0
:10217000D4000AF033FE30460BF0C8F895F82B0077
:102180000AF036FEB5F8E8305D2B03D9B5F8EA3031
:102190005D2B01D80AF048FDE36A93F8B060002E89
:1021A00054D112F0ACF995F83021354B4FF47A71D7
:1021B00053F8223003F5FA73B3FBF1F333331918F4
:1021C00030460AF02FFF2F4B18680BF0A5F8D5F812
:1021D000C830E367D5F8CC302367AB7B243B072BB3
:1021E0003CD9EB7B243B072B38D995F8FA3095F88E
:1021F0001E6184F8773004F099FC28B104F09CFC4F
:10220000864238BF0646F6B284F850600FF0C9FB2C
:10221000E36A93F8B0301BBB6B7E13B12846FFF71F
:10222000FBFA0020FFF78EFB002323606360A360AE
:10223000EB886380B5F8B230238095F82B3023719A
:10224000D5F834310BB101221A6070BD12F057F984
:1022500095F8312100F155010120B2E71B23C6E7B3
:10226000AB7E13B12846FFF75BFA0120FFF710FAA7
:10227000E36AD3F8F0010BF09DF8D5E77811002060
:102280003CA00300B01D0020014B93F88000704774
:1022900078110020054A138D92F8780003F48051DC
:1022A00010B113F4C06F00D1080B704778110020F3
:1022B000024B93F82900C0F3C0007047781100204A
:1022C000014B93F88200704778110020F916000046
:1022D000951C00006D170000C51500000D4B032173
:1022E000186830B50D4690F8A52090F849400132A5
:1022F000B2FBF5F303EB4303D31ADAB244FA03F368
:10230000DB0703D4013911F0FF01F0D180F8A520DB
:1023100030BD00BFFC110020014B18680EF0A6BDB7
:10232000FC11002008B509F0C1FF014B187008BD71
:1023300030050020054B10B41C68827C836804F1D2
:10234000420194F8410010BC10F0C9BCFC110020FF
:10235000024B18686C3001F0E5BA00BFFC11002098
:102360000122962138B5114C10460AF0E5FEFFF720
:10237000EFFF656801F090FA63682860186818B983
:102380004AF2C630FEF752FA0EF029FF10B94CF6A9
:10239000AD60F7E725210AF0D9FF962100200BF068
:1023A0003BF8636804221A7138BD00BFFC1100209D
:1023B00038B5194D04466B681B79022B03D94EF6CC
:1023C000DC10FEF733FA2B68027C83F8A4201A4451
:1023D000C168996692F87C2183F878214268C3F835
:1023E0008820037A022B0ED00AF086FC0BF038F816
:1023F0000AF0EAF809480AF08FFF09480AF086FF58
:1024000008480AF0EBFC637C23B12B685B6E0BB1D0
:1024100001221A6038BD00BFFC110020A03300006B
:1024200055555500D6BE898E2DE9F341484D002300
:1024300007460E462C686372236DB3F8B22093F8FA
:102440003911D3F8D000628110F04AFD2B68208446
:102450001A6DB2F8D810B2F8DA2059849A844FF481
:102460007F42DA844FF6FF721A850FB3012130469E
:1024700010F0BAFF33780146D8092C6894F8483038
:1024800004F11402F3B10EF036FCD8B10B686361AD
:102490008B88287B938004F10E0208284AD004F12F
:1024A0000D0103F0C5FE80B943F26170FEF7BEF97D
:1024B0006946A86810F091FEAB6869461878C0F3C9
:1024C0008010DAE700236361E3E72C68637B04F1A3
:1024D0001A0843F0020363734FB30021304610F033
:1024E00083FF0368C4F81A308388A8F804302B6887
:1024F000186D93F95810B03003F0E6FF28681549BD
:1025000011F054F928681449036D2A30B3F8B22049
:10251000A0F809205B7FC37211F051F902212868ED
:1025200001F0E8FCFFF714FF02B0BDE8F08104F110
:102530007800D6E794F87E306373A36FC4F80E304A
:10254000B4F87C3093800023C4F81A30E383CEE7DC
:10255000FC110020510D01000F0D010008B5064BC4
:1025600093F900207F2A03D14EF2C040FEF75EF9B6
:1025700002707F221A7008BD3005002010B5047863
:102580008EB004F00F0404A922460EF04FFEFFF7B0
:10259000C9FE042C33D11B4C059A2368107893F89C
:1025A000781088422BD1507893F87910884226D140
:1025B000907893F87A10884221D1D07893F87B10E4
:1025C00088421CD1107993F87C10884217D1517938
:1025D00093F87D20914212D19DF8212093F87E300E
:1025E0009A420CD10DF10F00FFF7B8FF9DF90F30A3
:1025F00004A90093237C227B60680EF002FE032076
:102600000EB010BDFC1100200D4A536810B51979A9
:10261000022903D84CF67D30FEF708F9197908290C
:1026200002D941F61C70F7E71B79526903F1804328
:102630009268033BBDE8104052F82330184700BFB2
:10264000FC11002010B5054C637B2BB10AF008FF8C
:1026500009F0BAFF0023637310BD00BFFC11002016
:1026600010B5054C23782BB10AF0FAFE09F0ACFF47
:102670000023237010BD00BF2019002010B5094CA5
:10268000FFF7E0FF012263681A7100232268A2F8B5
:10269000793182F87B31FFF75BFE2068BDE810409E
:1026A0000FF03AB9FC11002008B5FFF7CBFF044B3F
:1026B00000209968FFF7B8FEBDE80840FFF72CBE80
:1026C000FC110020062938B51D469DF8104019D987
:1026D00008291BD802B18CB143689BB912B9437861
:1026E000DB0615D40B4B5B6818680EF099FD00B142
:1026F00034B92DB903F072FD00F00104204638BD55
:102700000120F9E79DF814402C43F7E70024F5E792
:102710000124F3E7FC11002038B50D1E04460CBF60
:1027200005200320104403F0C9FD094B587370B114
:102730005DB9033C012C8CBF5024552409F01EFFC9
:102740002046BDE838400AF07FBE4024F6E738BD99
:10275000FC1100202DE9F0413D4CFFF7F9FD6568C3
:1027600001F09AF863682860186818B94EF2C150F1
:10277000FEF75CF80EF033FD054610B94EF212106C
:10278000F6E7236893F8A6306BB123681A6D93F8C7
:10279000A710C3F8102193F854200A4383F854205B
:1027A000002283F8A620206890F8A430034493F810
:1027B0007C81636880F878811A7952B11B79012B8A
:1027C00007D000210EF0FDFE18B9BDE8F041FFF77B
:1027D00055BF23681F4A93F8A530D05C0AF008FB68
:1027E000236893F8A420134493F87C71022F2CD013
:1027F00004D8012F05D04DF6D430B9E7FB1E012BCC
:10280000F9D801F043F80646394601200AF01EFCCB
:10281000314628460AF09AFD08F1FF332A46404621
:1028200059425941FFF778FF62680821002351712E
:1028300021732168D3801372E37381F89530A373F9
:10284000237403231371BDE8F0810D26DCE700BF7C
:10285000FC1100204F9D0300114A10B5536800B9C8
:1028600031B9184601F0A8F8BDE81040FFF706BFDF
:102870001979082903D84EF20F00FDF7D7FF19790F
:102880000C2902D94BF21560F7E71B79526903F165
:1028900080435268093BBDE8104052F82330184786
:1028A000FC110020054B1A6892F85420920703D0BF
:1028B0005B68186801F01AB898687047FC1100202E
:1028C00070B52F4D06466B681A79032A0AD01A791B
:1028D000042A07D0FFF7E6FF044638B940F23F501C
:1028E000FDF7A4FF18680EF07AFCF5E72B6893F863
:1028F000543013B949F6F950F2E776B110F020FEE2
:1029000030B16B681A79022A0ED84AF6EE70E7E702
:10291000204610F030FE0028F3D16B681A79022AA5
:1029200017D84AF28270DBE71A79082A02D947F2EF
:102930004D30D5E71B7920466A6903F1804312695F
:10294000033B52F8233098470C2812D94FF6D94050
:10295000C6E71A79082A02D94CF20170C0E71B7940
:102960006A6903F180435269033B52F82330984768
:10297000EAE76B69DB68BDE8704053F82030184720
:10298000FC11002007292DE9F043064687B00F46C9
:1029900090464568624C23D11DBB002A49D1D4E939
:1029A000001091F8543013F0030218BF012213F005
:1029B0000403827103D033785A1E53425341C371CA
:1029C00091F894304BB12368D3F89000503011F057
:1029D00055FD10B9636801221A7207B0BDE8F08393
:1029E0003DB32946707C0EF086F9072F814661D1F0
:1029F000637B63B158B1B8F1000F52D0656810F035
:102A0000A3F9636868715B7923730123A373636817
:102A10005879082855D17168707C11F025FD6268DD
:102A2000054671680532707C03F0DEFB63680028A0
:102A300058D0236893F8540010F003000AD093F89C
:102A40004A30394601953046626892790092424692
:102A5000FFF738FE62682368907193F8540010F015
:102A6000040009D093F84B30394601953046D279AD
:102A700000924246FFF726FE2A4B65681B68E87104
:102A80001BB14146304698472872726862B3717C28
:102A9000236883F87E10116899679288A3F87C20D8
:102AA00022E0236893F878110129A7D1284603F082
:102AB000D7FB6073637B002BA9D0B9F1000FA6D0C0
:102AC0009CE704AA0DF10F0103F0B2FB18B946F21E
:102AD0007240FDF7ABFE04A99DF80F0011F0C4FC95
:102AE0000546A6E7D88018726268137AB3B9D3880E
:102AF000003B18BF0123B06800283FF46EAF072FDA
:102B00007FF46BAF517908293FF467AF002B3FF496
:102B100064AF03F0C3FB0123E3735EE70123EAE73D
:102B2000FC110020B41D00202DE9F04F044689B0AF
:102B3000062900F2C580DFE811F06000E700070019
:102B4000C300C300C30026006E4D0AF023FB2F68AC
:102B500097F85430980714D06E68B3798BB10DF1A3
:102B60001F00FFF7FBFC9DF91F3002222146029354
:102B700030462B7B0193FF23009307F142030EF0B5
:102B800030FB03201FE05F4D6E68B379002B00F02F
:102B900097802F6897F85420910717D50DF11F00E3
:102BA000FFF7DCFC9DF91F303046062202932146D8
:102BB0002B7B0193FF23009307F142030EF011FBDF
:102BC000002309202B7409B0BDE8F08FD30777D517
:102BD000570701D50AF0DEFA0DF11F00FFF7BEFC22
:102BE0009DF91F202B6802922A7B42330192FF221B
:102BF0000092062221466868C1E7424D2B6893F88F
:102C00005420560737D56968CA79002A33D04268FC
:102C100093F85B001678864255D1567893F85C009D
:102C2000864250D1967893F85D0086424BD1D67893
:102C300093F85E00864246D1167993F85F0086428B
:102C400041D1507993F8602090423CD1627C93F856
:102C50005A00101A4242424193F8560001284ED0C1
:102C6000002A4CD193F84C30082B02D04A799A4272
:102C700045D00AF08FFA6E68B379002B3DD02F68EB
:102C800097F85420930720D50DF11F00FFF766FC3D
:102C90009DF91F3030460022029321462B7B019381
:102CA000FF23009307F142030EF09BFA0123092052
:102CB0002B746B68DA79002A85D19B79002B82D13D
:102CC0000AF068FA5DE70022C6E7D60715D5500777
:102CD00001D50AF05FFA0DF11F00FFF73FFC9DF9E7
:102CE0001F202B68214602922A7B42330192FF2249
:102CF0000092002268680EF074FA0320D9E70A20D7
:102D0000D7E700BFFC110020644D81682A68807CF1
:102D10000DF0F1FF92F854306E68074692F8489033
:102D2000590796F806A096F807B089F0010940F116
:102D30008E8092F84B30002B00F0898092F84C6026
:102D4000082E00F08680304603F02AFA49EA000097
:102D50005FFA80F9002F7ED03046A16803F058FB5F
:102D600006462B6893F8542093F84180520749D5C2
:102D7000626893F85B10107888426ED1507893F8AF
:102D80005C10884269D1907893F85D10884264D1D4
:102D9000D07893F85E1088425FD1107993F85F1075
:102DA00088425AD1517993F86020914255D1627C82
:102DB00093F85A10501A42424241696849790829E9
:102DC0004DD093F84C30591A4B424B41002E48D10C
:102DD000B9F1000F47D02046CDE90423FFF7AAFA46
:102DE000DDE90423BBF1000F0AD0296891F85610E1
:102DF00001294ED021B9002A4BD108B1002B4AD16C
:102E00000AF0C8F92B6893F854309B073FF4B9AE29
:102E10000AF0C0F9BAF1000F3FF4B3AE2046FFF755
:102E200089FAD5F8009000B9FEB10DF11F0048EA0B
:102E30004608FFF793FB9DF91F3002932B7B01930C
:102E40005FFA88F30093012209F14203D2E6767912
:102E500076E7002685E73E4683E70022ADE70023BC
:102E6000B4E70120BEE73046BCE799F85530023B95
:102E7000012B3FF686AE002F3FF483AE0DF11F000D
:102E8000FFF76CFB9DF91F3002932B7B0193FE2310
:102E9000D8E70028B4D00A2095E600BFFC11002036
:102EA00030B58BB00546FFF73DFA114B1B6893F820
:102EB000543013F0060F04D00122962100200AF0AE
:102EC0003BF92C786946284604F00F0422460EF0A0
:102ED000ADF9002221466846FFF754FD21466846B9
:102EE000FFF722FE0446FFF7ADFB20460BB030BDD6
:102EF000FC11002038B5154D2C6894F84830F3B11A
:102F00006FF00043D4E920129A4208BFB1F1FF3FAD
:102F100015D012F0DFFDD4E92023904299410ED361
:102F20002B6893F848305BB92D6803F07BF90446B1
:102F300012F0D0FD064BE4FB0301C5E9200138BDCA
:102F4000012003F031FA0028F9D0EDE7FC11002050
:102F500040420F0010B50446FFF72AFA237A032BEC
:102F600003D145F63970FDF761FC0BB9FFF7B6F9EF
:102F7000054B1B6893F9580009F028FFFFF7EAFB9F
:102F8000BDE81040FFF7B6BFFC1100202DE9F84363
:102F90006B4D002307468946A8682521D5F8008097
:102FA000037043700AF0F0F9064630B9002603209A
:102FB00003F0D4FC3046BDE8F883AC68032F2378D7
:102FC00033D123F00F0343F0030323700C2363700A
:102FD000D8F87830A868C0F80930B8F87C30A0F884
:102FE0000D3098F87E1010F008F90021A86812F052
:102FF000FDFC2B6893F8482003F1420993F84180C7
:10300000002A79D14C4623684146A868C0F80330AD
:10301000A388A0F8073010F0E7F84A4BD3F80C3239
:10302000002B7ED00AF0B6F8C0E723F02F0322224F
:1030300043EA4913627043F0050323702B681A6D4D
:10304000D2F8D420C4F80F201A6DD2F8DC30190A57
:10305000E3741B0C2175637592F83A11B2F8E430F1
:10306000002943D06420B3FBF0F3A375D2F8E0301D
:1030700000293ED06421B3FBF1F3E375C3F30723CA
:10308000237692F83911D2F8D0000FF029FF296881
:103090006076000AA0760B6DAC68B3F8D820E276B3
:1030A000120A2277B3F8DA206277120AA277D3F8ED
:1030B0001E20C4F81F2093F8223094F8242084F8AE
:1030C00023300B6D22F01F0293F8293003F01F0309
:1030D000134384F8243002F051FD94F8243003F0B7
:1030E0001F0343EA401384F8243071E740F2E240C2
:1030F000B9E740F2E241BEE793F8542052070DD5FC
:1031000093F84B2052B193F84C0003F0BBF90446FE
:1031100000283FF477AF4FF0010874E76B685879E7
:10312000F3E7052F7FF446AF2B6821681A6DC2F8CC
:10313000BC10A188A2F8C0101B6D83F8BB8039E7D2
:10314000FC11002000A0085010B500210320FFF75B
:103150001DFF18B9BDE81040FFF790BA054C0321D8
:1031600020680EF02EFA0028F4D0636809221A7144
:1031700010BD00BFFC11002070B5164C63681868C4
:103180000EF02DF8064618B943F2DF20FDF74EFB8E
:1031900063680A22002120681A7100F0ABFE2368E0
:1031A00005201B6D5D7F3378C3F340131D40294616
:1031B000FFF7ECFE18B9BDE87040FFF75FBA0421D5
:1031C00020680EF0FEF90028F5D023681B6D5D77AE
:1031D00070BD00BFFC110020036D10B504461BB983
:1031E00048F66760FDF722FB022208494272B3F8F5
:1031F000B2304381FF2380F827304FF6FF730385F9
:1032000010F0D4FA0023236510BD00BF510D01005A
:10321000F8B5184F064602F021FC0121B8600020E5
:10322000FDF7F4FE054618B948F28450FDF7FEFAA2
:103230004FF4C072002113F0A5F801210846FDF7F4
:10324000E5FE044620B14FF4C072002113F09AF855
:103250007B6913B946F6DB70E8E730460DF03DFEBA
:1032600028460EF09FF924B12046BDE8F8400EF044
:1032700099B9F8BDFC110020014B024A5A61704710
:10328000FC11002088330000036810B51BB94CF214
:103290009C60FDF7CBFA044A13606C3353605369AA
:1032A000BDE810401B681847FC11002008B5044B0E
:1032B000586800F081FBBDE80840FFF7DFB900BFA8
:1032C000FC11002038B5044690F8400000F0FD00E5
:1032D00004F14201003818BF012084F8410002F0D7
:1032E0004BFE94F84030023BDBB2012B94BF01232C
:1032F000002384F8483014D802F094FF054612F0F9
:10330000E9FB084BE5FB030194F84830C4E92001D0
:103310003BB1002003F048F818B947F22310FDF73D
:1033200085FA38BD40420F000149363010F041BAED
:103330002F0D0100192300007D260000250D01003E
:1033400055270000250D0100250D0100250D010068
:10335000250D0100250D01004931000079310000E3
:10336000250D0100250D010061230000A9260000A4
:103370008F0E01007D0E0100B30E0100A50E0100AD
:10338000A12E00007D250000552F000068330000AD
:1033900070330000343300008033000078330000C5
:1033A00009260000C128000059280000070F01006D
:1033B00008B5431EDBB229B1032B07D94FF20A002F
:1033C000FDF734FA032B02D8024AD05C08BD4EF256
:1033D0003F70F5E7529D030008B50DF07EFB054AEE
:1033E000D2E84F3F0133DBB2C2E8413F0029F7D1B9
:1033F00008BD00BF14120020024BA0F1080158685C
:10340000FFF7EABF141200202DE9F84F1E463C4B8F
:103410000D46934600211A7804689DF828709DF89F
:103420002C809DF930909DF834A0016032B9A4F150
:1034300008015868BDE8F84FFFF7CEBF1A2204F123
:10344000090012F09FFF0123A372BBF1060F4FD8B2
:10345000DFE80BF00433394E434E3D00E37A23F0AE
:10346000130343F01303E372012304F10E024146F8
:103470002846237547F6FF7384F81890E38204F119
:103480000D030DF080FEE37A5B0735D5BA1E04F11B
:103490001C03012A8BBFAA6832681168E2618ABFE7
:1034A000E161B28892889A80E776002323721549F9
:1034B0002046BDE8F84F10F07CB9E37A23F01503FD
:1034C00043F01503CFE7E37A43F01003CBE7E37A49
:1034D00023F0120343F01203C5E7E27A4AF01A0A16
:1034E00022F01B020AF01B0A42EA0A02E272BBE760
:1034F0004AF60210FDF79AF9FF23E376D5E700BFFD
:10350000141200202D35000010B50C46096849B191
:1035100001F10803984203D0034B5868FFF75CFFA2
:103520000023236010BD00BF141200202DE9F04FCE
:1035300005468DB00C4600200121FDF7A3FD06468F
:1035400018B941F6F430FDF771F9A8300EF02CF8F7
:1035500018B196F85430042B2ED130460DF0B2FC41
:1035600050BBBA4C04F1080604F10C07AB6A93B9DE
:103570002846FFF741FF4FF40073ADF804309DF883
:103580000430002063F307009DF8053063F30F203B
:103590000DB0BDE8F08FA96A0B68B142AB624FF085
:1035A00000030B704B708B70CB70DFD0B942DDD055
:1035B0006068FFF711FFD9E7AF6A37B3A44B9F42AA
:1035C00026D0043B9F4223D007F13B0A4FF000086E
:1035D00002F052FA8146B8F1000F40F0078102A9CB
:1035E00050460DF0B6FEB9F1000F16D004F10D00F3
:1035F000EE7A16F0100613D09DF818600599324641
:103600000CF05EFD4FF0010828E005F1330ADDE71C
:103610004FF001084FF0000ADAE704F11C00E7E779
:10362000002FEFD09DF80830022BEBD0014695F823
:103630003230E52250460FF01AFF95F83230064638
:103640000344504685F832300FF009FF95F8328078
:10365000A8EB0000D0F1000848EB0008B9F1000F1A
:1036600000F0C880EB7AD90605D440F609406AE735
:10367000C8460026F6E713F0040FAA7A95F80DC0A5
:103680004FF03E0304F1060105F10E0033D095F82A
:103690001BE0BEF1FE0F2ED123700B23E270A3704E
:1036A000130184F805C00233637001232371D5F838
:1036B0000E30C4F8063083888B8084F80CE0EB6908
:1036C000C4F80D302B8CA4F811302B7EE3745F4EC0
:1036D00006F1080A57453CD12379022205F128005A
:1036E00062F3461323710DF06AFD02272846FFF7A7
:1036F00083FE042640E023700223E270A37006F1EB
:103700000A0384F805C0534302336370D5F80E30C2
:10371000C4F8063083888B80267326442B7E73730F
:10372000EA7A12F0080102D004232371CFE702F0F5
:103730000303032B01D12171C9E7520701D50123EE
:10374000F3E7022BF1D00BB90323EEE74CF20A307A
:10375000F9E606F10C094F4515D105F128000DF0E9
:103760002EFD6A7D6AB92379042662F3461323711C
:1037700002272846FFF740FE8DF804608DF805709B
:10378000FDE60026F4E747B3B8F1000F20D005F1BD
:10379000280840460DF013FD39467068FFF71CFEFF
:1037A000AB6A0022534585F8322095D04B4505D1B0
:1037B0002379404662F34613237194E79DF808305D
:1037C000022B05D1237923F068030127237190E7A9
:1037D0002379012262F34613F7E7EE7A16F010061A
:1037E000CAD0237967F3461323717EE700287FF45C
:1037F0003FAF06468E2305F12301237006F118031F
:10380000AA7A5343E270221D0233637005F10B0361
:1038100053F8040B8B4242F8040BF9D195F814A02D
:1038200095F815B002F066F9C1F3402950464946B3
:10383000FFF7BEFD6073BBF1000F04D04946584648
:10384000FFF7B6FDA073E67641E700BF1412002033
:1038500020120020343270B5054692B20C461E4646
:103860000DF003F925B1034A5560147456741470B1
:1038700070BD00BF1412002010B5034C60680DF03D
:1038800016F9237C237010BD14120020014B587CC4
:10389000704700BF1412002038B5134D68680DF052
:1038A0000CF9044618B945F69800FCF7BFFFD5E8B7
:1038B0004F3F013BDBB2C5E8413F0029F7D104F19E
:1038C00008033422184612F05DFD47F6FF7201210D
:1038D000E462E283FF22627584F82320E27C61F3D4
:1038E0004612E27438BD00BF1412002038B5436A96
:1038F00004468BB90A4D68680DF0DFF8606218B9AC
:1039000047F63620FCF792FFD5E84F3F013BDBB28C
:10391000C5E8423F002AF7D1606A3B3038BD00BF9E
:1039200014120020036810B5044683B19A6A1AB1D4
:1039300042F6DC60FCF77AFF596A41B101F10800F8
:103940008342084B08BF22605868FFF745FD216895
:1039500031B1044B08395868FFF73EFD002323605E
:1039600010BD00BF1412002038B5046805469CB194
:103970000F4920460FF026FF0E4B00221A735A7390
:103980009A73DA73EFF3108272B6A16A0C3359B9E5
:10399000A362E36202B962B6286800F12401FFF76E
:1039A000B3FD00232B6038BDE16A0B60F1E700BF77
:1039B0002D3500001412002038B50446006818B3F5
:1039C00000F12401FFF7A0FD2168104B4D7DB5B13A
:1039D00000221A725A729A72DA72EFF3108272B679
:1039E000886A083340B98B62CB6202B962B620465E
:1039F000BDE83840FFF7B8BFC86A0360F4E708398C
:103A00005868FFF7E9FC256038BD00BF141200209C
:103A100010B504460246064900F58C7012F081F993
:103A2000224604F5A4700249BDE8104012F079B9AD
:103A3000AF1601007FB590F8142102F0FF031AB110
:103A400044F28C70FCF7F2FE0C78039314F0010240
:103A500018BF8D68CDE9013318BF019514F0040536
:103A600029D004ADCE6805EB820545F80C6C1546EF
:103A700080F845514A68124DC0F8C820C0F8F820B7
:103A800040F27122A0F8FC20032215F8011B0C4221
:103A90000BD004A900EB830601EB8301013351F83D
:103AA0000C1CDBB21639C6F8CC10013A12F0FF023A
:103AB000EBD104B070BD002ADAD14AF69120C1E7FB
:103AC000629D03002DE9F04F04468FB09A4691465F
:103AD000BDF860B0039111F0FDFF07462046049148
:103AE0000DF074FCD4F8CC800546BAF1000F00F05C
:103AF000DD81B9F1000F00F0E480824617F5FA632A
:103B00000593049B43F10003069303F06FFF064601
:103B100004F1E8003146079003F03AFFD4F81011A1
:103B200011B107980DF093FDADB1D4F8F050AEB1DE
:103B3000B0682A46D6E90031C018059B009341F1D0
:103B40000001069B019310F0B1FC854207D248F6B4
:103B50008900FCF76BFED4F8C850E8E73046059BB7
:103B6000C518069B43F10006D4F8C830BBF1000F1E
:103B700000F0A2801FFA8BFB42F2107C29463246ED
:103B8000EBFB0C1203F2CF7C6044B0FBF3F0434339
:103B9000EB1A66F10000C4E92A12C4E93A304FF08A
:103BA000000B04EB0B03204693F87C110DF0F3FBA4
:103BB000D4F8A830D4F8AC105A1B0590069361EBEA
:103BC0000600012A70F100034FF00003C0F25D818E
:103BD0009045834100DB904604EB8B0BDBF8CC0077
:103BE000804528BF8046C4F8DC80B9F1000F05D0BD
:103BF000D4E93A23C4E92C56C4E93023059B204676
:103C0000039AC4F8D83004230791C4E92E5653729E
:103C10002A4633460DF0F0FB039B059A18725A6052
:103C2000BAF1000F00F03C810123039A0799137049
:103C3000069B049ADB1B61EB0202012B72F1000070
:103C40004FF00000C0F22381A94E9E42904100DB5C
:103C50001E46D4F81031D4F8C890002B40F01C81D7
:103C600007252046A9FB055A0DF0B0FB002800F0FF
:103C70001081D4E92C32ED184AEB0203AF42049ACA
:103C80009A410ED2ED1B049A63EB02036FF001021E
:103C9000AA424FF000029A4102D3AE4228BF2E46FC
:103CA000B146039BC3F81090059B984534BF002094
:103CB00001200FB0BDE8F08F4FF0FF316FF00042F0
:103CC00060E7002838D06FF00043D4E92A129A4206
:103CD00008BFB1F1FF3F2AD094F844312046234475
:103CE00093F87C110DF057FB17F19802049B0546E1
:103CF000099008A843F100038DF82090CDE90C232A
:103D000040F20243ADF8283012F011F810B947F62E
:103D1000E4601EE7D4E92A320C995B1A0D9962EB34
:103D200001025B1B62F10002002AC0F2A8803D463E
:103D3000049E4FF0010A32E7D4E93A26D4F8C8507D
:103D4000BB1AAA18B3FBF5F305FB03F346F1000613
:103D50009B18A3EB070246F10006972A05D8ED1839
:103D600046F10006CA46CB461BE794F87C11204674
:103D70000DF011FB0423D4F8B8208DF82930D4F8C5
:103D8000C850099020468DF82090D4E93A13521A71
:103D9000B2FBF5F26A43521843F10003CDE90C235C
:103DA0000DF02AFB29468DF8280008A80EF0ECFF3C
:103DB000DDE90C56D6E751F8042F013302F1160C59
:103DC000C4459FBF821A0BF1010B90445FFA8BFB35
:103DD000DAB29645EFD804EB0B03204693F87C113A
:103DE0000DF0D9FA404404EB8B03D3F8CC30834276
:103DF00009D3A3EB0808B8F1000F24DA40F65210FB
:103E0000A7E6A8466AE094F84511D4F8C8205945B9
:103E100011D90BF1010BAA425FFA8BFB08D904EB15
:103E20008B03D3F8CC3003F1160298461546E2E72F
:103E300043F205708DE6AA42F7D852009542F4D3BA
:103E400042F28B2085E6AD19D4F8B030D4E93A12AD
:103E50004AF100065B1A02D546F2B76079E6D4F85B
:103E6000C800B3FBF0F343435B1842F10002C4E91E
:103E70003A32EB1A002BEFDB4FF0000A91E63D4699
:103E8000049E4FF0010AC8466DE79846A4E6064630
:103E9000DFE6D4E93032EEE64FF0FF352B46EDE6B3
:103EA000039B83F800A0C3E90456FDE6B9F1000FB7
:103EB0007FF424AED4F8C82007F19805D4E93A136A
:103EC0007E1AB6FBF2F656437618A5EB060543F1CB
:103ED0000003AA429A4694D8A5EB0208002394F85E
:103EE00045E104F1C8016FF015009B4670E700BF83
:103EF0000040420F01292DE9F347064605D9022962
:103F000000F0988045F2B82050E001F00104D0E9BB
:103F10002CA708F09FFE96F87881814620464146FE
:103F20000EF0ADFF0546404609F086FB0246002C28
:103F30003ED0A8F10203DBB2022B39D8534901EB82
:103F400043031B8A15EB09052CBF0121002115EB4A
:103F50000A0547EB01074E4951F8280000F2E73007
:103F600010444FF47A72B0FBF2F02D1A67F100079B
:103F7000ED1847F1000710F0C2FA3330D6F810817F
:103F80002C1A67F10005D8F8D07003F029FD06F16E
:103F9000E80383420FD03A46CDE90045D8E97801DD
:103FA00010F084FA874210D24EF65110FCF73EFC16
:103FB0004FF4FC73C6E798F8390130B13A46CDE9C1
:103FC0000045D6E93A0110F071FA324B1A68D6F87A
:103FD0001031824293F83A110ED9D3F8D0603218DA
:103FE000C3F8E06089B941F66A018842A3F8E41099
:103FF00018D34AF64700D9E751B16422B0FBF2F179
:1040000051430246401AC3F8E0104FF4FA71ECE74E
:1040100040F2E242B0FBF2F151430246C3F8E01035
:10402000401AE0E7121945F10005C3E9782502B00E
:10403000BDE8F087D0F8103113B94AF6BD40B5E7B6
:1040400000255D7390F8781183F8301183F83111F1
:10405000FF2483F832410339D0F81001012900F11F
:10406000F0008CBF0021012102F0A8FCD6F810015D
:1040700006F094FFC6F8105186F8164109F0E2F8F0
:1040800002B0BDE8F0470BF01FBA00BF569D030019
:104090003CA003002812002008B50B4B28B10128D2
:1040A0000CD041F2ED60FCF7C1FB18601A6841F6D4
:1040B00069039A4206D947F2B910F4E740F6C412F0
:1040C0001A60F3E708BD00BF28120020014B1868F2
:1040D000704700BFE012002008B5034610465A1E84
:1040E000032A10D84A1E032A0DD8084A0129517004
:1040F0000CBF00210A211071937091721946FDF7CF
:10410000BFF9002008BD6FF01500FBE7E6050020B1
:10411000074A537A40B143F00403002953720CBF9D
:10412000002307235371704703F0FB03F5E700BF3B
:10413000E605002040EA4100014BD870704700BFFF
:10414000E605002010B504460DF033FC08B9002048
:1041500010BDE0430DF02DFC0028F8D0E31683EAF3
:10416000A4635A1E1A42F2D0E3B25A1E13405A1EDA
:104170001342ECD0A0B20FF05CFD0B28E7D820462C
:104180000FF053FD1828E2D8A3B2B3EB144F04D1BB
:1041900084EA142313F0FF1FD9D0044B6340581E48
:1041A0001840003818BF0120D2E700BFD6BE898E64
:1041B000F0B5070C164BA7F5AA4203EA9023543A30
:1041C000012A20D927F4004042F6AA22801A18BFFB
:1041D0000120002216211F24164687EA060562EAFE
:1041E0000505013511D0DD0301394FEA5303ADB2A6
:1041F00045EA56064FEAC4354FEA5404ADB245EAE3
:104200005202EAD1F0BD0020E3E70020FAE700BF48
:10421000E0FF3F0070B50D46BDF818400646BDF8FA
:104220001410AC421046BDF810201BD8B5F5486FED
:1042300018D8844216D8B0F5486F8CBF00240124EA
:1042400096B91A4EF67B96B19CB96FF4506C05EB9B
:104250000C06062E04D86FF450668619062E08D96F
:10426000204670BD0024EBE796F88960EBE7002C50
:10427000F6D0854217D803FB0111B1F5FA7F12DCA5
:10428000A2F10A0340F676449BB2A3420BD80DF08C
:1042900096FC42F2107341435A43B2EB410F8CBF7C
:1042A00001240024DCE70024DAE700BFE812002044
:1042B0000138C0B2032808B503D94EF23F70FCF7AD
:1042C000B5FA014B185C08BD859D03000138C0B2EA
:1042D000032808B503D94EF23F70FCF7A7FA014B4B
:1042E000185C08BDE89D03000138C0B2032808B57A
:1042F00003D94EF23F70FCF799FA014B185C08BDE8
:10430000E39E03000138C0B2032808B503D94EF27A
:104310003F70FCF78BFA014B185C08BD7E9F0300D1
:104320002A4B70B51D890C46DE8840F648031146BD
:1043300022469D4228BF1D4600230FF0F5FBE28870
:104340002389B2426088A18828BF3246AB4228BF89
:104350002B46B042E28028BF3046A942238128BFC5
:1043600029461B286080A18002D0B1F5A47F04D12A
:104370001B2A29D0B3F5A47F26D0FF232370E3881E
:104380001B3B9BB2E02B03D947F69A20FCF74EFA71
:1043900063881B3B9BB2E02B02D94DF2DA40F5E774
:1043A000238940F64812A3F5A4739BB2934202D925
:1043B00043F25500EAE7A388A3F5A4739BB29342A6
:1043C00002D947F69F30E1E770BD00BFE812002038
:1043D000F7B5002304460E461746CDE9003368467C
:1043E000FCF78AFE08B100201AE0009DA542F6D035
:1043F000304605F1B5030DF0C2FB394695F8B420FF
:104400000EF06DFC0028EAD005F1BC0395F8BB2046
:1044100004F1BC0194F8BB000EF061FC0028DED072
:1044200003B0F0BD054A516A02F11D03127F11F875
:10443000030BC0F380100EF052BC00BF54180020D4
:10444000012817D80D48824216D8012B0DD140F211
:1044500052739A4210D9A1F6C410094B98420BD856
:104460008A428CBF122000207047042BF3D140F603
:10447000C313EEE712207047302070478FFD7002A3
:10448000CBF3700210B504460A480CF04AFE0A4904
:104490002046FFF7CFFA20460CF075FD38B12046D4
:1044A000FEF710FF20460CF039FE002010BD122050
:1044B000FCE700BF241300202C1300202DE9FF4748
:1044C00099467E4B04460DF1080818680F461B7983
:1044D00016467B4D88F8043095F86E30029013B183
:1044E000404602F035F8394620460EF03EFDAB69F5
:1044F000C4F8F03096F84A2006EB4202B2F82AA03F
:1045000050460DF05CFB01466FF45060002382447E
:10451000BAF1060F77D9908C4FF0961284F83A31A1
:10452000A4F8EC30C4F8E82040F2E2420DF047FB7A
:1045300003F0A2FA40F2E2430146A4F8F431C4F8D1
:10454000D010C4F8F01101F0D5FA8306A97B53BF4F
:104550001B236B88AA881A46A4F80C31594BA4F87F
:104560000E211B6884F8F8101BB194F938113846F5
:104570009847EB7B2046003B18BF012384F8393174
:104580000DF015FA504B1B681BB15049B4F8B2003E
:1045900098470123A4F8E6304D4B1B681BB14D49E9
:1045A000B4F8B20098474C4B1B681BB14B49B4F8A8
:1045B000B20098474A4B1B6813B1B4F8B200984751
:1045C000484B1B6813B1B4F8B2009847464B1B68C0
:1045D00013B1B4F8B2009847AB8804F1C8006A88F8
:1045E00069780333033201919BB2297892B200912A
:1045F00004F1CC01FCF7DEFDD4F8C8307BB94AF6F3
:104600004950FCF713F94FF04D12A4F8EC30012398
:10461000C4F8E82084F83A314FF47A738DE7D4F87F
:10462000CC3013B945F6CF00EBE70DF089FAC4F8AA
:10463000D400B9F1000F05D002F09CFA20F07F40C1
:10464000C4F8DC0096F84A302046E96906EB4306D8
:10465000338EA4F8D830F38EA4F8DA3010F0BDFE13
:10466000414604F11D000EF014FD95F86E3013B9AB
:10467000FF2384F83D322B6F04F1B00523B10122F2
:1046800004F59F7128469847184928460EF099F876
:1046900002F070FA0C23B0FBF3F202FB1300C0B27D
:1046A000431DDBB2082B9CBF0D30C3B2204684F8FB
:1046B00029300EF050FC04B0BDE8F087541D040012
:1046C000E8120020CC1D0020E01D00201413002063
:1046D000DC1D00204A130020D81D00203C130020C0
:1046E000C01D0020C41D0020B81D0020F2120020B3
:1046F00010B503210020FCF7C5FC044668B903216E
:10470000FCF784FC044618B946F6BC10FCF78EF89A
:10471000034B93F9741010F06AFA204610BD00BFE5
:10472000E8120020014B5888704700BFE8120020B3
:10473000014B93F828007047E812002038B50EF0BE
:10474000CDFA002501F038FD224C01F0FFF90FF001
:104750000FF803F0C1F801F01BFF07F0C9FD0120BD
:1047600001F084F91C4B1D4A29461D604FF01B13B4
:10477000A4F86C50A581E573A57484F83A50C4E997
:1047800000234FF4A4731022A360F9232382144B57
:1047900058681B89E06304F14400A4F8403011F02C
:1047A000F1FD012342F2107204F1620084F84430FA
:1047B0002375C4E9122210F0E5FF04F1540011F052
:1047C00005F80022002384F8805084F82850C4E9BA
:1047D0001E2338BDE8120020C81D002003021B0064
:1047E000859D0300064B41F64C521B211A629973BA
:1047F000C3E9062241F288325A62FFF79FBF00BF29
:10480000E812002073B53D4D0446AB69AE7BC0F89D
:10481000F030EB7B003B18BF012380F83931384B77
:10482000C0F8D03002F07CF9002818BF002601F053
:1048300061F9830684F8F86053BF1B236B88AA884C
:104840001A46A4F80C312F4BA4F80E211B6823B193
:1048500094F93811B4F8B200984720460DF0A7F843
:10486000294B1B681BB12949B4F8B2009847284965
:1048700004F1B0000DF0A5FF0123A4F8E630254BAC
:104880001B681BB10021B4F8B2009847224B1B688B
:104890001BB10021B4F8B2009847204B1B6813B13C
:1048A000B4F8B20098471E4B1B6813B1B4F8B200BD
:1048B00098471C4B1B6813B1B4F8B2009847AB88FB
:1048C00004F1C8006A8869780333033201919BB20E
:1048D000297892B2009104F1CC01FCF76BFCD4F87A
:1048E000C8301BB942F20B20FBF7A0FFD4F8CC3044
:1048F00013B94FF65420F7E702B070BDE81200205C
:1049000000093D00CC1D0020E01D002014130020F4
:10491000F2120020DC1D0020D81D0020C01D002048
:10492000C41D0020B81D00202DE9F34104460E46A9
:1049300010F09DF9002800F09580204610F0CEFA86
:1049400040B1B6F80130013B7F2B03D9122002B0F1
:10495000BDE8F081204610F0C5FA08B90C20F6E752
:10496000204610F00BF80028F8D1204610F029F965
:1049700080460028F2D1204604F084FD0028E5D0CE
:1049800042F21073B6F80170F17820465F4310F0E0
:1049900090FA04213078FCF775FB05460621307843
:1049A000FCF770FB25B138B14CF25120FBF73EFF0C
:1049B00018B3054690F8E5802B4E3368EBB14035CF
:1049C00028460FF06AFDC0B128460FF057FDA0B988
:1049D000B8F1000F07D0254B28461B68984760B1F7
:1049E0004DF27350E2E72249424633682846096A8D
:1049F000984710B140F6B920D8E7204610F066FA83
:104A0000014638B93A46204603F0FCFD40B34FF664
:104A10008800CBE702210DF10600FCF7C1FA05463C
:104A200008B90D2093E7BDF806100EF0CEFA29461E
:104A3000204610F089FA2846FFF7E4FE3A46294658
:104A4000204603F0DFFD024610B141F2D770ADE71A
:104A5000074B1B6F23B105F59F7105F1B000984717
:104A6000002074E7422072E7D41D0020D01D0020F2
:104A7000E8120020024B1B6803B118470C20704756
:104A8000C81D0020014B93F974007047E812002004
:104A9000034B5A8802801B7883700020704700BF48
:104AA000E812002070B5837806461A2B08D8042B2C
:104AB00004D92E4A22FA03F3DB0705D412200EE0B4
:104AC000292B01D03B2BF9D13088B0F5706FF5D28E
:104AD0000EF01AFA70B190F83C210AB10C2070BDAA
:104AE000B27880F83D21FF2280F83C210DF085F955
:104AF0000020F4E709213088FCF7C4FA044690B39B
:104B0000B0F8AC010EF000FA05460028E6D0082106
:104B1000B4F8AE01FCF7B6FA18B949F2BC00FBF7DD
:104B200085FE03781BB994F8C831032BD6D195F8CC
:104B30005231002BD2D194F8F031002BCED1B4F801
:104B4000B031A5F8543194F8B83185F85631037D69
:104B500085F85731B37885F8583184F8F031FF2360
:104B600085F85231C4E70220B9E700BF20003804BD
:104B70000188A1F11B039BB2E02B0CD8428844F2C0
:104B80004810A2F5A4739BB2834204D8034B0020C3
:104B9000D9801A8170471220704700BFE8120020A8
:104BA00038B50278447802F0010302F0020254EAB8
:104BB000030101D1112038BDD2B98578002DF9D07B
:104BC000002B18BF002400E01D4620460DF02BF8F6
:104BD0000028EFD028460DF026F80028EAD0074B31
:104BE00000201A7B9C7222F00302DD721A73E2E746
:104BF000002BE9D000242546E7E700BFE81200209B
:104C000010B500880EF09AF9D0B190F84E2112B18B
:104C10003A24204610BD90F8682002F0FF04002AD4
:104C2000F6D190F85F20920705D1FF2280F84E213F
:104C30000DF0E3F8EDE7034960300EF0C0FDE8E762
:104C40000224E6E7DF4301002DE9F047037804463C
:104C5000032B03D912252846BDE8F0874378032BA0
:104C6000F8D8437E8578002B4ED1012DF2D100F08B
:104C70005FFF854340F0918094F8028018F00105B1
:104C800006D001232269A168E078FFF7D9FB054629
:104C900018F0020F07D002232269A168E078FFF71D
:104CA000CFFB2843C5B218F0040F7AD094F803A0C4
:104CB0000423D4F80890226950464946FFF7C0FB08
:104CC000284310F0FF05C6D1B8F1050F0ED194F8B6
:104CD00004800423E16862694046FFF7B1FB0546A2
:104CE0000028B8D1C24558D1894556D1237E013B11
:104CF000062BAFD801210020FCF7C4F9054648B9BE
:104D000041F68A60FBF792FD6B1E062BA2D8AA071C
:104D1000A0D4ACE7A8300CF047FC18B195F854309B
:104D20009B073CD1657EE278003DA078A16818BF62
:104D30000125012AB4F800E000F0040314BFB2FA20
:104D400082F2022294F818C018BF520910F0010F25
:104D50001FD026695BB16769F319994207D24B08E6
:104D60009E4228BF1E468B1B9F4228BF1F460E4BEC
:104D700083F84150002583F83C0083F83D20A3F8D8
:104D80003EE083F840C083F844001F65C3E9121673
:104D900061E7002BEBD02769E9E711255BE70C25DC
:104DA00059E7002DA2D056E7E812002000B589B0DF
:104DB000437940F271218DF8043083798DF8053004
:104DC00001238DF8063003788DF80730B0F80130F4
:104DD0004B430393B0F803204A430D4991F8401028
:104DE0000592A2F6C4128DF81C1000218DF81D103A
:104DF00008498A4209D8A3F6C4138B4205D801A8F2
:104E0000FFF722FF09B05DF804FB3020FAE700BF8E
:104E1000E81200203C369C002DE9FF410646007850
:104E2000012813D17378012B03D9022B0CD1B3883D
:104E300053B17288B2B1B388A3B10A214A434FF487
:104E4000A0614B439A420DDB122479E00028FBD18C
:104E50000121FCF717F90546002840F08D8042F249
:104E6000665007E001210020FCF70CF9054618B94F
:104E700047F2E250FBF7DAFCB388002B76D10CF056
:104E800021F8002874D195F81431002B72D12846EE
:104E9000FFF7F8FA04460028D6D10121DFF82C816B
:104EA0000846FCF7EFF898F81310074619B110B947
:104EB0004CF2C400DEE798F83C200023CDE9023331
:104EC00012F001031CBFD8F84C000290520741BFFA
:104ED00004AA02EB8303D8F8502043F8082C0029D9
:104EE00041D097F81431002B3DD07388DBBB98F884
:104EF0003C303846009302ABD8F8482098F83E1072
:104F00000CF0B6F878B338460CF054FB07F14003C8
:104F1000064605F14002683753F8041BBB4242F8CD
:104F2000041BF9D12846FFF7ADFA024610B140F252
:104F3000EF609FE70C2E07D1014628460CF0E1FCFC
:104F4000204604B0BDE8F08116B147F28C1091E71D
:104F500098F83D302846296D43F0040385F8543015
:104F60000CF0AFFCECE7B2887188E6E71124E7E7C4
:104F70003A24E5E70C24E3E70CF0C7FA04460028DE
:104F8000DED195F8543095F8A62022B195F8A720E7
:104F9000134385F8A600053B012BD1D82B6D13B91F
:104FA00043F6AE6066E701210846FCF76BF84FF464
:104FB000C072294606460BF083F8002386F8943029
:104FC0000423316D304686F85430C9E7E8120020DA
:104FD0002DE9F04F457A04468FB0A80718D545F063
:104FE00001056572072D15D800F0A2FD35EA000015
:104FF00040F0578194F848308BB9012D0AD1A3694C
:10500000A94AA3F25373934200F24981012609E0B1
:105010006907E7D1122420460FB0BDE8F08F15F0E4
:105020000106ECD1AA0745BF731CB1464FF0FF093A
:10503000DEB26B070AD5B31D9C4A54F82330A3F6A1
:10504000C413934200F22B810136F6B204F1080733
:1050500004F122054FF000085FFA88F39E422BD836
:1050600023789A1E022A40F21C81012BD2D813B950
:10507000A378012BCED86378032BCBD894F8493092
:10508000013B062BC6D88A4F01210020FBF7FAFF0F
:10509000FB7C0546002B4CD101210846FBF7F2FFB3
:1050A000002818BF054605F1A8000CF07DFA064659
:1050B000002858D00C24AEE7994535D0D7F804A085
:1050C0003B695345A6D86A8B2B8C9A42A2D8B5F877
:1050D00014B001204FF0060C69882A89EB89CDF8BD
:1050E00000B00591CDE9010C0020CDE90623FFF7C2
:1050F00091F8002800F0D380B8F1000F14D0288870
:105100000599884286D1E988069A914282D1AA8976
:10511000079B9A427FF47EAF6B8A5B457FF47AAF40
:105120003B689A4540F0BD8008F10108043702351C
:1051300092E7A8300CF038FA0028ADD06FF00043A9
:10514000D5E92A129A4208BFB1F1FF3FA4D1637A90
:105150002846009304F11803E26861780BF088FF99
:105160000646002898D028460BF0B2FE08B13A2433
:1051700051E728460BF0A6FE0028F8D1BB7C4BB9BE
:105180000AAF0A937B6006238DF82E303846FBF772
:10519000B3FF60B300210DF12600FBF701FF0746C6
:1051A00000287AD001232246BDF82610FFF786F9A1
:1051B000384610F02AF91EB9617828460BF014FF22
:1051C00004F10308A2782178284643460BF0BAFE82
:1051D00000286FD112240021B7F8B200FBF768FF56
:1051E00000283FF418AF4DF62D70FBF71FFB0A9B0C
:1051F00093F8CD20802AC9D093F8E530002BC5D094
:1052000058E7637A8DF8286013F00102E16818BF4F
:10521000A0690B911EBF0C9001208DF828009E07FD
:1052200044BF0132D2B258071BD59DF82800063280
:1052300003F0050354F8222040F00400052B0D92E2
:105240008DF828000DD10C981318994209D24B08FB
:10525000834228BF0346C91A0C93914294BF0D9113
:105260000D920AA92846FEF7E5FB94F84810284657
:10527000003918BF01210BF062FE94F8491028464E
:105280000BF043FE28460BF049FF394628460CF048
:1052900018FB0024BFE60B249DE70D24BBE6302459
:1052A000B9E61124B7E600BF3CF67002CBF37002FA
:1052B000E812002016B92846FEF704F82178434684
:1052C000A27828460BF09DFE94F8099000F030FC7F
:1052D00009EA0001284601F005010BF019FE16B994
:1052E000042385F854302F654246A0780CF047FC23
:1052F000014628460BF0A0FE237833B94246A17838
:105300003846FFF765F80028C5D1002E3FF479AF85
:10531000042128460BF040FE0028BAD10C245AE79D
:1053200010B5437994B0032B57D823F002030279C8
:1053300040F271218DF80630D0F806308DF8042047
:10534000CDF807304389027BADF80B3001238DF88F
:1053500005208DF80D3003884B43049342884A435F
:105360000792A2F6C412847B417B41EA0421ADF886
:105370002810047CC17B41EA0421ADF82E10847C06
:10538000417C41EA0421ADF83410047DC17C41EA3E
:105390000421ADF83A10417D847D41EA0421ADF845
:1053A0004010C17D007E41EA00210E48ADF8461054
:1053B00000218DF84C108DF84E100B4990F84000EC
:1053C0008A428DF84D000AD8A3F6C4138B4206D842
:1053D00001A8FFF7FDFD14B010BD1220FBE730203F
:1053E000F9E700BFE81200203C369C0073B50623A5
:1053F0000025CDE900558DF806306846FBF77CFEA8
:1054000008B1002610E0009D95F8CD30802BF4D037
:1054100095F8E560002EF0D095F83131002BECD1F5
:1054200095F8CC30002BE8D101210020FBF72AFEB3
:10543000044618B94DF6D140FBF7F8F9A8300CF046
:10544000B3F8224BDB7C73B3E0B194F85430053BE6
:10545000012B17D820460CF0ADF8054610B14FF2DD
:105460004920E9E72046FDF7B7FE94F854302A4674
:10547000294623F00403204684F854300CF041FA06
:1054800000250DE001210846FBF7FCFD044610B99C
:1054900041F66740D0E7A8300CF086F860B90C25DB
:1054A000284602B070BD28B9002EF8D0FF2385F839
:1054B000CC30E5E7002EF9D120460CF07BF805460C
:1054C0000028EDD12046FDF787FEE9E7E81200202D
:1054D00070B5837805460A2B34D800880DF014FD8A
:1054E000044688B312212888FBF7CCFD18B948F68A
:1054F0008B70FBF79BF994F8503113B10C263046B2
:1055000070BD837A03F0FF06002BF7D194F8713059
:105510001B0706D4FF2384F84F31FF2384F8503152
:10552000EDE794F87530DB0907D0037BA978427B5F
:105530008B4228BF0B469A42EFD3044902300EF04B
:1055400035F9DCE71226DAE70226D8E73D580100F4
:10555000F7B5067804460F46EF2E03D912263046DB
:1055600003B0F0BD90F901204378002AF6DB827881
:105570009207F3D113F010001DD19D0603F0030232
:1055800016D5002AEAD11907E8D42179E278E5791D
:1055900042EA0122617942EA0142A17941EA052108
:1055A000257A41EA05418A42D8D81F2A12D8D5E780
:1055B000032AE8D1D2E713F0600FCFD103F007023E
:1055C000052A05D003F00F010D22CA40D207C5D528
:1055D0001D07DAD5627A013A062ABFD8A27A032AD1
:1055E000BCD813F0040302D1023A012A03D8E27AAC
:1055F000012AB3D813B9A37C032BAFD8237DF8B10C
:10560000012BABD1237E012BA8D818B36378D9071F
:1056100002D500F0CBF920B36378227D03F01803A4
:10562000082B2ED1022A1CD103213046FBF72AFD7C
:10563000054660B30FF0A2F9002834D00C268EE79F
:10564000022B8BD0A37D013B022B87D8E37D0F2B50
:10565000D8D983E700F06CFA820707D4237D022BA8
:1056600001D111267BE7A37D022BFAD000F060FA6E
:105670004307CBD4237D032BF3D0A37D032BC5D1CC
:10568000EFE7022AD0D0237F002BCDD0E9E703211A
:105690003046FBF7BBFC0546002843D0224B93F96C
:1056A00074100FF0A4FA0021304610F045F828BB22
:1056B00028460FF008FC21463870E07428460FF0A9
:1056C00004FBE37E0646002B3FF449AF00287FF43D
:1056D00046AF0246E96C6846FBF74CFE3246E86C82
:1056E00001210BF036FAE96C68460422FBF742FE12
:1056F00032463146E86C0BF02CFA30E740300EF0C1
:10570000CCFE0028D4D0637813F0330F7FF426AF9B
:10571000A67D2846296A0FF0F4FBFEF7C9FD8642F4
:10572000C6D08BE707261AE7E812002030B50279C9
:105730008BB00346042A4FD84088B0F5804F4BD831
:10574000264900241144ADF800408DF808408A7CB9
:105750004D7B42F010028DF8244042EA4502CD7D97
:10576000097F42EA850242EAC102694602F01F024D
:105770008DF80020BDF80020ADF809201A888DF8BA
:105780000E00000A8DF80B20120A8DF80D408DF8DE
:105790000C208DF80F008DF810405A7BD3F80700CD
:1057A0008DF811205A79059002A88DF812209A7967
:1057B0008DF81320B3F80B209B7BADF818208DF8E3
:1057C0001A307F238DF81B304FF00113CDE90734D9
:1057D000FFF7BEFE0BB030BD1220FBE7859D030036
:1057E0000278034672B1427862B142881A2A09D916
:1057F00082881A2A06D90068034A106000209B8814
:105800009380704712207047E81200200268002041
:10581000014B9A61704700BFE81200200268002027
:10582000014BDA61704700BFE81200200378A3F152
:105830000A02112A9BBF024A00201220937370476C
:10584000E81200200378FF2B15D14378FF2B12D1EB
:105850008378FF2B0FD1C378FF2B0CD1037923F072
:10586000E0021F2A07D11F2B05D05B09034A002045
:1058700082F8403070471220704700BFE8120020C5
:10588000014B187400207047E8120020014B587437
:1058900000207047E8120020024B1B6803B1184734
:1058A00011207047BC1D002008B5052000F0EAF863
:1058B0000FF005FF014B024A1A6708BDE8120020ED
:1058C0002143000008B5052000F0DCF805F08AF956
:1058D000014B024A1A6708BDE8120020214300006C
:1058E00008B53F2000F0CEF801F0DAFA01F012FF1F
:1058F00006F0BCFC014B024A1A6008BDC01D002026
:1059000001C3000008B53F2000F0BCF801F0D0FA58
:1059100001F000FF05F072F9014B024A1A6008BD60
:10592000C01D002001C3000008B50122064B1A71FA
:1059300003F092FD04F0F4FA0CF0E4FE00F014FF22
:10594000BDE8084002F0CEBF6C13002010B5064C35
:10595000064904F108000CF06CFE04F10C00044947
:10596000BDE810400CF065BE6C13002098050020C7
:10597000A005002010B5094C094904F108000CF0FD
:1059800058FE04F10C0007490CF053FE04F110001E
:105990000549BDE810400CF04CBE00BF6C13002060
:1059A000C8050020D0050020C0050020014B187953
:1059B000704700BF6C13002010B50A4C072000F0A0
:1059C00061F8094904F108000CF033FE04F10C0001
:1059D00006490CF02EFE04F110000549BDE8104008
:1059E0000CF027BE6C130020B0050020B805002085
:1059F000A805002038B5074C0D4600F08BFEA068C6
:105A000025600CF00EFEFEF7EDFE01F0CBF8012351
:105A1000237538BD6C130020014B187D704700BF03
:105A20006C13002010B50C4CE0680CF0FAFD2069F6
:105A30000CF0F7FDFEF782FE202000F037F82F2053
:105A400000F034F8262000F031F8292000F02EF87C
:105A50000023237510BD00BF6C1300200048704761
:105A6000811300200048704783140020014B83F805
:105A7000190270476C130020014B93F8190270470C
:105A80006C130020C208074900F00700012383407F
:105A9000885C03438B5404490B78934238BF134608
:105AA0000B70704738050020861500200F4B012130
:105AB00010B503EBD002C40800F0070001FA00F0B3
:105AC000195D21EA0001195509490B78A34205D156
:105AD000002012F8014914B100B10B7010BD002B69
:105AE000FAD0013B0120DBB2F3E700BF380500200C
:105AF00086150020014BD3E90001704738050020CE
:105B00000048704740050020064B1878072881BFE1
:105B100008381823B0FBF3F001308CBFC0B200206E
:105B2000704700BF8615002000487047B49D0300F1
:105B3000054B1868C0F3C022C0F30020400040EAC3
:105B4000820040F0010070473805002008B508F0D9
:105B500081FD0023074A32F82310814205D302EB6E
:105B600083029378044A137008BD01330C2BF2D1E1
:105B70000023F7E7B89D030087150020024B187833
:105B8000072828BF07207047871500202DE9F04718
:105B900086B0044600F1B00890F80F90ADF80C30D4
:105BA0000F4690F86F30164643EAD303D80702D465
:105BB000B9F1260F63D194F8B050002F59D1FFF7F7
:105BC000B7FF8DF81300002E55D1FFF7B1FF2E4B14
:105BD0008DF81400D3F800A0BAF1000F0CD0A9F191
:105BE000260128460DF113024B424B4141460093DA
:105BF00005ABD047054630B99DF8132012B19DF88A
:105C000014302BB90925B9F1260F2ED100231A46DD
:105C100094F8391131B1920703F0020331D583B3FF
:105C200002231A46FF2184F8491194F8481101F023
:105C3000FF0511BB84F84B314046BDF80C309DF890
:105C40003810A4F84C31BDF80C3084F8481105A97F
:105C500084F84A218DF814708DF81560ADF816306F
:105C60000CF0AFFD002384F84931284606B0BDE8AA
:105C7000F0873846A5E73046A9E73A25F2E71A2526
:105C8000F3E70925F1E700BFE41D0020B0F8B230CA
:105C900010B5044680F88111A0F8823190F83001E7
:105CA000FEF714FB84F8840194F83101FEF70EFB33
