:10000000105D0120190A02004D810300050A02005B
:10001000050A0200050A0200050A0200050A02009C
:10002000000000000000000000000000E90A0200DB
:10003000050A020000000000D10C0200050A0200BF
:100040004D0D02004D0D02004D0D02004D0D020040
:100050004D0D02004D0D02004D0D02004D0D020030
:100060004D0D02004D0D02004D0D02004D0D020020
:100070004D0D02004D0D02004D0D02004D0D020010
:100250004D0D0200E9A803004D0D02004D0D0200F6
:100260004D0D02004D0D0200D3A803004D0D0200FC
:100270004D0D02004D0D02004D0D02004D0D02000E
:100280004D0D02004D0D02004D0D02004D0D0200FE
:100290004D0D02004D0D02004D0D02004D0D0200EE
:1002A0004D0D02004D0D02004D0D02004D0D0200DE
:1002B0004D0D02004D0D02004D0D02004D0D0200CE
:1002C0004D0D02004D0D02004D0D02004D0D0200BE
:1002D0004D0D02004D0D02004D0D02004D0D0200AE
:1002E0004D0D02004D0D02004D0D02004D0D02009E
:1002F0004D0D02004D0D02004D0D02004D0D02008E
:100300004D0D02004D0D02004D0D02004D0D02007D
:100310004D0D02004D0D02004D0D02004D0D02006D
:100320004D0D02004D0D02004D0D02004D0D02005D
:100330004D0D02004D0D02004D0D02004D0D02004D
:100340004D0D02004D0D02004D0D02004D0D02003D
:100350004D0D02004D0D02004D0D02004D0D02002D
:100360004D0D02004D0D02004D0D02004D0D02001D
:100370004D0D02004D0D02004D0D02004D0D02000D
:100380004D0D02004D0D02004D0D02004D0D0200FD
:100390004D0D02004D0D02004D0D02004D0D0200ED
:1003A0004D0D02004D0D02004D0D02004D0D0200DD
:1003B0004D0D02004D0D02004D0D02004D0D0200CD
:1003C0004D0D02004D0D02004D0D02004D0D0200BD
:1003D0004D0D0200FFA803004D0D02004D0D02005F
:1003E0004D0D02004D0D02004D0D02004D0D02009D
:1003F0004D0D02004D0D02004D0D02004D0D02008D
:100400004D0D02004D0D02004D0D02004D0D02007C
:100410004D0D02004D0D02004D0D02004D0D02006C
:100420004D0D02004D0D02004D0D02004D0D02005C
:100430004D0D02004D0D02004D0D02004D0D02004C
:100440004D0D02004D0D02004D0D02004D0D02003C
:100450004D0D02004D0D02004D0D02004D0D02002C
:100460004D0D02004D0D02004D0D02004D0D02001C
:100470004D0D02004D0D02004D0D02004D0D02000C
:100480004D0D02004D0D02004D0D02004D0D0200FC
:100490004D0D02004D0D02004D0D02004D0D0200EC
:1004A0004D0D02004D0D02004D0D02004D0D0200DC
:1004B0004D0D02004D0D02004D0D02004D0D0200CC
:1004C0004D0D02004D0D02004D0D02004D0D0200BC
:1004D000054B00221B78826001330260034A4260B0
:1004E000C371FF2303727047981000208001080039
:1004F000064A074B02604FF42872DB78828008229C
:10050000C371002382710372704700BF71820100C2
:1005100098100020064A074B02604FF43E721B7988
:1005200082800822C371002382710372704700BF6A
:100530004971010098100020064A074B02604FF4F1
:10054000B8729B7B82800822C371FF238271037281
:10055000704700BF756A010098100020074AD378E1
:1005600012791344064A02604FF48472C371FF2368
:100570008280042203728271704700BF98100020AD
:100580008184010010B5044603F0AAFD084A00EB7F
:100590004000D378C0001279103013440022A080AC
:1005A000A26022600422E371FF23A271237210BDB6
:1005B000981000202DE9F341C41D0028064624F0C0
:1005C00007040CBF0020204600F094FC071E04DA4C
:1005D0006FF00B0002B0BDE8F0818E4D2989E888EC
:1005E0000331EB7A0330AA7A89B280B212F087FB2A
:1005F000011EEDDBEB783C442A79002E04F1030464
:10060000134408BF002024F00304DBB218BF2046C7
:10061000594300F01BFE20440EB9B042D8DBAA7B40
:100620000446B2B12B7C697C13441944FF29CFD80E
:100630000330002EAA89C9B220F003040CBF0020A9
:10064000204600F077FE0028C2DB04440EB9B44215
:10065000BEDB714FD7F80080B8F1000F17D0E97BEF
:10066000A9B195F83030002B00F0FD8040234FF405
:1006700081720734002E24F007040CBF00202046AE
:10068000C0470028A4DB04440EB9B442A0DBA9781B
:10069000A1B1AB7B1BB93B6883B1EB7B73B1073472
:1006A000002E24F007040CBF0020204606F088F836
:1006B00000288DDB04440EB9B44289DB574B1B681C
:1006C00093B1E97D81B10334002E2A7E24F0030426
:1006D0000CBF0020204698470028FFF679AF04445D
:1006E00016B9B442FFF674AF4D4B1B688BB1A97DB0
:1006F00079B10334002E24F003040CBF00202046FF
:1007000098470028FFF664AF044416B9B442FFF6D8
:100710005FAF444B1F68B7B1697CA1B10334002EB1
:100720002B7D24F0030408BF0020009318BF20464F
:10073000EB7CAA7CB8470028FFF64AAF044416B900
:10074000B442FFF645AF384B1B6893B1E97D81B1E8
:100750000334002E6A7E24F003040CBF00202046E0
:1007600098470028FFF634AF044416B9B442FFF6A8
:100770002FAFB6FA86F795F825007F09A0B10334AC
:10078000AB7FE97E24F0070419443B4644F004049F
:10079000C9B2224600F0C8FE0028FFF619AF044493
:1007A00016B9B442FFF614AF95F8261000295DD0B3
:1007B00004F10708002E2A8D28F007080CBF00203E
:1007C000404612F0B0FA041EFFF602AF4444002E79
:1007D0004FD1B442FFF6FCAE95F82010002956D058
:1007E00095F82430002B52D06A8C0734002E02F189
:1007F000240224F007080CBF0020404692B212F0F9
:1008000092FA0028FFF6E4AE40447EB9B042FFF60B
:10081000DFAE0BE0981000209C7C0020A07C002024
:10082000AC7C0020A47C0020A87C002003306B7FDF
:10083000E97E20F0070019443B4640F0040495F897
:100840002400C9B2224600F061FE0028FFF6C0AEC7
:1008500004449EB9B442FFF6BBAE6B6B13B3E6B172
:100860006C630020B6E62523282202E7002EB3D0D1
:100870008846298D40460EF015FEADE76A8C40464D
:1008800095F82010083292B20EF012FEE5E7002E25
:10089000E3D0002211461046F6E728343FF598AE23
:1008A000204697E6002EDCD1FAE700BF014608B5E6
:1008B00072B6094B9B6B0BB108489847BFF34F8F3B
:1008C0000749084BCA6802F4E0621343CB60BFF3E8
:1008D0004F8F00BFFDE700BF981000209852040022
:1008E00000ED00E00400FA0513B5114C6846638979
:1008F000ADF800302389ADF80430E388ADF802305C
:1009000003F03AFA18B148F65300FFF7CFFF207D05
:1009100003F088FA10B14CF2CD70F6E7E07C03F0FA
:100920007BFA10B144F29C50EFE702B010BD00BF5B
:1009300098100020F8B5054600285FD011F0DAFBCA
:1009400018B94FF0FF342046F8BD0FF0CDFFB0F5D9
:10095000FA7FF6D82B4C01262B4B0827A5630025E0
:10096000284684F83C50257084F830501D6065633B
:100970000EF08AFD254B29222946601D1D6018F0C6
:100980002FFF1B2303221F212846E38023810223FC
:10099000A272E3722376F723E27349226384FB2376
:1009A000A181294623854FF48073E274E385A77003
:1009B000E6702671A673A674667684F82C6001F042
:1009C0000BFE2A463146304601F0D8FD044618B1E8
:1009D0004AF6B030FFF76AFF014601F0EBFD0A204E
:1009E00003F078FB38460CF059FDEFF3108572B632
:1009F00000F0C0FD002DA6D162B6A4E76FF015048B
:100A0000A1E700BF981000209C7C0020A87C00205B
:100A100038B51446002840F0EC80774D95F83C300E
:100A2000032B00F0E38019B312B96FF0150038BD45
:100A30000139172900F2DD80DFE811F018002900E4
:100A40002C00470071007A0093004D007D0080006B
:100A50008D005300590067006C0099009C00AA00AB
:100A6000AD00B000A200B300B700D0001378EB7067
:100A70000020FFF79FFD0028B7BF012302236FF07E
:100A80000B0085F83C30A8BF85F83C30CFE71378E1
:100A90002B71EDE71379002BC7D05379002BC4D00D
:100AA000128841F6EF739A42BFD8638841F6D47139
:100AB0001B3B9BB28B42B8D81A2AB6D92368A288AE
:100AC000C5F806304D4B9A80D2E713782A7C9342C2
:100AD000ABD3AB73CCE71378AA7B9342A5D82B7426
:100AE000C6E71378AA7B93429FD86B74C0E713784C
:100AF000002B9AD05378013BDBB2F82B95D81388A2
:100B000092786B823E4B9A70B2E7107868750CF061
:100B1000D1FCADE71378002B87D06B76A8E713786C
:100B2000384A126812B1012B7FF67FAFEB739FE753
:100B30001388AB819CE71378EB7599E71378324AF9
:100B400012682AB9012B7FF670AF23782B768FE7D6
:100B5000002BFAD169E71378082B3FF666AFAB7527
:100B600086E71388FF2B3FF660AFAB7080E7137802
:100B7000AB767DE713780E2B3FF657AFEB7677E732
:100B80002368224A2B6263685360238913816FE7CD
:100B900013782B776CE71378AB7769E713786B776B
:100BA00066E7137885F82A3062E701F0E1FC98B136
:100BB000007900F001026178207801F0DFFC002864
:100BC0007FF435AF6378012B7FF652AF0EF062FCF5
:100BD00000287FF44DAF28E70246ECE71078431E6B
:100BE000092B3FF622AF03F075FA41E74FF0FF30D3
:100BF0001DE76FF02C001AE7981000209E100020CF
:100C0000AA1000209C7C0020A87C0020B8100020A6
:100C1000F8B507460D4630B329B311F0070422D1C9
:100C2000124E96F83C30012B02D16FF00B00F8BD4C
:100C3000032B02D14FF0FF30F9E700F0D3FC00287E
:100C4000F8D02846FFF7B6FC0028EEDB18F014F8C1
:100C50003846716B03F0B8F9FFF746FE03232046D0
:100C600086F83C30E3E76FF01500E0E798100020CD
:100C700010B5074C94F83C30032B03D103F0BCF9BA
:100C800004F03EFA12F08DF9002084F83C0010BD0B
:100C90009810002008B503F043F903490420BDE88B
:100CA000084000F01FB900BF3905000008B503F087
:100CB0004BF903490320BDE8084000F013B900BF19
:100CC0001505000008B503F061F90649012000F0A0
:100CD00009F90549002000F005F9044B044A1A609F
:100CE00008BD00BFD1040000F10400009C7C00207E
:100CF00049B4000008B50549132000F0F3F803F0EB
:100D0000BBF8BDE808400CF0BDBB00BF8505000086
:100D100008B50549132000F0E5F803F0ADF8BDE88B
:100D2000084009F07FB800BF8505000008B502F053
:100D3000F9FF03491620BDE8084000F0D3B800BF12
:100D40005D050000074B4FF0FF3141F6FF72C3E92C
:100D5000001205490022C1E900221F21C3E9021245
:100D6000704700BFC0040020D81000203F280CD8D6
:100D700001380B4BC0F3421200F01F0053F8223031
:100D800023FA00F000F001007047FF2806D0403839
:100D9000044BC0F3421200F01F00EFE70120704740
:100DA000C0040020D8100020054A01460068134600
:100DB000496803C340F48C2300201360704700BFD0
:100DC000C00400200246034B0068516803C30020A2
:100DD000704700BFD81000200246034B00685168DE
:100DE00003C30020704700BFC80400203F280DD86F
:100DF0000138C0B24209084B00F01F0003EB820328
:100E00009B6823FA00F000F001007047FC2801D134
:100E10003920EFE700207047C00400200A8870B531
:100E200095B2C67BC2F30E020488023602F11003AB
:100E30003444C35AA4B233442344013BB3FBF4F318
:100E400003FB0422438892B29342034B8ABF2B4098
:100E5000AB4313430B8070BD0080FFFF08B54B1EF2
:100E6000062B03D84CF2A650FFF720FD094B994200
:100E700002D947F24660F7E719B900B101600846A8
:100E800008BD28B103680022C3E901211A1D1A60B8
:100E90000431F4E7FAFFFF7F10B5114B00EB41047A
:100EA0001A786389B3FBF2F303FB0223013A1A4475
:100EB000B2F5706F027928BF00231A448378B2FB21
:100EC000F3F0194403FB1020091AB1FBF3F003FB04
:100ED000101313446FEA43436FEA5343638110BD19
:100EE000E0100020024B03EB80035960704700BF05
:100EF000E01000202DE9F04F10F0070A85B00546FC
:100F000003D04EF6A700FFF7D1FCDFF85C81044662
:100F10004FF0010B08F16406B1463746D8F80030AF
:100F20008DF80BA043B101A898479DF80A30082B13
:100F300002D94CF63910E6E79DF80B1059BB05B104
:100F4000316008F104080436C845E7D1002D73D09C
:100F50000023DFF818914FF0180C984689F80030FC
:100F600057F82CA00CF1FF3CBAF1000F54D09AF8BE
:100F700004609AF802E0FF2E46D060460022411C31
:100F800037D19644BEF1FF0F3FD90BB189F80080ED
:100F900044F6E620B7E79DF80A00BDF80820434272
:100FA0000244013A1A40B2F5803F02D34EF6165081
:100FB000A9E7022801F1050338BF022004EB43042E
:100FC00000F1FF3C4042644404407DB1A4EB430384
:100FD000336099701A8083F803B09DF80C00187183
:100FE00001984FEA104C1881A3F806C002FB014497
:100FF000A7E757F8201029B191F804B0B34504BF12
:10100000897852180138BAE70022F0458AF804209E
:101010003CBF5FFA8EF80123BCF1FF3FA0D10BB1BA
:1010200089F80080182640F6FF6A57F82680B8F144
:10103000000F15D1013EF8D2601B05B0BDE8F08F5E
:1010400008EB410309F101094046A3F80AA0FFF7A4
:1010500023FF5FFA89F198F802308B42F0D8E9E774
:101060004FF00009F5E700BFE4100020E010002079
:1010700038B54FF6FF730380174B03EB81039B6E6C
:10108000ABB19C781A79B2FBF4F104FB1122D2B215
:10109000114603EB4105B5F90A50002D0FDB013174
:1010A000B1FBF4F504FB1511C9B28A42F1D100205D
:1010B00038BD18466281BDE8384011F0FDBD03EB34
:1010C00041046289C2F30E020280D8780028F0D170
:1010D0004FF6EF10FFF7EAFBE01000201A4B03EB8E
:1010E000810370B59C6E05461CB3030421D40146F0
:1010F000204611F0C4FDFF28014604D02046BDE87B
:10110000704011F0D9BDA078B5FBF0F300FB13538C
:10111000DBB219460A1D04EB4206B6F90260002E46
:1011200009DB0131B1FBF0F200FB1211C9B28B42B5
:10113000F0D1002070BD8B4201D00023E37004EB9E
:1011400042025580DAE700BFE0100020094B03EBB4
:101150008103014610B59C6E204611F090FDFF28DA
:10116000014604D02046BDE8104011F0A5BD002086
:1011700010BD00BFE0100020F8B5104B074603EB90
:10118000810301469C6E204611F079FDFF2806463A
:1011900011D0E288238953EA024506D00146204651
:1011A00011F08AFD01463846A84720463146FFF730
:1011B00073FE0020F8BD0520FCE700BFE010002012
:1011C00038B50E4B0446827903EB8203986E08B95A
:1011D000052038BD8278E1799142F9D24B1CE37148
:1011E00000EB41035D89B3F90A30002BF3DBA580E6
:1011F00011F062FD20600020EBE700BFE01000204E
:1012000008B5114B03EB81039B6E1BB94EF6C5204D
:10121000FFF74CFB9A78C01A511DA0EB41001988CA
:10122000B0FBF1F0002801DB824202DC41F2B74062
:10123000EEE703EB40035889B3F90A30002B02DADA
:101240004EF63450E4E708BDE010002070B50446C7
:1012500010F003000E4603D04BF6BD00FFF726FB4F
:10126000FFF7FCFD054624B1034831460460FFF753
:10127000F5FD284670BD00BFAC1100202DE9F14FEF
:10128000DFF874B01E4680460D46DBF8003091460C
:101290009DF828A09DF82C701BB945F61E00FFF79D
:1012A00005FB52460921484611F0B2FB3A4684B28A
:1012B0000921304611F0ACFB81B2DBF8000021447B
:1012C00011F0B2FCC8F8000018B9286001B0BDE800
:1012D000F08F20445346494609222860D8F8000080
:1012E00011F05DFB3B4609223146286801B0BDE89C
:1012F000F04F11F054BB00BFAC11002070B50E468A
:10130000044611F098FB0546304611F094FB044B5F
:101310002A1821461868BDE8704011F0A9BC00BF2A
:10132000AC110020024B186808B111F071BC704775
:10133000AC1100201F2AF8B50ED89200033222F01B
:101340000303B3F5803F2ED2184CB0B1850711D0FE
:101350004FF6FC00FFF7AAFAFF2A4FEA420304D92E
:10136000FF329A42A8BF1A46E8E77C2BB8BF7C231D
:101370001A46E3E721706060238122F003022823EC
:101380006468002512044B430127120CEEB2B142EF
:1013900001D81846F8BD10B1C6182770666013440E
:1013A00001352834F2E74FF0FF33F2E7B0110020A7
:1013B000154A002170B553681578C8B2854203D824
:1013C00049F28140FFF772FA1C461846013114F8C1
:1013D000286B0EB92346F0E7002199700124128989
:1013E000996103F126055C709208D96103F11E042E
:1013F000596824F8022FA54243F8041F1144F8D17C
:1014000000234361037070BDB01100200A4B1B899B
:10141000B3F5FF7F4FEA930006D25A089B1A9BB29E
:10142000984238BF18467047B3F5EE6F01D8FF22D7
:10143000F4E740F27263F3E7B01100204B782DE936
:10144000F04106460C4602F0040702F0FB05EBB142
:10145000002D34D1FF23A3707B0804EB57073A7D9E
:10146000032A02D1022D18BF0133E218012103F132
:101470000C0004EB8303117500225B6824F8102034
:10148000A2703046C6E90032BDE8F081002DE1D1FE
:101490000123084601F11E028D614B7004F1260CF8
:1014A000194BCD611B8949689B0822F8023F94457E
:1014B00040F8041F1944F8D100236361CAE7D1F84A
:1014C000048014220021A018617018F089F90E4BD5
:1014D0001B89B3F5FF7F0FD25A089B1A9BB208EB0A
:1014E0000301C4F804802384A1606284C4F80C80E2
:1014F000A3842161E284ADE7B3F5EE6F4FF0FF0204
:10150000EBD940F27263EAE7B011002007B5CDE9EC
:1015100000230B4603490246081D11F01CFD03B0D1
:1015200000BD00BFDC11002013B5CDE900230B4640
:1015300002460349034811F00EFD02B010BD00BF82
:10154000E4110020E811002008B54B1E032B03D93D
:101550004CF27300FFF7AAF90028054A0CBF0523D7
:101560000C2303EB8103053323F00103137008BD43
:10157000EC110020124B01224FF0FF3000215A6085
:10158000C3F80803C3F80015C3F804255A6040F6F1
:10159000FE72C3F808034FF48060C3F8001503F52A
:1015A00060330849C3F80825C1F88800BFF34F8F9E
:1015B000BFF36F8FC1F88801C3F80825704700BFDB
:1015C00000A0045000E100E002680020014B1A6016
:1015D000704700BFF0110020014B1B68184700BF87
:1015E000F0110020024B1868003818BF0120704726
:1015F000F0110020014B9B68184700BFF01100203C
:10160000014BDB68184700BFF0110020014B1B693C
:10161000184700BFF011002010B4024CD4F814C0D9
:1016200010BC6047F0110020014B9B69184700BFB8
:10163000F0110020014BDB69184700BFF0110020BA
:1016400030B503680446054D45F8043B0FCC0FC583
:1016500094E8070085E8070030BD00BFF0110020C6
:101660000A4606489C2302F8033BC368C1F80330CE
:101670000369536043699360704700BF10120020F4
:10168000024B5A8C02435A845B6A1847101200209E
:10169000014B00215B6A18471012002010B5144C52
:1016A0000DF078F80DF068FE208DFFF7F1FF237E36
:1016B00063B122460F4904F1190052F80C3BE36074
:1016C00063685360A368936013F093FD218DE06A13
:1016D00005F082FAE36AB3F8B20005F027F8636B0D
:1016E000218E94F832009847002384F8383010BDDA
:1016F0001012002061160000034B93F838300BB134
:10170000FFF7CCBF704700BF1012002070B5274C08
:10171000E56A95F8B060CEB101280AD1638C1A074A
:1017200007D594F839300BB1012070BD2B7C082B04
:10173000FAD00129F8D8238D228E03F02003134319
:10174000F2D15EB901280AD03046EEE70028F0D188
:10175000638C5B07EDD52B7C072BE9E720BB0CF0F6
:10176000E3FB6B698342DFD3AB7C002BDCD1638C62
:1017700036B19A0704D594F8390080F00100D4E717
:10178000002BD1D194F83A301BB994F83B30002BA0
:10179000CAD0E36AD3F81821B3F82431108A9842EA
:1017A0002CBF00200120C0E71846BEE71012002021
:1017B00008B5084B93F83820022A03D049F6FB50AD
:1017C000FFF774F8DA7A42F00102DA72BDE80840F5
:1017D000FFF764BF1012002010B586B00C4611F060
:1017E000FAFB0023059004F188010420CDE90333BE
:1017F00041F6EF73029304F198030193064BDB6A01
:1018000093F8B030B3FA83F35B090093D4E91E2355
:101810000DF0DAFB06B010BD1012002010B586B036
:101820000C4611F0D8FB0023059004F1880102203A
:10183000CDE90333094B9A8F029204F19802019289
:10184000DB6A93F8B030003B18BF01230093D4E962
:1018500020230DF0B9FB06B010BD00BF1012002010
:1018600010B50B780446013BDBB2012B05D8828909
:10187000006816F09DFEA08010BD0268887813787D
:1018800060F3C303C87860F38203087960F304133C
:10189000487860F301031370A38953700223A38077
:1018A0004A792168012A0B7862F345130B70E3D162
:1018B000084BDB6A93F8C22093F8C330032A03F085
:1018C0001F0308BF002243EA82138B700323A38007
:1018D000D2E700BF1012002073B5144C0646256CE9
:1018E0000DB1E36C1BB942F6D410FEF7DFFF2A7886
:1018F0002B4661F3010203F8032B1846B4F850207D
:10190000E16C10F067FD0DF1020201A9E064606D69
:10191000656411F073F9019811F05EF9B4F8501094
:101920003060606D11F03AF902B070BD1012002005
:1019300070B52B4C41F6F6720646E56AA36DA264BB
:10194000AA7EA18F95F83101636482B905283ED142
:10195000E365244BA266C4E9183200232248E366FB
:10196000103843610CF068FE0DF006FD0FE0043105
:10197000052889B223D11B4A04F15C00E3650023EA
:10198000C4E91823C4E91A3323670CF055FE7EB965
:1019900095F83131B5F8EA10033BDBB2012BB5F80D
:1019A000EC308CBF30462820184480B20CF08EFEFC
:1019B00000200CF0CBFE022384F8383070BD606F3D
:1019C0000CF026FE616F606C0DF07AFBDFE7E365DB
:1019D0000333064A6366064B2266A366BDE700BF73
:1019E00010120020F61F000D7C1200200200000DD6
:1019F000F31F000D2DE9F041264C0646884694F869
:101A00003870012F03D049F2C870FEF74FFFE56A26
:101A10002B794BB1002104202971FFF731FEE36AD5
:101A200093F8B03003B16F712B7A052B0FD11A499F
:101A30000220FFF725FEE36A93F8B0303BB1D4F8FB
:101A400080301B789A1E5342534184F839301EB1BE
:101A5000BDE8F041FFF722BEB8F1000FF8D03146E3
:101A60003046FFF753FE0028F2D1AB7EE46A23B183
:101A7000294604F1B000FFF7D1FE94F8312101208E
:101A8000B4F8EA100CF0B2FC0020BDE8F041FFF71A
:101A90004FBF00BF10120020901200202DE9F04728
:101AA000B54C88B000230746E56A0293ADF80430D0
:101AB000CDF80B302A7A8DF80330062A00F29E8189
:101AC000DFE812F007009F017A017A019C018D0185
:101AD0008D01A5F84C3095F8B030A3B9B4F88C203E
:101AE000ADF8042001A904A8A5F8242102F08AFE7B
:101AF00000283DD0049E002E3AD0012384F88E3079
:101B000005232B7258E0AB7B243BDBB2072BE5D9D6
:101B1000EB7B243BDBB2072BE0D995F830610CF06E
:101B2000FDF9E16A032800F1FF3014BFB1F81E315E
:101B30001B23C0B29F4236BFDB1B00239BB203288E
:101B400096BF8E4A042212565343721ED2B2032A03
:101B500097BF8A48042212181279B3FBF2F3B1F846
:101B60001C21B4F88C100B449A4228BF1A46B7E7E0
:101B7000BDF80430002B00F01C81E36A93F85D305F
:101B8000002B40F016810DF1030201A9D4F890005A
:101B900010F077FF0646002800F00B819DF80380C7
:101BA000B8F1000F40F0C08000233380B3700323EE
:101BB0002B72012384F88E304FF0000895F83031F5
:101BC000052B40F021812B7A002B14BF0223012327
:101BD0005A1E8DF80830012A00F21A81012B00F0FC
:101BE00015811621B5F8B200FFF7B0FA0078002190
:101BF0008DF80E000CF052FABDF80430604AA2676E
:101C0000A4F8843003B1F31CC4F880306A7A2E7AC9
:101C10008DF80A20022EAA7A8DF80B2004D0053EFA
:101C2000012E8CBF012603268DF80960B8F1000F44
:101C300000F0F28000209DF809308DF80C00032B95
:101C400040F0FF80D4F880301B781B2B40F0F980E7
:101C5000012105F1C2000CF08BF901238DF80D3044
:101C60009DF80C30474E003B18BF012384F83A30F2
:101C70006B7E002B00F0E980B4F88430002B00F07C
:101C8000E48005F1B00011F0A6F9032800F0DB8034
:101C900007280CBF102304233B49B4F8845003C920
:101CA0002B44A56FCDE90401B4F87C00616FADF859
:101CB000140004A8069102A90495ADF81C30FFF7A2
:101CC000CFFD049BBDF81420BDF81C10069DE365F4
:101CD0000023A4F860200D222C48A4F8681041F6D7
:101CE000FF71E36684F8623084F8632084F86A3018
:101CF00084F86B20736065660CF09EFC02A811F0FE
:101D000052F92B46D4F88020B4F8841001900DF0DD
:101D1000C1FA01200CF01AFD012384F8943084F8F4
:101D2000383008B0BDE8F0870146D4F8900010F0D4
:101D30004FFF10F051FFD0F800A0D0F804900746F4
:101D40005AEA090324D100239DF803203B707B70DD
:101D5000BB70FB703B717B71BB71FB71002A3FF460
:101D600023AF327802F00302012A3FF420AF0222AF
:101D70002B772A721DE700BF1012002073D60300D4
:101D8000981200207C120020881200206C12002083
:101D900017F083F9824579EB0109D4D20023ADF81D
:101DA000043095F83021052A18BF01232B72394ED3
:101DB00004E74FF00008F1E7B5F824310DF1030214
:101DC00001A9D4F89000ADF8043010F05AFE064690
:101DD00000287FF4EEAE4DF64700FEF767FD01A93F
:101DE00004A802F00FFD08B1049E16B945F24E405A
:101DF000F3E7012384F88E30062382E64DF63B603C
:101E0000EBE74FF00008D2E70023E1E60020EEE622
:101E1000BDF804303246F2E6032E03D11B78022BC4
:101E20003FF408AFD4F8900010F082FE38B9032ECA
:101E30003FF400AF02F004FD80F00100FBE601205A
:101E4000F9E600230AE7082326E702A91248FFF76C
:101E500007FDD4F88010A36FB4F87C206166B4F855
:101E60008410E3650023A4F860200D220B48A4F839
:101E7000681041F6FF71E36684F8623084F86320ED
:101E800084F86A3084F86B2073600CF0D5FB0DF099
:101E900073FA3EE798120020881200206C1200208E
:101EA0002DE9F04F984C8BB0824694F8383003916E
:101EB0000021022BE56ADFB2CDE9041103D045F21F
:101EC0002F60FEF7F3FC95F83131052B61D104F159
:101ED0004C0208A9606C16F0A9FB9DF823309DF810
:101EE00020B001939DF824309DF8216002939DF865
:101EF0002290AB7EDDE90801ADF81C10090C0690BC
:101F00008DF81E10BAF1000F00F0B3817BB1B4F868
:101F1000503063B195F83131052B08D106A87B49C3
:101F200011F041F8E36C08901A460DF037F9B4F857
:101F3000501019B1606D10F01BFE01460BF1FF3817
:101F4000238D21645FFA88F843F40073B8F1010F20
:101F500023856B7A3FD9013303F001020199914245
:101F600040F08C802A7A002A3ED1B8F1010F48D97E
:101F70000427B5F84C30022FA5F84E305AD104A9E9
:101F8000D4F8900010F0A0FD00285FD14DF29950D8
:101F900097E7626C13780891CDF8231003F00301E2
:101FA0008DF82110C3F3C0018DF82210C3F3800116
:101FB0008DF82310C3F30011C3F340138DF82410E0
:101FC0008DF825305378A4F8503003231A44A4F830
:101FD0004830E26481E7019AD21A12F0060F10D15C
:101FE000013303F00702B9E7032A6B7203D8012A11
:101FF00008BF0127BDE7053A012A19D940F66E70DE
:102000005FE7238E43F0100323860027AB7E002B6F
:102010007ED0B4F85030002B7AD00DF0CDF90328E3
:10202000FBD002282CD1FFF739FB0BB0BDE8F08FB5
:1020300003279EE7032F10D102F0F4FB10B948F2FA
:10204000D6403EE700210820FFF71AFBD5E91E32F3
:10205000013342F10002C5E91E320021E36A297210
:1020600093F8B0302BB16B791BB110206971FFF779
:1020700007FB238D43F400632385C6E75746C5E776
:10208000002845D1B8F1010FAB7A07D803F0070358
:1020900099453DD1012384F83230C4E703F00102B1
:1020A0009145F7D003F00103994541D1B4F8508030
:1020B000B8F1000F00F0AD80731E012B00F2A98073
:1020C000238D95F81A9043F4805323850BF026FF57
:1020D0000328B5F81E3107D1B9F1000F0CBF1F223C
:1020E0001B22934228BF1346B4F850209A421BD8B3
:1020F000236CEBB194F89530002B00F08A80238D8F
:1021000043F02003238513E010120020601200200A
:10211000BBF1010F0CD0BBF1020FAB7AC2D1A3EB24
:10212000090212F0060F71D0238E43F010032386AC
:102130004FF00008C146236C05F1B00B002B40F0B6
:10214000BA80B4F85030B3FA83F35B09029A012ADB
:1021500014BF002303F0010384F83B30039B002BE2
:1021600000F0AB800CF016FBB9F1000F40F0C78017
:102170004FF00108238D5A0606D44020FFF788FA55
:10218000238D43F040032385E06A7FB1EB8843B998
:1021900090F8B0302BB1B4F80530B4F807201343F1
:1021A00004D0B4F809300133A4F80930BAF1000FB3
:1021B00000F0AA80B4F805300133A4F805300023FC
:1021C00084F8963004F0A2FA049830B110F004FDBF
:1021D00000220272594603F0ABF8059B33B100228E
:1021E0001A720C225946059803F070F8B8F1000FE6
:1021F0007FF419AF238D1B063FF517AF8020FFF743
:1022000047FA238D43F0800323850EE703F007038D
:102210004AE7AB7A032E03F10103AB721FD0731EA2
:10222000012B0DD8B8F1000F82D0D1464FF0000835
:10223000D5E92032013342F10002C5E920327AE7C4
:10224000B8F1000F3FF474AF002E7FF471AFD5E901
:102250002032013342F10002C5E9203268E7238DC4
:1022600001202C4943F4805328712385FFF708FA95
:10227000EDE70BB10DF0C2F894F89630013384F815
:102280009630238D43F4806323850BF047FE0328AB
:102290000CD1B4F850804FF00009B8F11B0F4F4635
:1022A00094BF4FF000084FF0010844E74FF00008DA
:1022B000C14647463FE7012348E794F896100120BE
:1022C000FFF724FA00287FF44DAF6B7E1BB129463F
:1022D0005846FFF781FA002095F83021B5F8E8104C
:1022E0000CF084F8B4F85000FFF7D8FBB9F1000FF8
:1022F0003FF440AF314605A8FFF7EEFA3AE7314622
:1023000005A8FFF7E9FA33E7B4F807300133A4F87A
:10231000073057E75C120020064B10B593F83820C1
:1023200002F0FF0422B91C7604F04EFC204610BDDA
:102330000C24FBE710120020094B0A4A10B51A6062
:10234000FFF7EAFF18B148F67620FEF7AFFA064C21
:1023500001F06EFEA06501F06FFE606710BD00BF6A
:10236000B07C00206025000010120020F8B5684CF9
:10237000054694F8386006F0FF000EB901B11AB9AD
:1023800040F60430FEF792FA84F8953005F1B00675
:1023900061626263208684F8960084F8320084F8D3
:1023A00094006084208584F83A0084F83B0084F827
:1023B0008E0084F83900A067C4F88000A4F8840077
:1023C0006064E064A4F85000E5620BF0FFFD0CF0DF
:1023D000D3FF95F938010BF067FE95F83031D5F849
:1023E000DC70052B75D1FB43B5F8B20047EA0367F3
:1023F00016F04AF8818800680BF068FE38460CF049
:10240000E9F8687F0BF074FD95F82C000BF076FE70
:10241000B5F8E8305D2B03D9B5F8EA305D2B01D86B
:102420000BF05EFDE36A93F8B070002F56D104F014
:10243000AFFB95F83021374B4FF47A7153F82230C7
:1024400003F5FA73B3FBF1F33333191838460BF085
:10245000B9FF314B18680CF0C3F8D5F8C830C4F890
:102460009030D5F8CC306365AB7B243BDBB2072BD7
:102470003CD9EB7B243BDBB2072B37D9B5F8FA30DC
:10248000B5F81E71A4F88C3003F016F9E36AB8426F
:1024900093F8B03038BF3846A0874BBB6B7E1BB17A
:1024A00029463046FFF798F90020FFF7F7FA002396
:1024B00023606360A360EB886380B5F8B23023804B
:1024C00095F82C302371D5F834310BB101221A6004
:1024D000F8BDD5F8D4000BF0EFFD8FE704F058FB02
:1024E00095F8312100F155010120B0E71B23C7E722
:1024F000AB7E1BB129463046FFF790F90120FFF76C
:1025000017FAE36AD3F8F8010CF0AEF8CFE700BF92
:10251000101200206CDD0300B07C0020014B93F80A
:102520009400704710120020054A92F88E00138D17
:1025300010B113F4C06F01D1C3F30030704700BF76
:1025400010120020024B93F82900C0F3C00070471E
:1025500010120020014B93F89600704710120020D3
:10256000B1170000A11E0000F5190000F9160000C7
:10257000014B1868704700BF6013002008B5431E68
:10258000032B11D84B1E032B0ED8094B0129597070
:102590000CBF00210A2198701A71997201461046E9
:1025A000FEF7D2FF002008BD6FF01500FBE700BF6B
:1025B00078060020074A537A40B143F0040300290B
:1025C00053720CBF002307235371704703F0FB03C2
:1025D000F5E700BF7806002040EA4100014BD870C3
:1025E000704700BF780600202DE9F341002407461C
:1025F0008846114D26462B78CDE900668DF80630C9
:102600006846FEF7DDFD28B101340435082CF2D10F
:10261000002005E06B88009AD058B84203D1012011
:1026200002B0BDE8F081B8F1000FE9D0784013F0B6
:102630003AF80128E4D8F2E74431010010B5044625
:1026400010F051FD08B9002010BDE04310F04BFD23
:102650000028F8D0E31683EAA4635A1E1A42F2D087
:10266000E3B25A1E13405A1E1342ECD0A0B213F02C
:1026700064F80B28E7D8204613F05BF81828E2D856
:10268000A3B2B3EB144F04D184EA142313F0FF1F59
:10269000D9D0044B63405A1E1A4214BF01200020B7
:1026A000D2E700BFD6BE898EF0B5070C164BA7F552
:1026B000AA4203EA9023543A012A20D927F4004081
:1026C00042F6AA22801A18BF0120002216211F24D8
:1026D000164687EA060562EA0505013511D0DD03D5
:1026E00001394FEA5303ADB245EA56064FEAC43505
:1026F0004FEA5404ADB245EA5202EAD1F0BD0020DF
:10270000E3E70020FAE700BFE0FF3F000138C0B276
:10271000042808B503D94EF23F70FEF7C7F8014B05
:10272000185C08BD94D603000138C0B2042808B56F
:1027300003D94EF23F70FEF7B9F8014B185C08BDA3
:10274000DCD703000138C0B2042808B503D94EF223
:102750003F70FEF7ABF8014B185C08BDF6D80300DC
:102760000138C0B2042808B503D94EF23F70FEF715
:102770009DF8014B185C08BDCED90300F7B50023C6
:1027800005460E461746CDE900336846FEF718FDAC
:1027900008B100201AE0009CAC42F6D0304604F1AB
:1027A000B50310F0DFFC394694F8B42012F012F8AB
:1027B0000028EAD004F1BC0394F8BB2005F1BC0169
:1027C00095F8BB0012F006F80028DED003B0F0BD8B
:1027D000054A516A02F11D03127F11F8030BC0F381
:1027E000801011F0F7BF00BF1C76002038B5B0F89C
:1027F000B250044628460AF0B5FE16212846FEF7D8
:10280000A5FC054B00F11401204693F86C20BDE8AF
:10281000384016F05CB800BF68130020012817D8B4
:102820000D48824216D8012B0DD140F252739A42C4
:1028300010D9A1F6C410094B98420BD88A428CBF1C
:10284000122000207047042BF3D140F6C313EEE7AB
:1028500012207047302070478FFD7002CBF370025A
:1028600010B504460A4814F017FF0A49204608F03C
:10287000D9FE204614F041FE38B1204608F032FB64
:10288000204614F006FF002010BD1220FCE700BF18
:10289000A4130020AC130020F8B58C1F40F67A4733
:1028A000BDF81860A4B2BDF81C50BC4216D8941FE5
:1028B000A4B2BC428CBF0024012488B91A48C07B52
:1028C00088B194B96FF45067C819062804D86FF41A
:1028D00050601018062808D92046F8BD0024ECE7FF
:1028E00090F88900ECE7002CF6D0914219D803FB50
:1028F0000555B5F5FA7F14DCA6F10A0340F67640DB
:102900009BB283420DD8104610F032FC42F2107395
:1029100000FB05F15E43B6EB410F8CBF01240024A0
:10292000DAE70024D8E700BF681300202DE9F04360
:102930009846814B85B00446804D0F461868164670
:102940001B7902908DF80C3095F86D3013B102A808
:1029500002F0EAFA3946204602F080FAAB69C4F880
:10296000F03096F84A2006EB4202B2F82A90484628
:1029700010F0FEFB01466FF450608144B9F1060F80
:1029800040F28280908C4FF0961210F0F1FB002301
:10299000C4F8E82040F2E24284F83A31A4F8EC307E
:1029A00004F0A0F840F2E2430146A4F8FC31C4F878
:1029B000D010C4F8F81101F087FB8306A97B53BF40
:1029C0001B23EB882A891A46A4F8FC305C4BA4F838
:1029D000FE201B6884F8F8101BB194F938113846B2
:1029E0009847584B1B6813B1574920469847EB7BD3
:1029F000003B18BF012384F83931544B1B681BB1CD
:102A00005349B4F8B20098470123A4F8E630514B7B
:102A10001B681BB15049B4F8B20098474F4B1B6874
:102A20001BB14F49B4F8B20098474E4B1B6813B125
:102A3000B4F8B20098474C4B1B6813B1B4F8B2001D
:102A400098474A4B1B6813B1B4F8B2009847484BFB
:102A50001B6813B1B4F8B20098472B8904F1C80081
:102A6000EA8869790333033201919BB2297992B2E2
:102A7000009104F1CC01FEF701FCD4F8C83083B911
:102A80004AF64950FDF712FF012384F83A314FF01E
:102A90004D13C4F8E8300023A4F8EC304FF47A73F7
:102AA00083E7D4F8CC3013B945F6CF00EAE710F04D
:102AB0002AFBC4F8D400B8F1000F05D002F01AFECA
:102AC00020F07F40C4F8DC0096F84A302046E969DF
:102AD00006EB4306338EA4F8D830F38EA4F8DA3030
:102AE00015F060FA02A904F11E0011F0E5FF95F857
:102AF0006D3013B9FF2384F845322B6F0BB120469C
:102B000098471C4904F1B00011F0AFFA02F0F2FD51
:102B10000C23B0FBF3F202FB1300431D0D30DBB2BC
:102B2000C0B2082B98BF0346204684F82A3011F023
:102B300087FF05B0BDE8F0838D62040068130020B4
:102B4000D07C0020C87C002074130020E47C00208E
:102B500094130020E07C0020CA130020DC7C0020BD
:102B6000BC130020C07C0020C47C0020B47C00206A
:102B7000E87C00207213002010B504210020FEF72D
:102B8000E5FA044668B90421FEF7A8FA044618B924
:102B900046F6BC10FDF78AFE034B93F9741013F050
:102BA0002EFF204610BD00BF68130020014BD888BF
:102BB000704700BF68130020014B93F8280070474E
:102BC0006813002038B511F004FE002501F078FFED
:102BD000224C01F0E3FA12F0E5FA03F003FE02F0F2
:102BE000C3F90AF09FFC012001F02AFA1C4B1D4A90
:102BF00029461D601B2304F14400258084F86C5095
:102C0000A581E573A57484F8395084F84250C4E96D
:102C10000123F92310222382134BE3634FF4E06373
:102C2000A4F8403016F0DCFD012342F2107204F1EA
:102C3000620084F844302375C4E9122215F0DBFBEE
:102C400004F1540015F0FBFB0022002384F88050AF
:102C500084F82850C4E91E2338BD00BF6813002043
:102C6000CC7C002003021B0001010002064B41F650
:102C70004C521B211A629973C3E9062241F2883231
:102C80005A62FFF79FBF00BF6813002073B5424D23
:102C90000446AB69AE7BC0F8F030EB7B003B18BF5D
:102CA000012380F839313D4BC0F8D03002F0EEFC02
:102CB000002818BF002601F007FA830684F8F860A0
:102CC00053BF1B23EB882A891A46A4F8FC30344BE7
:102CD000A4F8FE201B6823B194F93811B4F8B200AF
:102CE0009847304B1B6813B12F49204698472F4B0C
:102CF0001B681BB12E49B4F8B20098472D4904F166
:102D0000B00011F0B2F90123A4F8E6302A4B1B6899
:102D10001BB10021B4F8B2009847284B1B681BB1C7
:102D20000021B4F8B2009847254B1B6813B1B4F8E2
:102D3000B2009847234B1B6813B1B4F8B200984710
:102D4000214B1B6813B1B4F8B20098471F4B1B68A6
:102D500013B1B4F8B20098472B8904F1C800EA888F
:102D600069790333033201919BB2297992B20091C0
:102D700004F1CC01FEF782FAD4F8C8301BB942F254
:102D80000B20FDF793FDD4F8CC3013B94FF6542047
:102D9000F7E702B070BD00BF6813002000093D00D6
:102DA000D07C0020C87C002074130020E47C00202C
:102DB0009413002072130020E07C0020DC7C0020B3
:102DC000C07C0020C47C0020B47C0020E87C002073
:102DD0002DE9F34105460F4613F051FE002800F09F
:102DE0009080284613F076FF40B1B7F80130013BE0
:102DF0007F2B03D9122002B0BDE8F081284613F0E2
:102E00006DFF08B90C20F6E7284613F0AEFC002849
:102E1000F8D1284613F0DDFD06460028F2D12846F9
:102E200005F05EFB0028E5D0F9782846B7F8018068
:102E300013F03BFF05213878FEF788F90446072197
:102E40003878FEF783F924B138B14CF25120FDF700
:102E50002DFD08B3044690F8E5602B4F3B68DBB1CD
:102E60004034204613F0CBF9B0B1204613F0A7F957
:102E700090B93EB1254B20461B68984760B14DF292
:102E80007350E4E7224932463B682046096A984776
:102E900010B140F6B920DAE742F21073284603FB7E
:102EA00008F813F00FFF014638B94246284604F0EF
:102EB000D3FB20B34FF68800C9E703210DF10600CC
:102EC000FEF7D6F8044608B90D2094E7BDF80610C1
:102ED00001F0F6FF2146284613F030FF2046FFF7A9
:102EE000D5FE42462146284604F0B6FB10B141F219
:102EF000D770ACE7064B1B6F0BB1204698470020FC
:102F000079E7422077E700BFD87C0020D47C0020FE
:102F100068130020024B1B6803B118470C20704750
:102F2000CC7C0020014B93F974007047681300209B
:102F3000034BDA8802801B7983700020704700BF42
:102F40006813002070B5837806461A2B08D8042B26
:102F500004D92C4A22FA03F3DB0705D412200BE034
:102F6000292B01D03B2BF9D1308811F043FD70B1F2
:102F700090F83C210AB10C2070BDB27880F83D2158
:102F8000FF2280F83C2110F063FA0020F4E70A21C8
:102F90003088FEF7DBF8044690B3B0F8AC0111F0CE
:102FA00029FD05460028E6D00921B4F8AE01FEF758
:102FB000CDF818B949F2BC00FDF778FC03781BB9CD
:102FC00094F8C831032BD6D195F85631002BD2D1C5
:102FD00094F8F031002BCED1B4F8B031A5F85831C7
:102FE00094F8B83185F85A31037D85F85B31B378B0
:102FF00085F85C3184F8F031FF2385F85631C4E759
:103000000220B9E72000380438B50278447802F08D
:10301000010354EA030101D1112038BD92071AD4EB
:103020008578002DF8D0002B18BF002400E01D4645
:10303000204610F0DBF80028EED0284610F0D6F835
:103040000028E9D0064B00201A7B9C7222F0030274
:10305000DD721A73E1E7002BE9D000242546E7E78B
:103060006813002010B5008811F0DDFCD0B190F895
:10307000522112B13A24204610BD90F8682002F087
:10308000FF04002AF6D190F85F20920705D1FF22B5
:1030900080F8522110F0DCF9EDE70349603012F0BE
:1030A000A8F8E8E70224E6E7656001002DE9F047AB
:1030B00003780446032B03D912252846BDE8F08780
:1030C00043780F2BF8D813F00C0F57D16278930880
:1030D000120759D4637EA578002B5AD1012DEBD16C
:1030E00001F046F885434DD194F8028018F00105AF
:1030F00006D001232269A168E078FFF78FFB05461F
:1031000018F0020F07D002232269A168E078FFF7C8
:1031100085FB2843C5B218F0040F00F08E8094F8A8
:1031200003A00423D4F80890226950464946FFF7CB
:1031300075FB284310F0FF05BFD1B8F1050F0ED184
:1031400094F804800423E16862694046FFF766FB57
:1031500005460028B1D1C24514D1894512D1237E3C
:10316000013BDBB2062BA7D801210020FDF7EEFFC3
:103170000546A0B941F68A60FDF798FB10F00CF8FF
:103180000028A3D1112598E703F00303032BA1D056
:1031900092E715F0FA0F8FD1002D8DD0A0E7A8305F
:1031A00014F0E9FC18B195F854309B0743D1657EC3
:1031B000E278003DA078637818BF0125012A03F06A
:1031C0000308C3F3810C14BFB2FA82F20222A16891
:1031D00000F0040318BF520910F0010F94F800909A
:1031E00094F818E023D026695BB16769F319994216
:1031F00007D24B089E4228BF1E468B1B9F4228BF0A
:103200001F460F4B83F84250002583F83C0083F89B
:103210003D2083F83E9083F83F8083F840C083F8D8
:1032200041E083F844001F65C3E9121645E7002B0F
:10323000E7D02769E5E70C253FE7002D8FD03CE775
:103240006813002000B5837989B0032B2AD88DF844
:103250000530012340F2712142798DF80630037860
:103260008DF804208DF80730B0F801304B430393FC
:10327000B0F803204A430D4991F841100592A2F697
:10328000C4128DF81C1000218DF81D1008498A42C7
:103290000AD8A3F6C4138B4206D801A8FFF706FF8D
:1032A00009B000BD1220FBE73020F9E768130020C9
:1032B0003C369C002DE9FF4107460078012813D1D8
:1032C0007B78012B03D9022B0CD1BB8853B17A88B0
:1032D000B2B1BB88A3B10A214A434FF4A0614B436A
:1032E0009A420DDB122479E00028FBD10121FDF781
:1032F0002DFF0546002840F08D8042F2665007E021
:1033000001210020FDF722FF054618B947F2E250DF
:10331000FDF7CCFABB88002B76D114F07DF800289D
:1033200074D195F81431002B72D12846FFF798FA22
:1033300004460028D6D10121DFF830810846FDF788
:1033400005FF98F81310064619B110B94CF2C400E5
:10335000DEE798F83C200023CDE9023312F00103A8
:103360001CBFD8F84C000290520741BF04AA02EBE0
:103370008303D8F8502043F8082C002941D096F850
:103380001431002B3DD07B88DBBB98F83C303046B5
:10339000009302ABD8F8482098F83E1014F022F9B8
:1033A00078B3304614F0EDFB06F14003074605F113
:1033B0004002683653F8041BB34242F8041BF9D1AB
:1033C0002846FFF74DFA014610B140F2EF609FE743
:1033D0000C2F07D10246284614F083FD204604B086
:1033E000BDE8F08117B147F28C1091E798F83D30B5
:1033F0002846296D43F0040385F8543014F051FD3C
:10340000ECE7BA887988E6E71124E7E73A24E5E7AC
:103410000C24E3E714F060FB04460028DED195F8A5
:10342000543095F8A62022B195F8A720134385F8CB
:10343000A600053BDBB2012BD0D82B6D13B943F6A8
:10344000AE6065E701210846FDF780FE4FF4C072CB
:10345000294606460EF0BEFF002386F8943004236A
:10346000316D304686F85430C8E700BF681300203D
:103470002DE9F04F457A8BB00446AA0718D545F0E0
:1034800001054572072D15D800F072FE35EA0000DF
:1034900040F0958094F848308BB9012D0AD1A3698A
:1034A000A74AA3F25373934200F24781012609E031
:1034B0006B07E7D1122420460BB0BDE8F08F15F062
:1034C0000106ECD1AF0745BF731CB1464FF0FF09B1
:1034D000DEB26D070AD5B31D9A4A54F82330A3F61D
:1034E000C413934200F229810136F6B204F10807B1
:1034F00004F122054FF000085FFA88F39E422ED8AF
:103500000FF04AFE237810B99A1E022A57D9042BCD
:10351000D0D813B9A378012BCCD86378032BC9D8A2
:1035200094F84930013BDBB2062BC3D8864F01210A
:103530000020FDF70BFEFB7C0546002B46D1012148
:103540000846FDF703FE002818BF054605F1A80050
:1035500014F011FB0646002852D00C24ABE7994525
:103560002FD0D7F804A03B695345A3D86A8B2B8C86
:103570009A429FD80120B5F814B06988EB892A894E
:10358000CDE900B00020CDE90213FFF785F900284E
:1035900000F0D380B8F1000F13D028880299884238
:1035A00088D1E988914285D1AA89039B9A4281D129
:1035B0006B8A5B457FF47EAF3B689A4501D011244E
:1035C00079E708F101080437023595E7A83014F0CF
:1035D000D2FA0028B3D06FF00043D5E92A129A42FC
:1035E00008BFB1F1FF3FAAD1637A2846009304F1E6
:1035F0001803E268617813F0F5FF064600289ED0B4
:10360000284613F00FFF08B13A2454E7284613F078
:1036100003FF0028F8D1BB7C43B9CDE9063307236B
:103620008DF81E3006A8FDF7CBFD60B300210DF12B
:103630001600FDF71DFD074600287CD00123224619
:10364000BDF81610FFF772F9384614F0C3FC1EB926
:103650006178284613F084FF04F10308A2782178EA
:103660002846434613F028FF00286FD1122400217A
:10367000B7F8B200FDF780FD00283FF41CAF4DF60F
:103680002D70FDF713F9069B93F8CD20802AC9D041
:1036900093F8E530002BC5D05FE7637A8DF81860AA
:1036A00013F00101E26818BFA06907921EBF0890DD
:1036B00001208DF81800481C13F0020FC0B218BF8B
:1036C000014658071BD59DF81800063103F0050385
:1036D00054F8211040F00400052B09918DF81800D2
:1036E0000DD108980B189A4209D25308834228BF7B
:1036F0000346D21A08938A4294BF0992099106A9F7
:10370000284607F08FFF94F848102846003918BF64
:10371000012113F0CEFE94F84910284613F0AFFEB5
:10372000284613F0B6FF3946284614F0BAFB0024A9
:10373000C1E60B249BE70D24BDE63024BBE600BFA9
:103740003CF67002CBF370026813002016B92846CD
:1037500007F0C8FB21784346A278284613F00DFFF6
:1037600094F8099000F004FD09EA0001284601F0F0
:10377000050113F087FE16B9042385F854302F6530
:103780004246A0780FF0EEFC0146284613F00FFFEA
:10379000237833B94246A1783846FEF7EFFF002878
:1037A000C7D1002E3FF479AF0421284613F0AEFEB6
:1037B0000028BCD10C245AE710B5437994B0032BF0
:1037C00057D823F00203027940F271218DF80630B8
:1037D000D0F806308DF80420CDF807304389027BFD
:1037E000ADF80B3001238DF805208DF80D300388DE
:1037F0004B43049342884A430792A2F6C412847B47
:10380000417B41EA0421ADF82810047CC17B41EAE8
:103810000421ADF82E10847C417C41EA0421ADF8EE
:103820003410047DC17C41EA0421ADF83A10417D99
:10383000847D41EA0421ADF84010C17D007E41EA5B
:1038400000210E48ADF8461000218DF84C108DF87F
:103850004E100B4990F841008A428DF84D000AD86D
:10386000A3F6C4138B4206D801A8FFF701FE14B0DB
:1038700010BD1220FBE73020F9E700BF68130020DD
:103880003C369C0073B507230024CDE900448DF835
:1038900006306846FDF794FC08B1002610E0009C55
:1038A00094F8CD30802BF4D094F8E560002EF0D061
:1038B00094F83131002BECD194F8CC30002BE8D1C6
:1038C00001210020FDF742FC054618B94DF6D14014
:1038D000FCF7ECFFA83014F04EF9234BDB7C7BB3F4
:1038E000E8B195F85430053BDBB2012B17D82846D8
:1038F00014F047F9044610B14FF24920E8E7284692
:1039000007F060FA95F854302246214623F004036C
:10391000284685F8543014F0E4FA00240DE0012123
:103920000846FDF713FC054610B941F66740CFE79E
:10393000A83014F020F960B90C24204602B070BD04
:1039400028B9002EF8D0FF2384F8CC30E5E7002E0C
:10395000F9D1284614F015F904460028EDD128467F
:1039600007F030FAE9E700BF6813002013B50446FA
:1039700010F074FF002851D02046FF2401F0E4FA33
:103980000023CDE900336846FDF71AFC68B3244BE9
:103990001B6803B1984700244FF48023CDE900430E
:1039A000FF246846FDF70CFC18B300204FF4A02359
:1039B000FF24CDE900036846FDF702FCE8B10021D1
:1039C0004FF4E023FF24CDE900136846FDF7F8FB30
:1039D000B8B100224FF43023CDE900236846FDF74B
:1039E000EFFB90B1002002B010BD009B83F8454270
:1039F000C9E7009B83F89A40D3E7009B83F83440E3
:103A0000D9E7009B83F83440DFE7009B93F8382028
:103A1000032AE3D1FF2283F82220DFE71220E2E726
:103A2000B87C002070B5837806460A2B34D800880D
:103A300010F0E0FF044688B313213088FDF786FBC1
:103A400018B948F68B70FCF731FF94F8543113B174
:103A50000C25284670BD837A03F0FF05002BF7D1B3
:103A600094F871301B0706D4FF2384F85331FF23E9
:103A700084F85431EDE794F87530DB0907D0037B07
:103A8000B178427B8B4228BF0B469A42EFD3044960
:103A9000023011F0A5FBDCE71225DAE70225D8E7B2
:103AA000618A0100F8B5067804460F46EF2E01D969
:103AB0001220F8BD4378827813F0100128D19D06BA
:103AC00003F003000CD50028F2D11807F0D45D07ED
:103AD00058B208D50028EBDB12F0030FE8D104E060
:103AE0000328F2D1E4E70028F6DA2079E278E579D4
:103AF00042EA0022607942EA0042A07940EA0520C9
:103B0000257A40EA05408242D2D81F2A14D8CFE74E
:103B10001806CDD402F0030203F060000243C7D1BF
:103B2000DD075BD503F00E02022A03D003F0060284
:103B3000042ABDD11807D8D5627A013AD2B2062A32
:103B4000B6D8A27A032AB3D813F0040302D1023AFA
:103B5000012A03D8E27A012AAAD813B9A37C032B3D
:103B6000A6D8237D00293CD0012BA1D1237E012B97
:103B70009ED8002942D06378D90703D500F000FA17
:103B8000002842D094F90130002B03DA0FF004FB37
:103B900000283AD004213046FDF7D8FA054600281F
:103BA00043D104213046FDF799FA0546002857D045
:103BB0002C4B93F9741012F022FF0021304614F0C0
:103BC000F4FB002837D1284613F079F821463870E5
:103BD000E0742846BDE8F84012F082BF13F00C0FE5
:103BE0007CE7022B3FF464AFA37D013BDBB2022BE9
:103BF0003FF65EAFE37D0F2BB8D959E700F0B8FA76
:103C0000820707D4237D022B01D1112051E7A37D28
:103C1000022BFAD000F0ACFA4307ACD4237D032B7F
:103C2000F3D0A37D032BA6D1EFE712F09EFD002871
:103C3000C3D00C203DE7403012F0E1FA0028C2D09A
:103C4000637803F03303002B7FF432AFA67D284660
:103C5000296A13F050F8FEF759FD8642B3D0E8E721
:103C6000072026E76813002030B503798BB00246A1
:103C7000042B52D84188B1F5804F4ED828480024F3
:103C80001844ADF804408DF80C40837A457943F030
:103C900010038DF811408DF8144043EA4503C57BAD
:103CA000007D43EA8503ADF824408DF8264043EAC1
:103CB000C003D2F8070003F01F03069003A88DF895
:103CC0000430BDF80430ADF80D3013888DF80F3096
:103CD0001B0A8DF8103021F07F4301A98DF81230B6
:103CE0001B0A8DF81330537B8DF8153053798DF8FE
:103CF000163093798DF81730B2F80B30ADF81C30D0
:103D0000937B8DF81E307F238DF81F304FF0011309
:103D10000893FFF7C7FE0BB030BD1220FBE700BFD2
:103D200094D6030008B540F2BE7000F095F940F259
:103D3000BD7000F091F940F2BC7000F08DF940F2D6
:103D4000BB7000F089F940F2BA7000F085F901F01B
:103D5000BBFE074B074A40F2BF701A6000F07CF9C7
:103D600001F0E8FE5320BDE8084001F095BC00BF1B
:103D7000C87C0020ED2700000278034672B142782B
:103D800062B142881A2A09D982881A2A06D900689B
:103D9000034A506000209B881381704712207047AF
:103DA0006813002002680020014B9A61704700BF31
:103DB0006813002002680020014BDA61704700BFE1
:103DC000681300200378A3F10A02112A9BBF024A5C
:103DD0000020122093737047681300200378FF2B94
:103DE00015D14378FF2B12D18378FF2B0FD1C378E5
:103DF000FF2B0CD1037923F0E0021F2A07D11F2BE0
:103E000005D05B09034A002082F841307047122038
:103E1000704700BF68130020014B187400207047E2
:103E200068130020014B587400207047681300206D
:103E3000024B1B6803B1184711207047BC7C00205F
:103E400008B5052000F008F914F055FA014B024AB4
:103E50001A6708BD68130020F553000008B5052057
:103E600000F0FAF805F0D2FF014B024A1A6708BDCC
:103E700068130020F553000008B53F2000F0ECF86F
:103E800002F0CEFB014B024A1A6008BDC07C002044
:103E9000F98A01000278531E012B16D84378022BB1
:103EA00013D843881F2B10D8501E03F01F03084956
:103EB00042424FEA83034241002043EAC2130A7B95
:103EC00002F0030213430B7370471220704700BFC8
:103ED000681300200378022B9BBF034A00201220A6
:103EE00082F86C30704700BF68130020024B93F8D3
:103EF0006C300370002070476813002008B5012261
:103F0000064B1A7104F0D6FA05F052F810F036F8A4
:103F100001F00EF9BDE8084003F010BDEC130020DD
:103F20000549064810B50FF0C4FF05490548BDE82E
:103F300010400FF0BEBF00BF34060020F413002075
:103F40003C060020F813002010B5094C094904F183
:103F500008000FF0AEFF04F10C0007490FF0A9FFB5
:103F600004F110000549BDE810400FF0A2BF00BFEA
:103F7000EC130020640600206C0600205C06002084
:103F8000014B1879704700BFEC13002010B50A4CA4
:103F9000072000F061F8094904F108000FF089FFDB
:103FA00004F10C0006490FF084FF04F110000549EC
:103FB000BDE810400FF07DBFEC1300204C06002040
:103FC000540600204406002038B5074C0D4601F089
:103FD00085F8A06825600FF064FFFEF747FE01F04A
:103FE000A1FB0123237538BDEC130020014B187D84
:103FF000704700BFEC13002010B50C4CE0680FF0C8
:1040000050FF20690FF04DFFFEF7DCFD202000F08F
:1040100039F82F2000F036F8262000F033F8292058
:1040200000F030F80023237510BD00BFEC13002012
:104030000048704798430020004870470214002051
:10404000014B5875704700BFEC130020014B587DA1
:10405000704700BFEC13002010B50849C0F3C70437
:10406000012300F00700064A8340085D03430B5517
:104070001378A34238BF2346137010BDD00400202C
:104080002E73002030B50E4AC0F3C705012100F0A1
:104090000700535D814023EA01030A4953550B7819
:1040A000AB4205D11A440020147814B100B10B7052
:1040B00030BD002BFAD0013B013A0120DBB2F3E71F
:1040C000D00400202E730020014BD3E9000170477B
:1040D000D0040020014B5870704700BF2E730020A1
:1040E000014B5878704700BF2E730020004870477E
:1040F000D8040020064B1878072881BF08381823F9
:10410000B0FBF3F001308CBFC0B20020704700BF9D
:104110002E73002000487047BCD60300F8B50C464B
:104120001321FDF713F8F0B1A4F1400106250F4F5C
:10413000C1F347137F78B3FBF5F4E6B2721CD2B239
:10414000974211D3182205FB143301F01F0102FB23
:104150000600DBB2012210308A4050F823301A42A8
:1041600014BF01200020F8BD0020FCE72E730020C2
:10417000094A106892F8F730C0F3C021C0F300205C
:10418000C3F38013400040EA810040EA031040F08E
:10419000010000F017007047D004002008B50CF0B3
:1041A000A3FB0023074A32F82310814205D302EB18
:1041B00083029378044A137008BD01330C2BF2D1AB
:1041C0000023F7E7ACD7030030730020024B1878C8
:1041D000072828BF07207047307300202DE9F04FD3
:1041E00087B0C3F3C01690F80F900446ADF80C30BA
:1041F000884690F86F3040F2BE71B0F8B2001746B2
:1042000043EAD30303F0010AFFF788FF0546BAF13A
:10421000000F01D1002876D094F8B03004F1B00A34
:104220000293B8F1000F74D040468DF81300002FB0
:1042300072D1FFF79DFF3D4B8DF81400D3F800B00D
:10424000BBF1000F0CD0A9F126000DF1130251466D
:10425000434243410298009305ABD847834638B99F
:104260009DF8133013B19DF8142032B94FF0090BAB
:10427000B9F1260F43D10022134694F8391129B120
:10428000990750D593074ED502221346FF2184F893
:104290004C1194F84B1101F0FF0B002940D184F828
:1042A0004E219DF80C209DF8401066F3C71284F84B
:1042B0004D3184F84B118DF80C20BDF80C20A4F87A
:1042C0004F21627E52B3A27E42B3354013F01003F9
:1042D00018BF2B4694F84F2105A950468DF814803D
:1042E00063F3C712BDF80C308DF8157084F84F21B8
:1042F000ADF816300FF0B9FE002384F84C31584663
:1043000007B0BDE8F08FB9F1260F85D04FF01A0B3A
:10431000F5E7FFF72DFF88E738468CE75B46D9E7DE
:104320004FF03A0BE8E74FF0090BE8E7EC7C002090
:10433000B0F8B23010B5044680F88E11A0F88F3175
:1043400090F83001FEF7F0F984F8910194F831010A
:10435000FEF7EAF9044984F8920104F28510BDE8F9
:10436000104010F046BF00BFC53F010070B50446C5
:10437000B0300E4611F06EFCB4F8B25094F8C8217B
:1043800094F8C93184F8D60104F5E57084F8D36156
:10439000A4F8D45184F8D72184F8D8310249BDE873
:1043A000704010F026BF00BFDB3F01007FB5034621
:1043B0000E460D0A019003EA1124020A04EA1024B1
:1043C0003440E10631D41A4905F0EF0402F0EF025F
:1043D00003F0EF03097806F0EF0549B921462846B6
:1043E0000FF013FE20B9114618460FF00EFEC0B1B3
:1043F00013401C4005EA040005460EF014FF044675
:1044000028460EF010FF032C06D19DF8063003F06D
:104410000303012B08BF0424E4B244EA002004B0E3
:1044200070BD03EA04001540E7E705242046F3E7E2
:10443000317300200138C0B204289DBF024B1B1805
:1044400058790020704700BFDCD703002DE9F04FFA
:1044500090F80EA088468DB00446AAF125061546B0
:1044600071427141052A06D00B2A04D00DB0BDE877
:10447000F04F0FF09BBEE37B272B3AD104F10F0BDB
:1044800098F8013098F8022003F01709134302F05E
:104490001706D80603D50B2D29D1B14527D109F12F
:1044A000FF37731E07EA090733401F431FD1304609
:1044B0000FF0B0FE40B394F83031984224D094F815
:1044C0004D21164213D0BAF1250F1DD094F82921A1
:1044D000164219D1013BDBB2042B11D80138904AA6
:1044E000C0B213440244987A937A98420CD9204679
:1044F000BCE7BAF1250F40F00B8104F10E0BBFE7CA
:104500004DF67D40FCF7D2F948460FF083FE40B1EE
:1045100094F83131834204D094F84E3119EA030FF4
:10452000E5D0B8F8033032464946204608930BAB35
:104530000093089B0FF07FFE9DF82C300646162155
:10454000B4F8B2000393FCF701FE034658BB049095
:10455000627E069252B394F81A900B2D40F0DA80E6
:1045600008F10505B9F1000F23D098F80A2002F0F0
:104570000102059294F83021DDF814A00792039A05
:1045800046EA0A06052AF6B200F01181002A40F038
:10459000C98046B3079A052A40F0C78063B9102046
:1045A0000DB0BDE8F08F427C0492D1E7DDF81890A1
:1045B000D3E7CDF81490DDE71A7C92B1032203F122
:1045C00008012846099315F0E4F80028E7D1099B73
:1045D000022208F1080003F10C0115F0DAF80028B6
:1045E000DDD10127B0E0079B5A1F5742574198F889
:1045F0000530002BD3D198F80630002BCFD198F896
:104600000730002BCBD198F80830002B00F09780B2
:10461000C5E7A37E002B00F09B8098F80A30039A30
:10462000C3F340030799B4F8B2000FF000FD98F807
:104630000A3003F0010260B1002AB0D0002F00F070
:10464000878094F94F21002AC0F282809B077FD592
:10465000A5E7002A7CD0F1E7059B8BB994F851318E
:10466000002B9CD1049B002B99D1DDF810A072E0A7
:104670000025F3E72C23A3738EE084F84B618BE0D5
:10468000CA46089BE288A4F8C032013B9B1A47F651
:10469000FD729BB293420DD92823204684F839300D
:1046A00001F01AFD04F10F039B457BD0002384F831
:1046B00056307AE0E37B0D2B02D00A3B012B01D868
:1046C0002A23EAE7039B84F8C2329DF82D3084F850
:1046D000C332D5B1039B84F8C4A2052B0CD116219B
:1046E000B4F8B200FCF732FD30B12B880381AB780F
:1046F0008372B5F8033083816D79C5F340052923B2
:1047000084F8C5528BF80030CCE784F8C452F6E741
:10471000022045E7B9F1000FAAD1CA464D461AE07A
:10472000DCD70300002E3FF462AF042204F1D40171
:10473000284615F02EF8074600287FF430AF98F889
:104740000930002B7FF42BAF069B002B7FF461AF69
:10475000B9F1000F80D1002E93D194F84B31012B89
:104760008BD194F85021304694F84F3194F83011A1
:1047700043EA022304F5307263F30F00E3880FF07D
:10478000BCFD00287FF476AF31462046FFF7D0FD10
:1047900084F84B618BF8006004F10F039B4585D1D1
:1047A0000023E373204610F0F6FF0020F8E6002E09
:1047B0007FF4F4AE01271AE7034B002283F85A2056
:1047C000A3F85C20704700BF32730020044B93F8BD
:1047D0005A20012A1ABF036001200020704700BF41
:1047E00032730020064A92F85A30012B1FBF012372
:1047F000A2F85C0082F85A30184608BF00207047C3
:1048000032730020064A92F85A3033B1026011B177
:10481000B2F85C300B80012070471846704700BF2B
:1048200032730020054B002293F85A00A3F85C2055
:1048300010B1012083F85A20704700BF3273002066
:10484000034B93F85A00B0FA80F04009704700BF5C
:104850003273002050B90A4A0120134603F8010BB5
:104860000868C2F801008A889A807047012805D13B
:10487000034B0A68D8719A608A889A81704700BF92
:104880009073002050B90B4B187888B1D3F80120F1
:10489000B3F805300A6001208B807047012806D1EB
:1048A000044BD87920B19A689B890A60F3E700200D
:1048B000704700BF9073002010B9044B1878704700
:1048C000012806BF014BD879002070479073002063
:1048D000F7B58A8800238DF80600ADF804200C4A4D
:1048E0008DF80730147802F5AC720868019DD9B2D2
:1048F0008C4201D8082107E052F8087F013356683E
:10490000AE4208BF8742F2D1084603B0F0BD00BFF7
:10491000A0730020084B002130B51C7A03F20F135E
:10492000CAB2944201D8082204E013F8015F0131B1
:104930008542F5D1104630BDA0730020F0B5244D5E
:1049400089B095F8A04105F2A111684622460DF004
:1049500041FD214668460FF061FF0446002835D02E
:1049600000EB400102A8C9B2FCF736FE95F8A93168
:104970000120013C95F8A021E4B205E00133B3FB2E
:10498000F2F102FB1133DBB203F120010DEB010662
:1049900016F8201C0029F1D104EB440106F8200C84
:1049A00003EB430220312A44694411F8187C82F851
:1049B000AA7111F8177C11F8161C82F8AB7182F8F5
:1049C000AC11EA1882F8A101002CD2D109B0F0BDD7
:1049D000A073002070B5064688B00C46002A4ED061
:1049E000294890F8A931C11891F8A1211AB941F6C6
:1049F0004F20FBF75BFF03EB43020133024492F8C5
:104A0000AA51E57092F8AB5192F8AC212571627110
:104A1000002281F8A12190F8A021B3FBF2F102FB62
:104A2000113380F8A93190F8CA3123B9174900F53C
:104A3000E17010F0DBFB65790D220021684605F07E
:104A40003F0545F04005657114F0CAFEE37804AAFD
:104A500069468DF80F30304623798DF80D508DF86A
:104A60000E30042314F0F4FD9DF81F3023709DF8E0
:104A70001E3063709DF81D30A37008B070BD032117
:104A80006018FCF7A9FDD6E7A07300203D4900009F
:104A9000044B1A7A824286BF1B1893F858010020F3
:104AA000704700BFA0730020044B1A7A824286BF71
:104AB0001B1893F850010020704700BFA07300201E
:104AC000074B00224FF461711A701A7283F8CB21E0
:104AD00083F8CC21A3F8CE1183F8CA21704700BF18
:104AE000A0730020014B93F8CC017047A073002005
:104AF00010B51446FFF7ECFE082813D0FFF70AFFA5
:104B0000094B1A7A82420DD904B12070034493F8FC
:104B1000482193F85801012A08BF40F0010000F035
:104B2000010010BD0120FAE7A0730020014BB3F88B
:104B3000CE017047A07300200A4B30B51C7A844226
:104B40000ED9184490F810012C3003EBC004A5795D
:104B50000D7053F8300010600120A388938030BDA1
:104B60000020FCE7A073002070B506460D4609F052
:104B7000D3FD08F01BFF0A4890F8CB4164B1017ADD
:104B800061B100F1900310303246002D08BF184685
:104B900008F0B2FE08F03AFF204670BD0C46FBE775
:104BA000A073002008B5024601F109030448012161
:104BB00000EB031008F0A0FEBDE8084008F026BF97
:104BC000A07300200246074810B590F8CB4124B1ED
:104BD000017A21B1103008F08FFE204610BD0C463E
:104BE000FBE700BFA07300202DE9F74F304E9A4637
:104BF00080468946337A0092834257D9331893F816
:104C0000504184F0010409B393F85831F3B944F0EA
:104C100002070134BAF1000F1AD1FA070BD50621A9
:104C200008F10900524601FB086106EB001001F58E
:104C30008C71FFF7CFFEBB0734D508F10100524657
:104C4000494606EB0010FFF7C5FE2BE02746E1E7DB
:104C500096F8A9514FF0010B002CDED0721992F892
:104C6000A1319BB9009BDBB1019200F02BFD05EB5C
:104C70004503019A4FEA102C334482F8A1B183F81E
:104C8000AA01000C83F8ABC183F8AC01013596F89A
:104C9000A031013CB5FBF3F203FB1255EDB2DBE7AB
:104CA00047F00407384603B0BDE8F08F0027F9E766
:104CB000A0730020F8B50646174C40B3217A04F5DE
:104CC000A8700FF0ABFD94F8A051074604F2A110B4
:104CD00029460FF0A3FD2D1AEDB2AF4219D80025D9
:104CE000237AE8B2834201D80120F8BD231893F853
:104CF000503153B90621324601FB0041093001F51C
:104D00008C7104EB0010FFF765FE0135E8E70546FE
:104D1000E6E70020E9E700BFA0730020F0B51B4FD5
:104D200089B006460D463B7A83422DD93B1893F84D
:104D300050414CBB0D222146684614F051FDEB78E2
:104D400006F1090004AA8DF80F3069462B7907EBAC
:104D500000108DF80E306B798DF80D30042314F0AF
:104D600077FC2A789DF81F309A420AD16A789DF81C
:104D70001E309A4205D1AC789DF81D30E31A5C4292
:104D80005C41204609B0F0BD0020FBE7A073002085
:104D9000074B1A7A824209D91A1892F850212AB977
:104DA000062202FB003000F58C707047002070472F
:104DB000A0730020064B1A7A824281BF1B1893F819
:104DC0004801B0FA80F0400998BF0020704700BF4A
:104DD000A0730020034B80F888101B680BB140883B
:104DE00018477047F07C00200B2808B503D94FF214
:104DF0008250FBF75BFD024B33F8100008BD00BF8B
:104E0000ECD7030030B50024D0F8D03042F2107552
:104E1000A0F84840C464B0F850405C43B4FBF1F4DF
:104E2000A0F850404C1E05FB0242B2FBF1F2A0F884
:104E30004A20094AB2FBF1F20132A0F85420B0F83E
:104E4000442005FB0244C26B5343B4FBF1F4B3FBB3
:104E5000F1F30464C36330BD005A62024FF4287258
:104E600010B50C46002114F0BBFC0122A0F8B240A2
:104E700082776FF0360280F86F20042280F870206D
:104E80006FF03B0280F871206FF0100280F8722002
:104E9000072280F87320002280F874206FF07F02D0
:104EA00080F875202B2280F86E20FE2280F8A62044
:104EB0007F22C272014A1278427710BD70750020BD
:104EC0004FF43E7210B50C46002114F089FC6FF0CF
:104ED00036010122A0F8B24080F86F1004218277D9
:104EE00080F870106FF03B0180F8B02080F87110EE
:104EF0006FF0100180F87210072180F87310002104
:104F000080F874106FF07F0180F875102B2180F805
:104F10006E10FE2180F8A6107F21C1720149097828
:104F2000417710BD70750020054B1B7833B9054BD8
:104F30001A681B79026003710120704700207047D6
:104F400071750020C8050020054BFF221A70054A24
:104F5000016811600179117100221A70704700BF59
:104F600071750020C8050020054B07B518681B792E
:104F7000009068468DF80430FFF7E6FF03B000BDEF
:104F80008D620400A1B13F280BD80B4B1B5C03F0D2
:104F90007F0291420ED08CBF0120002000EAD31086
:104FA000704700F11903DBB2112B03D8A738ECE7E7
:104FB000084670470120704704D80300FF230B7098
:104FC00002234B7083238B70014B1B78CB7070478F
:104FD000747500202DE9F84F47680D46FE6930468C
:104FE0000DF0E4FD044618B94DF2DF30FBF75EFC2E
:104FF000014630460DF0E8FDB4F800A083461FFAE4
:105000008AF8B8F1000F02D14FF64970EEE71C4B59
:105010001B68ABB9BB78FA782B706B78A5F802A047
:1050200062F3030323F0C0036B709BF8003003F0BE
:105030000303012B0ED0022B0CD04BF2EC00D5E772
:10504000C11C42467888984704460028E2D1204691
:10505000BDE8F88F6A78304663F305126A700DF088
:10506000BDFD044610B94EF65B00BFE742460BF1AA
:105070000301281D0DF0AEF930460DF048FDE6E7BE
:10508000F87C002038B5134C10220021201D14F0AC
:10509000A7FB0125257404F108031022002104F167
:1050A0001400C4E9013314F09BFB84F8205004F190
:1050B0001803094AC4E9053300236362A36284F834
:1050C0002C30C4F82D30C4F8313084F835301360FA
:1050D000A36338BD74750020F87C002010B5074C20
:1050E0002378FF2B03D040F2B250FBF7DFFB0DF02B
:1050F000D5F82070BDE81040FFF7C4BFCD050020F3
:1051000010B5034C20780DF0E3F8FF23237010BD99
:10511000CD050020014B18780DF0EAB8CD05002030
:10512000014B024A1A607047F47C0020D54F000002
:10513000014B024A1A607047F47C0020D54F0000F2
:10514000F7B506465D4DAB68AC69227A012A20D1DD
:10515000AA6B4AB1137A1BB94BF2A730FBF7A6FB37
:10516000AC6BCCB9002091E01A7A012AFAD01C4627
:10517000534AEFF3108172B650680068506001B96D
:1051800062B6A34208BFAC63237A2BB947F6193045
:10519000E4E705F11402ECE7277AFFB20523237256
:1051A0007B1E0B2B7AD8DFE803F076062134734C94
:1051B0003D3D3D3D3D68636813B94FF20E00CDE7BC
:1051C0002046314698470420EFF3108272B6237AC6
:1051D000052BD9B24FF0000365D12372A96BA14210
:1051E00000D1AB63002A44D162B642E0636813B9D0
:1051F00047F2B840B2E73146204698470346ADF83B
:105200000400C0B2C3F30723012B3DD0022BDBD136
:105210002AE0636813B94BF29B609FE720469847EA
:105220000020D1E7274B1B68002BF9D03A46606875
:1052300031469847A7F10A020420534253415B00CC
:10524000E4E7636813B94CF2CB6087E786223270DB
:1052500001225988B270727100229869A6F8031071
:10526000B2710DF054FC0420AB6BA34201D10023BA
:10527000AB6300283FF467AF08E0134B314620468C
:105280001B689847034660B9277290B103B0F0BD20
:1052900043F26B2062E74DF667205FE747F66B004D
:1052A0005CE70220E0E711B944F6380056E71846FB
:1052B00098E7002B7FF447AF54E700BF74750020D8
:1052C00078750020FC7C0020F47C0020134610B58B
:1052D000027A1AB144F28140FBF7E8FA0A46014625
:1052E0000248BDE810400FF05FBF00BF7875002096
:1052F000044890F82C301BB9034924300FF070BFDC
:10530000704700BF7475002099510100034606489C
:1053100090F83C203AB190F8352022B9034900F8C2
:105320002D3B0FF05DBF704774750020BD4F00002E
:105330000A4610B5037A1BB143F29510FBF7B6FA93
:10534000014606230248BDE810400FF02DBF00BF04
:10535000887500201346027A0AB1037270470A4624
:10536000014601480FF020BF78750020064B1B2234
:105370001A804FF4A4725A804FF480729A8040F2DF
:105380009A42DA80704700BFB2750020002900F110
:1053900010024FF01B110CBF4FF4A4734FF429639C
:1053A00082621B2201610162C1620649828302831B
:1053B0004281C3834383C3828382C3840163828621
:1053C000838470471B004801034B12B91880598031
:1053D00070479880D9807047B2750020012907BFB7
:1053E00002491230024909300FF003BFFF5101009A
:1053F000BF5201002DE9F041044690F84A3103F014
:10540000FF0823B1002380F84A314FF001082046FD
:1054100004F59F724346554D10F8B01FB1FA81F163
:10542000490910F035F8B4F84401B4F84621B4F84D
:105430004071B4F8426184F84881B8F1000F4DD151
:1054400029886B88884228BF08469A4228BF1A4696
:10545000B942A4F8440128BF3946B342A4F8462112
:1054600028BF33461B29A4F84011A4F8423102D0CA
:10547000B3F5A47F04D11B286BD0B2F5A47F68D00C
:10548000FF2384F83E31B4F8443141F6D4721B3B1B
:105490009BB2934203D947F69A20FBF707FAB4F878
:1054A00040311B3B9BB2934202D94DF2DA40F4E704
:1054B000B4F8463140F64812A3F5A4739BB2934268
:1054C00002D943F25500E8E7B4F84231A3F5A473DA
:1054D0009BB293423DD947F69F30DEE7A988EB881F
:1054E000884228BF08469A4228BF1A46B942054654
:1054F00028BF3946B34228BF3346B0F5807F1646F1
:1055000038BF4FF48075B1F5807FA4F844510D4643
:1055100038BF4FF48075A4F8405140F29A45AA4232
:1055200038BF2E46AB42A4F846611E4638BF2E4611
:10553000B0F5807FA4F8426106D8AA4204D8B1F53C
:10554000807F01D8AB4202D9FF2384F83E31BDE809
:10555000F081AB88B3F5807F04D1EA8840F29A43AA
:105560009A42F4D0FF2384F84A31F0E7B275002064
:105570002DE9F8430C469DF8241006330746A1F1A7
:105580000309008E13449DF820805FFA89F9B9F170
:10559000010F8CBF002628261E440FF054FEB9F1DF
:1055A000010F41468CBF7B8E4FF42963984228BF80
:1055B000184685B205EB0609A14538BFA4EB0909D9
:1055C000BC6A28BF4FF00009208A0FF03CFEA48A75
:1055D0000C4B84421B7A28BF0446A4B27BB9387AAC
:1055E00041460FF030FE48450A9B38BF484684428A
:1055F00088BF84B260191C803044BDE8F883002065
:10560000EEE700BFB27500202DE9F041074686B0F5
:1056100016461D4639BB1C4B284653F8224009F05C
:10562000A7F9804601F0B4FA04F22D444FF47A73DE
:105630009F304444B4FBF3F404440DF11603BDF869
:10564000302007F140000096CDE9015300231946B0
:10565000FFF78EFFBDF83430A3422CBFC0180019ED
:1056600006B0BDE8F081184609F082F9044601F061
:105670008FFA4FF47A7204F5464391301533B3FB39
:10568000F2F31C18D9E700BF6CDD0300014B187A58
:10569000704700BFB2750020532808B503D940F603
:1056A0005B00FBF703F9034A1378834238BF0346D4
:1056B000137008BDCE050020014B1878704700BF5D
:1056C000CE050020094AD2E90003434083EAB01125
:1056D00081EA43214FEAF34311605360044B58437E
:1056E0004FEAF06000EB8000704700BFBC750020FF
:1056F000BB79379E094AD2E90003434083EAB011DF
:1057000081EA43214FEAF34311605360044B58434D
:105710004FEAF06000EB8000704700BFD00500202A
:10572000BB79379E10B50A4C08210948FBF754FF96
:10573000D4E900321343F7D0064CFFF7DBFF2060BB
:10574000FFF7D8FF236860601843F6D010BD00BF94
:10575000D0050020BC75002008B502460FF0F3FF0D
:1057600040B108460FF0EFFF20B18A420CBF232062
:105770002A2008BD8A4209D1A2F13003DBB20B2BEB
:105780000ED8154840FA03F3DB071ED5322901D1A4
:10579000262A03D0322A03D1262918D12A20E8E765
:1057A0003E2907D1262AF9D03E2A12D03B2A10D111
:1057B0001F2902E03E2A04D126290CBF2A200020FE
:1057C000D7E73B29F2D11F2AF7E72320D1E73E296B
:1057D000F7D10020CDE700BFDEF7FFFF0B38C0B2E6
:1057E000432838B598BF0F4B0D4688BFFE2114469D
:1057F00098BF195C1046FFF7AFFF88B985B12978CB
:10580000342909D03F2909D0272908BF262120465D
:10581000BDE83840FFF7A0BF3221F8E73E21F6E7A8
:1058200038BD00BF56D80300094B0A4A1A600A4B1C
:105830000A4A1A600A4BC0F8B0300A4BC0F8AC30C4
:10584000094BC1F8B030094BC1F8AC30704700BF0C
:10585000547D0020178C0100507D0020498C0100F0
:105860000DD80000358B0100E38B0100358C010061
:10587000174B184A9A60184ADA62184A1A61184A8D
:105880005A61184A9A61184A1A63184A5A62184AA1
:10589000DA64184A9A64184A9A63184B184A9A604C
:1058A000184A1A62184A5A60184A1A60184A9A62C4
:1058B000184ADA62184ADA60184A9A61184A1A6372
:1058C000184A9A64184ADA64184A5A62704700BF44
:1058D000807D0020A9580100E15C0100B75C010057
:1058E0007F5C0100656200006966000021650000C0
:1058F000C35F0100E35F0100C1640000108000206D
:10590000BF580100775F0100255901000F5B0100BE
:105910000F5F0100F75C0100295F0100F95E0100E3
:105920008760010027600100156001008B5F0100A6
:10593000174B184A9A60184A5A60184A1A60184A4F
:105940009A62184ADA62184ADA60184A9A61184A62
:105950001A63184A1A62184ADA64184A9A64184A8A
:105960005A62184B184A9A60184A5A62184ADA6200
:10597000184A1A61184A5A61184A9A61184A1A63F1
:10598000184A9A64184ADA64184A9A63704700BF42
:10599000C87E0020A9580100CF5801004F5A0100CD
:1059A0007D5D0100CF5D0100B9630000DF5D010096
:1059B00069660000C1640000C35F0100E35F01008D
:1059C0002165000058810020BF5801008B5F010055
:1059D000F95D0100B35D0100155E0100596400002E
:1059E000876001002760010015600100775F0100FA
:1059F000054B064A1A65064A5A65064B064A1A6559
:105A0000064A5A65704700BF807D00205D63010033
:105A100033630100108000201F630100F763010061
:105A2000044B054A5A65054B054A1A65054A5A65ED
:105A3000704700BFC87E0020136401005881002019
:105A40001F6301003D640100054B064A9A65064A42
:105A5000DA65064B064A9A65064A1A66704700BF21
:105A6000807D0020C54401007D450100108000209C
:105A700001420100F5450100054B064A9A65064AB8
:105A80001A66064B064A9A65064ADA65704700BFF1
:105A9000C87E0020394501004D4400005881002097
:105AA000014201006F46010001490248FFF7BCBEF8
:105AB00010800020807D002001490248FFF7B4BE1D
:105AC00058810020C87E00200E4B0F4A0F48104915
:105AD00010B51A600F4B104A104C1A60104A114B47
:105AE000C2F84041C2F844010F4AC3F84411C3F858
:105AF00040210E4BC3F844110D49C3F84021C1E9C0
:105B0000504010BD607D002095840100BB840100E1
:105B1000A7840100647D0020178501006D850100C8
:105B2000C87E0020588100202985010010800020B7
:105B3000807D00200B4B0C4A1A600C4B0C4AC3F8BA
:105B400004210C4B0C4AC3F800210C4B0C4A1A6080
:105B50000C4B0D4AC3F804210C4B0D4AC3F800212D
:105B6000704700BF4C7D0020135D0100C87E0020FF
:105B7000D1620000588100203B5D0100487D00207B
:105B80002F5E010010800020575E0100807D002004
:105B90009D5E010073B5044601A80E46FEF716FE91
:105BA00018B947F2B370FAF781FE5A220021019822
:105BB00013F016FE019B3F2E1D4605F8036F43D8D8
:105BC0003F2E4BD8DFE816F05C00620067006F00E4
:105BD0008D00A601A6019800AF009B00A601A601BA
:105BE000A000AC00AF004A004A00B300A601A60125
:105BF000D400C700DF000A011D014A004A00A601C7
:105C000022012E01320136013D013F0141014301D4
:105C10004C01560184018601940196015E018E01BA
:105C20008C0176016C016E017001720178017C01BA
:105C30007A018001A6014A007E017401820190016F
:105C40009201A00188018A01F72E00F0578108D83F
:105C5000E72E00F05781E82E00F0528140F28B5081
:105C6000A1E7F82E00F04881FF2EF7D1284694F8DE
:105C7000B722D4F8B8120FF0ABF994F8B70203E0EA
:105C8000214628460FF04DFF18BBD7E02146284695
:105C90000FF052FEF8E794F8B0206ABB94F83D216B
:105CA00002201A7115E0D4F88C2217205A60D4F81B
