:1000000000BC002091D30100D55A03007DD301002C
:100010007DD301007DD301007DD301007DD301009C
:1000200000000000000000000000000061D401009A
:100030007DD301000000000049D601007DD30100FE
:10004000C9D60100C9D60100C9D60100C9D6010030
:10005000C9D60100C9D60100C9D60100C9D6010020
:10006000C9D60100C9D60100C9D60100C9D6010010
:10007000C9D60100C9D60100C9D60100C9D6010000
:10025000C9D601004F880300C9D60100C9D60100E4
:10026000C9D60100C9D6010039880300C9D60100EA
:10027000C9D60100C9D60100C9D60100C9D60100FE
:10028000C9D60100C9D60100C9D60100C9D60100EE
:10029000C9D60100C9D60100C9D60100C9D60100DE
:1002A000C9D60100C9D60100C9D60100C9D60100CE
:1002B000C9D60100C9D60100C9D60100C9D60100BE
:1002C000C9D60100C9D60100C9D60100C9D60100AE
:1002D000C9D60100C9D60100C9D60100C9D601009E
:1002E000C9D60100C9D60100C9D60100C9D601008E
:1002F000C9D60100C9D60100C9D60100C9D601007E
:10030000C9D60100C9D60100C9D60100C9D601006D
:10031000C9D60100C9D60100C9D60100C9D601005D
:10032000C9D60100C9D60100C9D60100C9D601004D
:10033000C9D60100C9D60100C9D60100C9D601003D
:10034000C9D60100C9D60100C9D60100C9D601002D
:10035000C9D60100C9D60100C9D60100C9D601001D
:10036000C9D60100C9D60100C9D60100C9D601000D
:10037000C9D60100C9D60100C9D60100C9D60100FD
:10038000C9D60100C9D60100C9D60100C9D60100ED
:10039000C9D60100C9D60100C9D60100C9D60100DD
:1003A000C9D60100C9D60100C9D60100C9D60100CD
:1003B000C9D60100C9D60100C9D60100C9D60100BD
:1003C000C9D60100C9D60100C9D60100C9D60100AD
:1003D000C9D6010065880300C9D60100C9D601004D
:1003E000C9D60100C9D60100C9D60100C9D601008D
:1003F000C9D60100C9D60100C9D60100C9D601007D
:10040000C9D60100C9D60100C9D60100C9D601006C
:10041000C9D60100C9D60100C9D60100C9D601005C
:10042000C9D60100C9D60100C9D60100C9D601004C
:10043000C9D60100C9D60100C9D60100C9D601003C
:10044000C9D60100C9D60100C9D60100C9D601002C
:10045000C9D60100C9D60100C9D60100C9D601001C
:10046000C9D60100C9D60100C9D60100C9D601000C
:0C047000C9D60100C9D60100C9D60100A0
:10048000054B00221B78826001330260034A426000
:10049000C371FF23037270474010002080010800E1
:1004A000064A074B02604FF42472DB7882800822F0
:1004B000C371002382710372704700BF575201005D
:1004C00040100020064A074B02604FF43A721B7935
:1004D00082800822C371002382710372704700BFBB
:1004E000C541010040100020064A074B02604FF44E
:1004F000B8729B7B82800822C371FF2382710372D2
:10050000704700BFDF3B01004010002010B50446DB
:1005100003F024FC084A00EB4000D378C0001279B5
:10052000103013440022A080A26022600422E371F4
:10053000FF23A271237210BD401000202DE9F3416A
:10054000C41D0028064624F007040CBF00202046E6
:1005500000F090FC071E04DA6FF00B0002B0BDE85B
:10056000F0818E4D2989E8880331EB7A0330AA7A2D
:1005700089B280B210F0ACF9011EEDDBEB783C449F
:100580002A79002E04F10304134408BF002024F04C
:100590000304DBB218BF2046594300F017FE204485
:1005A0000EB9B042D8DBAA7B0446B2B12B7C697C81
:1005B00013441944FF29CFD80330002EAA89C9B2A9
:1005C00020F003040CBF0020204600F073FE00283A
:1005D000C2DB04440EB9B442BEDB714FD7F80080D1
:1005E000B8F1000F17D0E97BA9B195F83030002B96
:1005F00000F0FD8040234FF481720734002E24F078
:1006000007040CBF00202046C0470028A4DB044498
:100610000EB9B442A0DBA978A1B1AB7B1BB93B6892
:1006200083B1EB7B73B10734002E24F007040CBFB9
:100630000020204605F018FB00288DDB04440EB98D
:10064000B44289DB574B1B6893B1E97D81B1033418
:10065000002E2A7E24F003040CBF00202046984779
:100660000028FFF679AF044416B9B442FFF674AF20
:100670004D4B1B688BB1A97D79B10334002E24F05A
:1006800003040CBF0020204698470028FFF664AF03
:10069000044416B9B442FFF65FAF444B1F68B7B1CC
:1006A000697CA1B10334002E2B7D24F0030408BF24
:1006B0000020009318BF2046EB7CAA7CB847002896
:1006C000FFF64AAF044416B9B442FFF645AF384BC3
:1006D0001B6893B1E97D81B10334002E6A7E24F05A
:1006E00003040CBF0020204698470028FFF634AFD3
:1006F000044416B9B442FFF62FAFB6FA86F795F860
:1007000025007F09A0B10334AB7FE97E24F0070404
:1007100019443B4644F00404C9B2224600F0C4FE2A
:100720000028FFF619AF044416B9B442FFF614AF1F
:1007300095F8261000295DD004F10708002E2A8DB7
:1007400028F007080CBF0020404610F0D5F8041E22
:10075000FFF602AF4444002E4FD1B442FFF6FCAE88
:1007600095F82010002956D095F82430002B52D04F
:100770006A8C0734002E02F1240224F007080CBF13
:100780000020404692B210F0B7F80028FFF6E4AE21
:1007900040447EB9B042FFF6DFAE0BE040100020CF
:1007A000BC1D0020C01D0020CC1D0020C41D002049
:1007B000C81D002003306B7FE97E20F0070019443C
:1007C0003B4640F0040495F82400C9B2224600F0EC
:1007D0005DFE0028FFF6C0AE04449EB9B442FFF6A9
:1007E000BBAE6B6B13B3E6B16C630020B6E625239A
:1007F000282202E7002EB3D08846298D40460DF00E
:10080000D1F9ADE76A8C404695F82010083292B2D3
:100810000DF0CEF9E5E7002EE3D000221146104698
:10082000F6E728343FF598AE204697E6002EDCD157
:10083000FAE700BF014608B572B6094B9B6B0BB1D6
:1008400008489847BFF34F8F0749084BCA6802F41E
:10085000E0621343CB60BFF34F8F00BFFDE700BFE3
:1008600040100020E72D040000ED00E00400FA0530
:1008700013B5114C68466389ADF800302389ADF893
:100880000430E388ADF8023003F0E8F818B148F618
:100890005300FFF7CFFF207D03F036F910B14CF283
:1008A000CD70F6E7E07C03F029F910B144F29C50DA
:1008B000EFE702B010BD00BF40100020F8B50546BC
:1008C00000285FD00FF036FA18B94FF0FF342046F9
:1008D000F8BD0DF03DFEB0F5FA7FF6D82B4C0126A1
:1008E0002B4B0827A5630025284684F83C5025702B
:1008F00084F830501D6065630DF046F9254B2922C0
:100900002946601D1D6015F0ECFB1B2303221F21EF
:100910002846E38023810223A272E3722376F72321
:10092000E27349226384FB23A181294623854FF486
:100930008073E274E385A770E6702671A673A674CF
:10094000667684F82C6001F0FBFC2A46314630467E
:1009500001F0C8FC044618B14AF6B030FFF76AFF50
:10096000014601F0DBFC0A2003F0F2F938460BF0F7
:10097000C5FDEFF3108572B600F0BCFD002DA6D1C9
:1009800062B6A4E76FF01504A1E700BF4010002095
:10099000BC1D0020C81D002038B51446002840F0BA
:1009A000E780754D95F83C30032B00F0DE8019B3DD
:1009B00012B96FF0150038BD0139172900F2D8803F
:1009C000DFE811F0180029002C0043006D007500CD
:1009D0008E00490078007B0088004F0055006300BE
:1009E000680094009700A500A800AB009D00AE0031
:1009F000B200CB001378EB700020FFF79FFD0028BA
:100A0000B7BF012302236FF00B0085F83C30A8BF6D
:100A100085F83C30CFE713782B71EDE71379002B85
:100A2000C7D05379002BC4D01288FB2AC1D8638861
:100A30001B3B9BB2E02BBCD81A2ABAD92368A288E8
:100A4000C5F806304D4B9A80D6E713782A7C93423E
:100A5000AFD3AB73D0E71378AA7B9342A9D82B749A
:100A6000CAE71378AA7B9342A3D86B74C4E71378C0
:100A7000002B9ED05378013BDBB2F82B99D813881A
:100A800092786B823E4B9A70B6E7107868750BF0DF
:100A900041FDB1E71378002B8BD06B76ACE7137870
:100AA000384A12680AB1012B83D9EB73A4E7138883
:100AB000AB81A1E71378EB759EE71378324A126891
:100AC0002AB9012B7FF675AF23782B7694E7002B9C
:100AD000FAD16EE71378082B3FF66BAFAB758BE757
:100AE0001388FF2B3FF665AFAB7085E71378AB76C5
:100AF00082E713780E2B3FF65CAFEB767CE723683A
:100B0000224A2B62636853602389138174E7137848
:100B10002B7771E71378AB776EE713786B776BE71A
:100B2000137885F82A3067E701F0D6FB98B1007991
:100B300000F001026178207801F0D4FB00287FF4F6
:100B40003AAF6378012B7FF657AF0DF023F80028FA
:100B50007FF452AF2DE70246ECE71078431E092BD5
:100B60003FF627AF03F0F4F846E74FF0FF3022E7F7
:100B70006FF02C001FE700BF40100020461000203F
:100B800052100020BC1D0020C81D00206010002055
:100B9000F8B507460D4630B329B311F0070422D14A
:100BA000124E96F83C30012B02D16FF00B00F8BDCD
:100BB000032B02D14FF0FF30F9E700F0D1FC002801
:100BC000F8D02846FFF7BAFC0028EEDB14F069FDE8
:100BD0003846716B03F036F8FFF74AFE03232046D0
:100BE00086F83C30E3E76FF01500E0E740100020A6
:100BF00010B5074C94F83C30032B03D103F03AF8BE
:100C000003F0E4FE0FF0B6FF002084F83C0010BDB6
:100C10004010002008B5064B93F83C30032B03D05E
:100C200002F00CF8002008BD4FF0FF30FBE700BFDA
:100C30004010002008B502F0B1FF03490420BDE8D0
:100C4000084000F00FB900BFE904000008B502F049
:100C5000B9FF03490320BDE8084000F003B900BF15
:100C6000C504000008B502F0CFFF0649012000F0DE
:100C7000F9F80549002000F0F5F8044B044A1A6021
:100C800008BD00BF81040000A1040000BC1D0020BD
:100C90007DA6000008B50549132000F0E3F802F036
:100CA0005DFFBDE808400BF01DBC00BF0D05000056
:100CB00008B50549132000F0D5F802F04FFFBDE854
:100CC000084008F0C5B900BF0D050000074B4FF004
:100CD000FF3141F6FF72C3E9001205490022C1E964
:100CE00000221F21C3E90212704700BF2005002027
:100CF000801000203F280CD801380B4BC0F3421263
:100D000000F01F0053F8223023FA00F000F0010039
:100D10007047FF2806D04038044BC0F3421200F061
:100D20001F00EFE701207047200500208010002001
:100D3000054A014600681346496803C340F48C2302
:100D400000201360704700BF200500200246034BBF
:100D50000068516803C30020704700BF8010002066
:100D60000246034B0068516803C30020704700BF70
:100D7000280500203F280DD80138074BC0F3421248
:100D800000F01F0003EB82039B6823FA00F000F0E1
:100D90000100704700207047200500200A8870B5C8
:100DA00095B2C67BC2F30E020488023602F110032C
:100DB0003444C35AA4B233442344013BB3FBF4F399
:100DC00003FB0422438892B29342034B8ABF2B4019
:100DD000AB4313430B8070BD0080FFFF08B54B1E73
:100DE000062B03D84CF2A650FFF724FD094B99427D
:100DF00002D947F24660F7E719B900B10160084629
:100E000008BD28B103680022C3E901211A1D1A6038
:100E10000431F4E7FAFFFF7F10B5114B00EB4104FA
:100E20001A786389B3FBF2F303FB0223013A1A44F5
:100E3000B2F5706F027928BF00231A448378B2FBA1
:100E4000F3F0194403FB1020091AB1FBF3F003FB84
:100E5000101313446FEA43436FEA5343638110BD99
:100E600088100020024B03EB80035960704700BFDD
:100E7000881000202DE9F04F10F0070A85B00546D4
:100E800003D04EF6A700FFF7D5FCDFF85C810446DF
:100E90004FF0010B08F16006B1463746D8F8003034
:100EA0008DF80BA043B101A898479DF80A30082B94
:100EB00002D94CF63910E6E79DF80B1059BB05B185
:100EC000316008F104080436C845E7D1002D73D01D
:100ED0000023DFF818914FF0170C984689F800307E
:100EE00057F82CA00CF1FF3CBAF1000F54D09AF83F
:100EF00004609AF802E0FF2E46D060460022411CB2
:100F000037D19644BEF1FF0F3FD90BB189F800806D
:100F100044F6E620B7E79DF80A00BDF808204342F2
:100F20000244013A1A40B2F5803F02D34EF6165001
:100F3000A9E7022801F1050338BF022004EB4304AE
:100F400000F1FF3C4042644404407DB1A4EB430304
:100F5000336099701A8083F803B09DF80C00187103
:100F600001984FEA104C1881A3F806C002FB014417
:100F7000A7E757F8201029B191F804B0B34504BF92
:100F8000897852180138BAE70022F0458AF804201F
:100F90003CBF5FFA8EF80123BCF1FF3FA0D10BB13B
:100FA00089F80080172640F6FF6A57F82680B8F1C6
:100FB000000F15D1013EF8D2601B05B0BDE8F08FDF
:100FC00008EB410309F101094046A3F80AA0FFF725
:100FD00023FF5FFA89F198F802308B42F0D8E9E7F5
:100FE0004FF00009F5E700BF8C10002088100020AA
:100FF00038B54FF6FF730380174B03EB81035B6E2D
:10100000ABB19C781A79B2FBF4F104FB1122D2B295
:10101000114603EB4105B5F90A50002D0FDB0131F4
:10102000B1FBF4F504FB1511C9B28A42F1D10020DD
:1010300038BD18466281BDE838400FF026BC03EB8E
:1010400041046289C2F30E020280D8780028F0D1F0
:101050004FF6EF10FFF7EEFB881000201A4B03EB62
:10106000810370B55C6E05461CB3030421D40146B0
:1010700020460FF0EDFBFF28014604D02046BDE8D6
:1010800070400FF002BCA078B5FBF0F300FB1353E7
:10109000DBB219460A1D04EB4206B6F90260002EC7
:1010A00009DB0131B1FBF0F200FB1211C9B28B4236
:1010B000F0D1002070BD8B4201D00023E37004EB1F
:1010C00042025580DAE700BF88100020094B03EB8D
:1010D0008103014610B55C6E20460FF0B9FBFF2876
:1010E000014604D02046BDE810400FF0CEBB0020E2
:1010F00010BD00BF88100020F8B5104B074603EB69
:10110000810301465C6E20460FF0A2FBFF280646D5
:1011100011D0E288238953EA024506D001462046D1
:101120000FF0B3FB01463846A84720463146FFF78B
:1011300073FE0020F8BD0520FCE700BF88100020EA
:1011400038B50E4B0446827903EB8203586E08B91A
:10115000052038BD8278E1799142F9D24B1CE371C8
:1011600000EB41035D89B3F90A30002BF3DBA58066
:101170000FF08BFB20600020EBE700BF8810002001
:1011800008B5114B03EB81035B6E1BB94EF6C5200E
:10119000FFF750FB9A78C01A511DA0EB4100198847
:1011A000B0FBF1F0002801DB824202DC41F2B740E3
:1011B000EEE703EB40035889B3F90A30002B02DA5B
:1011C0004EF63450E4E708BD8810002070B50446A0
:1011D00010F003000E4603D04BF6BD00FFF72AFBCC
:1011E000FFF7FCFD054624B1034831460460FFF7D4
:1011F000F5FD284670BD00BF4C1100202DE9F14FD0
:10120000DFF874B01E4680460D46DBF8003091468C
:101210009DF828A09DF82C701BB945F61E00FFF71D
:1012200009FB5246092148460FF0DBF93A4684B2E1
:10123000092130460FF0D5F981B2DBF800002144D6
:101240000FF0DBFAC8F8000018B9286001B0BDE85B
:10125000F08F20445346494609222860D8F8000000
:101260000FF086F93B4609223146286801B0BDE8F7
:10127000F04F0FF07DB900BF4C11002070B50E4645
:1012800004460FF0C1F9054630460FF0BDF9044B96
:101290002A1821461868BDE870400FF0D2BA00BF86
:1012A0004C110020024B186808B10FF09ABA704731
:1012B0004C1100201F2AF8B50ED89200033222F0FC
:1012C0000303B3F5803F2ED2184CB0B1850711D07F
:1012D0004FF6FC00FFF7AEFAFF2A4FEA420304D9AB
:1012E000FF329A42A8BF1A46E8E77C2BB8BF7C239E
:1012F0001A46E3E721706060238122F0030228236D
:101300006468002512044B430127120CEEB2B1426F
:1013100001D81846F8BD10B1C6182770666013448E
:1013200001352834F2E74FF0FF33F2E75011002087
:10133000154A002170B553681578C8B2854203D8A4
:1013400049F28140FFF776FA1C461846013114F83D
:10135000286B0EB92346F0E7002199700124128909
:10136000996103F126055C709208D96103F11E04AE
:10137000596824F8022FA54243F8041F1144F8D1FC
:1013800000234361037070BD501100200A4B1B897C
:10139000B3F5FF7F4FEA930006D25A089B1A9BB21F
:1013A000984238BF18467047B3F5EE6F01D8FF2258
:1013B000F4E740F27263F3E7501100204B782DE917
:1013C000F04106460C4602F0040702F0FB05EBB1C3
:1013D000002D34D1FF23A3707B0804EB57073A7D1F
:1013E000032A02D1022D18BF0133E218012103F1B3
:1013F0000C0004EB8303117500225B6824F81020B5
:10140000A2703046C6E90032BDE8F081002DE1D17E
:101410000123084601F11E028D614B7004F1260C78
:10142000194BCD611B8949689B0822F8023F9445FE
:1014300040F8041F1944F8D100236361CAE7D1F8CA
:10144000048014220021A018617014F04AFE0E4B93
:101450001B89B3F5FF7F0FD25A089B1A9BB208EB8A
:101460000301C4F804802384A1606284C4F80C8062
:10147000A3842161E284ADE7B3F5EE6F4FF0FF0284
:10148000EBD940F27263EAE75011002007B5CDE9CD
:1014900000230B4603490246081D0FF045FB03B02D
:1014A00000BD00BF7C11002013B5CDE900230B4621
:1014B0000246034903480FF037FB02B010BD00BFDE
:1014C000841100208811002008B54B1E032B03D97E
:1014D0004CF27300FFF7AEF90028054A0CBF052354
:1014E0000C2303EB8103053323F00103137008BDC4
:1014F0008C110020114B01224FF0FF3000215A6067
:10150000C3F80803C3F80015C3F804255A6040F671
:10151000FE72C3F808034020C3F8001503F57033CA
:101520000749C3F80825C1F88800BFF34F8FBFF300
:101530006F8FC1F88801C3F8082570470060045018
:1015400000E100E002680020014B1A60704700BF14
:1015500090110020014B1B68184700BF901100201C
:10156000024B1868003818BF012070479011002006
:101570000A4606489C2302F8033BC368C1F80330BF
:101580000369536043699360704700BF9411002062
:10159000024B5A8C02435A845B6A1847941100200C
:1015A000014B00215B6A18479411002010B5154CBF
:1015B0000BF062FF0CF070FA208DFFF7F1FF237E35
:1015C00063B12246104904F1190052F80C3BE36064
:1015D00063685360A368936011F0EAF8218DE06AB4
:1015E00004F09EFCE36AB3F8B20004F0F3FA636B14
:1015F00094F8301094F831009847002384F838307C
:1016000010BD00BF9411002071150000034B93F82A
:1016100038300BB1FFF7CABF704700BF94110020EC
:101620002DE9F0412B4C06468846E06A0FF0CDFAD2
:1016300010B10120BDE8F081E56A95F8B0704FB3B4
:10164000012E09D1638C1A0706D594F83930002B86
:10165000EFD12B7C082BECD0B8F1010FE9D894F82E
:101660003030002BE5D1238D9906E2D4D7B9012E75
:10167000E0D10BF0BBFA6B698342DAD3AB7C002B71
:10168000D7D1638C8FB19A070FD594F8390080F0C9
:101690000100CFE7002EDFD1638C5B07DCD52B7C0C
:1016A000072BD8E7002EC5D1E3E7002BC1D194F872
:1016B0003A301BB994F83B30002BBAD0E36AD3F828
:1016C0001821B3F82431108A98422CBF0020012041
:1016D000B0E700BF9411002070B5194C4FF481732E
:1016E0000646E56AE06B6364AB7EB4F85010206494
:1016F000DBB90BF0FFFD0CF0CFF97EB995F8313175
:10170000B5F8EA10033BDBB2012BB5F8EC308CBF27
:1017100030462820184480B20BF052FE00200BF017
:101720008DFE022384F8383070BD0431606D89B2BB
:101730000BF0E0FD616D206C0CF044F9DDE700BFBB
:101740009411002008B5084B93F83820022A03D0E2
:1017500049F6FB50FFF76EF8DA7A42F00102DA72CE
:10176000BDE80840FFF722BF9411002010B590F8A3
:10177000761086B0D1B9C2880B4605910021CDE91B
:1017800003110C49B1F85040029400F198040194FF
:10179000C96A91F8B010003918BF0121009100F119
:1017A000880102200CF01EF806B010BDD0E92023FD
:1017B000E3E700BF941100202DE9F041264C0646D6
:1017C000884694F83870012F03D049F2C870FFF7AB
:1017D00031F8E56A2B794BB1002104202971FFF71C
:1017E000D7FEE36A93F8B03003B16F7194F85830C4
:1017F0008BB92B7A052B0ED118490220FFF7C8FEB2
:10180000E36A93F8B03033B1636E1B789A1E53428B
:10181000534184F839301EB1BDE8F041FFF7C6BE30
:10182000B8F1000FF8D031463046FFF7F9FE002836
:10183000F2D1AB7EE46A13B12846FFF797FF94F824
:1018400031210120B4F8EA100BF056FC0020BDE86D
:10185000F041FFF741BF00BF94110020F8110020B4
:101860007FB590F87610C9B9C2880B460591002162
:10187000CDE90311FB21029100F198010191094981
:10188000C96A91F8B010B1FA81F14909009100F1EB
:10189000880104200BF0A6FF07B000BDD0E91E238D
:1018A000E4E700BF94110020164AD16D10B54478CA
:1018B0000B7864F3C303847864F38203C47864F31D
:1018C0000413047864F301030B70B2F868304B70B2
:1018D0000223D16DA2F8603000790B78012860F303
:1018E00045130B700CD1D36A93F8C22093F8C33020
:1018F000032A03F01F0308BF002243EA82138B7000
:1019000010BD00BF9411002073B5144C0646E56E5F
:101910000DB1A36C1BB942F6D410FEF78BFF2A78E9
:101920002B4661F3010203F8032B1846B4F84C2050
:10193000A16C0EF067FB0DF1020201A9A064206FFB
:1019400025640EF044FF01980EF02FFFB4F84C1000
:101950003060206F0EF00BFF02B070BD94110020BC
:101960002DE9F04FAD4C87B000238146D4F82C8090
:1019700004AA049302A98DF81430404684F8583024
:1019800001AB0FF017F90746002841D0029A1AB9A7
:1019900040F6F520FEF74EFFBDF80430E265A4F8EE
:1019A000683003B1D31C6366012384F858309DF876
:1019B000133004A8003B18BF012384F83A3098F88C
:1019C0001930002B00F05D81B4F86830002B00F076
:1019D0005881FFF769FFFF21606D0BF08BFC9DF8CC
:1019E0001420616D003AE06D18BF01220BF004FE77
:1019F00018B9E16D606D0BF07BFF01200BF01EFD4F
:101A0000012384F8803084F8383007B0BDE8F08FC7
:101A1000E56A8DF803002B7AADF80600062B00F27C
:101A20001481DFE813F007001501E500E50012015D
:101A3000010101010023A5F84C3095F8B030002BCE
:101A400045D1B4F878200DF1060103A8A5F82421AA
:101A5000ADF8062002F0A8FBBDF8063000286ED0D5
:101A6000039E002E6BD0012284F87A2005222A7270
:101A7000E665A4F8683003B1F31C63666A7A2E7ACF
:101A80008DF81120022EAA7A8DF8122004D0053E7E
:101A9000012E8CBF012603268DF81060002F00F068
:101AA000DA8000209DF810308DF81300032B40F0F1
:101AB000E680636E1B781B2B40F0E180012105F16D
:101AC000C2000BF0B7F801238DF814306FE7AB7B41
:101AD000243BDBB2072BB4D9EB7B243BDBB2072BD7
:101AE000AFD995F830610BF07BF8E26A032800F17A
:101AF000FF3006F1FF3614BFB2F81E311B23C0B20F
:101B0000B2F81C219945F6B236BFA3EB09030023B6
:101B10009BB2032896BF424904210956032E01FBBC
:101B200003F397BF3E49042189190979B3FBF1F307
:101B3000B4F878100B449A4228BF1A4683E7002B6A
:101B40004FD0E36A93F85D30002B4AD10DF10302C8
:101B50000DF10601E06F0EF07DFD0646002840D035
:101B60009DF803705FB900233380B37003232B7299
:101B70000123002784F87A30BDF8063078E7014663
:101B8000E06F0EF00EFE0EF010FED0F800B0D0F8B0
:101B900004A081465BEA0A031DD100239DF80320BF
:101BA00089F8003089F8013089F8023089F803306B
:101BB00089F8043089F8053089F8063089F807304B
:101BC000002AD0D0327802F00302012ACED00222BD
:101BD0002B772A72CCE713F0DFFE83457AEB010105
:101BE000DBD2002301220F4EADF806302A723FE708
:101BF000B5F824310DF103020DF10601E06FADF8E7
:101C000006300EF027FD064610B94DF64700C1E636
:101C1000012384F87A30BDF8063029E794110020BA
:101C200003AE0300081200200DF1060103A802F024
:101C3000BBFA08B1039E16B945F24E40AAE601234D
:101C400084F87A3006232B72E5E74DF63B60A1E677
:101C5000144E00230CE7032E03D11B78022B3FF414
:101C600020AFE06F0EF04DFD38B9032E3FF419AFF1
:101C700002F0B8FA80F0010014E7012012E7002317
:101C800022E7FFF711FEE06DFF210BF033FB0BF0B5
:101C900003FF9DF81410E06D003918BF012113F007
:101CA0005AFDAAE6081200202DE9F04FA94C87B092
:101CB0000027804694F83830E56A022B5FFA83FAF1
:101CC0000191CDE9027703D045F22F60FEF7B2FD16
:101CD000216C03200B784A780144A4F84400A164E5
:101CE00003EA0001A4F84C208DF81010C3F3C001E2
:101CF0008DF81110C3F380018DF81210C3F3001199
:101D0000C3F340138DF813108DF81430B8F1000FA1
:101D100000F06C8104A928460EF04EFF064630B94B
:101D2000B4F84C1041B3206F0EF00BFD0746238D25
:101D30006A7A43F400739DF812100132E766238536
:101D400002F0010399425BD12B7AEBB1032B6A724B
:101D500014D8012B08BF4FF0010AB5F84C30BAF186
:101D6000020FA5F84E3015D102A9E06F0EF095FCD8
:101D7000E8B94DF29950A9E70746D8E7053B012B92
:101D800005D940F66E70A1E74FF0040AE5E74FF081
:101D9000030AE2E7BAF1030F10D102F015FA10B905
:101DA00048F2D64092E700210820FFF7F1FBD5E981
:101DB0001E32013342F10002C5E91E320021E36AFE
:101DC000297293F8B0302BB16B791BB11020697177
:101DD000FFF7DEFB238D4FF0000A43F400632385F9
:101DE000AB7EDBB1B4F84C30C3B10BF06FFE03280F
:101DF000FBD0022806D1FFF7D9FB07B0BDE8F08F72
:101E0000C246EDE750B9AB7A9DF8112003F001030B
:101E10009A4203D1012384F83130ECE7B4F84C70D6
:101E2000002E68D09DF81330591E4B424B4184F868
:101E30003B30002F40F0F5800027B946019B05F1AB
:101E4000B00B002B00F0F8800BF016FBB9F1000F7F
:101E500000F013819DF8101003A8FFF755FD01272E
:101E6000238D5A0606D44020FFF79AFB238D43F0BA
:101E700040032385E06ABAF1000F0FD0EB8843B925
:101E800090F8B0302BB1B4F80530B4F80720134304
:101E900004D0B4F809300133A4F80930B8F1000FC8
:101EA00000F0FB80B4F805300133A4F805300023BE
:101EB00084F8823003F07EFE029830B10EF075FC9B
:101EC00000220272594602F099FE039B33B10022B0
:101ED0001A720C225946039802F05EFE002F8AD136
:101EE000238D1B0689D48020FFF75AFB238D43F0F6
:101EF0008003238581E7AB7A9DF8112003F001036D
:101F00009A4223D19DF81030002F32D05A1E012A58
:101F10002FD8238D95F81AB043F4805323850AF007
:101F20005FFE0328B5F81E3106D1B3450CBF1F2252
:101F30001B22934228BF1346B4F84C209A420BD977
:101F400094F8303043F0100384F830304FF000093B
:101F500033E000BF94110020E36E002BF6D094F81C
:101F6000813023B1238D43F020032385EEE79DF8D4
:101F70001030AA7A032B02F10102AA7210D1238D2C
:101F80000120494943F4805328712385FFF700FB62
:101F9000D5E92032013342F10002C5E92032D5E70C
:101FA0005A1E012A1DD8002FD0D0C146D5E92032B3
:101FB000013342F10002C5E92032E26E9DF81310B0
:101FC000002A37D1B4F84C20B2FA82F25209012922
:101FD00014BF002202F001023746002684F83B209D
:101FE0002CE7002FB2D0002BB0D1D1E7AB7E0BB1E4
:101FF0000BF086FD94F88230013384F88230238D13
:1020000043F4806323850AF0EBFD03280ED1B4F876
:102010004C604FF000091B2ECA4694BF00260126D3
:10202000CBE7238D43F48053238505E70026B14693
:10203000B246C2E70122CAE794F882100120FFF7F6
:10204000EFFA00287FF400AF6A7E12B12846FFF74E
:1020500007FC002095F83021B5F8E8100BF04CF89B
:10206000B4F84C00FFF77CFCB9F1000F0DD09DF8DF
:10207000101003A8FFF748FCF2E6002E3FF4EFAE85
:102080000949E06A0EF09AFDE9E6002E3FF4E8AE59
:102090000549E06A0EF092FDE2E6B4F8073001333C
:1020A000A4F8073006E700BFDC110020064B10B58E
:1020B00093F8382002F0FF0422B91C7603F028FFC1
:1020C000204610BD0C24FBE794110020094B0A4A5E
:1020D00010B51A60FFF7EAFF18B148F67620FEF750
:1020E000A9FB064C01F0E2FDE06301F0E3FD606551
:1020F00010BD00BFD01D0020C82200009411002098
:1021000070B55D4C054694F8386006F0FF000EB9D6
:1021100001B11AB940F60430FEF78CFB84F8813027
:102120006162626384F8300084F8820084F83100D0
:1021300084F880006084208584F83A0084F83B00AD
:1021400084F87A0084F83900E0656066A4F86800D5
:102150002064A064A4F84C00E5620AF099FD0BF03D
:102160009BFC95F938010AF0F5FDD5F8DC60D5F84F
:10217000D4000AF0F7FD30460BF09EF895F82B00DE
:102180000AF0FAFDB5F8E8305D2B03D9B5F8EA306E
:102190005D2B01D80AF01CFDE36A93F8B060002EB5
:1021A00052D103F099FE95F83021344B4FF47A71F7
:1021B00053F8223003F5FA73B3FBF1F333331918F4
:1021C00030460AF003FF2E4B18680BF07BF8D5F869
:1021D000C830E367D5F8CC302367AB7B243BDBB258
:1021E000072B39D9EB7B243BDBB2072B34D9B5F86D
:1021F000FA30B5F81E61A4F8783002F04BFEB04218
:1022000038BF3046A4F850000EF0DBFCE36A93F8C8
:10221000B0301BBB6B7E13B12846FFF721FB0020BB
:10222000FFF79EFB002323606360A360EB8863805D
:10223000B5F8B230238095F82B302371D5F83431BE
:102240000BB101221A6070BD03F046FE95F83121F2
:1022500000F155010120B4E71B23CAE7AB7E13B19F
:102260002846FFF783FA0120FFF736FAE36AD3F82E
:10227000E8010BF073F8D5E79411002010B10300CA
:10228000D01D0020014B93F880007047941100206E
:10229000054A92F87A00138D10B113F4C06F01D182
:1022A000C3F30030704700BF94110020024B93F835
:1022B0002900C0F3C000704794110020014B93F82F
:1022C000820070479411002045170000A91C0000EF
:1022D000B91700000D160000014B1868704700BFC9
:1022E000C812002008B5431E032B11D84B1E032B28
:1022F0000ED8094B012959700CBF00210A21987092
:102300001A71997201461046FFF7DEF8002008BDE9
:102310006FF01500FBE700BFD8050020074A537A8D
:1023200040B143F00403002953720CBF002307237C
:102330005371704703F0FB03F5E700BFD805002099
:1023400040EA4100014BD870704700BFD80500201B
:102350002DE9F341002407468846114D26462B7887
:10236000CDE900668DF806306846FEF7E9FE28B133
:1023700001340435082CF2D1002005E06B88009A66
:10238000D058B84203D1012002B0BDE8F081B8F1C5
:10239000000FE9D0784010F010FC0128E4D8F2E7F3
:1023A000300C010010B504460EF013FC08B90020F3
:1023B00010BDE0430EF00DFC0028F8D0E31683EAD0
:1023C000A4635A1E1A42F2D0E3B25A1E13405A1E98
:1023D0001342ECD0A0B210F03AFC0B28E7D820460C
:1023E00010F031FC1828E2D8A3B2B3EB144F04D19B
:1023F00084EA142313F0FF1FD9D0044B63405A1E04
:102400001A4214BF01200020D2E700BFD6BE898E39
:10241000F0B5070C164BA7F5AA4203EA9023543AED
:10242000012A20D927F4004042F6AA22801A18BFB8
:102430000120002216211F24164687EA060562EABB
:102440000505013511D0DD0301394FEA5303ADB263
:1024500045EA56064FEAC4354FEA5404ADB245EAA0
:102460005202EAD1F0BD0020E3E70020FAE700BF06
:10247000E0FF3F0070B5BDF81840BDF810608C4219
:10248000BDF814501BD8B1F5486F18D8944216D82F
:10249000B2F5486F8CBF0024012490B91A48C07A65
:1024A00090B19CB96FF4506C01EB0C00062804D875
:1024B0006FF450601018062808D9204670BD00241B
:1024C000EBE790F88900EBE7002CF6D0914219D8A1
:1024D00003FB0555B5F5FA7F14DCA6F10A0340F6B7
:1024E00076409BB283420DD810460EF0D1FB42F2EB
:1024F000107300FB05F15E43B6EB410F8CBF012466
:102500000024DAE70024D8E7D01200200138C0B256
:10251000032808B503D94EF23F70FEF78BF9014B43
:10252000185C08BD24AE03000138C0B2032808B50A
:1025300003D94EF23F70FEF77DF9014B185C08BDE0
:1025400080AE03000138C0B2032808B503D94EF2AB
:102550003F70FEF76FF9014B185C08BD7FAF0300B9
:102560000138C0B2032808B503D94EF23F70FEF718
:1025700061F9014B185C08BD54B00300F7B50023A6
:1025800005460E461746CDE900336846FEF7D8FDEE
:1025900008B100201AE0009CAC42F6D0304604F1AD
:1025A000B5030EF055FB394694F8B4200FF0A0FBAC
:1025B0000028EAD004F1BC0394F8BB2005F1BC016B
:1025C00095F8BB000FF094FB0028DED003B0F0BDFF
:1025D000054A516A02F11D03127F11F8030BC0F383
:1025E00080100FF085BB00BF4C180020012817D8C1
:1025F0000D48824216D8012B0DD140F252739A42F7
:1026000010D9A1F6C410094B98420BD88A428CBF4E
:10261000122000207047042BF3D140F6C313EEE7DD
:1026200012207047302070478FFD7002CBF370028C
:1026300010B504460A4812F053F80A49204608F03B
:102640000BF9204611F07FFF38B1204607F064FDFA
:10265000204612F042F8002010BD1220FCE700BF17
:1026600008130020101300202DE9F04398467F4BFB
:1026700085B004467E4D0F46186816461B790290B9
:102680008DF80C3095F86A3013B102A802F0B8F852
:10269000394620460FF061FC6B69C4F8F03096F8BB
:1026A0004A2006EB4202B2F82A9048460EF0F0FAB1
:1026B00001466FF450608144B9F1060F7ED9908CC9
:1026C0004FF096120EF0E4FA0023C4F8E82040F22E
:1026D000E24284F83A31A4F8EC3003F0A7FB40F270
:1026E000E2430146A4F8EC31C4F8D010C4F8E81174
:1026F00001F028FB8306A97A53BF1B236B88AA88A5
:102700001A46A4F8FC305B4BA4F8FE201B6884F842
:10271000F8101BB194F9381138469847EB7A2046E7
:10272000003B18BF012384F839310EF050FA524BA8
:102730001B681BB15149B4F8B20098470123A4F8B3
:10274000E6304F4B1B681BB14E49B4F8B2009847B6
:102750004D4B1B681BB14D49B4F8B20098474C4B28
:102760001B6813B1B4F8B20098474A4B1B6813B109
:10277000B4F8B2009847484B1B6813B1B4F8B200E4
:102780009847464B1B6813B1B4F8B2009847AB8822
:1027900004F1C8006A8869780333033201919BB25F
:1027A000297892B2009104F1CC01FEF727FDD4F80C
:1027B000C83083B94AF64950FEF73CF8012384F843
:1027C0003A314FF04D13C4F8E8300023A4F8EC3050
:1027D0004FF47A7386E7D4F8CC3013B945F6CF00BE
:1027E000EAE70EF006FAC4F8D400B8F1000F05D0FD
:1027F00002F06EFB20F07F40C4F8DC0096F84A300F
:102800002046A96906EB4306338EA4F8D830F38E30
:10281000A4F8DA3012F0EAFB02A904F11D000FF06F
:102820002EFC95F86A3013B9FF2384F83532EB6E2D
:102830000BB1204698471A4904F1B0000EF0BFFFD3
:1028400002F046FB0C23B0FBF3F202FB1300431D26
:102850000D30DBB2C0B2082B98BF0346204684F887
:1028600029300FF070FB05B0BDE8F083DC3D0400BB
:10287000D0120020EC1D0020001E0020F8120020C5
:10288000FC1D00202E130020F81D00202013002026
:10289000E01D0020E41D0020D41D0020041E0020A7
:1028A000D612002010B504210020FEF70FFC0446CC
:1028B00068B90421FEF7D2FB044618B946F6BC10ED
:1028C000FDF7B8FF034B93F9701011F04DF9204656
:1028D00010BD00BFD0120020014B5888704700BFC8
:1028E000D0120020014B93F824007047D012002032
:1028F00038B50FF0FCF9002501F0B4FD214C01F0D2
:1029000085FA0FF02EFF03F0C1F901F099FF09F0ED
:102910004DFE012001F0D2F91B4B1C4A29461D60D7
:102920001B2304F14000A4F868502581E572A573CB
:1029300084F8355084F83E50C4E90023F92310226E
:10294000A381134BA3634FF4E063A38713F0C9FB88
:10295000012342F2107204F15E0084F840302374C7
:10296000C4E9112212F036FD04F1500012F056FDB8
:102970000022002384F8805084F82450C4E91E23E8
:1029800038BD00BFD0120020E81D002003021B004C
:1029900001010002064B41F64C521B21DA6199728B
:1029A000C3E9052241F288321A62FFF7A1BF00BFD6
:1029B000D012002073B5404D04466B69AE7AC0F862
:1029C000F030EB7A003B18BF012380F839313B4BE4
:1029D000C0F8D03002F058FA002818BF002601F0E5
:1029E000B1F9830684F8F86053BF1B236B88AA886B
:1029F0001A46A4F8FC30324BA4F8FE201B6823B121
:102A000094F93811B4F8B200984720460EF0DFF878
:102A10002C4B1B681BB12C49B4F8B20098472B49CA
:102A200004F1B0000EF0CBFE0123A4F8E630284BF1
:102A30001B681BB10021B4F8B2009847254B1B68F6
:102A40001BB10021B4F8B2009847234B1B6813B1A7
:102A5000B4F8B2009847214B1B6813B1B4F8B20028
:102A600098471F4B1B6813B1B4F8B20098471D4B31
:102A70001B6813B1B4F8B2009847AB8804F1C800E2
:102A80006A8869780333033201919BB2297892B244
:102A9000009104F1CC01FEF7B1FBD4F8C8301BB9AA
:102AA00042F20B20FDF7C6FED4F8CC3013B94FF636
:102AB0005420F7E702B070BDD012002000093D009D
:102AC000EC1D0020001E0020F8120020D61200206D
:102AD000FC1D0020F81D0020E01D0020E41D00204A
:102AE000D41D0020041E00202DE9F34105460F46A9
:102AF00011F07AF8002800F09080284611F0A1F932
:102B000040B1B7F80130013B7F2B03D9122002B04E
:102B1000BDE8F081284611F098F908B90C20F6E7D5
:102B2000284610F0E5FE0028F8D1284611F006F8F6
:102B300006460028F2D1284604F084FE0028E5D09D
:102B4000F9782846B7F8018011F066F90521387840
:102B5000FEF7BCFA044607213878FEF7B7FA24B12D
:102B600038B14CF25120FDF765FE08B3044690F8E9
:102B7000E5602B4F3B68DBB14034204610F052FC3F
:102B8000B0B1204610F03FFC90B93EB1254B204635
:102B90001B68984760B14DF27350E4E72249324612
:102BA0003B682046C969984710B140F6B920DAE77A
:102BB00042F21073284603FB08F811F03AF9014677
:102BC00038B94246284603F0F3FE20B34FF688009A
:102BD000C9E703210DF10600FEF70AFA044608B919
:102BE0000D2094E7BDF806100FF0E6F921462846BF
:102BF00011F05BF92046FFF7DDFE424621462846EC
:102C000003F0D6FE10B141F2D770ACE7064BDB6E95
:102C10000BB120469847002079E7422077E700BFB4
:102C2000F41D0020F01D0020D0120020024B1B6874
:102C300003B118470C207047E81D002008B509F0C3
:102C400081FC0EF053F8024B83F8700008BD00BF02
:102C5000D0120020014B93F970007047D012002071
:102C6000034B5A8802801B7883700020704700BF96
:102C7000D012002070B5837806461A2B08D8042B92
:102C800004D92C4A22FA03F3DB0705D412200BE007
:102C9000292B01D03B2BF9D130880FF02EF970B1E0
:102CA00090F83C210AB10C2070BDB27880F83D212B
:102CB000FF2280F83C210EF002F90020F4E70A21FF
:102CC0003088FEF703FA044690B3B0F8AC010FF079
:102CD00014F905460028E6D00921B4F8AE01FEF744
:102CE000F5F918B949F2BC00FDF7A4FD03781BB94A
:102CF00094F8C831032BD6D195F85231002BD2D19C
:102D000094F8F031002BCED1B4F8B031A5F854319D
:102D100094F8B83185F85631037D85F85731B3788A
:102D200085F8583184F8F031FF2385F85231C4E733
:102D30000220B9E72000380438B50278447802F060
:102D4000010354EA030101D1112038BD92071AD4BE
:102D50008578002DF8D0002B18BF002400E01D4618
:102D600020460DF0CDFF0028EED028460DF0C8FF1C
:102D70000028E9D0064B00201A7A9C7122F0030249
:102D8000DD711A72E1E7002BE9D000242546E7E760
:102D9000D012002010B500880FF0C8F8D0B190F81C
:102DA0004E2112B13A24204610BD90F8682002F05E
:102DB000FF04002AF6D190F85F20920705D1FF2288
:102DC00080F84E210EF07BF8EDE7034960300FF0FC
:102DD000EFFCE8E70224E6E76B3301002DE9F0475A
:102DE00003780446032B03D912252846BDE8F08753
:102DF00043780F2BF8D813F00C0F57D16278930853
:102E0000120759D4637EA578002B5AD1012DEBD13E
:102E100000F0EEFF85434DD194F8028018F00105D3
:102E200006D001232269A168E078FFF7DFFB0546A1
:102E300018F0020F07D002232269A168E078FFF79B
:102E4000D5FB2843C5B218F0040F00F08E8094F82B
:102E500003A00423D4F80890226950464946FFF79E
:102E6000C5FB284310F0FF05BFD1B8F1050F0ED107
:102E700094F804800423E16862694046FFF7B6FBDA
:102E800005460028B1D1C24514D1894512D1237E0F
:102E9000013BDBB2062BA7D801210020FEF716F973
:102EA0000546A0B941F68A60FDF7C4FC0DF004FFA9
:102EB0000028A3D1112598E703F00303032BA1D029
:102EC00092E715F0FA0F8FD1002D8DD0A0E7A83032
:102ED00011F075FE18B195F854309B0743D1657E0B
:102EE000E278003DA078637818BF0125012A03F03D
:102EF0000308C3F3810C14BFB2FA82F20222A16864
:102F000000F0040318BF520910F0010F94F800906C
:102F100094F818E023D026695BB16769F3199942E8
:102F200007D24B089E4228BF1E468B1B9F4228BFDC
:102F30001F460F4B83F83E50002583F8380083F876
:102F4000392083F83A9083F83B8083F83CC083F8BB
:102F50003DE083F84000DF64C3E9111645E7002B2C
:102F6000E7D02769E5E70C253FE7002D8FD03CE748
:102F7000D012002000B5837989B0032B2AD88DF8B0
:102F80000530012340F2712142798DF80630037833
:102F90008DF804208DF80730B0F801304B430393CF
:102FA000B0F803204A430D4991F83D100592A2F66E
:102FB000C4128DF81C1000218DF81D1008498A429A
:102FC0000AD8A3F6C4138B4206D801A8FFF706FF60
:102FD00009B000BD1220FBE73020F9E7D012002035
:102FE0003C369C002DE9FF4107460078012813D1AB
:102FF0007B78012B03D9022B0CD1BB8853B17A8883
:10300000B2B1BB88A3B10A214A434FF4A0614B433C
:103010009A420DDB122479E00028FBD10121FEF752
:1030200055F80546002840F08D8042F2665007E0D2
:1030300001210020FEF74AF8054618B947F2E25090
:10304000FDF7F8FBBB88002B76D111F00BFA0028B6
:1030500074D195F81431002B72D12846FFF7E8FAA5
:1030600004460028D6D10121DFF830810846FEF75A
:103070002DF898F80F10064619B110B94CF2C4009B
:10308000DEE798F838200023CDE9023312F001037F
:103090001CBFD8F848000290520741BF04AA02EBB7
:1030A0008303D8F84C2043F8082C002941D096F827
:1030B0001431002B3DD07B88DBBB98F8383030468C
:1030C000009302ABD8F8442098F83A1011F0B0FA07
:1030D00078B3304611F079FD06F14003074605F15B
:1030E0004002683653F8041BB34242F8041BF9D17E
:1030F0002846FFF79DFA014610B140F2EF609FE7C6
:103100000C2F07D10246284611F00FFF204604B0CD
:10311000BDE8F08117B147F28C1091E798F839308B
:103120002846296D43F0040385F8543011F0DDFE84
:10313000ECE7BA887988E6E71124E7E73A24E5E77F
:103140000C24E3E711F0ECFC04460028DED195F8EE
:10315000543095F8A62022B195F8A720134385F89E
:10316000A600053BDBB2012BD0D82B6D13B943F67B
:10317000AE6065E701210846FDF7A8FF4FF4C07275
:10318000294606460CF03EFF002386F894300423BF
:10319000316D304686F85430C8E700BFD0120020A9
:1031A0002DE9F04F457A04468DB0A80718D545F0B3
:1031B00001056572072D15D800F01AFE35EA0000EA
:1031C00040F09A8094F848308BB9012D0AD1A36958
:1031D000A84AA3F25373934200F25281012609E0F8
:1031E0006907E7D1122420460DB0BDE8F08F15F035
:1031F0000106ECD1AA0745BF731CB1464FF0FF0989
:10320000DEB26B070AD5B31D9B4A54F82330A3F6F0
:10321000C413934200F234810136F6B204F1080778
:1032200004F122054FF000085FFA88F39E422ED881
:103230000DF042FD237810B99A1E022A5CD9042BA6
:10324000D0D813B9A378012BCCD86378032BC9D875
:1032500094F84930013BDBB2062BC3D8874F0121DC
:103260000020FDF733FFFB7B0546002B4BD10121EE
:103270000846FDF72BFF002818BF054605F1A800FA
:1032800011F09DFC0646002857D00C24ABE7994569
:1032900034D0D7F804A03B695345A3D86A8B2B8C54
:1032A0009A429FD8B5F814B001204FF0060C6988F7
:1032B000EB892A89CDF800B0CDE9010C0020CDE9D9
:1032C0000413FFF7D7F8002800F0DA80B8F1000FF8
:1032D00014D028880499884284D1E988914281D108
:1032E000AA89059B9A427FF47DAF6B8A5B457FF488
:1032F00079AF3B689A4501D0112474E708F10108C1
:103300000437023590E7A83011F059FC0028AED000
:103310006FF00043D5E92A129A4208BFB1F1FF3F8E
:10332000A5D1637A2846009304F11803E268617816
:1033300011F07EF90646002899D0284611F098F839
:1033400008B13A244FE7284611F08CF80028F8D14C
:10335000BB7B43B9CDE9083307238DF8263008A895
:10336000FDF7EEFE60B300210DF11E00FDF740FEFB
:10337000074600287CD001232246BDF81E10FFF727
:1033800073F9384611F04AFE1EB96178284611F0EB
:103390000DF904F10308A27821782846434611F07C
:1033A000B1F800286ED112240021B7F8B200FDF761
:1033B000A3FE00283FF417AF4DF62D70FDF73AFA43
:1033C000089B93F8CD20802AC9D093F8E530002BD4
:1033D000C5D05AE7637A8DF8206013F00101E268E6
:1033E00018BFA06909921EBF0A9001208DF8200025
:1033F000481C13F0020FC0B218BF014658071BD576
:103400009DF82000063103F0050354F8211040F028
:103410000400052B0B918DF820000DD10A980B1894
:103420009A4209D25308834228BF0346D21A0A930C
:103430008A4294BF0B920B9108A9284607F00CFA18
:1034400094F848102846003918BF012111F057F8A8
:1034500094F84910284611F038F8284611F03DF943
:103460003946284611F041FD0024BCE60B249BE7B9
:103470000D24B8E63CF67002CBF37002D0120020A7
:103480003024B0E616B9284606F046FE21784346B9
:10349000A278284611F097F894F8099000F0A8FC5B
:1034A00009EA0001284601F0050111F011F816B9EA
:1034B000042385F854302F654246A0780DF0C8FBF0
:1034C0000146284611F099F8237833B94246A1788D
:1034D0003846FFF753F80028C8D1002E3FF47AAFE2
:1034E0000421284611F038F80028BDD10C245BE7F0
:1034F00010B5437994B0032B57D823F00203027917
:1035000040F271218DF80630D0F806308DF8042095
:10351000CDF807304389027BADF80B3001238DF8DD
:1035200005208DF80D3003884B43049342884A43AD
:103530000792A2F6C412847B417B41EA0421ADF8D4
:103540002810047CC17B41EA0421ADF82E10847C54
:10355000417C41EA0421ADF83410047DC17C41EA8C
:103560000421ADF83A10417D847D41EA0421ADF893
:103570004010C17D007E41EA00210E48ADF84610A2
:1035800000218DF84C108DF84E100B4990F83D003D
:103590008A428DF84D000AD8A3F6C4138B4206D890
:1035A00001A8FFF7FDFD14B010BD1220FBE730208D
:1035B000F9E700BFD01200203C369C0073B507230A
:1035C0000024CDE900448DF806306846FDF7B8FDCB
:1035D00008B1002610E0009C94F8CD30802BF4D088
:1035E00094F8E560002EF0D094F83131002BECD146
:1035F00094F8CC30002BE8D101210020FDF766FDC6
:10360000054618B94DF6D140FDF714F9A83011F070
:10361000D6FA234BDB7B7BB3E8B195F85430053BFE
:10362000DBB2012B17D8284611F0CFFA044610B1AF
:103630004FF24920E8E7284606F0DEFC95F85430C2
:103640002246214623F00403284685F8543011F021
:103650006CFC00240DE001210846FDF737FD05460E
:1036600010B941F66740CFE7A83011F0A8FA60B969
:103670000C24204602B070BD28B9002EF8D0FF23DC
:1036800084F8CC30E5E7002EF9D1284611F09DFAF8
:1036900004460028EDD1284606F0AEFCE9E700BF5D
:1036A000D012002013B504460EF066FB002851D05E
:1036B0002046FF2401F0B4F80023CDE9003368462A
:1036C000FDF73EFD68B3244B1B6803B19847002407
:1036D0004FF48023CDE90043FF246846FDF730FD19
:1036E00018B300204FF4A023FF24CDE9000368465F
:1036F000FDF726FDE8B100214FF4E023FF24CDE9DA
:1037000000136846FDF71CFDB8B100224FF43023CA
:10371000CDE900236846FDF713FD90B1002002B00B
:1037200010BD009B83F83542C9E7009B83F89A409F
:10373000D3E7009B83F83440D9E7009B83F83440FB
:10374000DFE7009B93F83820032AE3D1FF2283F8B8
:103750002220DFE71220E2E7D81D002070B5837831
:1037600006460A2B34D800880EF0C7FB044688B3FF
:1037700013213088FDF7AAFC18B948F68B70FDF7C5
:1037800059F894F8503113B10C25284670BD837A4E
:1037900003F0FF05002BF7D194F871301B0706D416
:1037A000FF2384F84F31FF2384F85031EDE794F87C
:1037B0007530DB0907D0037BB178427B8B4228BF91
:1037C0000B469A42EFD3044902300EF0E8FFDCE7E3
:1037D0001225DAE70225D8E78B540100F8B5067800
:1037E00004460F46EF2E01D91220F8BD43788278A7
:1037F00013F0100128D19D0603F003000CD500281A
:10380000F2D11807F0D45D0758B208D50028EBDBD9
:1038100012F0030FE8D104E00328F2D1E4E7002816
:10382000F6DA2079E278E57942EA0022607942EA24
:103830000042A07940EA0520257A40EA054082420C
:10384000D2D81F2A14D8CFE71806CDD402F003022D
:1038500003F060000243C7D1DD075BD503F00E0221
:10386000022A03D003F00602042ABDD11807D8D5D6
:10387000627A013AD2B2062AB6D8A27A032AB3D81B
:1038800013F0040302D1023A012A03D8E27A012A92
:10389000AAD813B9A37C032BA6D8237D00293CD03A
:1038A000012BA1D1237E012B9ED8002942D0637821
:1038B000D90703D500F0A2F9002842D094F90130CD
:1038C000002B03DA0DF0F8F900283AD00421304635
:1038D000FDF7FCFB0546002843D104213046FDF7E7
:1038E000BDFB0546002857D02C4B93F9701010F003
:1038F0003BF90021304611F047FD002837D128461A
:1039000010F094FA21463870E0742846BDE8F8407B
:1039100010F09BB913F00C0F7CE7022B3FF464AF5F
:10392000A37D013BDBB2022B3FF65EAFE37D0F2BA5
:10393000B8D959E700F05CFA820707D4237D022B3F
:1039400001D1112051E7A37D022BFAD000F050FAEB
:103950004307ACD4237D032BF3D0A37D032BA6D147
:10396000EFE70FF0C5FF0028C3D00C203DE7403043
:103970000FF058FD0028C2D0637803F03303002B0A
:103980007FF432AFA67D2846296A10F06BFAFEF765
:10399000BDFD8642B3D0E8E7072026E7D01200201D
:1039A00030B503798BB00246042B52D84188B1F56B
:1039B000804F4ED8284800241844ADF804408DF8B4
:1039C0000C40037BC57943F010038DF811408DF84E
:1039D000144043EA4503457C807D43EA8503ADF806
:1039E00024408DF8264043EAC003D2F8070003F0D4
:1039F0001F03069003A88DF80430BDF80430ADF81D
:103A00000D3013888DF80F301B0A8DF8103021F01F
:103A10007F4301A98DF812301B0A8DF81330537BB8
:103A20008DF8153053798DF8163093798DF817305D
:103A3000B2F80B30ADF81C30937B8DF81E307F232D
:103A40008DF81F304FF001130893FFF7C7FE0BB03E
:103A500030BD1220FBE700BF24AE0300027803460E
:103A600072B1427862B142881A2A09D982881A2A28
:103A700006D90068034A106000209B889380704735
:103A800012207047D012002002680020014B5A61BA
:103A9000704700BFD012002002680020014B9A61DD
:103AA000704700BFD01200200378A3F10A02112A48
:103AB0009BBF024A0020122093727047D012002050
:103AC0000378FF2B15D14378FF2B12D18378FF2B7E
:103AD0000FD1C378FF2B0CD1037923F0E0021F2A0A
:103AE00007D11F2B05D05B09034A002082F83D3027
:103AF00070471220704700BFD0120020014B18738E
:103B000000207047D0120020014B587300207047EE
:103B1000D0120020024B1B6803B1184711207047D8
:103B2000DC1D002008B5052000F0D4F811F0D2FB10
:103B3000014B024ADA6608BDD0120020A54C0000F5
:103B400008B5052000F0C6F805F076FA014B024AE8
:103B5000DA6608BDD0120020A54C000008B53F2051
:103B600000F0B8F801F0B0FF014B024A1A6008BD3E
:103B7000E01D00202355010008B50122064B1A71F3
:103B800003F04AFE04F0BEFB0DF0D8FD00F036FF56
:103B9000BDE8084003F07CB85413002005490648EE
:103BA00010B50DF066FD05490548BDE810400DF063
:103BB00060BD00BF940500205C1300209C05002020
:103BC0006013002010B5094C094904F108000DF0FC
:103BD00050FD04F10C0007490DF04BFD04F11000FD
:103BE0000549BDE810400DF044BD00BF541300204E
:103BF000C4050020CC050020BC050020014B18792D
:103C0000704700BF5413002010B50A4C072000F085
:103C100061F8094904F108000DF02BFD04F10C00D6
:103C200006490DF026FD04F110000549BDE81040DD
:103C30000DF01FBD54130020AC050020B40500207A
:103C4000A405002038B5074C0D4600F0ADFEA06875
:103C500025600DF006FDFEF79DFE01F051F90123F0
:103C6000237538BD54130020014B187D704700BFE9
:103C70005413002010B50C4CE0680DF0F2FC2069E4
:103C80000DF0EFFCFEF734FE202000F037F82F2077
:103C900000F034F8262000F031F8292000F02EF84A
:103CA0000023237510BD00BF541300200048704747
:103CB00069130020004870476B140020014B83F803
:103CC0001902704754130020014B93F819027047F2
:103CD00054130020C208074900F007000123834065
:103CE000885C03438B5404490B78934238BF1346D6
:103CF0000B707047300500206E1500200F4B01211E
:103D000010B503EBD002C40800F0070001FA00F080
:103D1000195D21EA0001195509490B78A34204D124
:103D20000020147814B100B10B7010BD002BFAD034
:103D3000013B013A0120DBB2F3E700BF3005002070
:103D40006E150020014BD3E90001704730050020BB
:103D5000014B5870704700BF6E150020014B58781A
:103D6000704700BF6E1500200048704738050020DE
:103D7000064B1878072881BF08381823B0FBF3F0EA
:103D800001308CBFC0B20020704700BF6E1500200C
:103D9000004870474CAE030070B50C461321FDF788
:103DA00095F900B3A4F14001104AC1F347135478C8
:103DB000052B94BF01222B22944215D306241826EA
:103DC00001F01F01B3FBF4F2D5B204FB1233012260
:103DD00006FB0500DBB28A40103050F823301A424F
:103DE00014BF0120002070BD0020FCE76E150020EC
:103DF000054B1868C0F3C022C0F30020400040EA21
:103E0000820040F0010070473005002008B50AF03C
:103E10009FFB0023074A32F82310814205D302EBAF
:103E200083029378044A137008BD01330C2BF2D13E
:103E30000023F7E750AE030070150020024B1878FE
:103E4000072828BF07207047701500202DE9F0478C
:103E500086B0044690F80F800F46ADF80C30164639
:103E600090F86F3043EAD303D8075DD594F8B0508B
:103E7000002F5ED038468DF81300002E5CD1FFF77E
:103E8000B7FF304B8DF81400D3F800A0BAF1000F43
:103E90000DD0A8F1260128460DF113024B424B41EB
:103EA00004F1B001009305ABD047054630B99DF849
:103EB000132012B19DF814302BB90925B8F1260F43
:103EC0002ED100231A4694F8391129B1920737D51B
:103ED0009B0735D502231A46FF2184F8491194F82F
:103EE000481101F0FF0549BB84F84B3104F1B000E3
:103EF000BDF80C309DF83810A4F84C31BDF80C30EA
:103F000084F8481105A984F84A218DF814708DF8B9
:103F10001560ADF816300DF052FC002384F84931DD
:103F2000284606B0BDE8F087B8F1260F9ED01A25C6
:103F3000F6E7FFF75DFF9EE73046A2E73A25ECE79C
:103F40000925EDE7081E0020B0F8B23010B5044690
:103F500080F88111A0F8823190F83001FEF7E4FA80
:103F600084F8840194F83101FEF7DEFA044984F8FC
:103F7000850104F5BC70BDE810400EF019BC00BF0F
:103F80008517010030B5C1F30722CCB2174985B0BF
:103F9000C5B2C0F307230978019049B911462046FC
:103FA0000DF0FBFB20B9194628460DF0F6FBC0B119
:103FB0002B40234002EA030004460CF05CFE02465C
:103FC00020460CF058FE032A06D19DF8063003F077
:103FD0000303012B08BF0422D2B242EA002005B03D
:103FE00030BD05EA02001C40E7E700BF7115002064
:103FF000052AF0B5044685B0857B33D1C37B272BDA
:104000003AD100F10F064F788A7807F0070702F0DF
:1040100007027B1E501E3B401040034322D1104636
:104020000DF064FC88B394F8303198422DD094F8A8
:104030004AC112EA0C0F15D0252D26D094F829C1BB
:1040400012EA0C0F21D1013BDBB2032B19D8013846
:10405000DFF804C1C0B26344844418799CF804308A
:10406000984212D9A5F1250320465942594105B07D
:10407000BDE8F0400DF006BC252D6BD100F10E0619
:10408000C1E74DF67D40FCF7D5FB38460DF02EFC20
:1040900038B194F83131834203D094F84B311F4248
:1040A000E0D0B1F8035003AB3946204600932B46CD
:1040B00004F10F070DF027FC38BB94F84831012BB1
:1040C00020D1B4F84C3104F52C7294F8301163F31C
:1040D0000F00E3880DF079FC054680B901462046C3
:1040E000FFF732FF84F848513570BE421FD10023DC
:1040F000E37320460EF0D9FD002005B0F0BD2C235F
:10410000A373F2E784F84801EFE7E388A4F8B0521C
:10411000013DED1A47F6FD73ADB29D420BD9282340
:10412000204684F8373001F0E3FABE42E1D00023A4
:1041300084F85630E0E7E37B0D2B02D00A3B012BDD
:1041400001D82A23ECE7BDF80C30A4F8B2322923B9
:104150003370EAE70220D0E780AE0300034B002271
:1041600083F85020A3F85220704700BF721500203A
:10417000044B93F85020012A1ABF0360012000204D
:10418000704700BF72150020064A92F85030012B8C
:104190001FBF0123A2F8520082F85030184608BF12
:1041A0000020704772150020064A92F8503033B153
:1041B000026011B1B2F852300B80012070471846EE
:1041C000704700BF72150020054B002293F8500085
:1041D000A3F8522010B1012083F85020704700BF8F
:1041E00072150020034B93F85000B0FA80F040099C
:1041F000704700BF7215002050B90A4A01201346CB
:1042000003F8010B0868C2F801008A889A80704799
:10421000012805D1034B0A68D8719A608A889A816F
:10422000704700BFC615002050B90B4B187888B1F5
:10423000D3F80120B3F805300A6001208B80704765
:10424000012806D1044BD87920B19A689B890A606D
:10425000F3E70020704700BFC615002010B9044BDB
:1042600018787047012806BF014BD87900207047A5
:10427000C6150020F7B58A8800238DF80600ADF832
:1042800004200C4A8DF80730147802F5AC720868E7
:10429000019DD9B28C4201D8082107E052F8087F6D
:1042A00001335668AE4208BF8742F2D1084603B0D8
:1042B000F0BD00BFD8150020084B002130B51C7A96
:1042C00003F20F13CAB2944201D8082204E013F893
:1042D000015F01318542F5D1104630BDD81500206F
:1042E000F0B5244D89B095F8A04105F2A1116846BA
:1042F00022460BF087FE214668460DF01DFD044660
:10430000002835D000EB400102A8C9B2FDF722F920
:1043100095F8A9310120013C95F8A021E4B205E00F
:104320000133B3FBF2F102FB1133DBB203F12001E5
:104330000DEB010616F8201C0029F1D104EB440115
:1043400006F8200C03EB430220312A44694411F89B
:10435000187C82F8AA7111F8177C11F8161C82F8E3
:10436000AB7182F8AC11EA1882F8A101002CD2D10D
:1043700009B0F0BDD815002070B5064688B00C46CF
:10438000002A4ED0294890F8A931C11891F8A121EE
:104390001AB941F64F20FCF74DFA03EB4302013303
:1043A000024492F8AA51E57092F8AB5192F8AC2110
:1043B00025716271002281F8A12190F8A021B3FB40
:1043C000F2F102FB113380F8A93190F8CA3123B918
:1043D000174900F5E1700EF0E8F965790D2200212A
:1043E000684605F03F0545F04005657111F079FE1E
:1043F000E37804AA69468DF80F30304623798DF8AA
:104400000D508DF80E30042311F0A1FD9DF81F30E2
:1044100023709DF81E3063709DF81D30A37008B0A6
:1044200070BD03216018FDF795F8D6E7D815002078
:10443000E1420000044B1A7A824286BF1B1893F8AF
:1044400058010020704700BFD8150020044B1A7A8D
:10445000824286BF1B1893F850010020704700BFAE
:10446000D8150020074B00224FF461711A701A72A0
:1044700083F8CB2183F8CC21A3F8CE1183F8CA218D
:10448000704700BFD8150020014B93F8CC0170474E
:10449000D815002010B51446FFF7ECFE082813D0FD
:1044A000FFF70AFF094B1A7A82420DD904B1207036
:1044B000034493F8482193F85801012A08BF40F0BB
:1044C000010000F0010010BD0120FAE7D81500201E
:1044D000014BB3F8CE017047D81500200A4B30B518
:1044E0001C7A84420ED9184490F810012C3003EB4A
:1044F000C004A5790D7053F8300010600120A38826
:10450000938030BD0020FCE7D815002070B506462A
:104510000D4608F079FF08F01DF90A4890F8CB41E4
:1045200064B1017A61B100F1900310303246002D80
:1045300008BF184608F0B8F808F03CF9204670BDEE
:104540000C46FBE7D815002008B5024601F1090327
:104550000448012100EB031008F0A6F8BDE808406C
:1045600008F028B9D81500200246074810B590F881
:10457000CB4124B1017A21B1103008F095F82046E2
:1045800010BD0C46FBE700BFD81500202DE9F74F02
:10459000304E9A4680468946337A0092834257D9F4
:1045A000331893F8504184F0010409B393F858315B
:1045B000F3B944F002070134BAF1000F1AD1FA0737
:1045C0000BD5062108F10900524601FB086106EBF4
:1045D000001001F58C71FFF7CFFEBB0734D508F151
:1045E00001005246494606EB0010FFF7C5FE2BE0DE
:1045F0002746E1E796F8A9514FF0010B002CDED0D9
:10460000721992F8A1319BB9009BDBB1019200F0C5
:1046100047FC05EB4503019A4FEA102C334482F81E
:10462000A1B183F8AA01000C83F8ABC183F8AC01F7
:10463000013596F8A031013CB5FBF3F203FB1255AE
:10464000EDB2DBE747F00407384603B0BDE8F08F72
:104650000027F9E7D8150020F8B50646174C40B3F7
:10466000217A04F5A8700DF067FB94F8A051074675
:1046700004F2A11029460DF05FFB2D1AEDB2AF42F6
:1046800019D80025237AE8B2834201D80120F8BD69
:10469000231893F8503153B90621324601FB0041EB
:1046A000093001F58C7104EB0010FFF765FE013550
:1046B000E8E70546E6E70020E9E700BFD815002057
:1046C000F0B51B4F89B006460D463B7A83422DD983
:1046D0003B1893F850414CBB0D222146684611F01F
:1046E00000FDEB7806F1090004AA8DF80F30694649
:1046F0002B7907EB00108DF80E306B798DF80D30AB
:10470000042311F024FC2A789DF81F309A420AD124
:104710006A789DF81E309A4205D1AC789DF81D301C
:10472000E31A5C425C41204609B0F0BD0020FBE783
:10473000D8150020074B1A7A824209D91A1892F824
:1047400050212AB9062202FB003000F58C70704718
:1047500000207047D8150020064B1A7A824281BF8C
:104760001B1893F84801B0FA80F0400998BF002068
:10477000704700BFD8150020034B80F888101B68D5
:104780000BB14088184770470C1E00200B2808B555
:1047900003D94FF28250FCF74DF8024B33F810006A
:1047A00008BD00BF88AE030030B50024D0F8D0307B
:1047B00042F21075A0F84840C464B0F850405C4321
:1047C000B4FBF1F4A0F850404C1E05FB0242B2FBD2
:1047D000F1F2A0F84A20094AB2FBF1F20132A0F846
:1047E0005420B0F8442005FB0244C26B5343B4FB91
:1047F000F1F4B3FBF1F30464C36330BD005A620209
:10480000054B1B7833B9054B1A681B79026003719D
:104810000120704700207047A817002040050020A5
:10482000054BFF221A70054A016811600179117168
:1048300000221A70704700BFA81700204005002012
:10484000054B07B518681B79009068468DF8043051
:10485000FFF7E6FF03B000BDDC3D040069B13F286F
:104860000DD8084B1B5C03F07F02914207D08CBF30
:104870000120002000EAD31070470846704701204D
:10488000704700BFA0AE0300FF230B7002234B70E4
:1048900083238B70014B1B78CB707047AC170020C3
:1048A0002DE9F84F47680D46FE6930460BF067FF6B
:1048B000044618B94DF2DF30FBF7BCFF0146304625
:1048C0000BF06BFFB4F800A083461FFA8AF8B8F12A
:1048D000000F02D14FF64970EEE71C4B1B68ABB9D5
:1048E000BB78FA782B706B78A5F802A062F303030B
:1048F00023F0C0036B709BF8003003F00303012B1F
:104900000ED0022B0CD04BF2EC00D5E7C11C424676
:104910007888984704460028E2D12046BDE8F88F01
:104920006A78304663F305126A700BF040FF044664
:1049300010B94EF65B00BFE742460BF10301281D9C
:104940000BF060FB30460BF0CBFEE6E7141E0020B8
:1049500038B5134C10220021201D11F0C2FB012597
:10496000257404F108031022002104F11400C4E9A5
:10497000013311F0B6FB84F8205004F11803094A02
:10498000C4E9053300236362A36284F82C30C4F8C1
:104990002D30C4F8313084F835301360A36338BD4E
:1049A000AC170020141E002010B5074C2378FF2BF5
:1049B00003D040F2B250FBF73DFF0BF08DFA2070B0
:1049C000BDE81040FFF7C4BF4505002010B5034CFB
:1049D00020780BF09BFAFF23237010BD45050020C3
:1049E000014B18780BF0A2BA45050020014B024A92
:1049F0001A607047101E0020A1480000014B024AB7
:104A00001A607047101E0020A1480000F7B5064646
:104A10005D4DAB68AC69227A012A20D1AA6B4AB1FC
:104A2000137A1BB94BF2A730FBF704FFAC6BCCB980
:104A3000002091E01A7A012AFAD01C46534AEFF37B
:104A4000108172B650680068506001B962B6A34226
:104A500008BFAC63237A2BB947F61930E4E705F1B8
:104A60001402ECE7277AFFB2052323727B1E0B2B7F
:104A70007AD8DFE803F076062134734C3D3D3D3DA6
:104A80003D68636813B94FF20E00CDE7204631460A
:104A900098470420EFF3108272B6237A052BD9B21F
:104AA0004FF0000365D12372A96BA14200D1AB6323
:104AB000002A44D162B642E0636813B947F2B840B5
:104AC000B2E73146204698470346ADF80400C0B22D
:104AD000C3F30723012B3DD0022BDBD12AE063680F
:104AE00013B94BF29B609FE7204698470020D1E71F
:104AF000274B1B68002BF9D03A466068314698472F
:104B0000A7F10A020420534253415B00E4E76368C3
:104B100013B94CF2CB6087E78622327001225988A4
:104B2000B270727100229869A6F80310B2710BF08E
:104B3000D7FD0420AB6BA34201D10023AB63002857
:104B40003FF467AF08E0134B314620461B68984797
:104B5000034660B9277290B103B0F0BD43F26B20F9
:104B600062E74DF667205FE747F66B005CE70220DF
:104B7000E0E711B944F6380056E7184698E7002BED
:104B80007FF447AF54E700BFAC170020B0170020F8
:104B9000181E0020101E0020134610B5027A1AB10C
:104BA00044F28140FBF746FE0A4601460248BDE852
:104BB00010400DF0D8BD00BFB0170020044890F899
:104BC0002C301BB9034924300DF0E9BD704700BFFC
:104BD000AC170020572701000346064890F83C20F8
:104BE0003AB190F8352022B9034900F82D3B0DF079
:104BF000D6BD7047AC170020894800000A4610B5A2
:104C0000037A1BB143F29510FBF714FE014606230D
:104C10000248BDE810400DF0A6BD00BFC01700203F
:104C20001346027A0AB1037270470A4601460148E8
:104C30000DF099BDB0170020034B1B221A804FF4D2
:104C4000A4725A80704700BFEA170020002900F1C3
:104C500010024FF01B110CBF4FF4A4734FF42963E3
:104C600082621B2201610162C16206498283028362
:104C70004281C3834383C3828382C3840163828668
:104C8000838470471B00480112B9024B1880598079
:104C9000704700BFEA170020014909300DF088BDB8
:104CA0003728010038B5044610F8B01F0023B1FAC8
:104CB00081F104F59F7249090DF0A1FE2A4BB4F869
:104CC000442119885D888A42B4F84631B4F840011D
:104CD00028BF0A46AB4228BF2B468842A4F844218D
:104CE00028BF0846B4F84211A4F84631A942A4F8F6
:104CF000400128BF29461B28A4F8421102D0B1F573
:104D0000A47F04D11B2A2ED0B3F5A47F2BD0FF2380
:104D100084F83E31B4F844311B3B9BB2E02B03D9FD
:104D200047F69A20FBF786FDB4F840311B3B9BB257
:104D3000E02B02D94DF2DA40F4E7B4F8463140F600
:104D40004812A3F5A4739BB2934202D943F25500D3
:104D5000E8E7B4F84231A3F5A4739BB2934202D9B9
:104D600047F69F30DEE738BDEA1700202DE9F8430B
:104D70000C469DF8241006330746A1F10309008E66
:104D800013449DF820805FFA89F9B9F1010F8CBFB7
:104D9000002628261E440DF011FDB9F1010F4146F1
:104DA0008CBF7B8E4FF42963984228BF184685B28A
:104DB00005EB0609A14538BFA4EB0909BC6A28BF69
:104DC0004FF00009208A0DF0F9FCA48A0C4B8442B4
:104DD0001B7928BF0446A4B27BB9387A41460DF04E
:104DE000EDFC48450A9B38BF4846844288BF84B2E0
:104DF00060191C803044BDE8F8830020EEE700BF56
:104E0000EA1700202DE9F041074686B016461D46F8
:104E100039BB1C4B284653F8224008F0E5FB80467E
:104E200001F05AF804F585644FF47A739F304444D6
:104E3000B4FBF3F404440DF11603BDF8302007F180
:104E400040000096CDE9015300231946FFF78EFF7D
:104E5000BDF83430A3422CBFC018001906B0BDE81D
:104E6000F081184608F0C0FB044601F035F84FF415
:104E70007A7204F5444391304933B3FBF2F31C18C2
:104E8000D9E700BF10B10300014B1879704700BF8C
:104E9000EA170020014B1878704700BF4605002034
:104EA000094AD2E90003434083EAB01181EA432171
:104EB0004FEAF34311605360044B58434FEAF060EC
:104EC00000EB8000704700BFF0170020BB79379ED1
:104ED000094AD2E90003434083EAB01181EA432141
:104EE0004FEAF34311605360044B58434FEAF060BC
:104EF00000EB8000704700BF48050020BB79379E5B
:104F000010B50A4C08210948FCF724FBD4E900320B
:104F10001343F7D0064CFFF7DBFF2060FFF7D8FF05
:104F2000236860601843F6D010BD00BF480500201C
:104F3000F017002008B502460DF08FFE40B108467C
:104F40000DF08BFE20B18A420CBF23202A2008BD21
:104F50008A4209D1A2F13003DBB20B2B0ED81548DF
:104F600040FA03F3DB071ED5322901D1262A03D0EC
:104F7000322A03D1262918D12A20E8E73E2907D171
:104F8000262AF9D03E2A12D03B2A10D11F2902E04E
:104F90003E2A04D126290CBF2A200020D7E73B292E
:104FA000F2D11F2AF7E72320D1E73E29F7D10020CD
:104FB000CDE700BFDEF7FFFF0B38C0B2432838B59E
:104FC00098BF0F4B0D4688BFFE21144698BF195C51
:104FD0001046FFF7AFFF88B985B12978342909D089
:104FE0003F2909D0272908BF26212046BDE838409F
:104FF000FFF7A0BF3221F8E73E21F6E738BD00BF3A
:10500000E0AE0300094B0A4A1A600A4B0A4A1A60CA
:105010000A4BC0F8B0300A4BC0F8AC30094BC1F8AD
:10502000B030094BC1F8AC30704700BF681E00209B
:1050300041560100641E002073560100BDC50000EA
:105040005F5501000D5601005F560100174B184ACD
:105050009A60184ADA62184A1A61184A5A61184A5C
:105060009A61184A1A63184A5A62184ADA64184A46
:105070009A64184A9A63184B184A9A60184A1A6236
:10508000184A5A60184A1A60184A9A62184ADA622C
:10509000184ADA60184A9A61184A1A63184A9A64D8
:1050A000184ADA64184A5A62704700BF8C1E002002
:1050B000692D010015310100EB300100B73001000E
:1050C00015580000115B0000C9590000C9320100E9
:1050D000E9320100695900008C2000207F2D010079
:1050E0007D320100E52D0100E32F01000D320100AA
:1050F0002B31010027320100F73101008D3301000F
:105100002D3301001B33010091320100174B184A67
:105110009A60184A5A60184A1A60184A9A62184ADD
:10512000DA62184ADA60184A9A61184A1A63184A09
:105130001A62184ADA64184A9A64184A5A62184B72
:10514000184A9A60184A5A62184ADA62184A1A616A
:10515000184A5A61184A9A61184A1A63184A9A6496
:10516000184ADA64184A9A63704700BF8C1F0020FF
:10517000692D01008F2D01000F2F01004731010023
:105180009B31010075580000AB310100115B00003C
:1051900069590000C9320100E9320100C959000013
:1051A0008C2100207F2D010091320100C5310100CA
:1051B0007F310100E13101000D5900008D33010004
:1051C0002D3301001B3301007D320100054B064ADF
:1051D0001A65064A5A65064B064A1A65064A5A6512
:1051E000704700BF8C1E002011350100E73401001C
:1051F0008C200020D33401007D350100044B054A8A
:105200005A65054B054A1A65054A5A65704700BF3D
:105210008C1F0020993501008C210020D33401001F
:10522000C3350100054B064A9A65064ADA65064B06
:10523000064A9A65064A1A66704700BF8C1E00200F
:10524000AD1A0100631B01008C200020D918010059
:10525000B51B0100054B064A9A65064A1A66064BBD
:10526000064A9A65064ADA65704700BF8C1F00201F
:10527000231B0100F13F00008C210020D918010000
:105280002B1C010001490248FFF7BCBE8C20002006
:105290008C1E002001490248FFF7B4BE8C2100207B
:1052A0008C1F002073B5044601A80E46FEF760FF70
:1052B00018B947F2B370FBF7BDFA502200210198EC
:1052C00010F00FFF019B3F2E1D4605F8036F43D8DA
:1052D0003F2E44D8DFE816F046004C00510059003C
:1052E000770051015101820099008500510151015F
:1052F0008A0096009900430043009D00510151012E
:10530000B100B100BF00BF00C50043004300510120
:10531000CA00D600DA00DE00E500E700E900EB0095
:10532000F500FF002D012F013D013F01070137016D
:1053300035011F011501170119011B01210125016B
:10534000230129015101430027011D012B013901CE
:105350003B01410131013301FF2E00F0048140F295
:105360008B50A8E7214628460DF045FE18BB95E076
:10537000214628460DF040FDF8E794F8B0206ABBBE
:1053800094F83D2102201A7115E0D4F878221720F4
:105390005A60D4F87C229A60B4F880229A81D4F8BA
:1053A0005822C3F80E20D4F85C22C3F81220D4F897
:1053B0009820C3F81620FEF7E7FE002840F0DF80B3
:1053C0004DF6FD5077E7D4F8F6210D205A60D4F859
:1053D000FA219A60D4F89C20DA60ECE794F8A820CF
:1053E000D0E72946204600F051FBBFE711220620F6
:1053F0001A7159225A7100229A718522DA7130226B
:105400001A72D8E794F8A220BCE7284600F02CFBDB
:10541000ACE794F8B02052B994F8A8203AB194F8C7
:10542000A5201A7194F8A42003205A71C3E794F8B8
:10543000A3201A7194F8A220F6E7B4F80C210920F1
:105440009A80B4F8AA20DA80B4F808211A81B4F856
:10545000A8205A81AFE794F84A211A7194F84B2199
:10546000E2E7214628460CF0EBFA7FE71221B4F878
:10547000B200FBF72BFE00F15B0128460DF0BDF8F2
:10548000232098E728460FF093FF6FE728460FF098
:1054900098FF6BE73B4B1B68002B60D14EF6D200A8
:1054A00009E7394BF7E7394BF5E7394BF3E7394B68
:1054B0001B68002BF2D0232022462946984704205F
:1054C00079E7344B1B68002BE8D02246294624207C
:1054D000984705206FE72F4B1B68002BDED0224634
:1054E00029462520F4E71221B4F8B200FBF7EEFDBF
:1054F00000F17D0200F15B0128460DF08AF82B20B7
:1055000059E7254BC7E7254BC5E7254BC3E7254B97
:10551000C1E7254BBFE7254BBDE7254BBBE7254B37
:10552000B9E7254BB7E7254BB5E7254BB3E7254B47
:10553000B1E7254BAFE7254BADE7254BABE7254B57
:10554000A9E7254BA7E7254BA5E7254BA3E7254B67
:10555000A1E7254B9FE7254B9DE7254B9BE7214680
:105560002846984702E7284694F8A722D4F8A812BC
:105570000DF011F894F8A702F8E601201BE702B03D
:1055800070BD00BF281E00202C1E0020241E0020FD
:10559000301E0020881E0020341E0020381E0020EF
:1055A000401E0020441E0020541E0020581E0020D3
:1055B0004C1E0020481E0020501E00203C1E0020D3
:1055C0005C1E0020601E0020801E00207C1E00202B
:1055D000781E0020741E0020681E0020641E00201B
:1055E0006C1E0020701E00201C1E0020201E0020AB
:1055F000841E00203F289ABF024B53F82000002051
:10560000704700BF8C1E00203F289ABF024B53F802
:1056100020000020704700BF8C1F00203F289ABF49
:10562000024B53F820000020704700BF8C20002060
:105630003F289ABF024B53F820000020704700BF5C
:105640008C21002030F8023CF7B505460E46B0F834
:10565000844073B101226846ADF801408DF8002006
:10566000ADF80330FDF7E2FA18B146F2E170FBF74E
:10567000E1F81B4B1B6813B1A5F12E009847194B9D
:105680001B680BB120469847174B1B680BB120468F
:10569000984783230027A6F803403370B7706B7ACE
:1056A000D5F89E0073710BF025F810B947F29C20D5
:1056B000DDE739462046FBF71FFD03212046FBF7B7
:1056C0001BFD18B9094B1B6803B198470423002040
:1056D00063F30700022363F30F2003B0F0BD00BFA4
:1056E00090220020982200208C220020942200206A
:1056F00073B50446D0F8C8504FF6FF760DF102019D
:105700000DF101022846ADF802600AF0A3FF01A9DD
:1057100028460AF0C2FF48B101980BF046F8002273
:10572000027204F1B001FFF769FAE7E7034904F1F7
:105730002E0002B0BDE870400DF034B845560000B0
:10574000F0B5044685B00E46FF2500F8C95C10F898
:10575000CA3CF3B1174F3B781BB142F60970FBF717
:1057600069F80C21381DFBF7F5FE3D70002304F8A5
:10577000C93C8A23324602F8033BD4F80930C6F804
:105780000330D4F80D305360D4F81130936005B075
:10579000F0BD01A80C21FBF7DDFEA4F50B73039A05
:1057A0001A6001AB03CB44F8D20C44F8CE1C04F8C9
:1057B000CA5CDBE7F817002010B5054C23782BB93D
:1057C0000C21201DFBF7C6FEFF23237010BD00BF78
:1057D000F8170020024690F8FE31BBB990F8FF316F
:1057E00003F0FF010BB100207047094B1878002827
:1057F000F9D01970D9680433C2F89C1003CBC2F8F1
:10580000F601C2F8FA11FF2382F8FE310120704739
:10581000F817002010B5837B04461F2B24D10023EA
:1058200080F85D3080F8563080F8823290F85E2043
:10583000B0F8B21062B1A0F8C31180F85E3000F287
:10584000B910437209490CF0B3FF0020A07310BDDA
:105850000123A0F8B61180F8B52100F5D6700373C6
:1058600003490CF09CFFF0E70220F0E7A3300100B1
:105870009530010038B5C37B04460D463BB1132B70
:1058800005D0113B0F2B94BF0820012038BDD4F860
:10589000AC3093BB94F85E3013B920460DF0F5F9A7
:1058A000D5F80B30C4F8EE31D5F80F30C4F8F2312A
:1058B000D5F81330C4F89830B4F8B230A4F8D13227
:1058C000D5F80130C4F8D332D5F80530C4F8D73252
:1058D000B5F80930A4F8DB32002584F8FE510A49F6
:1058E00004F532700CF05BFF20460BF068F91623CC
:1058F00084F876002846E373C8E720460C2203218B
:10590000BDE838400DF0E4B94157000010B5C37B45
:105910000446202B03D04EF21400FAF78BFF00232D
:1059200090F85E20B0F8B21080F85D3062B1A0F857
:10593000C31180F85E3000F2B910437208490CF0D0
:1059400037FF0023E37310BD0123A0F8B61180F8E0
:10595000B52100F5D670037302490CF020FFF0E783
:10596000A33001009530010038B590F8B0500446DE
:105970001DB9C37B23B101201BE00368DB07FAD408
:10598000D1F8012020460E4BD1F8051013400D4AE6
:10599000C4F86E30C3F307630A4043F00803C4F849
:1059A000722084F871300DF070F91DB90423E3738F
:1059B000002038BD236843F001032360F8E700BFEF
:1059C0002FC904F7EFDF008008B5837B042B2FD1AC
:1059D000D1F80130D1F80520C0F86E30C3F3076369
:1059E000C0F8722043F0080380F87130002380F87B
:1059F0005630837390F8B0300BB980F84F3190F87F
:105A000050319BB990F88E3103F0FF0273B9B0F8B2
:105A1000B23000F5C37042724381D1F80130C360E7
:105A2000D1F80530034903610CF0B9FE002008BD30
:105A30000120FCE75332010090F8502112B1084BCD
:105A40001B68184790F88E214AB9B0F8B22000F5CB
:105A5000C370044942811A2242720CF0A0BE704702
:105A60009C2200205332010010B50446FEF76AF96B
:105A7000044A054B024009200B40C4F80120C4F839
:105A8000053010BD2FC904F7EFDF008037B50C4695
:105A90000546FEF757F90A4B0A4A03400A4095F8B3
:105AA0006E1000930B4001928DF800306B4603CBD3
:105AB000C4F801000920C4F8051003B030BD00BFD0
:105AC0002FC904F7EFDF0080014B024A1A607047CC
:105AD0009C22002045C6000038B5DB04154604D5DD
:105AE000837E13B10023C36338BDC46B0134C46328
:105AF0000DF02BFC036C9C42F6D300230349C363D7
:105B00002846BDE838400CF053BE00BFBD3201004E
:105B100038B5837B044690F8B050012B07D01DB9EF
:105B2000C37B23B1012038E003689807FAD494F8C6
:105B30005F309A0713D44A78D80784F869204A88D6
:105B4000A4F86A208A88A4F86C2043F0020284F842
:105B50005F200FD5164904F160000CF029FE94F87F
:105B60005F30D90710D4CDB9E37B43B14AF27560F9
:105B7000FAF760FE94F84E31002BEBD1EFE70123EA
:105B8000E37320460DF081F8A37B0020012B4FF03A
:105B9000000304BFA37384F8563038BD23689A0706
:105BA00002D54CF6C610E3E743F002032360E8E7B2
:105BB0006B33010010B5044606F0D8FC044B0146D7
:105BC000E0721B681BB12046BDE81040184710BDAD
:105BD000A4220020024B1B6803B11847704700BF86
:105BE000A0220020F0B51F4D00242B7814709BB12B
:105BF000013B6D68DBB21E1B012E0FDC05EBC406FA
:105C000055F8347076688E4208BF874227D0B84274
:105C100071EB060612D214700020F0BD1E19771029
:105C200055F837C005EBC70E8445DEF804708F4188
:105C30002CBFC6F34703C6F34704DCE705EBC304F8
:105C400055F8335064688C4208BF854206D0A8429C
:105C500071EB040428BF01331370DDE71C460120FB
:105C60001470DAE71818002010F0070208B503D006
:105C700042F24F40FAF7DEFD18B1034B197258603B
:105C80001A70C80008BD00BF18180020014B002280
:105C90001A70704718180020014B00221A607047D4
:105CA0002818002008B5044B186810B9FFF7F4FF56
