:1000000080E00020F9F70100D5B90300E5F7010011
:10001000E5F70100E5F70100E5F701000000000049
:10002000000000000000000000000000D5F8010002
:10003000E5F701000000000001FB0100E5F7010009
:1000400079FB010055F0030079FB010079FB010009
:1000500079FB010079FB010079FB010079FB0100CC
:100060006BF0030079FB010079FB010081F00300D4
:1000700079FB010079FB010079FB010079FB0100AC
:1000800079FB010079FB010079FB010079FB01009C
:1000900079FB010079FB010079FB010079FB01008C
:1000A00079FB010079FB010079FB010079FB01007C
:1000B00079FB010079FB010079FB010079FB01006C
:1000C00079FB010079FB010079FB010079FB01005C
:1000D00079FB010079FB010079FB010079FB01004C
:1000E00079FB010079FB010079FB010079FB01003C
:1000F00079FB010079FB010079FB010079FB01002C
:1001000080EA101404F0F01480EA0410604081EAE0
:10011000111404F0F01481EA0411614082EA12140F
:1001200004F0F01482EA0412624083EA131404F02B
:10013000F01483EA0413634080EA102404F47F443B
:1001400080EA0420604081EA112404F47F4481EABB
:100150000421614082EA122404F47F4482EA0422EA
:10016000624083EA132404F47F4483EA0423634057
:1001700081EA500404F0553480EA4400614083EA87
:10018000520404F0553482EA4402634082EA900447
:1001900004F0333480EA8400624083EA910404F07E
:1001A000333481EA84016340704700BF82EA9004DF
:1001B00004F0333480EA8400624083EA910404F05E
:1001C000333481EA8401634081EA500404F05534F9
:1001D00080EA4400614083EA520404F0553482EA24
:1001E0004402634080EA102404F47F4480EA04203F
:1001F000604081EA112404F47F4481EA04216140D3
:1002000082EA122404F47F4482EA0422624083EAF0
:10021000132404F47F4483EA0423634080EA101427
:1002200004F0F01480EA0410604081EA111404F034
:10023000F01481EA0411614082EA121404F0F0140F
:1002400082EA0412624083EA131404F0F01483EA91
:1002500004136340704700BF2DE9F14F94464FEA05
:10026000930B8A68CB6808684968FFF749FF0BF170
:10027000060E33E083EA134480EA134582EA13470B
:1002800046BA96EA3444604000F00F1684EA063419
:1002900020F00F1684EA161054BA94EA0106724050
:1002A00002F00F1486EA043622F00F1486EA1412C4
:1002B0004CBA6540694001F00F1485EA043521F01D
:1002C0000F1485EA14115CBA67407B4003F00F14E9
:1002D00087EA043723F00F1487EA1413BCE8F00010
:1002E0006040694072407B4000F0E03400F010351F
:1002F00000F00F3040EA540040EAC50080EA900464
:1003000004F0332480EA8400604001F0E03401F01E
:10031000103501F00F3141EA540141EAC50181EA8B
:10032000910404F0332481EA8401614002F0E03456
:1003300002F0103502F00F3242EA540242EAC502DE
:1003400082EA920404F0332482EA8402624003F0D9
:10035000E03403F0103503F00F3343EA540343EA6B
:10036000C50383EA930404F0332483EA84036340DF
:1003700081EA324787EA134581EA354690EA060466
:1003800084EA034B82EA1B4280EA044484EA05447F
:1003900083EA144A85EA14448BEA044B84EA37441E
:1003A00081EA0B4181EA164104EA0A00454082EAEB
:1003B00004082BEA080041408AEA0B0602EA06001C
:1003C00084EA34438AEA3A4603EA0607784045401D
:1003D000414088EA38478BEA3B4007EA000985EA52
:1003E000090583EA0709464006EA0906714085EADD
:1003F000010005EA3546464006EA314181EA3041CE
:1004000081EA364606EA304686EA3546344008EA4E
:10041000010886EA01052A4086EA364003405A4030
:1004200081EA31431F407C4080EA030709EA07095B
:1004300088EA0908544088EA020806EA0A0601EA3E
:100440000B018AEA0B0215408AEA3A421040454005
:100450008BEA3B4003405E404240174079404D40AC
:100460004E40E443F64386EA18435D4085EA054082
:1004700083EA134386EA034183EA384284EA11435C
:1004800083EA04435FEA3343BEF1010E3FF6F2AE66
:100490001ED4BCE8F0006040694072407B4020BC44
:1004A000FFF784FE28606960AA60EB60BDE8F08F0A
:1004B0002DE9E0414FF2F00280EA1031114080EA6C
:1004C0000130484041088208C3084FF0000E4FE752
:1004D00000F0113001F0113102F0113203F011334C
:1004E00040EA410040EA820040EAC3004FF2F002D5
:1004F00080EA1031114080EA01304840BDE8E081D7
:100500002DE9F04F02F11C050646074600EB850871
:1005100051F8040B043A46F8040BF9D14FF0010CE2
:10052000FFF7C6FF5FEA302080EA0C001ECF414093
:100530004A4053405C401EC62000464517D04FEA53
:100540004C0C1CF4807F18BFACF1E50C2C2DE7D0CF
:100550003C2D06D1FFF7ACFF06CF41404A4006C60E
:10056000100006CF41404A4006C61000D8E736E9E1
:100570000F00FFF7C5FD043D86E80F00F7D1BDE889
:10058000F08F00BF2DE9F14F03F11C0402EB840C46
:100590004FEA930B8A68CB6808684968FFF7B0FD9B
:1005A0003CE9F0006040694072407B400BF1060E70
:1005B0004EE083EA134480EA134582EA134746BAC1
:1005C00096EA3444604000F00F1684EA063420F0C6
:1005D0000F1684EA161054BA94EA0106724002F02B
:1005E0000F1486EA043622F00F1486EA14124CBA6D
:1005F0006540694001F00F1485EA043521F00F14BD
:1006000085EA14115CBA67407B4003F00F1487EA57
:10061000043723F00F1487EA141344BA44404DBA48
:100620004D4056BA56405FBA5F4087EA174886EA9F
:10063000174B84EA17464FEA38488BEA1B4485EA91
:100640001B4788EA1B4580EA3440694072407B4082
:1006500000F0703400F0803500F00F3040EA4400C4
:1006600040EAD50080EA900404F0332480EA840054
:10067000604001F0703401F0803501F00F3141EA43
:10068000440141EAD50181EA910404F0332481EA6E
:100690008401614002F0703402F0803502F00F32C4
:1006A00042EA440242EAD50282EA920404F0332488
:1006B00082EA8402624003F0703403F0803503F074
:1006C0000F3343EA440343EAD50383EA930404F077
:1006D000332483EA84036340C943DB4381EA000493
:1006E00083EA044686EA020183EA014382EA33454B
:1006F00083EA14435C4084EA00077FEA040A8AEA3A
:10070000024A8AEA010B87EA11488AEA374A80EAF4
:10071000060181EA1A418AEA030A04EA0A0045400E
:1007200088EA040707EA0B0041408AEA0B0608EA58
:10073000060084EA34428AEA3A4602EA060358404E
:100740004540414087EA37438BEA3B4003EA0009D2
:1007500085EA090582EA0309464006EA090671406E
:1007600085EA010005EA3546464006EA314181EA5C
:10077000304181EA364606EA304686EA354634405C
:100780000F4086EA010508EA050886EA364002407D
:1007900088EA020881EA314213405C4080EA0203A1
:1007A00009EA030987EA0907674088EA040806EAB4
:1007B0000A0601EA0B018AEA0B0425408AEA3A4458
:1007C000204045408BEA3B4B02EA0B02564084EA4C
:1007D0000B04234059406E40694087EA364080EA66
:1007E000384080EA060380EA104481EA134585EA2E
:1007F000344585EA17427D4082EA354180EA05406A
:100800003CE9F0006040694072407B40BEF1010E5F
:100810003FF6CFAE20BCFFF7C9FC28606960AA6034
:10082000EB60BDE8F08F00BFFFF76ABE2DE9F0076F
:1008300091E8F807B2E802105B1854EB0C04B2E838
:1008400002104D4156EB0C06B2E802104F4158EB36
:100850000C08B2E8021059EB01095AEB0C0A80E8C7
:10086000F80780410130BDE8F00770472DE9F00737
:1008700091E8F807B2E802105B1A74EB0C04B2E8D6
:1008800002108D4176EB0C06B2E802108F4178EB36
:100890000C08B2E8021079EB01097AEB0C0A80E847
:1008A000F80780414042BDE8F00770472DE9F007A6
:1008B000524290E87800B1E880071740DB1918EA47
:1008C000020854EB080419EA020955EB09051AEA73
:1008D000020A56EB0A0678C090E87800B1E8800773
:1008E00017407B4118EA020854EB080419EA020990
:1008F00055EB09051AEA020A56EB0A0678C0804150
:100900000130BDE8F00770472DE9F007524290E84A
:100910007800B1E880071740DB1B18EA020874EB87
:10092000080419EA020975EB09051AEA020A76EBCE
:100930000A0678C090E87800B1E880071740BB410C
:1009400018EA020874EB080419EA020975EB0905B4
:100950001AEA020A76EB0A0678C080414042BDE8F6
:10096000F00770472DE9F00152424FF0040890E87B
:10097000300091E8C000A31B1340E41AF618EB1BEB
:100980001340ED1AFF1830C0C0C1B8F10108EED114
:10099000BDE8F001704700BF00B592E8DC072DE923
:1009A000DC07B1E8805702B4A7FB02510A95A8FB07
:1009B000020BE7FB6310E9FB62B00B91A8FB03514C
:1009C000EAFB6201E7FB64B5E7FB6605E8FB661539
:1009D000CDF830B0A9FB03B6EAFB6316ECFB635617
:1009E000E8FB640BE9FB641BEAFB645BECFB646BF8
:1009F0000D90ACFB0230059CEEFB6250E9FB64609D
:100A0000EAFB64B0E7FB6431E8FB6451069CE8FB59
:100A10006461E9FB64B1EAFB64010E93A7FB043255
:100A2000079CE7FB6462E8FB64B2E9FB6402EAFB53
:100A30006412049CE9FB6453EAFB6463089CE7FBD3
:100A400064B3E8FB6403E9FB6413EAFB64230F95DA
:100A50005DF8049B99E80006DDF80080A9FB0854C6
:100A6000EAFB68B4DDF81080ECFB6804EEFB681468
:100A7000E9FB6824EAFB6834DDF80480EEFB686576
:100A8000E9FB68B5EAFB6805DDF81480ECFB681546
:100A9000EEFB6825E9FB6835EAFB68450F96DDF853
:100AA0000880AEFB0876E9FB6806EAFB6816DDF80D
:100AB0001880ECFB6826EEFB6836E9FB6846EAFB2B
:100AC0006856DDF80C80ECFB68B7EEFB6807E9FBC5
:100AD0006817EAFB6827DDF81C80ECFB6837EEFB43
:100AE0006847E9FB6857EAFB686708B000BD00BFCC
:100AF0002DE9F14F87B0FFF74FFFDDF81C8008F1BB
:100B0000200888E8FF00FFBC87E87F08BDE8F08F79
:100B100000B591E89857A3FB03520195A3FB04018C
:100B2000E3FB6420E3FB67100292A3FB0752E3FBA5
:100B30006802E4FB6415E3FB6805E3FB69250391A8
:100B4000A4FB07B6E3FB6926E3FB6A56E4FB670BED
:100B5000E4FB682BE3FB6A5BE3FB6C6B0490A4FB98
:100B60000810E4FB6950E3FB6C60E3FB6EB0E7FB4D
:100B70006721E4FB6951E4FB6A61E3FB6EB1E4FBCE
:100B80006E010592A7FB0832E4FB6A62E4FB6CB2DB
:100B9000E4FB6E02E7FB6E12E7FB6853E7FB696359
:100BA000E4FB6CB3E7FB6C03E7FB6E13E8FB6E231F
:100BB0000695A7FB0954E7FB6AB4E7FB6C04E8FB66
:100BC0006C14E8FB6E24E9FB6E34E8FB6865E7FB18
:100BD0006AB5E8FB6A05E8FB6C15E9FB6C25E9FBE7
:100BE0006E35EAFB6E450796A8FB0976E8FB6A06B8
:100BF000E9FB6A16E9FB6C26EAFB6C36EAFB6E46FB
:100C0000ECFB6E56E8FB69B7E9FB6907E9FB6A177D
:100C1000EAFB6A27EAFB6C37ECFB6C47ECFB6E5790
:100C2000EEFB6E6700BD00BF2DE9F14F87B0FFF707
:100C30006FFFDDF81C8008F1200888E8FF00FFBC8A
:100C400087E87F08BDE8F08F30B44FF0000310F85C
:100C5000014B11F8015B013A84EA050443EA0403FD
:100C6000F5D1A3F101034FEAD37030BC704700BF48
:100C70004FF0000310F8012B013943EA0203F9D1C8
:100C8000A3F101034FEAD370704700BF30B411F8ED
:100C9000014B12F8015B6C4000F8014B013BF6D1AF
:100CA00030BC70472DE9F00791E8F807B2E8021070
:100CB0005B1854EB0C04B2E802104D4156EB0C06E5
:100CC000B2E802104F4158EB0C08B2E8021059EBA1
:100CD00001095AEB0C0A8941B3F1FF3374F1FF3477
:100CE00075F1FF3576F1000677F1000778F100081D
:100CF00079F101097AF1FF3A51F100015B184C4199
:100D00004D4156F1000657F1000758F1000859EB24
:100D1000D1795AEB010A80E8F807BDE8F00770477F
:100D20002DE9F00791E8F807B2E802105B1A74EBBE
:100D30000C04B2E802108D4176EB0C06B2E802100A
:100D40008F4178EB0C08B2E8021079EB01097AEBDD
:100D50000C0A89415B184C414D4156F1000657F190
:100D6000000758F1000859EBD1795AEB010A80E8E5
:100D7000F807BDE8F007704718EB040859EB0509C0
:100D80005AEB060A5BEB070B5FF0000C4CF1000C12
:100D900018EB050859EB06095AEB070A5BEB070B42
:100DA00050EB0C005FF0000C51EB0C0152EB0C020D
:100DB00063414CF1000CB8EB070879F100097AF1B6
:100DC000000A7BEB040BA841B141A241B3416CF195
:100DD000000CBBEB050BB041B941AA41BB416CF122
:100DE000000C4CF001068CF0020718EB060859EBDA
:100DF0006C095AEB6C0A7BEB6C0B70EB6C0471EBBF
:100E00006C0572EB670653EB6C076CEB6C0C18EB24
:100E10000C0059EB0C015AEB0C025BF1000354F18E
:100E2000000455F1000556EBDC7657EB0C077047D4
:100E30002DE9F14F87B0FFF7AFFDDDF81080DDF849
:100E40001490DDF818A0FFF797FFBDE8000FFFF73B
:100E500093FF03B05DF8048B88E8FF00BDE8F08FD6
:100E60002DE9F14F87B0FFF753FEDDF81080DDF874
:100E70001490DDF818A0FFF77FFFBDE8000FFFF723
:100E80007BFF03B05DF8048B88E8FF00BDE8F08FBE
:100E9000054B1B780022013382600260034A4260E6
:100EA000C371FF2303727047D80E00208001080031
:100EB000064B074ADB7802604FF424728280C371CC
:100EC0000822002382710372704700BFD80E0020F1
:100ED00077850100064B074A1B7902604FF43C728C
:100EE0008280C3710822002382710372704700BFA1
:100EF000D80E002097810100064B074A9B7B0260B9
:100F00004FF4B0728280C3710822FF238271037292
:100F1000704700BFD80E0020057B0100094991F8F9
:100F20002A30CA78097903EB4303DB00103383804E
:100F300004230A4483710021FF2381600160C27190
:100F400003727047D80E00202DE9F341C41D00281C
:100F500024F00704064614BF2046002000F034FCAD
:100F6000071E04DA6FF00B0002B0BDE8F081984D67
:100F70002989E888EB7AAA7A0331033089B280B2F2
:100F800013F06EFA0028EDDBE9782B793C4403344A
:100F9000002E194424F0030400FB01F114BF204685
:100FA000002000F0BDFD20440EB90028DADBAA7B4A
:100FB0000446B2B12B7C697C13441944FF29D1D873
:100FC0000330002E20F0030414BF20460020AA891D
:100FD000C9B200F017FE0028C4DB04440EB9002C8F
:100FE000C0DB7C4FD7F80080B8F1000F17D0E97B49
:100FF000A9B195F82C30002B00F0FC8040234FF471
:1010000081720734002E24F0070414BF204600200C
:10101000C0470028A6DB04440EB9002CA2DBA97847
:10102000A1B1AB7B1BB93B6883B1EB7B73B10734D8
:10103000002E24F0070414BF2046002008F03EFFD5
:1010400000288FDB04440EB9002C8BDB624B1B683D
:1010500093B1E97D81B10334002E24F0030414BF61
:10106000204600202A7E98470028FFF67BAF0444E4
:1010700016B9002CFFF676AF584B1B688BB1A97DD3
:1010800079B10334002E24F0030414BF204600205D
:1010900098470028FFF666AF044416B9002CFFF607
:1010A00061AF4F4B1F68AFB1697C99B12B7D009345
:1010B0000334002E24F0030414BF20460020EB7CF0
:1010C000AA7CB8470028FFF64DAF044416B9002C9F
:1010D000FFF648AF434B1B6893B1E97D81B1033400
:1010E000002E24F0030414BF204600206A7E984797
:1010F0000028FFF637AF044416B9002CFFF632AFD4
:1011000095F82500B6FA86F77F09A0B1AB7FE97E96
:10111000033424F00704194444F004043B462246F7
:10112000C9B200F06BFE0028FFF61CAF044416B9EC
:10113000002CFFF617AF95F8261000295DD004F1BA
:101140000708002E28F0070814BF404600202A8D0B
:1011500013F09AF9041EFFF605AF4444002E4FD158
:10116000002CFFF6FFAE95F82010002956D095F818
:101170002430002B52D06A8C0734002E02F1240256
:1011800024F0070814BF4046002092B213F07CF907
:101190000028FFF6E7AE404416B90028FFF6E2AE9D
:1011A0006B7FE97E033020F0070040F0040419440F
:1011B00095F824003B462246C9B200F011FE0028F3
:1011C000FFF6D0AE044406BB002CFFF6CBAE0BE01E
:1011D000D80E0020F41B0020F81B0020041C002067
:1011E000FC1B0020001C00202B6B13B3E6B12C630A
:1011F0000020B9E62523282203E7002EB3D0884635
:10120000298D40460FF0C2FAADE76A8C95F82010A0
:10121000083292B240460FF0BFFAE5E7002EE3D065
:10122000002211461046F6E728343FF59BAE2046D3
:101230009AE6002EDCD1FAE708B5014672B6094BF2
:101240005B6B0BB108489847BFF34F8F0749084BBA
:10125000CA6802F4E0621343CB60BFF34F8F00BF54
:10126000FDE700BFD80E00208387040000ED00E0FA
:101270000400FA0513B5134C6389ADF800302389D7
:10128000ADF804306846E388ADF8023006F08EFC15
:1012900018B148F65300FFF7CFFF207D06F0DCFCC5
:1012A00010B14CF2CD70F6E7E07C06F0CFFC10B147
:1012B00044F29C50EFE794F82A000DF0EDF902B0EB
:1012C00010BD00BFD80E002038B50546002840D01C
:1012D00012F09AF810B94FF0FF3038BD0FF002FF4E
:1012E000B0F5FA7FF7D81C4B1C4C002119601C4B41
:1012F00084F838102722601D217084F82C10216397
:101300001960656312F052FB0823A3700123E37098
:101310002371A373A3746376F7231B2203216384D1
:10132000FB23E2802281A17202221F20E173238528
:1013300049210A23E272A081E174227684F82A30DE
:10134000EFF3108472B600F069FD04B962B60020B4
:10135000C3E76FF01500C0E7F41B0020D80E002093
:10136000001C002010B5002840F0B7805C4C94F8B9
:101370003830032B00F0AE80A9B1002A78D00139B3
:10138000172900F2AA80DFE801F00C1D20375F6703
:10139000803D6A6D7B4349565B858895989B8DA8F7
:1013A000A89E1378E3700020FFF7CEFD0028B7BF9A
:1013B0000123022384F838306FF00B00A8BF84F8B3
:1013C000383010BD13782371EDE71379002B4FD01F
:1013D0005379002B4CD01188FB2949D853881B3BEB
:1013E0009BB2E02B44D81A2942D91368C4F80630BE
:1013F0003C4B92889A80D6E71378227C934237D36D
:10140000A373D0E71378A27B934231D82374CAE741
:101410001378A27B93422BD86374C4E713783BB351
:101420005378013BDBB2F82B22D8138863822E4B12
:1014300092789A70B7E7107860750DF0CBF8B2E744
:101440001378ABB16376AEE71378284A12680AB115
:10145000012B0DD9E373A6E71388A381A3E71378C3
:10146000E375A0E722491378096821B9012B04D854
:101470006FF01500A5E7002BFAD01378237692E7DA
:101480001378082BF4D8A3758DE71388FF2BEFD8BA
:10149000A37088E71378A37685E713780E2BE7D837
:1014A000E37680E713681349236253684B6013891E
:1014B0000B8178E71378237775E71378A37772E7C2
:1014C000137863776FE713785A1E092AD0D884F807
:1014D0002A3068E74FF0FF3073E76FF02C0070E7B9
:1014E000D80E0020DE0E0020EA0E0020F41B0020A3
:1014F000001C0020F80E0020F8B50D46064630B35B
:1015000029B311F0070422D1124F97F83830012B7C
:1015100002D16FF00B00F8BD032B02D14FF0FF306A
:10152000F9E700F0B7FC0028F8D02846FFF70CFDDB
:101530000028EEDB17F097F93046396B06F040FCD7
:10154000FFF798FE032387F838302046E3E76FF073
:101550001500E0E7D80E002010B5074C94F838309D
:10156000032B03D106F044FC07F016FC13F0D6F869
:10157000002084F8380010BDD80E002008B506F011
:10158000CBFBBDE808400249032000F015B900BFBD
:10159000F90E000008B506F0D3FBBDE8084002498B
:1015A000022000F009B900BFD50E000008B506F012
:1015B000E9FB0649012000F0FFF80549002000F092
:1015C000FBF8044B044A1A6008BD00BF910E0000EE
:1015D000B10E0000F41B0020F14D000008B50449D5
:1015E000102000F0E9F8BDE8084006F05FBB00BF3E
:1015F0001D0F000008B50449102000F0DDF8BDE81B
:10160000084006F065BB00BF1D0F0000074B4FF000
:10161000FF3141F6FF72C3E9001205490022C1E91A
:1016200000221F21C3E90212704700BFC00400203E
:10163000140F00203F280CD801380B4BC0F3421286
:1016400000F01F0053F8223023FA00F000F00100F0
:101650007047FF2806D04038C0F34212034B00F019
:101660001F00EFE701207047C0040020140F002086
:101670000146074B006849681A4603C240F48C22B1
:101680001A6041F0107242F4FF625A600020704705
:10169000C00400200246034B0068516803C30020C9
:1016A000704700BF140F00200246034B00685168CA
:1016B00003C30020704700BFC80400203F280DD896
:1016C0000138074BC0F3421203EB820300F01F0006
:1016D0009B6823FA00F000F001007047002070477B
:1016E000C0040020F0B50C88C37B0288A5B2C4F307
:1016F0000E0404F110060233865B1A44334497B299
:1017000013FA82F3013B4288B3FBF7F313FB074361
:101710009BB29A42044A93BF22EA05032A4013432C
:101720009BB20B80F0BD00BF0080FFFF4A1E062A5F
:1017300008B50346084603D84CF2A650FFF77CFDD7
:10174000094A914202D947F24660F7E711B903B15D
:10175000196008BD2BB11B680022C3E901211A1DC5
:101760001A600430F5E700BFFAFFFF7F10B5114B98
:1017700000EB41041A786389B3FBF2F303FB022305
:10178000013A1A44B2F5706F0279807828BF0023BD
:101790001A440B18B2FBF0F100FB11215B1AB3FBEA
:1017A000F0F100FB113313446FEA43436FEA5343F4
:1017B000638110BD1C0F0020024B03EB80035960B6
:1017C000704700BF1C0F00202DE9F04F10F0070AF2
:1017D00085B0054603D04EF6A700FFF72DFD554F07
:1017E00007F15006B1460446B0464FF0010B57F8DA
:1017F000043B8DF80BA043B101A898479DF80A302F
:10180000082B02D94CF63910E7E79DF80B1041BBC5
:1018100005B131604F4506F10406E8D1002D70D0C6
:10182000DFF81491002289F800209646132758F813
:1018300027A0013FBAF1000F56D09AF804609AF839
:1018400002C0FF2E61D039460023481C39D19C4488
:10185000BCF1FF0F40D90AB189F800E044F6E62058
:10186000BBE79DF80AC06046022838BF02204B1D26
:101870005A0004EB4303441E2344BDF8084064446B
:10188000013CCCF1000C04EA0C044042B4F5803F6A
:1018900003EA000302D34EF616509EE775B19A1A7A
:1018A00032609170148082F803B09DF80C001071C2
:1018B000019810814FEA104CA2F806C004FB0134D5
:1018C000A8E758F8210028B190F804B0B34504BF48
:1018D00080781B180139B8E7DBB2E6458AF8043096
:1018E0003CBF5FFA8CFE01227B1CA0D10AB189F8B3
:1018F00000E0132640F6FF6A58F82670B7B9013E9B
:10190000FAD2601B05B0BDE8F08F0023E5E707EBD6
:1019100041033846A3F80AA0FFF728FF09F101099F
:10192000BB785FFA89F18B42F1D8E8E74FF0000904
:10193000F6E700BF200F00201C0F002038B54FF63F
:10194000FF730380174B03EB81030246586DA8B168
:1019500084780379B3FBF4F104FB1133DBB219464D
:1019600000EB4105B5F90A50002D0EDB0131B1FB4A
:10197000F4F504FB1511C9B28B42F1D1002038BD3A
:101980006381BDE8384012F048BD00EB4104638933
:10199000C3F30E031380C278002AF1D14FF6EF1083
:1019A000FFF74AFC1C0F00201C4B03EB810370B5B2
:1019B0005C6D05463CB3030403D546F63870FFF76B
:1019C0003BFC0146204612F00AFDFF28014604D0E8
:1019D0002046BDE8704012F020BDA078B5FBF0F3C2
:1019E00000FB1353DBB219460A1D04EB4206B6F99D
:1019F0000260002E09DB0131B1FBF0F200FB121195
:101A0000C9B28B42F0D1002070BD8B4201D00023BF
:101A1000E37004EB42025580DAE700BF1C0F0020A0
:101A2000094B03EB810310B55C6D0146204612F0B3
:101A3000D6FCFF28014604D02046BDE8104012F035
:101A4000ECBC002010BD00BF1C0F0020F8B5104BEF
:101A500003EB810307465C6D0146204612F0BFFC94
:101A6000FF28054611D0E288238953EA024606D0B2
:101A70000146204612F0D1FC01463846B0472046C8
:101A80002946FFF773FE0020F8BD0520FCE700BFE4
:101A90001C0F002038B50E4B827903EB82030446FD
:101AA000586D08B9052038BD8278E1799142F9D2A4
:101AB0004B1CE37100EB41035D89B3F90A30002B45
:101AC000F3DBA58012F0A9FC20600020EBE700BF4B
:101AD0001C0F002008B5114B03EB81035A6D1AB996
:101AE0004EF6C520FFF7A8FB9178831A481DA3EB9B
:101AF00040031088B3FBF0F3002B01DB994202DCBA
:101B000041F2B740EEE702EB4302B2F90A305089E6
:101B1000002B02DA4EF63450E4E708BD1C0F00201B
:101B200070B5044610F003000E4603D04BF6BD001E
:101B3000FFF782FBFFF7FAFD054624B10348314663
:101B40000460FFF7F3FD284670BD00BFC00F002002
:101B50002DE9F14FDFF870B09DF828A09DF82C908A
:101B60001E46DBF8003007460D4690461BB945F689
:101B70001E00FFF761FB52460921404612F0F2FABF
:101B80004A4684B20921304612F0ECFA14FA80F188
:101B9000DBF8000012F0F8FB386018B9286001B0DB
:101BA000BDE8F08F04442C60386853464146092252
:101BB00012F09EFA28684B460922314601B0BDE872
:101BC000F04F12F095BA00BFC00F002070B50E465E
:101BD000044612F0DAFA0546304612F0D6FA044B03
:101BE0002A1821461868BDE8704012F0F1BB00BF0A
:101BF000C00F0020024B186808B112F0B9BB704743
:101C0000C00F00201F2AF8B5044613460ED89200D4
:101C1000033222F00303B3F5803F2DD2184DACB14F
:101C2000A00710D04FF6FC00FFF706FBFF2B4FEA92
:101C3000420204D9FF339A42A8BF1A46E8E77C2A39
:101C4000B8BF7C22E4E729706C602B8122F003028C
:101C50002823120403FB01F001276B68120C0025F6
:101C6000EEB2B14200D8F8BD14B126181F705E6004
:101C7000104401352833F3E74FF0FF30F3E700BF9E
:101C8000C40F002070B5154A157853680021C8B2FA
:101C9000854203D849F28140FFF7CEFA1C46184628
:101CA00014F8286B01310EB92346F0E70021997032
:101CB000128999610124D96159685C70920803F115
:101CC0001E0403F1260524F8022FA54243F8041F41
:101CD0001144F8D100234361037070BDC40F00208C
:101CE0000A4B1B89B3F5FF7F4FEA930006D25A08CF
:101CF0009B1A9BB2984238BF18467047B3F5EE6FF7
:101D000001D8FF22F4E740F27263F3E7C40F00202A
:101D10004B782DE9F04106460C4602F0040702F02C
:101D2000FB05E3B1A5BBFF23A3707B0804EB5707BA
:101D30003A7D032A02D1022D18BF0133E218012196
:101D4000117503F10C0104EB8303002224F8112028
:101D50005B68A2703360B2803046BDE8F081002D30
:101D6000E1D101234B701D4B8D611B89CD6101F1C8
:101D70001E0249689B08204604F1260C22F8023F07
:101D8000944540F8041F1944F8D100236361CAE761
:101D9000D1F80480142200216170A01811F006FE11
:101DA0000E4B1B89B3F5FF7F0FD25A089B1A9BB2CB
:101DB00008EB0301C4F804802384A1606284C4F8A2
:101DC0000C80A3842161E284ADE7B3F5EE6F4FF0A0
:101DD000FF02EBD940F27263EAE700BFC40F0020B4
:101DE00007B5CDE900230B4603490246081D12F052
:101DF0006FFC03B05DF804FBF00F002013B5064C38
:101E0000CDE900230B46024604F1080104F10C0061
:101E100012F05EFC02B010BDF00F0020134B012247
:101E200000214FF0FF309A60C3F80012C3F8080396
:101E3000C3F80015C3F804259A60C3F80803C3F873
:101E40000015C3F804250A490A4A03F580334FF404
:101E50000040C3F80825C1F88000BFF34F8FBFF3DF
:101E60006F8FC1F88001C3F80825704700F000406B
:101E700000E100E00000F63F024B02681A6000201B
:101E8000704700BF00100020014B1B68184700BFBF
:101E900000100020024B1868003818BF012070475E
:101EA000001000208C469B2300B50CF8033B054B2B
:101EB0008E4607CBCEF80300CCF80410CCF80820EF
:101EC0005DF804FB1010002010B5154C0DF04EFE0F
:101ED0000EF082F9636A608C00219847237E93B9E3
:101EE000618CA06A08F03EF9A36AB3F8B20007F06B
:101EF0009BFF236B94F82C1094F82D009847002337
:101F000084F8343010BD94E8070004F10C0383E832
:101F10000700044904F1190014F0C0FBE0E700BF1A
:101F200004100020A51E0000034B93F8343003B9C1
:101F30007047FFF7C9BF00BF0410002070B5294DDE
:101F4000AE6A96F8B0407CB1012817D0012913D8A9
:101F500095F82C3083B96B8C13F020030CD1C4B9E5
:101F6000012819D0204670BD0028EFD1EB8E5B0709
:101F7000ECD5337C072BE9D1012070BDEB8E1A071D
:101F8000E4D595F83830002BF6D1337C082BDDD121
:101F9000F2E708B1184670BD0CF092FE73698342F7
:101FA000EAD3B37C002BE7D1EB8E34B19A0704D58A
:101FB00095F8380080F0010070BD002BDCD195F859
:101FC00039301BB995F83A30002BD5D0AB6AD3F82D
:101FD0001821B3F82431908A98422CBF00200120A8
:101FE00070BD00BF0410002008B5084B93F83420E2
:101FF000022A07D1DA7A42F00102DA72BDE808401B
:10200000FFF762BF49F6FB50FFF716F904100020F6
:1020100010B41E494278CC6B2378D20002F008023B
:1020200003F0F30313438278920002F00402134397
:10203000C278120102F0100203F0EC03134302789D
:1020400002F0030213432370B1F848306370022397
:10205000A1F84030CC6B00792378420123F02003B3
:1020600002F020021343012823700CD18B6A93F8ED
:10207000C22093F8C330032A08BF002203F01F03D5
:1020800043EA8213A37010BC704700BF0410002005
:10209000F0B5184CE56C83B045B3A36D33B3B4F819
:1020A0005C306B702B782F4601F0030123F00303A3
:1020B0000B4307F8033B0646B4F85C20A16D384695
:1020C00011F0F6FC0DF1020201A9206E2565A7654D
:1020D00012F044F9019812F02FF90346B4F85C109D
:1020E000206E336012F00AF903B0F0BD42F6D4104E
:1020F000FFF7A2F8041000202DE9F047BB4C84B094
:10210000A56A002302938DF80C308DF80130ADF8EC
:1021100002302B7A062B00F26F81DFE813F0940077
:10212000D700400040006D01070007000DF10201DB
:1021300001A806F0C1F8002800F0EF80019E002EF3
:1021400000F0EB8006210A462972BDF80210E66312
:102150000120A4F8481084F86C00002900F03081B8
:1021600003366664B5F80910ADF80910053A012A7E
:1021700000F2B68033780322022B8DF8082000F09D
:10218000F180A06E12F082F80646002840F0C08070
:10219000636C1B781B2B00F05E81002334E0B5F8E4
:1021A0002431A06EADF802300DF101020DF10201F3
:1021B00012F012F80646002800F0568101232A7A10
:1021C00084F86C30BDF80230E663A4F84830002B88
:1021D00000F0EA8003366664B5F80910ADF809101E
:1021E000022AC3D10223A06E8DF8083012F04EF8F7
:1021F00006460746002875D106F078F880F0010001
:10220000C6B28DF80B603B466A7E8DF80C3084F8C0
:10221000396002A822B1B4F84830002B40F0818028
:10222000FFF7F6FEE06BFF210DF06EFA0DF0D4FF24
:1022300001200DF05FFC012384F8743084F8343001
:1022400004B0BDE8F08795F8B0300027A5F84C70D1
:10225000002B4CD0A97B2439072948D9EB7B243BA0
:10226000072B44D9064695F830810CF023FD03284E
:10227000A16AF3B200F0E88091F81E2101389A4279
:1022800088BFD21AC0B28CBFD2B23A4603289BBFD5
:10229000574B53F8203092005A4308F1FF385FFA49
:1022A00088F8B8F1030F98BF514BB1F81C1196BFD5
:1022B00003EB880304231B69B2FBF3F294F8673045
:1022C0001344994234BFCBB2DBB212E00023A4F82E
:1022D00048306364474AB5F80930E263ADF8093025
:1022E000012380E701238DF80B3000238CE794F85D
:1022F0006730A5F824310DF1020101A8ADF80230D4
:1023000005F0DAFF88B3019E7EB305210A461BE77C
:1023100001238DF80B30636C3BE745F24E40FEF72E
:102320008BFFFFF775FE206FFF210DF0EDF9E16BDC
:10233000206F0DF0E1FE7BE70FF0A0F8824579EB0E
:1023400001096BD201232B72A4F84880C4F84480A1
:10235000284A8DF80830B5F80930ADF80280E263FC
:10236000ADF80930002633464EE7BDF8023073B3AE
:10237000A36A93F85D80B8F1000F28D1A06E0DF12B
:1023800002010DF1010211F027FF0646F8B19DF898
:102390000130ABBB00233380B37003232B720322C5
:1023A000012384F86C300DE7B5F80910ADF8091079
:1023B000022A63643FF416AF053A012A90D804E07C
:1023C000B5F80930ADF8093061640026D2E6002383
:1023D00001222A72A4F848306364064AADF802303C
:1023E000B5F80930E263ADF8093079E70410002050
:1023F000840D0400681000204DF63B60FEF71CFFC2
:102400003146A06E11F094FF11F096FFD0F800A0B5
:10241000D0F804905AEA090307468DD19DF80120AF
:1024200000233B707B70BB70FB703B717B71BB7199
:10243000FB71002AAED0327802F00302012AACD040
:1024400002222B772A72ABE71A2B0BD8C3F11B039E
:10245000DBB29A0121E7012105F1C2000CF05CFC1E
:102460000123D1E63A4618E74DF64700FEF7E4FEB1
:102470002DE9F04FAD4CA56A94F834208BB005F1EE
:10248000B0030693022A4FF00003CDE9083340F071
:10249000A582236D032293F800B00E465978A4F864
:1024A0005C101344A3650BEA02030746A4F854200A
:1024B00007934FEA2B19CBF3001A002800F0B880DD
:1024C000002940F0E8816B7A628CE1640133DBB271
:1024D00083EA9B0142F4007211F00108628440F02B
:1024E000D6802A7A002A00F05D81032A6B7200F2FE
:1024F0001682012A00F05681B5F84C30A06EA5F87E
:102500004E3008A911F08DFE002800F07D82AB6FDF
:102510000133AB67EB6F43F10003EB67A36A002164
:10252000297293F8B0304BB16B793BB1E38E69718E
:1025300043F01003E3861020636A9847638C43F4EA
:1025400000636384AB7E4FF00008CBF3C00B002B1D
:1025500040F0A480AB7A03F00102934500F0E880DC
:10256000E36C002B00F0AE8109F0010984F83A9089
:10257000002E40F0C68046464FF0000894F87610D2
:102580000120FFF7DBFC82468146002800F019811C
:102590000DF0ECFAD046638C5A0607D4636A00212A
:1025A00040209847638C43F040036384A06A7EB167
:1025B000EB8843B990F8B0302BB1B4F80530B4F8DB
:1025C0000720134304D0B4F809300133A4F80930CC
:1025D000002F00F0EF80B4F805300133A4F8053087
:1025E000002384F8763007F00FFC089830B111F022
:1025F000A3FE00220272069906F0F2FC099B33B199
:1026000000221A720C220998069906F0B7FCB8F15C
:10261000000F6AD1638C1B0607D4636A4146802091
:102620009847638C43F0800363840BB0BDE8F08F60
:10263000AB7E002B40F02C8194F87630013384F887
:102640007630638C43F48063638495F83131033BC7
:10265000012B04D906F09CFD804600285AD00CF0CE
:1026600029FB0328E36C00F01B81002B7ED009F0CE
:10267000010984F83A90002E53D00DF077FA668C59
:1026800016F0400640F093804FF0010886E7AB7EDD
:10269000B846CBF3C00B002B3FF45CAFB4F85C3012
:1026A0008BB9AB7A03F0010293457FF459AF013344
:1026B000AB72079B032B00F04681E26C002A7FF48B
:1026C00053AF934656E00DF0A3FD0328FBD002283C
:1026D0000BD000287FF43EAFAB7A03F001039B459B
:1026E0007FF43EAF012384F82D30FFF7EDFB0BB0F4
:1026F000BDE8F08F638C43F020036384002E3FF429
:102700003AAF0DF033FA638C5A0600F1BA804646B0
:10271000B84643E7E36C002BA9D1B4F85C208346AC
:1027200028E04FF00008464628E700BF04100020CC
:10273000B4F85C20002ABAD00798411E012958D964
:1027400001330328AB7200F0FE80D5F880300133EE
:10275000C5F88030D5F8843043F10003C5F88430E3
:10276000E36C002B7FF400AF9B4603E0B4F85C20E1
:102770009B469846002A14BF4FF0000A0AF0010A4F
:1027800084F83AA0002E40F0398194F876100120A8
:10279000FFF7D4FB4646814690B10DF0E7F94FF0C4
:1027A0000108F8E6B5F84C30A5F84E30B6E6A06A58
:1027B0004FF00108B4F807300133A4F8073012E7EE
:1027C000D8466B7E002B40F08180002095F83021A8
:1027D000B5F8E8100CF048FEB4F85C00FFF78CFC8C
:1027E000B9F1000F3FF4D7AE079909A8FFF750FCE5
:1027F000D1E6638C95F81AB043F4805363840CF0EF
:1028000059FA032895F81E3107D1BBF1000F0CBF10
:102810001F221B22934228BF1346B4F85C20E16CB0
:102820009A4200F2AC80002900F0C88094F875301C
:1028300009F0010984F83A90002B7FF45BAFD5F8DA
:1028400080300133C5F88030AB7A03F10103AB72FD
:10285000D5F8843043F10003C5F884303EB994F8CC
:1028600076100120FFF76AFB002800F0A3800DF02E
:102870007DF9079909A8FFF70BFC638C5B067FF5D0
:1028800046AFA06AB8F1000F7FF492AEB846A2E658
:102890000DF0FCFCD0E6206E11F019FD014612E6A9
:1028A000B4F85C201B2A94BF4FF000084FF00108D9
:1028B000002B61D009F0010984F83A90002E7FF4D2
:1028C000DCAE5BE6B4F85C209B4653E7A36A95F860
:1028D0003A0193F8B02095F83031013BDBB2B2FAFF
:1028E00082F28000032BD5E91EAB4FEA5212C0B230
:1028F00005F1880105F1980C7CD8CDE9002C4FF04A
:10290000010E4FF0000CCDE904CE4FF0FB0C039309
:1029100052465B46CDF808C00DF040FB55E7053A3E
:10292000012A5FD8B5F84C30A5F84E3005F0D2FC3E
:1029300000285BD0E38E43F00803E3864146636AD8
:1029400008209847E3E5638C314943F4805363845E
:10295000E38E012043F00103E3862871636A984700
:10296000D5F880300133C5F88030D5F8843043F194
:102970000003C5F88430F3E5C3469846FAE694F8B8
:102980002C3043F0100384F82C3029B309F00109EE
:1029900084F83A90002E3FF4EEAD0DF0E7F8638C2A
:1029A00059067FF5B4AEA06AB8F1000F7FF400AE0F
:1029B000B04610E64646B946804602E7002A14BFF4
:1029C0004FF0000A0AF0010A84F83AA0B346002E3C
:1029D0003FF4DBAE4646E0E68B46CBE645F22F60A1
:1029E000FEF72AFC40F66E70FEF726FC48F2D64051
:1029F000FEF722FC4DF2FB10FEF71EFC0DF0B6F8C0
:102A00004346B0461E46C6E54DF29950FEF714FC0B
:102A10005C1000202DE9F041534C94F83430012B28
:102A200086B040F09880A66A5FFA83F8337905464D
:102A30000F4673B1E38E002143F00403E386317146
:102A4000636A04209847A36A93F8B0300BB186F804
:102A50000580337A052B06D005B9DFB906B0BDE88D
:102A6000F041FFF731BAE38E404943F00203E386B9
:102A70000220636A9847A36A93F8B030002BEBD02A
:102A8000636C1B78A3F10203B3FA83F35B0984F848
:102A90003830E1E729462846FFF750FA0028DDD113
:102AA000B37EA76A002B36D197F83121B7F8EA1028
:102AB00001200CF0D9FCA56AA06FAB7E94F87710CA
:102AC00020654FF48172A4F85420DBB90CF01CFE91
:102AD0000DF082FB95F83131B5F8EC20B5F8EA102D
:102AE000033B012B8CBF00202820104480B20CF047
:102AF0005DFF00200CF0FEFF022384F8343006B0A6
:102B0000BDE8F081206F04310CF0FEFD216F206DD7
:102B10000DF02EFBDEE797F8310197F8B0C094F87E
:102B200077E00138BCF1000CC0B218BF4FF0010CC7
:102B30000328D6E9202306F1880106F198060ED86D
:102B4000CDE903050120CDE9016ECDF800C0059067
:102B50000DF024FAA8E749F2C870FEF76DFB4DF2BC
:102B6000FB10FEF769FB00BF041000204810002096
:102B700010B50B4C0B4A94F834300B4911601BB163
:102B800048F67620FEF758FB03F0FF02227607F0A6
:102B9000E1FA05F045F9A06705F046F9206710BD98
:102BA00004100020081C0020902E000010B5074AD9
:102BB00092F8343013B10C24204610BD03F0FF040A
:102BC000147607F0C7FA204610BD00BF041000209D
:102BD0002DE9F043974C94F8346087B0002E40F014
:102BE0002081002900F01D81002A00F01A8105468D
:102BF00006F0FF0084F87530C4E90915226384F8F3
:102C00002C0084F8760084F82D0084F87400E086A7
:102C1000608484F8390084F83A0084F86C0084F801
:102C20003800E0636064A4F848002065A065A4F85B
:102C30005C000CF0CFF80DF0CFFA95F938010CF0EC
:102C400025F9D5F8DC60D5F8D4000CF027F930462A
:102C50000CF038FD95F82B000CF02AF9B5F8E830A7
:102C6000642B66D9B5F8EA30642B62D9A36A93F86D
:102C7000B060002E64D093F8EF32002B7BD114F0BB
:102C800097FB95F8312100F16B0101200CF0D8FB86
:102C9000694B18680CF01CFDAB7BD5E93212243B64
:102CA000072BA166226669D9EB7B243B072B65D9EC
:102CB00095F8FA3095F81E6184F8673006F068FAE6
:102CC000002864D1A36A84F8776093F8B070002F6D
:102CD0004AD0AA7E002A6AD19B7EA06F20654FF45D
:102CE0008172A4F85420002B58D131460CF00CFD11
:102CF0000DF072FA00200CF0FDFEA36A0222D3F858
:102D0000E80184F834200CF019FE0023C4E90033F4
:102D1000A360D5F83431E888B5F8B21095F82B20C7
:102D20006080218022710BB101221A6007B0BDE8DA
:102D3000F0830BF0AFFFA36A93F8B060002E9AD136
:102D400014F036FB95F830213C4B33F81230014635
:102D500030463B4E03F5FA73A6FB036301EB931178
:102D60004A310CF06DFB93E76B7E002B3CD10020C9
:102D7000FFF7C2F9C9E70CF00FF880E71B2395F8BD
:102D80001E6184F8673006F003FA00289AD006F036
:102D900005FAB04238BF3046C6B293E7206F311D06
:102DA0000CF0B2FC216F206D0DF0E2F9A2E795F86E
:102DB0003131013BDBB2032BD5E9200105F1880756
:102DC00005F1980231D8CDE902630192002602464E
:102DD00001200B4604963946059000900DF0DEF870
:102DE000A36A94F8776077E795F8303195F83A015F
:102DF000013BDBB28000032BD5E91E89C0B205F18F
:102E0000880105F1980210D8012605960096FB2648
:102E1000CDE9033701924B46424602960DF0BEF8CB
:102E2000A5E740F60430FEF707FA4DF2FB10FEF777
:102E300003FA00BF04100020081C00200410040046
:102E4000D34D6210FFF740B8014B93F87400704700
:102E500004100020064A538C13F4C06F03F4805111
:102E600003D092F86C0000B17047080B704700BFA8
:102E700004100020024B93F82300C0F3C0007047F9
:102E800004100020014B93F87600704704100020D6
:102E9000E91F000071240000152A0000291F00000E
:102EA0000B46812203F8032BB0F809C0C27AA1F8BF
:102EB00003C09A70704700BF08B54AF2DF60FEF7A2
:102EC000BBF900BF90F8DE2012B902F0FF00704796
:102ED00010B5363882B00C4602F086FE8F230420EF
:102EE000237002B010BD00BF70B5002857D0437AE0
:102EF0000D460446BBB340890021FEF791FD002832
:102F000051D0B0F8B2000021FEF7A0FD00284ED14C
:102F100094F8546094F8A6302BB194F8A7301E436F
:102F2000002384F8A630204602F05EFEB3072CD1C1
:102F30002B46882203F8032B04F109022934166872
:102F400050689168D2F80CC0C3F80CC01032A2428D
:102F50001E605860996003F11003F0D11178197068
:102F60000022AA7170BD036DD0F80E20C3F8B52001
:102F7000428AA3F8B920437B026D03F0FD03003BB6
:102F800018BF012382F8B430C2E726F004060022FD
:102F900084F854601146204603F08CF8C8E74AF6DE
:102FA000F450FEF749F948F61D30FEF745F94FF6A3
:102FB0009E10FEF741F900BF044B1B680022A3F8E6
:102FC000792183F87B2183F87020704780100020DE
:102FD00008B50BF017FB034B18700CF085FA0320B3
:102FE00008BD00BFD004002038B50122124C1046A5
:102FF00096210CF039FA20686C3001F06BFF65689F
:1030000001F018FF63682860186868B101F040FF9C
:1030100070B125210CF078FB962100200CF0C6FC45
:10302000636804221A7138BD4AF2C630FEF704F90B
:103030004CF6AD60FEF700F980100020F0B54B4C67
:103040002568002383B06B722B6DB3F8B2206A81C0
:1030500006460F46D3F8D00093F8391112F0BFFEA0
:10306000236828841A6DD2F8D820C3F822204FF4A0
:103070007F42DA844FF6FF721A85002E49D0012173
:10308000384613F021F93A78D209236893F84810AA
:1030900009B1002A47D1002159611983207B0828F2
:1030A00051D003F10E0203F10D0105F0A1FB002840
:1030B00057D023685A7B42F002025A7303F11A0573
:1030C000002E3AD103F1780002682A608288AA8033
:1030D000186D93F95810B03005F0FCFC20682449B5
:1030E00013F0D3FA20682349036DB3F8B220A0F897
:1030F00033205B7F80F835302A3013F0CFFA206818
:10310000022103F017F920686C3001F0E3FE03B0F0
:10311000F0BDA068694612F0D0FFA3681A7868462F
:10312000C2F38012B1E7427902F0C002402AB2D164
:1031300002685A6182881A83B0E70021384613F08A
:10314000C3F82368C0E793F87E00996F5873C3F8FB
:103150000E10B3F87C0058820021C3F81A10D983EE
:10316000B6E743F26170FEF767F800BF80100020F9
:10317000E92E0000A12E000008B54EF2C040FEF777
:103180005BF800BF10B504788CB004F00F04224641
:1031900002A902F083F80BF035FA234A042C1070D0
:1031A00002D003200CB010BD204C0399236891F885
:1031B00000E093F878C0E645F3D191F801E093F888
:1031C00079C0E645EDD191F802E093F87AC0E64582
:1031D000E7D191F803E093F87BC0E645E1D191F89F
:1031E00004E093F87CC0E645DBD191F805C093F884
:1031F0007D108C45D5D193F87E309DF819109942F9
:10320000CFD17F280DD000904FF07F0C606882F8FE
:1032100000C0237C227B02A901F0C4FF03200CB074
:1032200010BDFFF7A9FF00BFD004002080100020D0
:1032300010B50D4A5368197902290DD91979082951
:103240000ED81B79526903F180439268033BBDE8B5
:10325000104052F8233018474CF67D30FDF7ECFF54
:1032600041F61C70FDF7E8FF8010002038B5194DBD
:103270006B681B79022B28D82B68027C83F8A4206A
:10328000C16899661A44044692F87C2183F8782133
:103290004268C3F88820037A022B0ED00BF09AFD07
:1032A0000CF0F6FB0BF00CFB0B480CF011FA0B4882
:1032B0000CF008FA0A480BF0F1FD637C23B12B688F
:1032C0005B6E0BB101221A6038BD4EF6DC10FDF7C3
:1032D000B3FF00BF80100020B448000055555500D2
:1032E000D6BE898E70B5384C63681A79032A0646B3
:1032F00043D01A79042A40D0226892F854209207C9
:1033000040D1A568002D4AD0236893F85430002B93
:103310003DD03EB1284613F083F8E0B9284613F0BB
:103320009AF8C0B963681A79022A3CD91A79082A2E
:103330003DD81B79626903F180435269033B52F81F
:10334000233098470C2826D86369DB68BDE87040B5
:1033500053F82030184763681A79022A2BD91A7952
:10336000082A2CD81B79626903F180431269033B58
:10337000284652F823309847E4E7186801F088FDA2
:103380000546BFE7186801F085FD0546BAE749F62E
:10339000F950FDF751FF4FF6D940FDF74DFF40F2D0
:1033A0003F50FDF749FF4AF28270FDF745FF4CF2AE
:1033B0000170FDF741FF4AF6EE70FDF73DFF47F261
:1033C0004D30FDF739FF00BF8010002070B5154D5E
:1033D0002C6894F84830EBB1D4E920126FF0004328
:1033E0009A4208BFB1F1FF3F14D00DF0F9FED4E9C5
:1033F0002023904299410DD32E6896F8483053B956
:1034000005F0F0F904460DF0EBFE074BE4FB030179
:10341000C6E9200170BD012005F0A6FA0028F9D008
:103420002E68EDE78010002040420F002DE9F04F9C
:10343000044687B006290AD8DFE801F0512E0F09AB
:1034400009090400B24D68688379002B71D10CF032
:103450004BF8032007B0BDE8F08F0CF045F8AC4AFC
:10346000136893F854108F07F3D0506881790029BE
:10347000EFD0A84D95F900107F2900F02582029128
:10348000127B01922146FF227F24009242330222C6
:103490002C7001F0E1FDDCE79D4DA27C2968686895
:1034A00091F8483090F806A090F80790012A83F030
:1034B00001035AD0002791F8542012F0040600F0BE
:1034C000EF8091F84B60002E59D091F84C80B8F104
:1034D000080F59D191F84100002680466DE08C4DCF
:1034E000D5E9003093F8542057071AD5C279002A3D
:1034F00000F0DF80626893F85B1016788E4200F06F
:103500003C8193F85620012A00F05B8193F84C30FF
:10351000082B03D042799A4200F053810BF0E4FF6C
:1035200068688379002B40F0C880C379002B90D164
:103530008DE72B6893F85420960740F1ED80754A8B
:1035400092F900107F2900F0BF81029121462C7B67
:103550000194FF2400947F2442331470062201F06A
:103560007BFD002309202B7474E7A268577907F0CC
:10357000C007A7F14007B7FA87F77F099BE790F8E4
:103580000580B8F1080F40D04046059305F042F899
:10359000059B8346002F40F04581296891F854200F
:1035A00091F8418002F0040C3E464046BCF1000F09
:1035B00041D043EA0B0B5FFA8BF3626891F85BC072
:1035C00092F800E0E64500F0FF804FF0000B6A68DB
:1035D0005279082A00F03D8191F84CC0ACEB020210
:1035E000B2FA82F252090592E6B1B9F1000F1DD08C
:1035F00091F85630012B00F0E48023B9059B5BEA7B
:10360000030B40F0DE804E4610E0626891F85BC02C
:1036100092F800E091F84100E64500F0D480B3460E
:1036200080460596002B40F0178100260BF05CFFCA
:103630002B6893F8542093073FF40BAF0BF054FF23
:10364000BAF1000F3FF405AF2968A36891F8410073
:10365000A27C423112F0A6FA002840F01981002E17
:1036600040F016812B6893F85520023A012A3FF664
:10367000F0AE002F3FF4EDAE264E96F900207F2AE3
:1036800000F0228102922A7B686801922146FE2284
:103690007F24009242330122347001F0DDFCD8E631
:1036A00090F80580B8F1080F7FF46EAF91F8418073
:1036B000C1E78379002B3FF4CAAE2B6893F85420FE
:1036C000960744D4D0077FF5C4AE510700F1F380CC
:1036D000104B93F900207F2A00F0F68002922A7B9B
:1036E0000192FF2200927F2018702B6868682146A3
:1036F0004233002201F0B0FC03206B68DA79002A23
:103700007FF4A8AE9B79002B7FF4A4AE9FE600BFA8
:1037100080100020D0040020D1077FF598AE530719
:1037200000F1B380694B93F900207F2A00F0CC8030
:1037300002922A7B0192FF2200927F201870D5E925
:10374000003021464233062201F086FC81E65F4AC2
:1037500092F900107F2900F0B780029121462C7B5E
:103760000194FF2400947F2442331470002201F05E
:1037700073FC012309202B74BFE7567893F85C1083
:103780008E427FF4BEAE967893F85D108E427FF441
:10379000B8AED67893F85E108E427FF4B2AE16794A
:1037A00093F85F108E427FF4ACAE517993F86020AD
:1037B00091427FF4A6AE617C93F85A2091427FF447
:1037C000A0AE0A2046E6804692F801E091F85CC07F
:1037D000E6457FF4FAAE92F802E091F85DC0E64566
:1037E0007FF4F3AE92F803E091F85EC0E6457FF413
:1037F000ECAE92F804E091F85FC0E6457FF4E5AEE8
:1038000092F805C091F8602094457FF4DEAE94F8FC
:1038100011B091F85A20ABEB0202D2F1000B4BEB46
:10382000020BD4E6A1680593404605F0D1F829685B
:10383000059B91F85420064602F0040C91F84100D3
:10384000002E3BD040F00208BCF1000F7FF4B1AE77
:10385000F1E600220592C7E6A368A27C423112F08D
:10386000A1F9B9F1000F3FF4E0AE2B6893F85630A0
:10387000012B07D0002B7FF4D8AE059B53EA0B0B2E
:103880003FF4D3AE00289CD1CFE60BF02DFE49E7E4
:103890000E4E96F900307F2B16D002932B7BCDE98C
:1038A0000083D5E9003021467F2401224233347061
:1038B00001F0D2FBCDE50BF017FE09E78046BCF125
:1038C000000F7FF476AEB6E6FFF756FCD00400207A
:1038D0002DE9F843674C0746A068D4F80080002320
:1038E0008946038025210BF09FFF002800F0A5806A
:1038F000A568032F2B78064600F0AB8023F02F033A
:1039000043EA491343F005032B70222223686A70AF
:103910001A6DD2F8D420C5F80F201A6DD2F8DC3019
:10392000EB74190A1B0C29756B7592F83A01B2F801
:10393000E410D2F8E030002840F093804E48A0FB1D
:1039400001C1A0FB0303890A9B0AEB75C3F307239C
:103950002B76A97592F83911D2F8D00012F03FFAFF
:103960006876000AA8762068A568036D95F824207B
:10397000D3F8D810C5F81B10D3F81E10C5F81F10C7
:1039800093F8223085F82330036D93F8293022F024
:103990001F0203F01F03134385F8243004F0D0FA0C
:1039A00095F8243003F01F0343EA401385F82430D0
:1039B000A568D8F87830C5F80930B8F87C30A5F893
:1039C0000D3098F87E10284612F087FB236893F894
:1039D000482093F8418003F14209AAB393F8542098
:1039E000520733D593F84B2082B393F84C0005F07F
:1039F00029F8054640B34FF00108A0682B68C0F8CD
:103A00000330AB88A0F80730414612F05DFB1B4B3A
:103A1000D3F804317BB9052F13D1236829681A6DB7
:103A2000C2F8BC10A988A2F8C0101B6D83F8BB8037
:103A30003046BDE8F8830BF057FD032005F0BEFAD1
:103A400000263046BDE8F8834D46D6E763685879CE
:103A5000CDE723F00F0343F003032B700C236B70AF
:103A6000A7E70748A0FB01C1A0FB0330C1F3471142
:103A700043096AE7801000205917B7D100100040B1
:103A80001F85EB5110B50A4C0AF0BCFD094A637B57
:103A900010701BB90BF028FD032010BD0BF0F8FFD0
:103AA0000AF00EFF002363730BF01EFD032010BD10
:103AB00080100020D004002010B50B4C637B63B94C
:103AC000A1680020FFF7BAFA23680022A3F8792141
:103AD00083F87B2183F8702010BD0BF0D9FF0AF02A
:103AE000EFFE00236373EBE78010002010B50F4C4E
:103AF000637B9BB9D4E9003000224FF0010C80F8C1
:103B000004C003F16C00A3F8792183F87B2101F054
:103B1000E1F92068BDE8104002F0E4BA0BF0B8FF0C
:103B20000AF0CEFE00236373E4E700BF801000209C
:103B30002DE9F04F0729044687B040680D469046AE
:103B400044D100285ED0637C012B00F0AB80A74EEF
:103B500073685879082844D004AA0DF10F0104F0C5
:103B600047FE002800F069819DF80F0004A913F0BA
:103B7000D4FB8146D6E9001791F8543013F00302C4
:103B800040F08280BA715A0763D40023FB71984BCE
:103B90001B6823B1414620469847387277686368AE
:103BA00043B13268617C82F87E10196891679B8806
:103BB000A2F87C303B7A0120002B00F04281A36800
:103BC0000BB1072D4DD007B0BDE8F08F874E002810
:103BD00000F08680637C7268012B4DD050790828F4
:103BE000BAD16168607C13F098FB726861688146A5
:103BF0000532607C04F032FD77680028BAD1F88085
:103C00003872DCE7794ED6E9001791F8543003F0AA
:103C10000302B8F1000F65D0002A40F0B88013F01D
:103C20000403BA71B2D091F84BA0FB799146002BF6
:103C3000ACD063688BB9386801F02AFB03460028D2
:103C400040F0A380BAF1000F00F0F380776853468C
:103C50009CE7062D91F84BA07DD84AEA0900C3B233
:103C600094E779790829AED00028ACD0184604F042
:103C7000F5FD0123F373A6E7437903F0C003402B5E
:103C8000ACD1737B13BBA9E7062D91F84AA04CD8A1
:103C90004AEA090A5B0787F806A07FF576AF91F834
:103CA0004BA0DAE7437903F0C003402B7FF44FAF1A
:103CB0004E4E737B002B3FF44BAFB8F1000F05D194
:103CC000336893F87811012900F09D80776811F02E
:103CD000ADFF73687871587930730123B37339E796
:103CE000814647E7B2F1000918BF4FF0010913F010
:103CF000040387F8069005D02378A3F10103B3FAF3
:103D000083F35B09FB7191F89430002B3FF45BAFB8
:103D10003368D3F89000503013F009FB00287FF48B
:103D200052AF736801221A724DE7082D02D90023A1
:103D3000BB712AE797F806B0B8F1000F2CD1626882
:103D4000002A46D04AEA090A580787F806A07FF5F4
:103D50001CAF91F84BA0082D3FF617AFFB79B8F1D7
:103D6000000F7FF464AF6268002A7FF476AF627858
:103D70000193D30657D4386801F08AFA00283FF43B
:103D800061AF019B002B3FF45DAF7768FEE691F8D1
:103D90004AA097F806B08146BBF1000F2AD06268AE
:103DA000002ACFD1386801F073FA80B9BAF1000F58
:103DB0003BD07768326887F806A092F8543013F049
:103DC00004033FF4E3AE92F84BA0FB79C7E78246C9
:103DD000EFE76278D0061DD4386801F059FA002860
:103DE000E4D0BBF1000FE1D0DA46E2E7801000201A
:103DF0000C1C00205B0787F806B07FF5C6AE91F873
:103E00004BA0FB7913E704F00BFD707300287FF4DF
:103E10005DAF9DE60120B87158077FF5B6AE91F809
:103E20004BA0FB79A4E70123B0E604F011FC824625
:103E3000BFE704F00DFC0346A7E746F27240FDF72A
:103E4000FBF9F888003818BF0120B8E670B5194EA4
:103E50008AB005460AF0D6FB3368174A93F8543007
:103E6000107013F0060F16D12C7804F00F042246C0
:103E70002846694601F012FA214600226846FFF7FB
:103E800057FE21466846FFF7D1FA737B044643B9D3
:103E900020460AB070BD0122962100200BF0E4FA02
:103EA000E2E70BF0F5FD0AF00BFD002320467373EB
:103EB0000AB070BD80100020D004002010B5104C56
:103EC000606801F07DF8637B9BB9D4E90030002283
:103ED0004FF0010C80F804C003F16C00A3F87921C5
:103EE00083F87B2100F0F6FF2068BDE8104002F067
:103EF000F9B80BF0CDFD0AF0E3FC00236373E4E7AF
:103F00008010002010B500210320FFF7E1FC144CC5
:103F100040B12068032101F0F1FE18B16368092265
:103F20001A7110BD637B9BB9D4E9003000224FF0B9
:103F3000010C80F804C003F16C00A3F8792183F828
:103F40007B2100F0C7FF2068BDE8104002F0CAB82E
:103F50000BF09EFD0AF0B4FC00236373E4E700BF9E
:103F60008010002010B51E4C636888B981B11A79A1
:103F7000082A2DD91A790C2A2ED81B79626903F1E7
:103F800080435268093BBDE8104052F8233018477F
:103F9000184601F015F8637B9BB9D4E90030002284
:103FA0004FF0010C80F804C003F16C00A3F87921F4
:103FB00083F87B2100F08EFF2068BDE8104002F0FE
:103FC00091B80BF065FD0AF07BFC00236373E4E716
:103FD0004EF20F00FDF730F94BF21560FDF72CF9AA
:103FE0008010002038B5214C6368186800F050FF3D
:103FF000002837D063680A2205461A71206800211C
:1040000002F098F922682B78126D557FC3F34013A4
:104010001D4005202946FFF75BFC40B120680421C4
:1040200001F06CFE18B123681B6D5D7738BD637BB2
:104030008BB9D4E9003000220125057103F16C0031
:10404000A3F8792183F87B2100F044FF2068BDE8C4
:10405000384002F047B80BF01BFD0AF031FC00239A
:104060006373E6E743F2DF20FDF7E6F880100020F7
:104070002DE9F041584C206882B06C3000F02AFFE6
:10408000656800F0D7FE636828601868002800F0B3
:104090009B8000F0FDFE0546002800F09980236813
:1040A00093F8A630002B47D1D4E9000290F8A43051
:1040B000034493F87C6180F87861137913B1137924
:1040C000012B4BD1454A90F8A530D05C0AF0F0FEA8
:1040D000236893F8A420134493F87C71022F3AD0FC
:1040E0004ED8012F4FD100F09FFE80463946012067
:1040F0000BF0D8F8414628460BF006FB012E33D1D1
:10410000E81C04F0BBFB607328B140250AF0BAFB41
:1041100028460BF0B1FCD4E90002082100235171BC
:1041200021730321D3801372E38180F895302374C7
:10413000117102B0BDE8F081236893F8542093F820
:10414000A700196DC3F81011024383F85420002210
:1041500083F8A620A8E74FF00D08C7E7002101F07B
:10416000CDFDA0B12068ADE7681D04F087FB60734A
:104170000028D0D0033E012E8CBF50255525C5E721
:10418000FB1E012BAFD94DF6D430FDF755F8637BFC
:1041900093B9D4E9003000220125057103F16C00C8
:1041A000A3F8792183F87B2100F094FE206802B007
:1041B000BDE8F04101F096BF01900BF069FC0AF0F8
:1041C0007FFB01986073E4E74EF2C150FDF734F8CD
:1041D0004EF21210FDF730F880100020A40D0400FC
:1041E00008B50AF00FFA044B18700BF07DF9BDE822
:1041F0000840FFF73DBF00BFD004002010B50C4CB5
:104200000AF000FA0B4A637B10702BB90BF06CF9C3
:10421000BDE81040FFF72CBF0BF03AFC0AF050FB52
:10422000002363730BF060F9BDE81040FFF720BF77
:1042300080100020D004002010B50446FFF716F8C7
:10424000237A032B34D01C4A12683BBB92F8A5306A
:104250001A490133A1FB030C0CF4FF7404EB5C045A
:1042600092F849001B1B40FA03F4E40713D401330E
:10427000A1FB034C2CF0010404EB5C041B1B40FA73
:1042800003F4E00707D40133A1FB034121F001044B
:1042900004EB51015B1ADBB282F8A53092F95800A9
:1042A0000AF0F4FDFFF7E4FEBDE81040FFF78EB81A
:1042B00045F63970FCF7C0FF80100020ABAAAAAA0F
:1042C00090F83E00003818BF01207047007A00388F
:1042D00018BF0120704700BF036D10B58BB10222DB
:1042E0004272B3F8B21041814FF6FF73FF220446C9
:1042F0000385064980F8272012F0C7F900232365BB
:1043000010BD48F66760FCF797FF00BFE92E00007C
:1043100038B5012105460020FDF782FB20B3044695
:1043200001F058FC02E094F870301BB194F8703042
:10433000012BF8D13F22002120460FF037FB00234C
:1043400040F201110722A4F84A1084F8543084F88E
:10435000A53084F8585084F84920636684F8943076
:10436000C4F8903084F8A63001210846FDF758FBC8
:10437000044618B301F02EFC02E094F870301BB133
:1043800094F87030012BF8D13F22002120460FF025
:104390000DFB002340F201110722A4F84A1084F813
:1043A000543084F8A53084F8585084F84920636666
:1043B00084F89430C4F8903084F8A630BDE83840D2
:1043C00000F028BDF8B5064603F02AFD1B4F034652
:1043D00001210020BB60FDF7E7FA30B34FF4C07253
:1043E000002104460FF0E2FA01210846FDF7DCFA4D
:1043F0007F69054680B14FF4C07200210FF0D6FAF4
:10440000BFB13046FFF784FF204601F0D9FB2846B4
:10441000BDE8F84001F0D4BB5FB13046FFF778FF4C
:104420002046BDE8F84001F0CBBB48F28450FCF7D1
:1044300003FF46F6DB70FCF7FFFE00BF8010002094
:10444000014B024A5A617047801000209C480000CE
:1044500003683BB1064A03F16C0113605369516074
:104460001B68184710B54CF29C60FCF7E5FE00BFD6
:104470008010002010B5104C606800F0A1FD637B37
:104480009BB9D4E9003000224FF0010C80F804C041
:1044900003F16C00A3F8792183F87B2100F01AFD69
:1044A0002068BDE8104001F01DBE0BF0F1FA0AF0E3
:1044B00007FA00236373E4E78010002080F84910B6
:1044C000704700BF11F001031DBF012380F87C314C
:1044D0000222012211F0020F05D003444FF0020C1A
:1044E00083F87CC113464A0703D51844032380F898
:1044F0007C31704780F85710704700BF10B50446F4
:1045000090F84000A0F1020CBCF1010F07D910B1E6
:10451000023818BF0120BDE8104003F023BF002976
:10452000F6D102F0FD02101E18BF0120194611F04D
:1045300073FB082801D0012010BD94F8400000282A
:10454000E6D1E8E790F8400000F0FD00003818BF21
:10455000012003F007BF00BF38B590F8A630DBB9E3
:10456000044603F0FF0094F85430013B012B00D9BE
:1045700038BD04290D46FBD1D4F8103173B9216D33
:1045800081B104F1E80001F015FC84F8A750FF2385
:1045900084F8A630012038BD002038BD47F66720DA
:1045A000FCF74AFE4BF23D60FCF746FE80F84010F7
:1045B000704700BF38B500F14201044690F8400052
:1045C00000F0FD00003818BF012084F8410003F01E
:1045D000AFFE94F84030023BDBB2012B94BF0123C5
:1045E000002384F8483000D938BD04F0FBF80546B4
:1045F0000CF0F6FD084BE5FB030194F84830C4E9E4
:104600002001002BF0D0002004F0AEF90028EBD1FF
:1046100047F22310FCF710FE40420F00B1F1000CEE
:104620000CBF0121002180F84B104FF0080180F8E9
:1046300056C080F84C100CD102F0FD0210B50446B3
:10464000101E194618BF012011F0E6FA84F84C003C
:1046500010BD704708B5AAB180F85A101368C0F8A9
:104660005B30036D918890F84120A0F85F1083F8CB
:10467000BB20D0F84220C3F8BC20B0F84620A3F8F5
:10468000C02008BD4DF6C770FCF7D6FDF0B5D0F8D8
:10469000C8409DF814E0944203D190F840208A422B
:1046A00001D00020F0BD1EF0020190F8454120D15C
:1046B0000D460A468618013596F87C61F71E012FD3
:1046C00000EB820788BF314353F82260D7F8CC2033
:1046D00002F1200C98BF41F004016645EAB2E0D136
:1046E000A242E7D90EF00500401AB0FA80F0400966
:1046F000F0BD0025AC4629462A46861800EB82020A
:1047000096F87C61D2F8CC20F71E012F9CBF0CF1EB
:10471000010C5FFA8CFC02F1200253F82C708CBF64
:10472000314341F004010CF10106BA4205F10105E3
:104730005FFA86FCB5D1EAB2A242DED9D2E700BF69
:10474000012938B5044610D094F854309B0704F181
:104750006C051AD1284600F0BDFB0023A4F879317E
:1047600084F87B3184F8703038BD0A4D6B7B002BA8
:10477000EAD00BF08DF90AF0A3F800236B7394F8DC
:1047800054309B0704F16C05E4D0284600F018FC77
:10479000E0E700BF80100020A03010F050BF00BF45
:1047A0000149363011F074BFC52E000010B501214B
:1047B00004460020FDF734F920B3627880F85420D5
:1047C000217811F001021CBF012280F87C214907E9
:1047D000034603D50244032182F87C11A27883F8B2
:1047E0004020E27883F8552002F0FD02B2FA82F20E
:1047F000520983F84A20227983F84920627983F8A4
:10480000572010BD46F63620FCF716FD10B50446BD
:104810006C3000F0D5FB0023A4F8793184F87B31AB
:1048200084F8703010BD00BF08B501210020FDF7ED
:10483000F7F828B190F89400003818BF012008BD9F
:1048400046F64C10FCF7F8FCB92F0000ED3A0000DA
:10485000B92E000071400000B92E0000B92E0000F2
:10486000B92E0000B92E0000B92E0000053F00004F
:10487000E53F0000B92E0000B92E0000E92F00002E
:10488000B93A0000FD410000E1410000853A000016
:10489000D12F00004D3E000085310000394200005C
:1048A0007C4800008448000048480000944800000C
:1048B0008C48000031320000E5320000653F000006
:1048C000BD3E00002DE9F04705468CB00E460020A5
:1048D0000121FDF7A5F8002800F074820446A830F5
:1048E00001F08CF9002846D094F85430042B42D0C3
:1048F000AF6A002F00F06981B74B9F427AD0043B2A
:104900009F4277D003F09AFA07F13B09804602A94B
:10491000484600F069FDEB7AB8F1000F00F0D58051
:10492000DC0606F10D0100F1FD81002F00F056823A
:104930009DF80830022B00F0518295F83230E522C4
:10494000484611F004FD95F83230044623444846A9
:1049500085F8323011F0F3FC95F83290A9EB00099C
:10496000B9FA89F94FEA5919B8F1000F48D104F1A1
:104970001802D2B2B8E02046FFF7A2FC0746002892
:10498000B6D1AB6A954C0BB304F1080804F10C06E0
:1049900001E0AB6AD3B1A96A0B68AB6241450F7005
:1049A0004F708F70CF70F4D0B142F2D020680FF00A
:1049B000A3FD231DD3E84F3F0133DBB2211DC1E826
:1049C000423F002AF5D1AB6A002BE4D12068A5F163
:1049D00008010FF091FD231DD3E84F3F0133DBB2F7
:1049E000211DC1E8423F002AF5D14FF40073ADF814
:1049F00004305EE003F022FA8146002870D00024E3
:104A0000EB7ADA0640F1EA815807AA7A697B03D586
:104A1000E87EFE2800F05A8104F10A0313FB02F33A
:104A2000023373703E23337002237171F270B370DE
:104A3000D5F80E30C6F806306B8A7381347334446F
:104A40002B7E6373EB7A13F0080100F0E780634C70
:104A500004F1080804234745337178D133790222E1
:104A600062F34613AA6A33716AB1EFF3108272B629
:104A7000AB6A1968A962002A00F0C68000221A7089
:104A80005A709A70DA702068A5F108010FF034FDB1
:104A9000231DD3E84F3F0133DBB2211DC1E8423F64
:104AA000002AF5D102274FF004088DF804808DF814
:104AB00005709DF804209DF80530002062F3070082
:104AC00063F30F200CB0BDE8F087D80606F11C0197
:104AD00000F11E8127B19DF80830022B7FF42DAF25
:104AE000182200244FF001098E233370AB7AF37043
:104AF00013FB02F302337370D5F80B30D5F80F2097
:104B0000D5F81310D5F8170030617360B260F1600A
:104B1000D5F81B30D5F81F20B261736195F814A049
:104B200095F8158003F0C8F90AF1FF338A05DBB266
:104B300056D5032B00F24E8186F80DA0B8F1000F78
:104B400064D1F476254C04F10808474586D004F179
:104B50000C0A57456BD0002F00F09180B9F1000F7F
:104B60002AD0AB6A63B1EFF3108272B6AB6A1968F0
:104B7000A96202B962B600221A705A709A70DA708D
:104B8000206839460FF0B8FC231DD3E84F3F0133AE
:104B9000DBB2211DC1E8423F002AF5D1AB6A85F89E
:104BA0003220434500F0C780534500F0E8809DF86F
:104BB0000830022B00F0A5803379012262F34613FE
:104BC000337101274FF004086FE703F037F905F15F
:104BD000330980469BE600BFA410002098100020F7
:104BE000032B00F2FF80814AD35C7373B8F1000F8E
:104BF000A7D008F1FF385FFA88F8B8F1030F00F288
:104C0000F18012F8088006E062B637E708F1FF335A
:104C1000032B00F2DF8086F80E8092E703F0030298
:104C2000032A49D0590749D5012333718AE7AB6A72
:104C300063B1EFF3108272B6AB6A1968A96202B968
:104C400062B600221A705A709A70DA706B7D83BB5C
:104C5000327963F3461232714FF004082068A5F1EF
:104C600008010FF049FC231DD3E84F3F0133DBB2AD
:104C7000211DC1E8423F002AF5D1022715E795F82A
:104C80000B8018F010083FF410AF3379206867F3F9
:104C90004613A5F1080133710FF02EFC231DD3E854
:104CA0004F3F0133DBB2211DC1E8423F002AF5D15D
:104CB000F8E64FF00008D1E7317143E7022A25D02A
:104CC000002A40F08380032333713BE71301023352
:104CD00073703E2333700B23B37001237171F27034
:104CE0003371D5F80E30C6F806306B8A7381307395
:104CF000EB69C6F80D302B8CA6F811302B7EF374BF
:104D000020E7337923F0680333715AE7327119E7EA
:104D10009DF818400846224605990EF0C9FE4FF04E
:104D2000010924E69DF818400846224605990EF030
:104D3000BFFEC14664E63379022262F34613AA6AD3
:104D4000337162B1EFF3108272B6AB6A1968A9626F
:104D500002B962B600221A705A709A70DA7020682E
:104D6000A5F108010FF0C8FB231DD3E84F3F013325
:104D7000DBB2211DC1E8423F002AF5D192E633792A
:104D800062F34613AA6A337162B1EFF3108272B60E
:104D9000AB6A1968A96202B962B600221A705A7029
:104DA0009A70DA702068A5F108010FF0A5FB231DA9
:104DB000D3E84F3F0133DBB2211DC1E8423F002A57
:104DC000F5D16FE641F6F430FCF736FA4CF20A30D2
:104DD000FCF732FA4FF20A00FCF72EFA40F60940CF
:104DE000FCF72AFA4EF23F70FCF726FAA80D0400F1
:104DF000343270B592B204461E460D460FF044FBA5
:104E000024B1034B1C601D745E741D7170BD00BF26
:104E10009810002010B5034C20680FF057FB237C3E
:104E2000237110BD98100020014B587C704700BFC3
:104E30009810002038B5154C20680FF04DFB00B3DA
:104E40000546231DD3E84F3F013BDBB2221DC2E8DC
:104E5000413F0029F5D105F10803342218460EF030
:104E6000A5FDEA7CED620346FF21012447F6FF70B1
:104E700064F34612E883697585F82310EA741846CE
:104E800038BD45F69800FCF7D7F900BF9810002010
:104E90003330704738B50446406A08B13B3038BDFE
:104EA0000B4D28680FF018FB606260B12B1DD3E832
:104EB0004F3F013BDBB2291DC1E8423F002AF5D13B
:104EC000606A3B3038BD47F63620FCF7B5F900BFC5
:104ED0009810002038B503684BB39A6A52BB596AE0
:104EE000054629B301F10800144C834208BF2A602B
:104EF00020680FF001FB231DD3E84F3F0133DBB2E5
:104F0000211DC1E8423F002AF5D12B687BB1206802
:104F1000A3F108010FF0F0FA231DD3E84F3F01334E
:104F2000DBB2211DC1E8423F002AF5D12A6038BD1D
:104F3000024CECE742F6DC60FCF77EF998100020AA
:104F400070B505680646F5B11B491C4C284611F0A2
:104F5000A8FB0023E360EFF3108272B6AB6A23B3C1
:104F6000E96A04F10C030B60EB6202B962B63368C4
:104F7000596A29B101F10805AB421AD100236B62CD
:104F80000023336070BD696A0029F9D00B4C20689A
:104F90000FF0B2FA231DD3E84F3F0133DBB2211DDE
:104FA000C1E8423F002AF5D1E8E704F10C03AB6207
:104FB000DAE71D46EBE700BFC54800009810002067
:104FC00070B50668002E3CD0716A0546002939D0BC
:104FD00001F108039E421E4C0DD020680FF08CFAA0
:104FE000231DD3E84F3F0133DBB2211DC1E8423F0F
:104FF000002AF5D12B68002272625A7D8AB1002204
:10500000A260EFF3108172B69A6AF2B1D86A114ABF
:105010000260DA6201B962B62846BDE87040FFF767
:105020008FBF2068A3F108010FF066FA231DD3E8B3
:105030004F3F0133DBB2211DC1E8423F002AF5D1C9
:105040002A6070BD024C3346D7E7024A9A62E0E715
:1050500098100020A01000202DE9F8434F4D04685F
:105060009DF820800F4629790026994606609DF913
:1050700028309DF8240081B92868A4F108010FF0B8
:105080003BFA2B1DD3E84F3F0133DBB2291DC1E8AA
:10509000423F002AF5D1BDE8F8830121C4F8096038
:1050A000C4F80D60C4F81160C4F81560C4F8196044
:1050B000C4F81D60A4F82160A172062A66D8DFE852
:1050C00002F02B3239653E650400E27A22F01202CA
:1050D00042F01202E272237601232375082847F674
:1050E000FF73E38204F10E0230D004F10D0103F0EE
:1050F0007FFB00284ED0637B43F002036373E37AA7
:105100005B072ED4FF23E376002323722449204635
:10511000BDE8F84311F0BCBAE27A22F0130242F083
:105120001302E272D7E7E27A22F0150242F015028A
:10513000E272D0E7E27A42F01002E272CBE7E27A62
:1051400022F01A0242F01A02E272C4E77B7C637317
:105150007B681968C4F80E109B889380E37A5B071C
:10516000D0D5A8F10203012B04F11C0207D9BB68BA
:105170001968E1619B88938084F81B80C4E7D9F8A3
:105180000030E361B9F804309380F5E74AF6021085
:10519000FCF752F847F60170FCF74EF89810002023
:1051A000C5480000F8B5384D9DF918E08446104612
:1051B0002A79DCF800400026CCF800607AB928682B
:1051C000A4F108010FF098F92B1DD3E84F3F0133EC
:1051D000DBB2291DC1E8423F002AF5D1F8BDC4F871
:1051E00009600F466189C4F8116041F6012545EA5E
:1051F000032521F4DF5141F6FF33012221F01F0185
:105200002B4022750B4347F6FF720828C4F815603F
:10521000C4F80D60E282C4F81960C4F81D60A4F8F7
:10522000216084F818E004F10E02638115D004F1C6
:105230000D0103F0DDFA18B3637B43F002036373DF
:10524000E37A5B0714D4FF23E376002323720F492C
:105250002046BDE8F84011F01BBA7B7C63737B6885
:105260001968C4F80E109B889380E37A5B07EAD52F
:10527000BB681968E1619B882384FF22E276E4E73A
:1052800047F60170FBF7D8FF98100020C5480000D2
:1052900018B1407BFF3818BF0120704770B5037804
:1052A000C3F380134B740C461646054610F01CFFE2
:1052B000062EA07424D8012303FA06F212F0550F2B
:1052C00011D0E91C0022C4E9011263706B78063B1F
:1052D00013F0FF0303D11D462374E56070BD09354B
:1052E0002374E56070BD9E420AD10322AB180935D4
:1052F000C4E90135627000231D462374E56070BD6A
:105300000023C4E901336370F5E700BF38B5C37803
:105310000C4613F03F0160D00378C3F3801363742D
:10532000054610F0E1FEA0742B796370E8788309DC
:1053300023702B7913F0010146D14FF0050C4FF08B
:105340000B0E6246616013F002011CBF05EB0C01FD
:105350007246A160590744BF0132D2B213F008016E
:1053600004D002F1020CA9185FFA8CF2616113F00B
:10537000100104D002F1030CA9185FFA8CF2A161AC
:1053800013F0200104D002F1120CA9185FFA8CF27C
:1053900013F04003E16102D0AB180132D2B200F049
:1053A0003F002362031D9B1A13F0FF0114BFAB18CB
:1053B0000B4663626B78013B1B1ADBB2237453B15B
:1053C0000A441544E56038BD4FF00B0C691D4FF0E1
:1053D000110E6246B6E7E36038BD20462822BDE8DC
:1053E00038400EF0E3BA00BF70B5037803F00F0643
:1053F000072E2BD0C3F380134B740C46054610F0D8
:1054000073FE012202FA06F313F05503A0740CD0C8
:105410000023E91CC4E9011362706B78063BDBB220
:1054200023748BB10935E56070BD964208D1032124
:105430006A1823740935C4E901256170E36070BD01
:10544000C4E9013363702374E36070BDBDE870404C
:10545000FFF75CBFF0B5D0F81011D0F8C86090F835
:10546000455189B100210C460B4600EB8303013105
:10547000D3F8CC20CBB22032AB421444F5D9A642AB
:105480000CBF02200120F0BD8C460F4600EB8101CD
:105490000CF1010CD1F8CC405FFA8CF104F1200E34
:1054A000A9427744F2D90721BE42A6FB011422D0BB
:1054B000D0F8C070C919D0F8C47044EB0704D0F814
:1054C000CC701DB3D0F8D0C0012D674407F1400760
:1054D00003D0D0F8D40020300744BE4205D08A4221
:1054E00073EB040416D30120F0BD8A4273EB04046D
:1054F00010D20320F0BDD0F8B070C919D0F8B47044
:1055000044EB0704D0F8CC70002DDBD12037BE422D
:10551000E5D1EAE70220F0BD38B50446FF2380F864
:10552000153100F58C7528460BF00EFF284604F562
:10553000A4750BF01FFF28460BF006FF28460BF062
:1055400019FF00212046FFF7FBF894F816313BB114
:10555000D4F8083153B104F1E80004F06FFD09E01C
:10556000D4F8100110B1D4F808319BB104F1E8006F
:1055700004F0F4FC002384F8153194F8160110F0BF
:10558000FF0018BF0C2084F81631C4F8103184F8DD
:10559000143138BD00F5EC7004F0E0FCE6E700BF24
:1055A000022910B52AD013D8012934D1044608465F
:1055B0000AF03CFC1A4A00F52343A133A2FB032363
:1055C000D4F81021980900F2792002B1400010BDF2
:1055D000CB1E012B1FD840F2BF33084640F2917416
:1055E000032918BF1C460AF021FC0D4B00F523408F
:1055F000A130A3FB003004EB901010BD08460AF068
:1056000015FC074B00F52340A130A3FB00308009B7
:1056100000F2611010BD48F62930FBF70DFE00BF07
:10562000D34D62102DE9F04104460BF0D9FDD4F8BA
:105630001021D4F8C87005460E4694F84501002A9A
:1056400046D04FF0000C6146634604EB83030CF137
:10565000010CD3F8CC205FFA8CF320328342114442
:10566000F3D98F420CBF0227012738460BF0A8FE62
:10567000312829D9411CD4E9363259D0C118914278
:1056800028BFD01AD4F8A830D4F8AC205B1B62EB4A
:105690000602012B72F1000151DB00219842914179
:1056A0005EDA41F28836864228BF06460BF098FD46
:1056B000C5F174050544B54206D8394630460BF0AD
:1056C000ABFE0546002852D100252846BDE8F081F2
:1056D0009446134604EB83030132D3F8CC10D3B2C3
:1056E000203183428C44F5D907236745D4E92C1E29
:1056F000A7FB03382ED0D4F8C0209B18D4F8C420C0
:1057000048EB0208D4F8CC20D8B1D4F8D0C0012896
:10571000624402F1400203D0D4F8D40020300244A5
:10572000974211D099427EEB080817D301279CE7D6
:10573000D61A41F288339E4228BF1E46B6E700269D
:10574000B4E720329742EDD199427EEB080805D2AA
:1057500003278AE7CB184EEB0808D3E7022784E734
:1057600041F28832934228BF13461E469EE70BF053
:105770003DFDD4F8E020D4F8D830B018D4F8DC20BF
:10578000C4F8E00033449342C4F8D83003D1D4E9DC
:105790003A23C4E930230BF025FD96E72DE9F04FBD
:1057A00004468BB0052900F26A81DFE811F0210080
:1057B00009003200D10068010C002046FEF7F0FF1E
:1057C0000BB0BDE8F08F90F8153163B9B0F87A31BD
:1057D000C3F30C03002B00F0498190F87831033BB0
:1057E000012B40F268810BB0BDE8F04FFEF742BEDE
:1057F00090F8153103F0FF05002B00F0B380012174
:10580000FEF79EFF09F002FF0BB0BDE8F04F0CF071
:10581000E7BDB0F87A31C3F30C03002B40F02C81C4
:105820000BF0DEFCD4F8CC70804694F845018B4632
:1058300007F1200150B1012304EB83020133D2F8B8
:10584000CC20DBB2203283421144F5D9D4F8C850C1
:105850008D4200F0D180D4E93A365A19A8EB0303FF
:10586000B3FBF5F305FB03F346F100069B18A3EB2E
:10587000080246F10006F62A4FF0000900F24281C4
:10588000ED1846F10006CDF8049094F87C112046FE
:10589000FFF786FED4E92AA1BAEB050361EB060205
:1058A000012B814672F10000C0F2A48000209F42CB
:1058B000904100DB1F46D4F8CC3003939F4228BFB1
:1058C0001F4604238DF81930C4E92E563346C4F818
:1058D000D890C4F8DC702A4620460291FFF7BAFD42
:1058E000019B8DF81800CDF81490B3B302990123F1
:1058F000BAEB080A61EB0B019A458DF8103071F193
:105900000003C0F24781AD48002350458B4180F22F
:10591000D080D4F81031D4F8C810002B00F01D81CD
:105920004FF0FF32154690457BEB0503C0F0AB808E
:105930000891B9453FF641AF04A904F58C700CF00D
:1059400069FD00287FF43CAF4FF61610FBF774FC9E
:105950000BB0BDE8F04F0AF025B9CDE908568DF837
:105960001030E6E70BF08AFDD4F8E830B0EB030C1A
:10597000C4E92C0100F11E8194F84561D4F8C87087
:1059800004940795002E00F00781BCFBF7F207FB9B
:105990000233C21A294628462B4604EB8303D3F868
:1059A000CC3003F1200E724503D3203A0130D21AD5
:1059B000C0B20131CBB29E42EFD2B4F87A3184F852
:1059C0004401C3F30C038DF82000002B6BD1BC45C0
:1059D00034BF0125012304A88DF818508DF821301B
:1059E000FEF736FDD4F8D800E738C4F8E0000BF035
:1059F000F9FBE5E600275EE7D4E92A126FF00043E1
:105A00009A4208BFB1F1FF3F77D094F84431234464
:105A1000204693F87C11FFF7C3FD18F1F7030893B4
:105A20004BF10003054605900026099304A840F2B7
:105A300002438DF81060ADF818300CF05FFD0028BF
:105A400000F0B480089AD4F8A83009999B1AD4F8C9
:105A5000AC2062EB01025B1B62F10002002A4CDA0F
:105A60000123374645465E4601930EE7FFF7DAFD10
:105A700000287FF4A5AEB6E6FEF7C8FED0E645F6F0
:105A80001A40FBF7D9FBB2EB08026FF0010165EB9E
:105A90000B0500239142AB410146FFF449AF904210
:105AA00028BF114644E7D4F840310593032500236D
:105AB00091E750462DE790F87031002B7FF493AEBC
:105AC000012180F8701144F236500BF0A5FC00283B
:105AD0003FF489AE0BF08AFBD4F8D830D4F8E0203C
