:10000000F0210120EDFC0100BD3C0300D9FC010002
:10001000D9FC0100D9FC0100D9FC0100D9FC010088
:10002000000000000000000000000000BDFD010015
:10003000D9FC0100000000007DFF0100D9FC010097
:10004000F9FF0100F9FF0100F9FF0100F9FF0100CC
:10005000F9FF0100F9FF0100F9FF0100F9FF0100BC
:10006000F9FF0100F9FF0100F9FF0100F9FF0100AC
:10007000F9FF0100F9FF0100F9FF0100F9FF01009C
:10025000F9FF010073600300F9FF0100F9FF0100DD
:10026000F9FF0100F9FF01005D600300F9FF0100E3
:10027000F9FF0100F9FF0100F9FF0100F9FF01009A
:10028000F9FF0100F9FF0100F9FF0100F9FF01008A
:10029000F9FF0100F9FF0100F9FF0100F9FF01007A
:1002A000F9FF0100F9FF0100F9FF0100F9FF01006A
:1002B000F9FF0100F9FF0100F9FF0100F9FF01005A
:1002C000F9FF0100F9FF0100F9FF0100F9FF01004A
:1002D000F9FF0100F9FF0100F9FF0100F9FF01003A
:1002E000F9FF0100F9FF0100F9FF0100F9FF01002A
:1002F000F9FF0100F9FF0100F9FF0100F9FF01001A
:10030000F9FF0100F9FF0100F9FF0100F9FF010009
:10031000F9FF0100F9FF0100F9FF0100F9FF0100F9
:10032000F9FF0100F9FF0100F9FF0100F9FF0100E9
:10033000F9FF0100F9FF0100F9FF0100F9FF0100D9
:10034000F9FF0100F9FF0100F9FF0100F9FF0100C9
:10035000F9FF0100F9FF0100F9FF0100F9FF0100B9
:10036000F9FF0100F9FF0100F9FF0100F9FF0100A9
:10037000F9FF0100F9FF0100F9FF0100F9FF010099
:10038000F9FF0100F9FF0100F9FF0100F9FF010089
:10039000F9FF0100F9FF0100F9FF0100F9FF010079
:1003A000F9FF0100F9FF0100F9FF0100F9FF010069
:1003B000F9FF0100F9FF0100F9FF0100F9FF010059
:1003C000F9FF0100F9FF0100F9FF0100F9FF010049
:1003D000F9FF010089600300F9FF0100F9FF010046
:1003E000F9FF0100F9FF0100F9FF0100F9FF010029
:1003F000F9FF0100F9FF0100F9FF0100F9FF010019
:10040000F9FF0100F9FF0100F9FF0100F9FF010008
:10041000F9FF0100F9FF0100F9FF0100F9FF0100F8
:10042000F9FF0100F9FF0100F9FF0100F9FF0100E8
:10043000F9FF0100F9FF0100F9FF0100F9FF0100D8
:10044000F9FF0100F9FF0100F9FF0100F9FF0100C8
:10045000F9FF0100F9FF0100F9FF0100F9FF0100B8
:10046000F9FF0100F9FF0100F9FF0100F9FF0100A8
:10047000F9FF0100F9FF0100F9FF0100F9FF010098
:10048000F9FF0100F9FF0100F9FF0100F9FF010088
:10049000F9FF0100F9FF0100F9FF0100F9FF010078
:1004A000F9FF0100F9FF0100F9FF0100F9FF010068
:1004B000F9FF0100F9FF0100F9FF0100F9FF010058
:1004C000F9FF0100F9FF0100F9FF0100F9FF010048
:1004D000054B00221B78826001330260034A4260B0
:1004E000C371FF2303727047A80F0020800108002A
:1004F000064A074B02604FF42C72DB788280082298
:10050000C371002382710372704700BF697D0100CF
:10051000A80F0020064A074B02604FF444721B7973
:1005200082800822C371002382710372704700BF6A
:1005300039790100A80F0020064A074B02604FF4EA
:10054000B0729B7B82800822C371FF238271037289
:10055000704700BF41720100A80F0020094991F8BF
:100560002B30CA7803EB43030979DB000A440021EE
:100570001033C27181608380042301608371FF2383
:1005800003727047A80F0020074AD37812791344EA
:10059000064A02604FF49C72C371FF2382800422DA
:1005A00003728271704700BFA80F0020397F0100DD
:1005B0002DE9F341C41D0028064624F007040CBFB2
:1005C0000020204600F092FC071E04DA6FF00B00BA
:1005D00002B0BDE8F081994D2989E8880331EB7AB2
:1005E0000330AA7A89B280B212F0CCF80028EDDB91
:1005F0003C44E9782B79002E04F10304194424F0DB
:10060000030400FB01F10CBF0020204600F018FE9F
:1006100020440EB90028D9DBAA7B0446B2B12B7C5A
:10062000697C13441944FF29D0D80330002EAA89CD
:10063000C9B220F003040CBF0020204600F072FE77
:100640000028C3DB04440EB9002CBFDB7C4FD7F875
:100650000080B8F1000F17D0E97BA9B195F82C30D4
:10066000002B00F0FD8040234FF481720734002EF0
:1006700024F007040CBF00202046C0470028A5DB5B
:1006800004440EB9002CA1DBA978A1B1AB7B1BB946
:100690003B6883B1EB7B73B10734002E24F0070471
:1006A0000CBF0020204607F021FE00288EDB04440A
:1006B0000EB9002C8ADB634B1B6893B1E97D81B1D5
:1006C0000334002E2A7E24F003040CBF00202046B1
:1006D00098470028FFF67AAF044416B9002CFFF6BD
:1006E00075AF594B1B688BB1A97D79B10334002ECE
:1006F00024F003040CBF0020204698470028FFF692
:1007000065AF044416B9002CFFF660AF4F4B1F686D
:10071000B7B1697CA1B10334002E2B7D24F0030412
:1007200008BF0020009318BF2046EB7CAA7CB84786
:100730000028FFF64BAF044416B9002CFFF646AF75
:10074000434B1B6893B1E97D81B10334002E6A7E6F
:1007500024F003040CBF0020204698470028FFF631
:1007600035AF044416B9002CFFF630AFB6FA86F761
:1007700095F825007F09A0B10334AB7FE97E24F012
:10078000070419443B4644F00404C9B2224600F071
:10079000C5FE0028FFF61AAF044416B9002CFFF678
:1007A00015AF95F8261000295DD004F10708002E3A
:1007B0002A8D28F007080CBF0020404611F0F6FFF4
:1007C000041EFFF603AF4444002E4FD1002CFFF669
:1007D000FDAE95F82010002956D095F82430002B56
:1007E00052D06A8C0734002E02F1240224F007084C
:1007F0000CBF0020404692B211F0D8FF0028FFF64F
:10080000E5AE404416B90028FFF6E0AE03306B7F3A
:10081000E97E20F0070019443B4640F0040495F8B7
:100820002400C9B2224600F06BFE0028FFF6CEAECF
:10083000044406BB002CFFF6C9AE0BE0A80F002055
:100840008C7B0020907B00209C7B0020947B0020F0
:10085000987B00202B6B13B3E6B12C630020B7E626
:100860002523282202E7002EB3D08846298D404652
:100870000EF09AFBADE76A8C404695F820100832DE
:1008800092B20EF097FBE5E7002EE3D0002211466E
:100890001046F6E728343FF599AE204698E6002E3C
:1008A000DCD1FAE7014608B572B6094B5B6B0BB1B8
:1008B00008489847BFF34F8F0749084BCA6802F4AE
:1008C000E0621343CB60BFF34F8F00BFFDE700BF73
:1008D000A80F0020AEE7030000ED00E00400FA05D9
:1008E00013B5134C68466389ADF800302389ADF821
:1008F0000430E388ADF8023005F032F918B148F65B
:100900005300FFF7CFFF207D05F080F910B14CF2C6
:10091000CD70F6E7E07C05F073F910B144F29C501D
:10092000EFE794F82B000CF043FD02B010BD00BFC0
:10093000A80F002070B50546002857D011F012F915
:1009400018B94FF0FF34204670BD0FF02DFDB0F503
:10095000FA7FF6D8274C0126274B656300252846E9
:1009600084F83850257084F82C501D6025630EF0F3
:100970000DFB224B26222946601D1D6018F0EDFB61
:10098000082303221F212846A3701B23A272E380A1
:1009900023810223E2734922E3722376F723A181A4
:1009A00029466384FB23E27423850A23E67084F8D6
:1009B0002B302671A673A674667603F037FD2A469F
:1009C0003146304603F004FD044618B14AF6B03013
:1009D000FFF768FF014603F017FDEFF3108572B6CD
:1009E00000F0C2FD002DAED162B6ACE76FF0150489
:1009F000A9E700BFA80F00208C7B0020987B002077
:100A000038B51446002840F0EC80774D95F8383022
:100A1000032B00F0E38019B312B96FF0150038BD55
:100A20000139172900F2DD80DFE811F018002900F4
:100A30002C00470071007A0093004D007D0080007B
:100A40008D005300590067006C0099009C00AA00BB
:100A5000AD00B000A200B300B700D0001378EB7077
:100A60000020FFF7A5FD0028B7BF012302236FF088
:100A70000B0085F83830A8BF85F83830CFE71378F9
:100A80002B71EDE71379002BC7D05379002BC4D01D
:100A9000128841F6EF739A42BFD8638841F6D47149
:100AA0001B3B9BB28B42B8D81A2AB6D92368A288BE
:100AB000C5F806304D4B9A80D2E713782A7C9342D2
:100AC000ABD3AB73CCE71378AA7B9342A5D82B7436
:100AD000C6E71378AA7B93429FD86B74C0E713785C
:100AE000002B9AD05378013BDBB2F82B95D81388B2
:100AF00092786B823E4B9A70B2E7107868750CF072
:100B000075FAADE71378002B87D06B76A8E71378DA
:100B1000384A126812B1012B7FF67FAFEB739FE763
:100B20001388AB819CE71378EB7599E71378324A09
:100B300012682AB9012B7FF670AF23782B768FE7E6
:100B4000002BFAD169E71378082B3FF666AFAB7537
:100B500086E71388FF2B3FF660AFAB7080E7137812
:100B6000AB767DE713780E2B3FF657AFEB7677E742
:100B70002368224A2B6263685360238913816FE7DD
:100B800013782B776CE71378AB7769E713786B777B
:100B900066E7137885F82A3062E703F013FC98B112
:100BA000007900F001026178207803F011FC002840
:100BB0007FF435AF6378012B7FF652AF0EF0ECF97E
:100BC00000287FF44DAF28E70246ECE713785A1E61
:100BD000092A3FF622AF85F82B3041E74FF0FF306E
:100BE0001DE76FF02C001AE7A80F0020AE0F0020C1
:100BF000BA0F00208C7B0020987B0020C80F0020BB
:100C0000F8B50D46064630B329B311F0070422D1DA
:100C1000124F97F83830012B02D16FF00B00F8BD5E
:100C2000032B02D14FF0FF30F9E700F0D5FC00288C
:100C3000F8D02846FFF7BCFC0028EEDB17F0F7FCE5
:100C40003046396B05F0CAF8FFF74AFE0323204609
:100C500087F83830E3E76FF01500E0E7A80F0020D1
:100C600010B5074C94F83830032B03D105F0CEF8BB
:100C700006F0EAF811F0DCFE002084F8380010BD20
:100C8000A80F002008B505F055F803490320BDE87A
:100C9000084000F023B900BF3905000008B505F091
:100CA0005DF803490220BDE8084000F017B900BF15
:100CB0001505000008B505F073F80649012000F09D
:100CC0000DF90549002000F009F9044B044A1A60A7
:100CD00008BD00BFD1040000F10400008C7B00209F
:100CE0004D3B000008B50449122000F0F7F8BDE8BC
:100CF000084004F0B5BF00BF5D05000008B5044919
:100D0000122000F0EBF8BDE8084004F0BBBF00BFC4
:100D10005D05000008B504F0F9FE03491520BDE8A3
:100D2000084000F0DBB800BF89050000074B4FF01A
:100D3000FF3141F6FF72C3E9001205490022C1E903
:100D400000221F21C3E90212704700BFC004002027
:100D5000E40F00203F280CD801380B4BC0F342129F
:100D600000F01F0053F8223023FA00F000F00100D9
:100D70007047FF2806D04038044BC0F3421200F001
:100D80001F00EFE701207047C0040020E40F00209F
:100D9000074B0146006849681A4603C240F48C229A
:100DA00000201A6041F0107242F4FF625A607047EE
:100DB000C00400200246034B0068516803C30020B2
:100DC000704700BFE40F00200246034B00685168E3
:100DD00003C30020704700BFC80400203F280DD87F
:100DE0000138C0B24209084B00F01F0003EB820338
:100DF0009B6823FA00F000F001007047FC2801D145
:100E00003920EFE700207047C00400200A8870B541
:100E100095B2C67BC2F30E020488023602F11003BB
:100E20003444C35AA4B233442344013BB3FBF4F328
:100E300003FB0422438892B29342044B8BBF2B40A6
:100E4000AB4313439BB20B8070BD00BF0080FFFF1C
:100E50004A1E062A08B50346084603D84CF2A65097
:100E6000FFF720FD094A914202D947F24660F7E7B1
:100E700011B903B1196008BD2BB11B680022C3E989
:100E800001211A1D1A600430F5E700BFFAFFFF7F49
:100E900010B5114B00EB41041A786389B3FBF2F3F0
:100EA00003FB0223013A1A44B2F5706F027980788D
:100EB00028BF00231A440B18B2FBF0F100FB1121EC
:100EC0005B1AB3FBF0F100FB113313446FEA4343A9
:100ED0006FEA5343638110BDEC0F0020024B03EB1C
:100EE00080035960704700BFEC0F00202DE9F04FE0
:100EF00010F0070A85B0054603D04EF6A700FFF7AD
:100F0000D1FC544F04464FF0010B07F15C06B1468B
:100F1000B04657F8043B8DF80BA043B101A89847A1
:100F20009DF80A30082B02D94CF63910E7E79DF8F6
:100F30000B1041BB05B131604F4506F10406E8D105
:100F4000002D6FD00022DFF810911627964689F801
:100F5000002058F827A0013FBAF1000F55D09AF8A9
:100F600004609AF802C0FF2E60D039460023481C66
:100F700038D19C44BCF1FF0F3FD90AB189F800E099
:100F800044F6E620BBE79DF80AC04B1D60465A00B8
:100F900004EB4303022838BF0220441E404223448E
:100FA000BDF808406444CCF1000C0340013C04EA65
:100FB0000C04B4F5803F02D34EF616509FE775B18E
:100FC0009A1A32609170148082F803B09DF80C0078
:100FD000107101984FEA104C1081A2F806C004FB72
:100FE0000134A9E758F8210028B190F804B0B345BE
:100FF00004BF80781B180139B9E7DBB2E6458AF8EF
:1010000004303CBF5FFA8CFE01227B1CA1D10AB1E7
:1010100089F800E0162640F6FF6A58F82670B7B93E
:10102000013EFAD2601B05B0BDE8F08F0023E5E772
:1010300007EB410309F101093846A3F80AA0FFF7BD
:1010400027FF5FFA89F1BB788B42F1D8E8E74FF0D0
:101050000009F6E7F00F0020EC0F002038B54FF63E
:10106000FF7302460380174B03EB8103186EA8B190
:1010700084780379B3FBF4F104FB1133DBB2194636
:1010800000EB4105B5F90A50002D0EDB0131B1FB33
:10109000F4F504FB1511C9B28B42F1D1002038BD23
:1010A0006381BDE8384011F04ABB00EB410463891D
:1010B000C3F30E031380C278002AF1D14FF6EF106C
:1010C000FFF7F0FBEC0F00201C4B03EB810370B526
:1010D0001C6E05463CB3030403D546F63870FFF793
:1010E000E1FB0146204611F00DFBFF28014604D02C
:1010F0002046BDE8704011F022BBA078B5FBF0F3AC
:1011000000FB1353DBB219460A1D04EB4206B6F985
:101110000260002E09DB0131B1FBF0F200FB12117D
:10112000C9B28B42F0D1002070BD8B4201D00023A8
:10113000E37004EB42025580DAE700BFEC0F0020B9
:10114000094B03EB8103014610B51C6E204611F0DC
:10115000D9FAFF28014604D02046BDE8104011F01E
:10116000EEBA002010BD00BFEC0F0020F8B5104B08
:10117000074603EB810301461C6E204611F0C2FABC
:10118000FF28054611D0E288238953EA024606D09B
:101190000146204611F0D3FA01463846B0472046B2
:1011A0002946FFF775FE0020F8BD0520FCE700BFCB
:1011B000EC0F002038B50E4B0446827903EB820316
:1011C000186E08B9052038BD8278E1799142F9D2CC
:1011D0004B1CE37100EB41035D89B3F90A30002B2E
:1011E000F3DBA58011F0ABFA20600020EBE700BF35
:1011F000EC0F002008B5114B03EB81031A6E1AB9EE
:101200004EF6C520FFF74EFB9178831A481DA3EBDD
:1012100040031088B3FBF0F3002B01DB994202DCA2
:1012200041F2B740EEE702EB4302B2F90A305089CF
:10123000002B02DA4EF63450E4E708BDEC0F002034
:1012400070B5044610F003000E4603D04BF6BD0007
:10125000FFF728FBFFF7FCFD054624B103483146A4
:101260000460FFF7F5FD284670BD00BFA810002000
:101270002DE9F14FDFF870B01E4607460D46DBF84A
:10128000003090469DF828A09DF82C901BB945F69B
:101290001E00FFF707FB52460921404611F0F8F8FF
:1012A0004A4684B20921304611F0F2F881B2DBF8E7
:1012B0000000214411F0FBF9386018B9286001B032
:1012C000BDE8F08F04445346414609222C6038683B
:1012D00011F0A4F84B4609223146286801B0BDE858
:1012E000F04F11F09BB800BFA810002070B50E465B
:1012F000044611F0E0F80546304611F0DCF8044BE6
:101300002A1821461868BDE8704011F0F4B900BFF2
:10131000A8100020024B186808B111F0BCB9704742
:10132000A81000201F2AF8B5044613460ED89200D4
:10133000033222F00303B3F5803F2DD2184DACB138
:10134000A00710D04FF6FC00FFF7ACFAFF2B4FEAD6
:10135000420204D9FF339A42A8BF1A46E8E77C2A22
:10136000B8BF7C22E4E729706C602B8122F0030275
:1013700028230127120403FB01F06B680025120CDF
:10138000EEB2B14200D8F8BD14B126181F705E60ED
:10139000104401352833F3E74FF0FF30F3E700BF87
:1013A000AC100020154A002170B553681578C8B2FA
:1013B000854203D849F28140FFF774FA1C4618466B
:1013C000013114F8286B0EB92346F0E7002199701B
:1013D00001241289996103F126055C709208D96194
:1013E00003F11E04596824F8022FA54243F8041F94
:1013F0001144F8D100234361037070BDAC1000208C
:101400000A4B1B89B3F5FF7F4FEA930006D25A08B7
:101410009B1A9BB2984238BF18467047B3F5EE6FDF
:1014200001D8FF22F4E740F27263F3E7AC1000202A
:101430004B782DE9F04106460C4602F0040702F015
:10144000FB05E3B1A5BBFF23A3707B0804EB5707A3
:101450003A7D032A02D1022D18BF0133E21801217F
:10146000117503F10C01002204EB830324F8112011
:101470005B68A27030463360B280BDE8F081002D19
:10148000E1D1012301F11E028D6120464B7004F170
:10149000260C1A4BCD611B8949689B0822F8023F34
:1014A000944540F8041F1944F8D100236361CAE74A
:1014B000D1F8048014220021A018617017F04DFEAD
:1014C0000E4B1B89B3F5FF7F0FD25A089B1A9BB2B4
:1014D00008EB0301C4F804802384A1606284C4F88B
:1014E0000C80A3842161E284ADE7B3F5EE6F4FF089
:1014F000FF02EBD940F27263EAE700BFAC100020B4
:1015000007B5CDE900230B4603490246081D11F03B
:1015100069FA03B05DF804FBD810002013B5064C3F
:10152000CDE900230B46024604F1080104F10C004A
:1015300011F058FA02B010BDD810002008B54B1EAB
:10154000032B03D94CF27300FFF7ACF90028054ACE
:101550000CBF05230C2303EB8103053323F00103A8
:10156000137008BDE8100020124B01224FF0FF302D
:1015700000215A60C3F80803C3F80015C3F8042516
:101580005A6040F6FE72C3F808034FF48060C3F857
:10159000001503F560330849C3F80825C1F8880031
:1015A000BFF34F8FBFF36F8FC1F88801C3F80825D1
:1015B000704700BF00A0045000E100E00268002076
:1015C000014B1A60704700BFEC100020014B1B68F4
:1015D000184700BFEC100020024B1868003818BFF5
:1015E00001207047EC100020014B9B68184700BF9A
:1015F000EC100020014BDB68184700BFEC10002006
:10160000014B1B69184700BFEC10002010B4024CBE
:101610006469A44610BC6047EC100020014B9B6934
:10162000184700BFEC100020014BDB69184700BFD2
:10163000EC10002030B503680446054D45F8043B26
:101640000FCC0FC594E8070085E8070030BD00BF48
:10165000EC1000200A4606489C2302F8033BC368AE
:10166000C1F803300369536043699360704700BF5A
:101670000C110020024B5A8C02435A845B6A1847B3
:101680000C110020014B00215B6A18470C1100204F
:1016900010B5144C0CF000FF0DF030FC208DFFF75E
:1016A000F1FF237E63B122460F4904F1190052F87D
:1016B0000C3BE36063685360A368936014F0DDF94A
:1016C000218DE06A07F01EF8E36AB3F8C20006F065
:1016D000C3FD636B218E94F832009847002384F891
:1016E000383010BD0C11002055160000034B93F844
:1016F00038300BB1FFF7CCBF704700BF0C11002092
:1017000070B5284C0246E56A95F8C060D6B101284C
:101710000AD1638C1B0707D594F839300BB101202F
:1017200070BD2B7C082BFAD00129F8D8238D218E8F
:1017300003F0200353EA0100F1D15EB9012A0BD076
:101740003046EDE70028EFD1638C5807ECD52B7CB1
:10175000072BE8E7002AE3D10CF066FA6B698342B5
:10176000DDD3AB7C002BDAD1638C36B19A0704D57C
:1017700094F8390080F00100D2E7002BCFD194F823
:101780003A301BB994F83B30002BC8D0E36AD3F849
:101790002821B3F83431908A98422CBF00200120D0
:1017A000BEE700BF0C11002008B5084B93F83820A5
:1017B000022A03D049F6FB50FFF774F8DA7A42F0B8
:1017C0000102DA72BDE80840FFF762BF0C11002089
:1017D00010B586B00C4611F041F90023059004F1D4
:1017E00090010420CDE9033341F6EF73029304F135
:1017F000A0030193064BDB6A93F8C030B3FA83F37E
:101800005B090093D4E920230DF09AF906B010BDCE
:101810000C11002010B586B00C4611F01FF9002302
:10182000059004F190010220CDE90333094B93F8B0
:101830003C20029204F1A0020192DB6A93F8C030CE
:10184000003B18BF01230093D4E922230DF078F95F
:1018500006B010BD0C11002010B50B7804460A46E6
:10186000013B012B05D88289006816F0FDFBA080A2
:1018700010BD006889780378C90003F0F30301F014
:1018800008010B43D178890001F004010B43117961
:10189000090103F0EC0301F010010B43517801F052
:1018A00003010B430370A389437002232168A380C3
:1018B00050790B784201012823F0200302F0200226
:1018C00043EA02030B70D3D1084BDB6A93F8D220B2
:1018D00093F8D330032A03F01F0308BF002243EA22
:1018E00082138B700323A380C2E700BF0C1100207A
:1018F000F7B51A4C0646256C0DB1E36C1BB942F6E0
:10190000D410FEF7CFFFB4F85030FF2B02D947F2C6
:101910002960F6E76B7001F003012B782F4623F066
:1019200003030B4307F8033B3846B4F85020E16C3F
:1019300010F08AFA0DF1020201A9606D6564E76496
:1019400010F09FFE019810F08AFEB4F8501030603D
:10195000606D10F066FE03B0F0BD00BF0C110020FA
:1019600070B52B4C41F6F6720646E56AA36DA4F8F5
:101970004820AA7E94F83C1095F84101636482B92E
:1019800005283DD1E365234BA266C4E91832002344
:101990002148E366103843610CF0D0FC0DF0AEFA3C
:1019A0000FE0052801F1040122D1E36504F15C0098
:1019B000184B23660023C4E91933C4E91B330CF028
:1019C000BDFC76B995F84131B5F8FA10033B012B0F
:1019D000B5F8FC308CBF00202820184480B20CF0F1
:1019E000F7FC00200CF034FD022384F8383070BD81
:1019F000606F0CF08FFC616F606C0DF013F9E0E725
:101A0000E3650333054A6366054B2266A366BEE7BA
:101A10000C110020F61F000D781100200200000DAF
:101A2000F31F000D2DE9F041274C06460F4694F8B0
:101A30003830012B5FFA83F803D049F2C870FEF703
:101A400031FFE56A2B7953B1002104202971FFF79A
:101A500011FEE36A93F8C0300BB185F805802B7A4C
:101A6000052B0FD119490220FFF704FEE36A93F812
:101A7000C0303BB1D4F880301B789A1E534253419A
:101A800084F839301EB1BDE8F041FFF701BE002FE8
:101A9000F9D031463046FFF733FE0028F3D1AB7E54
:101AA000E46A23B1294604F1C000FFF7B3FE94F8BD
:101AB00041210120B4F8FA100CF018FB0020BDE819
:101AC000F041FFF74DBF00BF0C1100208C1100202A
:101AD0002DE9F047BF4C88B000238046E56A0293A9
:101AE000ADF80430CDF80B302E7A8DF80330062E89
:101AF00000F2A181DFE816F00700A2017D017D015F
:101B00009F0190019001A5F8503095F8C030A3B91D
:101B100094F88C30ADF8043001A904A8A5F834314C
:101B200004F004FD002841D0049E002E3ED0012385
:101B300084F88D3005232B725CE095F84071052FF9
:101B4000E6D0AB7B243B072BE2D9EB7B243B072B76
:101B5000DED90CF063F8E26A03285FFA88F100F13D
:101B6000FF3007F1FF3714BF92F82E311B23C0B2AC
:101B7000B2F82C219942FFB23CBF5B1ADEB20328B7
:101B800096BF954B04231B56032F03FB06F697BF06
:101B9000914B0423DB191B79B6FBF3F694F88C30D8
:101BA00033449A4234BFD3B2DBB2B3E7BDF804305A
:101BB000002B00F01B81E36A93F86130002B40F0AA
:101BC00015810DF1030201A9D4F8900010F09AFCE0
:101BD0000646002800F00A819DF80380B8F1000F46
:101BE00040F0BF8000233380B37003232B720123A6
:101BF00084F88D304FF0000895F84031052B40F007
:101C000020812B7A002B14BF022301235A1E8DF84A
:101C10000830012A00F21981012B00F014811521EE
:101C2000B5F8C200FFF78CFA00788DF80E000CF0C2
:101C3000B5F8BDF80430694AA267A4F8843003B14E
:101C4000F31CC4F880306A7A2E7A8DF80A20022EAE
:101C5000AA7A8DF80B2004D0053E012E8CBF0126F8
:101C600003268DF80960B8F1000F00F0F280002023
:101C70009DF809308DF80C00032B40F00081D4F85A
:101C800080301B781B2B40F0FA80012105F1D20037
:101C90000BF0EEFF01238DF80D309DF80C30504E07
:101CA000003B18BF012384F83A306B7E002B00F014
:101CB000EA80B4F88430002B00F0E58005F1C00024
:101CC00010F0CCFE032800F0DC8007280CBF1023A6
:101CD0000423444904AA03C982E80300B4F8841029
:101CE00010460B44616F069102A9ADF81C30FFF756
:101CF000B3FD049BBDF81420BDF81C10069DE365E0
:101D00000023A4F860200D223748A4F8681041F69B
:101D1000FF71E36684F8623084F8632084F86A30E7
:101D200084F86B20736065660CF008FB9DF80D204D
:101D30002B469DF809109DF8080010F07BFED4F8A2
:101D40008020B4F8841001900DF05EF801200CF0B2
:101D50007FFB012384F8943084F8383008B0BDE864
:101D6000F0870146D4F8900010F075FC10F077FC75
:101D7000D0F800A0D0F8049007465AEA090317D11A
:101D800000239DF803203B707B70BB70FB703B71A0
:101D90007B71BB71FB71002A3FF424AF327802F0F3
:101DA0000302012A3FF421AF02222B772A721EE799
:101DB00016F032FE824579EB0109E1D20023ADF83D
:101DC000043095F84021052A18BF01232B72034ED9
:101DD00012E700BF0C1100204B7903009411002082
:101DE0007811002084110020681100204FF00008B5
:101DF000E4E7B5F834310DF1030201A9D4F89000FD
:101E0000ADF8043010F07EFB064600287FF4EFAEFC
:101E10004DF64700FEF746FD01A904A804F086FB35
:101E200008B1049E16B945F24E40F3E7012384F849
:101E30008D3006237FE64DF63B60EBE74FF0000860
:101E4000C5E70023E2E60020EFE6BDF804303246A5
:101E5000F2E6032E03D11B78022B3FF408AFD4F82F
:101E6000900010F0A6FB40B9032E3FF400AF04F041
:101E700079FB80F00100C0B2FAE60120F8E6002309
:101E800009E7082325E702A91148FFF7E5FCD4F884
:101E90008010A36FB4F87C206166B4F88410E36509
:101EA0000023A4F860200D220A48A4F8681041F627
:101EB000FF71E36684F8623084F8632084F86A3046
:101EC00084F86B2073600CF039FA0DF017F83DE7D9
:101ED00084110020681100202DE9F04FA04D8BB037
:101EE000EC6A0591002104F1C0030190029395F87A
:101EF0003830022B5FFA83FBCDE9061103D045F29F
:101F00002F60FEF7CFFC94F84131052B5FD105F12E
:101F10004C0208A9686C16F0E5F89DF82330019989
:101F200003939DF824309DF820A004939DF8218010
:101F30009DF822709DF82520A37E002900F0C58120
:101F400083B1B5F850306BB194F84131052B09D10C
:101F50004146504610F06EFDEB6C82491A460890DF
:101F60000CF0D2FEDFF8F891B9F8501021B1D9F891
:101F7000540010F03FFB01460AF1FF362A8D296418
:101F8000F6B242F40072012E2A85627A41D90132FA
:101F9000D1B202F00102039B9A4240F09880227A6B
:101FA000002A40D1012E4CD94FF0040BB4F8502038
:101FB000BBF1020FA4F8522062D106A9D5F8900017
:101FC00010F0C2FA002868D14DF2995099E76A6C76
:101FD00013780891CDF8231003F003018DF8211038
:101FE000C3F3C0018DF82210C3F380018DF82310D4
:101FF000C3F30011C3F340138DF824108DF825307E
:102000005378A5F8503003231A44A5F84830EA6401
:1020100083E7039B991A11F0060F12D10132D1B256
:1020200002F00702B7E7032A617204D8012A08BF49
:102030004FF0010BBAE7053A012A1ED940F66E703F
:102040005FE7B9F8302042F01002A9F830204FF0D5
:10205000000BA27E002A00F08780B9F85020002AE9
:1020600000F082800CF06AFF0328FBD0022831D1F7
:10207000FFF70EFB0BB0BDE8F08F4FF0030B95E7B9
:10208000BBF1030F10D104F05FFA10B948F2D6404B
:1020900037E700210820FFF7EDFAD4E920210132CB
:1020A00041F10001C4E920210021EA6A217292F87D
:1020B000C0202AB162791AB110206171FFF7DAFAF3
:1020C000B9F8282042F40062A9F82820BFE7DDF81B
:1020D00004B0BEE7002847D1012EA27A07D802F04B
:1020E0000702BA4240D1012289F83220C0E702F04B
:1020F0000101B942F7D002F00102BA4245D1B9F864
:102100005060002E00F0B08008F1FF32012A00F28A
:10211000AB80B9F82820A77E42F48052A9F8282085
:102120000BF07CFD032894F82E2106D1002F0CBF64
:102130001F211B218A4228BF0A46B9F8501091423C
:102140001DD8D9F8402002B399F89520002A00F054
:102150008B80B9F8282042F02002A9F8282014E04A
:102160000C1100205C110020BAF1010F0DD0BAF162
:10217000020FA27ABFD1D11B11F0060F71D0B9F8AE
:10218000302042F01002A9F830200026B2467A4FE3
:102190003B6C002B40F0C080B7F85030B3FA83F3AB
:1021A0005B09049A012A14BF002303F0010385F898
:1021B0003B30059B002B00F0B1800CF06DF9BAF1BB
:1021C000000F40F0CD8001262B8D5A0606D440200A
:1021D000FFF758FA2B8D43F040032B85F86ABBF1CB
:1021E000000F0FD0E38843B990F8C0302BB1B7F897
:1021F0000530B7F80720134304D0B7F8093001338E
:10220000A7F80930019B002B00F0AF80B5F805302E
:102210000133A5F80530002385F8963006F00CF858
:10222000069830B110F01BFA00220272029904F0F5
:102230002FFF079B33B100221A720C2202990798D4
:1022400004F0F4FE002E7FF413AF2B8D1B063FF538
:1022500011AF8020FFF716FA2B8D43F080032B85FA
:1022600008E702F0070248E7A37AB8F1030F03F189
:102270000103A3721FD008F1FF33012B0CD8002EED
:1022800083D0DDF804A00026D4E92232013342F1E4
:102290000002C4E922327AE7002E3FF476AFB8F1AB
:1022A000000F7FF472AFD4E92232013342F1000211
:1022B000C4E9223269E72B8D0120304943F4805371
:1022C00020712B85FFF7D6F9EDE70BB10CF058FE26
:1022D00095F89630013385F896302B8D43F4806362
:1022E0002B8594F84131033B012B0DD80BF096FC64
:1022F00003280DD1B5F850604FF0000A1B2ED346CD
:1023000094BF0026012642E704F0B8FF0028EDD173
:102310000026B246B3463AE7012342E795F8961005
:102320000120FFF7EDF900287FF447AF637E1BB172
:1023300021460298FFF74CFA002094F84021B4F8A7
:10234000F8100BF0D3FEB5F85000FFF7C1FBBAF15F
:10235000000F3FF439AF414607A8FFF7C9FA33E74A
:10236000414607A8FFF7C4FA2DE7B7F80730013355
:10237000A7F8073052E700BF0C11002058110020C9
:10238000064B10B593F8382002F0FF0422B91C76F2
:1023900006F0B0F9204610BD0C24FBE70C1100201C
:1023A000094B0A4A10B51A60FFF7EAFF18B148F660
:1023B0007620FEF777FA064C03F044FDA06503F0A3
:1023C00045FD606710BD00BFA07B0020CC2500004C
:1023D0000C110020F8B5694C054694F8386006F0F9
:1023E000FF000EB901B11AB940F60430FEF75AFAEF
:1023F00084F8953005F1C00761626263208684F835
:10240000960084F8320084F894006084208584F873
:102410003A0084F83B0084F88D0084F83900A06706
:10242000C4F88000A4F884006064E064A4F850005C
:10243000E5620BF04BFC0CF061FD95F948010BF0E7
:10244000B3FC95F84031D5F8EC60052B78D1F34317
:10245000B5F8C20046EA036615F072FD818800688F
:102460000BF0B4FC30460BF037FF687F0BF0C2FB7B
:1024700095F82C000BF0C2FCB5F8F8305D2B03D9B1
:10248000B5F8FA305D2B01D80BF0ACFBE36A93F89A
:10249000C060002E59D106F011F995F84021384B53
:1024A0004FF47A7153F8223003F5FA73B3FBF1F36A
:1024B0003333191830460BF005FE324B18680BF019
:1024C00011FFD5F8D830C4F89030D5F8DC3063650A
:1024D000AB7B243B072B40D9EB7B243B072B3CD920
:1024E00095F80A3195F82E6184F88C3004F0C6FE18
:1024F00028B104F0C9FE864238BF0646F6B2E36A48
:1025000084F83C6093F8C0304BBB6B7E1BB129460E
:102510003846FFF75DF90020FFF7DAFA0023236061
:102520006360A360EB886380B5F8C230238095F8C0
:102530002C302371D5F844310BB101221A60F8BD5B
:10254000D5F8E4000BF038FC8CE706F0B7F895F806
:10255000412100F155010120ADE71B23C2E7AB7E0D
:102560001BB129463846FFF755F90120FFF7F8F966
:10257000E36AD3F808020BF0F9FECFE70C11002054
:1025800024800300A07B0020014B93F89400704747
:102590000C110020054A138D92F88D0003F4805130
:1025A00010B113F4C06F00D1080B70470C1100205C
:1025B000024B93F82900C0F3C00070470C110020B3
:1025C000014B93F8960070470C110020A9170000EA
:1025D000D91E0000251A0000ED1600000D4B032146
:1025E000186830B50D4690F8A52090F849400132A2
:1025F000B2FBF5F303EB4303D31ADAB244FA03F365
:10260000DB0703D4013911F0FF01F0D180F8A520D8
:1026100030BD00BFA4110020014B186810F0F1BAC2
:10262000A411002008B50AF0F9FC014B187008BD90
:10263000D0040020054B10B41C68827C836804F130
:10264000420194F8410010BC12F0FABCA411002021
:10265000024B18686C3001F0E1BA00BFA4110020F1
:102660000122962138B5114C10460BF03FFDFFF7C3
:10267000EFFF656801F08CFA63682860186818B984
:102680004AF2C630FEF70EF910F076FC10B94CF69F
:10269000AD60F7E725210BF03DFE962100200BF001
:1026A00097FE636804221A7138BD00BFA411002090
:1026B00038B5194D04466B681B79022B03D94EF6C9
:1026C000DC10FEF7EFF82B68027C83F8A4201A4494
:1026D000C168996692F87C2183F878214268C3F832
:1026E0008820037A022B0ED00BF0F0FA0BF096FE46
:1026F0000AF0A8FF09480BF0F5FD09480BF0ECFDC6
:1027000008480BF059FB637C23B12B685B6E0BB15F
:1027100001221A6038BD00BFA411002098360000C5
:1027200055555500D6BE898E2DE9F341484D0023FD
:1027300007460E462C686372236DB3F8C22093F8E7
:102740004911D3F8E000628112F086FD2B682084E5
:102750001A6DB2F8E810B2F8EA2059849A844FF45E
:102760007F42DA844FF6FF721A850FB3012130469B
:1027700012F094FF33780146D8092C6894F8483059
:1027800004F11402F3B110F081F9D8B10B68636160
:102790008B88287B938004F10E0208284AD004F12C
:1027A0000D0104F05DF880B943F26170FEF77AF82C
:1027B0006946A86812F06BFEAB6869461878C0F3EA
:1027C0008010DAE700236361E3E72C68637B04F1A0
:1027D0001A0843F0020363734FB30021304612F02E
:1027E0005DFF0368C4F81A308388A8F804302B68AA
:1027F000186D93F95810C03004F07EF92868154917
:1028000013F032F928681449036D2A30B3F8C22056
:10281000A0F809209B7FC37213F02FF902212868CA
:1028200001F0E4FCFFF714FF02B0BDE8F08104F111
:102830007800D6E794F87E306373A36FC4F80E3047
:10284000B4F87C3093800023C4F81A30E383CEE7D9
:10285000A4110020E72A0100A52A010008B5064BB3
:1028600093F900207F2A03D14EF2C040FEF71AF8F8
:1028700002707F221A7008BDD004002010B50478C1
:102880008EB004F00F0404A9224610F09CFBFFF761
:10289000C9FE042C33D11B4C059A2368107893F899
:1028A000781088422BD1507893F87910884226D13D
:1028B000907893F87A10884221D1D07893F87B10E1
:1028C00088421CD1107993F87C10884217D1517935
:1028D00093F87D20914212D19DF8212093F87E300B
:1028E0009A420CD10DF10F00FFF7B8FF9DF90F30A0
:1028F00004A90093237C227B606810F04FFB032027
:102900000EB010BDA41100200D4A536810B51979FE
:10291000022903D84CF67D30FDF7C4FF1979082948
:1029200002D941F61C70F7E71B79526903F1804325
:102930009268033BBDE8104052F82330184700BFAF
:10294000A411002010B5054C637B2BB10BF066FD84
:102950000AF078FE0023637310BD00BFA4110020AD
:1029600010B5054C23782BB10BF058FD0AF06AFE28
:102970000023237010BD00BF0876002010B5094C5D
:10298000FFF7E0FF012263681A7100232268A2F8B2
:10299000793182F87B31FFF75BFE2068BDE810409B
:1029A00010F087BEA411002008B5FFF7CBFF044B41
:1029B00000209968FFF7B8FEBDE80840FFF72CBE7D
:1029C000A4110020062938B51D469DF8104019D9DC
:1029D00008291BD802B18CB143689BB912B943785E
:1029E000DB0615D40B4B5B68186810F0E6FA00B1F3
:1029F00034B92DB903F00AFF00F00104204638BDB8
:102A00000120F9E79DF814402C43F7E70024F5E78F
:102A10000124F3E7A411002038B50D1E04460CBFB5
:102A200005200320104403F061FF094B587370B177
:102A30005DB9033C012C8CBF502455240AF0D8FD0D
:102A40002046BDE838400BF0DDBC4024F6E738BD39
:102A5000A41100202DE9F0413D4CFFF7F9FD656818
:102A600001F096F863682860186818B94EF2C150F2
:102A7000FDF718FF10F080FA054610B94EF212105B
:102A8000F6E7236893F8A6306BB123681A6D93F8C4
:102A9000A710C3F8102193F854200A4383F8542058
:102AA000002283F8A620206890F8A430034493F80D
:102AB0007C81636880F878811A7952B11B79012B87
:102AC00007D0002110F04AFC18B9BDE8F041FFF72B
:102AD00055BF23681F4A93F8A530D05C0BF08EF9E0
:102AE000236893F8A420134493F87C71022F2CD010
:102AF00004D8012F05D04DF6D430B9E7FB1E012BC9
:102B0000F9D801F03FF80646394601200BF07AFA71
:102B1000314628460BF0FEFB08F1FF332A464046BB
:102B200059425941FFF778FF62680821002351712B
:102B300021732168D3801372E37381F89530A373F6
:102B4000237403231371BDE8F0810D26DCE700BF79
:102B5000A411002053790300114A10B5536800B93D
:102B600031B9184601F0A4F8BDE81040FFF706BFE0
:102B70001979082903D84EF20F00FDF793FE197951
:102B80000C2902D94BF21560F7E71B79526903F162
:102B900080435268093BBDE8104052F82330184783
:102BA000A4110020054B1A6892F85420920703D014
:102BB0005B68186801F016B898687047A411002087
:102BC00070B52F4D06466B681A79032A0AD01A7918
:102BD000042A07D0FFF7E6FF044638B940F23F5019
:102BE000FDF760FE186810F0C7F9F5E72B6893F859
:102BF000543013B949F6F950F2E776B112F0FAFD04
:102C000030B16B681A79022A0ED84AF6EE70E7E7FF
:102C1000204612F00AFE0028F3D16B681A79022AC6
:102C200017D84AF28270DBE71A79082A02D947F2EC
:102C30004D30D5E71B7920466A6903F1804312695C
:102C4000033B52F8233098470C2812D94FF6D9404D
:102C5000C6E71A79082A02D94CF20170C0E71B793D
:102C60006A6903F180435269033B52F82330984765
:102C7000EAE76B69DB68BDE8704053F8203018471D
:102C8000A411002007292DE9F043064687B00F461E
:102C900090464568624C23D11DBB002A49D1D4E936
:102CA000001091F8543013F0030218BF012213F002
:102CB0000403827103D033785A1E53425341C371C7
:102CC00091F894304BB12368D3F89000503013F052
:102CD000A0FE10B9636801221A7207B0BDE8F08344
:102CE0003DB32946707C0FF0D1FE072F814661D19C
:102CF000637B63B158B1B8F1000F52D0656812F030
:102D0000D4F9636868715B7923730123A3736368E3
:102D10005879082855D17168707C13F011FE6268EB
:102D2000054671680532707C03F076FD6368002803
:102D300058D0236893F8540010F003000AD093F899
:102D40004A3039460195304662689279009242468F
:102D5000FFF738FE62682368907193F8540010F012
:102D6000040009D093F84B30394601953046D279AA
:102D700000924246FFF726FE2A4B65681B68E87101
:102D80001BB14146304698472872726862B3717C25
:102D9000236883F87E10116899679288A3F87C20D5
:102DA00022E0236893F878110129A7D1284603F07F
:102DB0006FFD6073637B002BA9D0B9F1000FA6D023
:102DC0009CE704AA0DF10F0103F04AFD18B946F281
:102DD0007240FDF767FD04A99DF80F0013F0B0FDE8
:102DE0000546A6E7D88018726268137AB3B9D3880B
:102DF000003B18BF0123B06800283FF46EAF072FD7
:102E00007FF46BAF517908293FF467AF002B3FF493
:102E100064AF03F05BFD0123E3735EE70123EAE7A0
:102E2000A4110020A47B00202DE9F04F044689B0B6
:102E3000062900F2C580DFE811F06000E700070016
:102E4000C300C300C30026006E4D0BF081F92F684C
:102E500097F85430980714D06E68B3798BB10DF1A0
:102E60001F00FFF7FBFC9DF91F3002222146029351
:102E700030462B7B0193FF23009307F1420310F0B0
:102E80007DF803201FE05F4D6E68B379002B00F0E2
:102E900097802F6897F85420910717D50DF11F00E0
:102EA000FFF7DCFC9DF91F303046062202932146D5
:102EB0002B7B0193FF23009307F1420310F05EF890
:102EC000002309202B7409B0BDE8F08FD30777D514
:102ED000570701D50BF03CF90DF11F00FFF7BEFCC1
:102EE0009DF91F202B6802922A7B42330192FF2218
:102EF0000092062221466868C1E7424D2B6893F88C
:102F00005420560737D56968CA79002A33D04268F9
:102F100093F85B001678864255D1567893F85C009A
:102F2000864250D1967893F85D0086424BD1D67890
:102F300093F85E00864246D1167993F85F00864288
:102F400041D1507993F8602090423CD1627C93F853
:102F50005A00101A4242424193F8560001284ED0BE
:102F6000002A4CD193F84C30082B02D04A799A426F
:102F700045D00BF0EDF86E68B379002B3DD02F688B
:102F800097F85420930720D50DF11F00FFF766FC3A
:102F90009DF91F3030460022029321462B7B01937E
:102FA000FF23009307F142030FF0E8FF01230920FC
:102FB0002B746B68DA79002A85D19B79002B82D13A
:102FC0000BF0C6F85DE70022C6E7D60715D5500717
:102FD00001D50BF0BDF80DF11F00FFF73FFC9DF987
:102FE0001F202B68214602922A7B42330192FF2246
:102FF0000092002268680FF0C1FF0320D9E70A2081
:10300000D7E700BFA4110020644D81682A68807C46
:103010000FF03CFD92F854306E68074692F84890E5
:10302000590796F806A096F807B089F0010940F113
:103030008E8092F84B30002B00F0898092F84C6023
:10304000082E00F08680304603F0C2FB49EA0000FB
:103050005FFA80F9002F7ED03046A16803F0F0FCC3
:1030600006462B6893F8542093F84180520749D5BF
:10307000626893F85B10107888426ED1507893F8AC
:103080005C10884269D1907893F85D10884264D1D1
:10309000D07893F85E1088425FD1107993F85F1072
:1030A00088425AD1517993F86020914255D1627C7F
:1030B00093F85A10501A42424241696849790829E6
:1030C0004DD093F84C30591A4B424B41002E48D109
:1030D000B9F1000F47D02046CDE90423FFF7AAFA43
:1030E000DDE90423BBF1000F0AD0296891F85610DE
:1030F00001294ED021B9002A4BD108B1002B4AD169
:103100000BF026F82B6893F854309B073FF4B9AEC8
:103110000BF01EF8BAF1000F3FF4B3AE2046FFF7F4
:1031200089FAD5F8009000B9FEB10DF11F0048EA08
:103130004608FFF793FB9DF91F3002932B7B019309
:103140005FFA88F30093012209F14203D2E676790F
:1031500076E7002685E73E4683E70022ADE70023B9
:10316000B4E70120BEE73046BCE799F85530023B92
:10317000012B3FF686AE002F3FF483AE0DF11F000A
:10318000FFF76CFB9DF91F3002932B7B0193FE230D
:10319000D8E70028B4D00A2095E600BFA41100208B
:1031A00030B58BB00546FFF73DFA114B1B6893F81D
:1031B000543013F0060F04D00122962100200AF0AB
:1031C00095FF2C786946284604F00F0422460FF03C
:1031D000FAFE002221466846FFF754FD2146684664
:1031E000FFF722FE0446FFF7ADFB20460BB030BDD3
:1031F000A411002038B5154D2C6894F84830F3B16F
:103200006FF00043D4E920129A4208BFB1F1FF3FAA
:1032100015D015F054FBD4E92023904299410ED3E8
:103220002B6893F848305BB92D6803F013FB044614
:1032300015F045FB064BE4FB0301C5E9200138BD51
:10324000012003F0C9FB0028F9D0EDE7A41100200C
:1032500040420F0010B50446FFF72AFA237A032BE9
:1032600003D145F63970FDF71DFB0BB9FFF7B6F931
:10327000054B1B6893F958000AF096FDFFF7EAFB2F
:10328000BDE81040FFF7B6BFA41100202DE9F843B8
:10329000694F002306468946B8682521D7F8008083
:1032A0000370437015F0ECF9054630B90025032092
:1032B00003F0DCFE2846BDE8F883BC68032E2378C3
:1032C0002FD123F00F0343F0030323700C2363700B
:1032D000D8F87830B868C0F80930B8F87C30A0F871
:1032E0000D3098F87E1012F0E2F83B6893F8482011
:1032F00003F1420993F84180002A79D14C462368B2
:103300004146B868C0F80330A388A0F8073012F02F
:10331000C5F84A4BD3F80C32002B7ED00AF018FFC8
:10332000C4E723F02F03222243EA4913627043F0DB
:10333000050323703B681A6DD2F8E420C4F80F200F
:103340001A6DD2F8EC30190AE3741B0C2175637501
:1033500092F84A11B2F8F430002943D06420B3FB4C
:10336000F0F3A375D2F8F03000293ED06421B3FB0E
:10337000F1F3E375C3F30723237692F84911D2F8EA
:10338000E00011F069FF39686076000AA0760B6DE5
:10339000BC68B3F8E820E276120A2277B3F8EA2094
:1033A0006277120AA277D3F81F20C4F81F2093F87F
:1033B000233094F8242084F823300B6D22F01F0270
:1033C00093F82A3003F01F03134384F8243002F0EB
:1033D000D1FD94F8243003F01F0343EA401384F82E
:1033E000243075E740F2E240B9E740F2E241BEE73F
:1033F00093F8542052070DD593F84B2052B193F80F
:103400004C0003F057FB044600283FF477AF4FF021
:10341000010874E77B685879F3E7052E7FF44AAF1B
:103420003B6821681A6DC2F8CC10A188A2F8D010B0
:103430001B6D83F8CB803DE7A411002000A008504D
:1034400010B500210320FFF721FF18B9BDE8104097
:10345000FFF794BA054C032120680FF07FFF002886
:10346000F4D0636809221A7110BD00BFA4110020B6
:1034700070B5164C636818680FF07EFD064618B9E3
:1034800043F2DF20FDF70EFA63680A22002120686C
:103490001A7100F0ABFE236805201B6D9D7F337809
:1034A000C3F340131D402946FFF7F0FE18B9BDE8ED
:1034B0007040FFF763BA042120680FF04FFF002827
:1034C000F5D023681B6D9D7770BD00BFA41100204F
:1034D000036D10B504461BB948F66760FDF7E2F9C5
:1034E000022208494272B3F8C2304381FF2380F8B8
:1034F00027304FF6FF73038512F0B6FA00232365D9
:1035000010BD00BFE72A0100F8B5184F064602F0CB
:1035100099FC0121B8600020FDF7D6FD054618B9D9
:1035200048F28450FDF7BEF94FF4C072002115F047
:1035300014FE01210846FDF7C7FD044620B14FF4F3
:10354000C072002115F009FE7B6913B946F6DB70E5
:10355000E8E730460FF08CFB28460FF0F0FE24B170
:103560002046BDE8F8400FF0EABEF8BDA4110020E7
:10357000014B024A5A617047A411002080360000B6
:10358000036810B51BB94CF29C60FDF78BF9044A37
:1035900013606C3353605369BDE810401B681847D3
:1035A000A411002008B5044B586800F081FBBDE869
:1035B0000840FFF7E3B900BFA411002038B5044666
:1035C00090F8400000F0FD0004F14201003818BFFF
:1035D000012084F8410002F0E7FF94F84030023BFC
:1035E000DBB2012B94BF0123002384F8483014D8A8
:1035F00003F030F9054615F062F9084BE5FB0301CD
:1036000094F84830C4E920013BB1002003F0E4F90C
:1036100018B947F22310FDF745F938BD40420F00B5
:103620000149363012F023BAC52A010019260000DC
:103630007D290000BB2A0100552A0000BB2A010099
:10364000BB2A0100BB2A0100BB2A0100BB2A0100E2
:103650004134000071340000BB2A0100BB2A010084
:1036600061260000A9290000252C0100132C01006F
:10367000492C01003B2C0100A13100007D280000F5
:103680005532000060360000683600002C3600001D
:10369000783600007036000009290000C12B0000B8
:1036A000592B00009D2C010008B5431EDBB229B147
:1036B000032B07D94FF20A00FDF7F4F8042B02D8C8
:1036C000024AD05C08BD4EF23F70F5E75679030020
:1036D00008B50FF0A3F8054AD2E84F3F0133DBB23B
:1036E000C2E8413F0029F7D108BD00BFBC1100204E
:1036F000024BA0F108015868FFF7EABFBC11002097
:103700002DE9F84F1E463C4B0D46934600211A7892
:1037100004689DF828709DF82C809DF930909DF8E4
:1037200034A0016032B9A4F108015868BDE8F84F2F
:10373000FFF7CEBF1A2204F1090015F00EFD012398
:10374000A372BBF1060F4FD8DFE80BF00433394EFC
:10375000434E3D00E37A23F0130343F01303E37277
:10376000012304F10E0241462846237547F6FF73F4
:1037700084F81890E38204F10D030FF0D1FBE37A93
:103780005B0735D5BA1E04F11C03012A8BBFAA685A
:1037900032681168E2618ABFE161B28892889A80DA
:1037A000E7760023237215492046BDE8F84F12F052
:1037B0005EB9E37A23F0150343F01503CFE7E37A0C
:1037C00043F01003CBE7E37A23F0120343F0120334
:1037D000C5E7E27A4AF01A0A22F01B020AF01B0A35
:1037E00042EA0A02E272BBE74AF60210FDF75AF813
:1037F000FF23E376D5E700BFBC1100202538000089
:1038000010B50C46096849B101F10803984203D08C
:10381000034B5868FFF75CFF0023236010BD00BF17
:10382000BC1100202DE9F04F05468DB00C4600205C
:103830000121FDF785FC064618B941F6F430FDF785
:1038400031F8A8300FF07DFD18B196F85430042BF4
:103850002ED130460FF001FA50BBBA4C04F10806E5
:1038600004F10C07AB6A93B92846FFF741FF4FF408
:103870000073ADF804309DF80430002063F30700B6
:103880009DF8053063F30F200DB0BDE8F08FA96AF5
:103890000B68B142AB624FF000030B704B708B7042
:1038A000CB70DFD0B942DDD06068FFF711FFD9E7F8
:1038B000AF6A37B3A44B9F4226D0043B9F4223D02C
:1038C00007F13B0A4FF0000802F0CAFA8146B8F14E
:1038D000000F40F0078102A950460FF007FCB9F134
:1038E000000F16D004F10D00EE7A16F0100613D07A
:1038F0009DF81860059932460EF0A6FA4FF00108BF
:1039000028E005F1330ADDE74FF001084FF0000A27
:10391000DAE704F11C00E7E7002FEFD09DF808304C
:10392000022BEBD0014695F83230E522504611F0DB
:10393000F8FE95F8323006460344504685F832309A
:1039400011F0E7FE95F83280A8EB0000D0F10008F6
:1039500048EB0008B9F1000F00F0C880EB7AD906F7
:1039600005D440F609406AE7C8460026F6E713F09A
:10397000040FAA7A95F80DC04FF03E0304F106013A
:1039800005F10E0033D095F81BE0BEF1FE0F2ED1ED
:1039900023700B23E270A370130184F805C0023377
:1039A000637001232371D5F80E30C4F80630838884
:1039B0008B8084F80CE0EB69C4F80D302B8CA4F8F4
:1039C00011302B7EE3745F4E06F1080A57453CD157
:1039D0002379022205F1280062F3461323710FF0C8
:1039E000BBFA02272846FFF783FE042640E0237037
:1039F0000223E270A37006F10A0384F805C0534362
:103A000002336370D5F80E30C4F8063083888B809B
:103A1000267326442B7E7373EA7A12F0080102D0D3
:103A200004232371CFE702F00303032B01D121719B
:103A3000C9E7520701D50123F3E7022BF1D00BB9F7
:103A40000323EEE74CF20A30F9E606F10C094F4584
:103A500015D105F128000FF07FFA6A7D6AB9237944
:103A6000042662F34613237102272846FFF740FE1F
:103A70008DF804608DF80570FDE60026F4E747B385
:103A8000B8F1000F20D005F1280840460FF064FA85
:103A900039467068FFF71CFEAB6A0022534585F873
:103AA000322095D04B4505D12379404662F3461329
:103AB000237194E79DF80830022B05D1237923F078
:103AC00068030127237190E72379012262F34613EB
:103AD000F7E7EE7A16F01006CAD0237967F346139B
:103AE00023717EE700287FF43FAF06468E2305F161
:103AF0002301237006F11803AA7A5343E270221DB2
:103B00000233637005F10B0353F8040B8B4242F848
:103B1000040BF9D195F814A095F815B002F0DEF970
:103B2000C1F3402950464946FFF7BEFD6073BBF123
:103B3000000F04D049465846FFF7B6FDA073E6765D
:103B400041E700BFBC110020C8110020343270B51D
:103B5000054692B20C461E460EF028FE25B1034AD9
:103B6000556014745674147070BD00BFBC110020F1
:103B700010B5034C60680EF03BFE237C237010BD33
:103B8000BC110020014B587C704700BFBC110020C5
:103B900038B5134D68680EF031FE044618B945F685
:103BA0009800FCF77FFED5E84F3F013BDBB2C5E84C
:103BB000413F0029F7D104F108033422184615F0DB
:103BC000CCFA47F6FF720121E462E283FF226275BC
:103BD00084F82320E27C61F34612E27438BD00BF12
:103BE000BC11002038B5436A04468BB90A4D686899
:103BF0000EF004FE606218B947F63620FCF752FE5C
:103C0000D5E84F3F013BDBB2C5E8423F002AF7D180
:103C1000606A3B3038BD00BFBC110020036810B59E
:103C2000044683B19A6A1AB142F6DC60FCF73AFEA8
:103C3000596A41B101F108008342084B08BF226074
:103C40005868FFF745FD216831B1044B08395868C1
:103C5000FFF73EFD0023236010BD00BFBC11002014
:103C600038B5046805469CB10F49204611F008FF9D
:103C70000E4B00221A735A739A73DA73EFF31082A1
:103C800072B6A16A0C3359B9A362E36202B962B693
:103C9000286800F12401FFF7B3FD00232B6038BD35
:103CA000E16A0B60F1E700BF25380000BC1100207D
:103CB00038B50446006818B300F12401FFF7A0FDF1
:103CC0002168104B4D7DB5B100221A725A729A725A
:103CD000DA72EFF3108272B6886A083340B98B62E9
:103CE000CB6202B962B62046BDE83840FFF7B8BFE4
:103CF000C86A0360F4E708395868FFF7E9FC2560F3
:103D000038BD00BFBC11002010B50446024606496C
:103D100000F58C7014F0F0FE224604F5A470024900
:103D2000BDE8104014F0E8BE493401007FB590F8BA
:103D3000142102F0FF031AB144F28C70FCF7B2FDBB
:103D40000C78039314F0010218BF8D68CDE901339C
:103D500018BF019514F0040529D004ADCE6805EB19
:103D6000820545F80C6C154680F845514A68124D9D
:103D7000C0F8C820C0F8F82040F27122A0F8FC205A
:103D8000032215F8011B0C420BD004A900EB83069B
:103D900001EB8301013351F80C1CDBB21639C6F874
:103DA000CC10013A12F0FF02EBD104B070BD002A32
:103DB000DAD14AF69120C1E7687903002DE9F04F86
:103DC00004468FB09A469146BDF860B0039114F056
:103DD00076FD0746204604910FF0C5F9D4F8CC8053
:103DE0000546BAF1000F00F0DD81B9F1000F00F0D7
:103DF000E480824617F5FA630593049B43F10003C0
:103E0000069304F0BFFB064604F1E8003146079034
:103E100004F08AFBD4F8101111B107980FF0E4FAFE
:103E2000ADB1D4F8F050AEB1B0682A46D6E9003151
:103E3000C018059B009341F10001069B019312F00D
:103E400031FE854207D248F68900FCF72BFDD4F8F5
:103E5000C850E8E73046059BC518069B43F10006AD
:103E6000D4F8C830BBF1000F00F0A2801FFA8BFB22
:103E700042F2107C29463246EBFB0C1203F2CF7C57
:103E80006044B0FBF3F04343EB1A66F10000C4E971
:103E90002A12C4E93A304FF0000B04EB0B03204622
:103EA00093F87C110FF044F9D4F8A830D4F8AC1092
:103EB0005A1B0590069361EB0600012A70F100037E
:103EC0004FF00003C0F25D819045834100DB9046D6
:103ED00004EB8B0BDBF8CC00804528BF8046C4F890
:103EE000DC80B9F1000F05D0D4E93A23C4E92C569F
:103EF000C4E93023059B2046039AC4F8D830042334
:103F00000791C4E92E5653722A4633460FF041F901
:103F1000039B059A18725A60BAF1000F00F03C81B9
:103F20000123039A07991370069B049ADB1B61EB2C
:103F30000202012B72F100004FF00000C0F2238159
:103F4000A94E9E42904100DB1E46D4F81031D4F8B1
:103F5000C890002B40F01C8107252046A9FB055A7C
:103F60000FF001F9002800F01081D4E92C32ED188F
:103F70004AEB0203AF42049A9A410ED2ED1B049A17
:103F800063EB02036FF00102AA424FF000029A4174
:103F900002D3AE4228BF2E46B146039BC3F8109011
:103FA000059B984534BF002001200FB0BDE8F08F7D
:103FB0004FF0FF316FF0004260E7002838D06FF01B
:103FC0000043D4E92A129A4208BFB1F1FF3F2AD038
:103FD00094F844312046234493F87C110FF0A8F85C
:103FE00017F19802049B0546099008A843F10003C5
:103FF0008DF82090CDE90C2340F20243ADF8283033
:1040000014F080FD10B947F6E4601EE7D4E92A32C7
:104010000C995B1A0D9962EB01025B1B62F10002C5
:10402000002AC0F2A8803D46049E4FF0010A32E704
:10403000D4E93A26D4F8C850BB1AAA18B3FBF5F352
:1040400005FB03F346F100069B18A3EB070246F1BC
:104050000006972A05D8ED1846F10006CA46CB4659
:104060001BE794F87C1120460FF062F80423D4F883
:10407000B8208DF82930D4F8C850099020468DF822
:104080002090D4E93A13521AB2FBF5F26A4352185F
:1040900043F10003CDE90C230FF07BF829468DF89E
:1040A000280008A811F021F8DDE90C56D6E751F8F0
:1040B000042F013302F1160CC4459FBF821A0BF185
:1040C000010B90445FFA8BFBDAB29645EFD804EB14
:1040D0000B03204693F87C110FF02AF8404404EBC0
:1040E0008B03D3F8CC30834209D3A3EB0808B8F193
:1040F000000F24DA40F65210A7E6A8466AE094F8CA
:104100004511D4F8C820594511D90BF1010BAA4229
:104110005FFA8BFB08D904EB8B03D3F8CC3003F1A7
:10412000160298461546E2E743F205708DE6AA426C
:10413000F7D852009542F4D342F28B2085E6AD19B0
:10414000D4F8B030D4E93A124AF100065B1A02D52D
:1041500046F2B76079E6D4F8C800B3FBF0F3434306
:104160005B1842F10002C4E93A32EB1A002BEFDB94
:104170004FF0000A91E63D46049E4FF0010AC84602
:104180006DE79846A4E60646DFE6D4E93032EEE66F
:104190004FF0FF352B46EDE6039B83F800A0C3E903
:1041A0000456FDE6B9F1000F7FF424AED4F8C82020
:1041B00007F19805D4E93A137E1AB6FBF2F6564396
:1041C0007618A5EB060543F10003AA429A4694D857
:1041D000A5EB0208002394F845E104F1C8016FF053
:1041E00015009B4670E700BF0040420F01292DE9F2
:1041F000F347064605D9022900F0988045F2B82019
:1042000050E001F00104D0E92CA709F00DFD96F86B
:10421000788181462046414610F0EDFF0546404634
:104220000AF01EFA0246002C3ED0A8F10203DBB2CF
:10423000022B39D8534901EB43031B8A15EB0905BF
:104240002CBF0121002115EB0A0547EB01074E4960
:1042500051F8280000F2E73010444FF47A72B0FBB6
:10426000F2F02D1A67F10007ED1847F1000704F08E
:1042700025FA3330D6F810812C1A67F10005D8F8EA
:10428000E07004F079F906F1E80383420FD03A4672
:10429000CDE90045D8E97E0112F004FC874210D236
:1042A0004EF65110FCF7FEFA4FF4FC73C6E798F88F
:1042B000490130B13A46CDE90045D6E93A0112F05C
:1042C000F1FB324B1A68D6F81031824293F84A114A
:1042D0000ED9D3F8E0603218C3F8F06089B941F61E
:1042E0006A018842A3F8F41018D34AF64700D9E7C8
:1042F00051B16422B0FBF2F151430246401AC3F8B7
:10430000F0104FF4FA71ECE740F2E242B0FBF2F148
:1043100051430246C3F8F010401AE0E7121945F184
:104320000005C3E97E2502B0BDE8F087D0F8103162
:1043300013B94AF6BD40B5E700255D7390F87811D2
:1043400083F8401183F84111FF2483F84241033977
:10435000D0F81001012900F580708CBF00210121E7
:1043600002F0B4FED6F8100107F034FCC6F8105184
:1043700086F8164109F04EFF02B0BDE8F0470CF098
:104380004DBF00BF5C79030024800300D0110020E2
:1043900008B50B4B28B101280CD041F2ED60FCF7B9
:1043A00081FA18601A6841F669039A4206D947F201
:1043B000B910F4E740F6C4121A60F3E708BD00BF75
:1043C000D0110020014B1868704700BF90120020E8
:1043D00008B5034610465A1E032A10D84A1E032A5F
:1043E0000DD8084A012951700CBF00210A21107113
:1043F000937091721946FDF7A1F8002008BD6FF087
:104400001500FBE77A060020074A537A40B143F0D3
:104410000403002953720CBF002307235371704714
:1044200003F0FB03F5E700BF7A06002040EA4100F5
:10443000014BD870704700BF7A06002010B50446C3
:104440000FF0C9F908B9002010BDE0430FF0C3F91F
:104450000028F8D0E31683EAA4635A1E1A42F2D069
:10446000E3B25A1E13405A1E1342ECD0A0B211F010
:1044700080FD0B28E7D8204611F077FD1828E2D8F8
:10448000A3B2B3EB144F04D184EA142313F0FF1F3B
:10449000D9D0044B6340581E1840003818BF012083
:1044A000D2E700BFD6BE898EF0B5070C164BA7F534
:1044B000AA4203EA9023543A012A20D927F4004063
:1044C00042F6AA22801A18BF0120002216211F24BA
:1044D000164687EA060562EA0505013511D0DD03B7
:1044E00001394FEA5303ADB245EA56064FEAC435E7
:1044F0004FEA5404ADB245EA5202EAD1F0BD0020C1
:10450000E3E70020FAE700BFE0FF3F000138C0B258
:10451000042808B503D94EF23F70FCF7C3F9014BEC
:10452000185C08BD8B7903000138C0B2042808B5B7
:1045300003D94EF23F70FCF7B5F9014B185C08BD8A
:10454000D87A03000138C0B2042808B503D94EF266
:104550003F70FCF7A7F9014B185C08BDEE7B030028
:104560000138C0B2042808B503D94EF23F70FCF7F9
:1045700099F9014B185C08BD8A7C03002B4B70B580
:104580001D890C46DE8840F64803114622469D42AE
:1045900028BF1D46002311F058FCE2882389B2424F
:1045A0006088A18828BF3246AB4228BF2B46B04264
:1045B000E28028BF3046A942238128BF29461B2814
:1045C0006080A18002D0B1F5A47F04D11B2A2BD03A
:1045D000B3F5A47F28D0FF232370E38841F6D4727B
:1045E0001B3B9BB2934203D947F69A20FCF75AF93A
:1045F00063881B3B9BB2934202D94DF2DA40F5E748
:10460000238940F64812A3F5A4739BB2934202D9C2
:1046100043F25500EAE7A388A3F5A4739BB2934243
:1046200002D947F69F30E1E770BD00BF9812002025
:10463000F7B5002304460E461746CDE90033684619
:10464000FCF7B8FD08B100201AE0009DA542F6D0A5
:10465000304605F1C5030FF0A4F9394695F8C4209A
:1046600010F0EEFC0028EAD005F1CC0395F8CB2041
:1046700004F1CC0194F8CB0010F0E2FC0028DED06D
:1046800003B0F0BD054A516A02F11D03127F11F813
:10469000030BC0F3801010F0D3BC00BF3C750020AA
:1046A00038B5B0F8C2500446284608F0F9FC152188
:1046B0002846FCF745FD054B00F11401204693F810
:1046C0006E20BDE8384013F06ABE00BF981200208B
:1046D000012817D80D48824216D8012B0DD140F27F
:1046E00052739A4210D9A1F6C410094B98420BD8C4
:1046F0008A428CBF122000207047042BF3D140F671
:10470000C313EEE712207047302070478FFD700210
:10471000CBF3700210B504460A480EF0CFFB0A49ED
:104720002046FFF703FB20460EF0F8FA38B120468A
:10473000FEF744FF20460EF0BEFB002010BD122005
:10474000FCE700BFD4120020DC120020F8B50D46B3
:10475000074640F67A4CBDF81860A81FBDF81C103B
:1047600080B2604515D8941FA4B264458CBF002068
:10477000012087B9194CE47B84B188B96FF4506784
:10478000EC19062C04D86FF450641419062C07D9C0
:10479000F8BD0020EDE797F88940EDE70028F7D055
:1047A000954218D803FB0111B1F5FA7F13DCA6F18D
:1047B0000A0340F676409BB283420CD810460FF0B5
:1047C000F6F842F2107341435E43B6EB410F8CBFE3
:1047D00001200020DCE70020DAE700BF981200206B
:1047E0002DE9FF479946804B04460DF108081868EB
:1047F0000F461B7916467D4D88F8043095F86F30CA
:10480000029013B1404602F025FA3946204602F0E4
:10481000B7F9AB69C4F8003196F84A2006EB4202BA
:10482000B2F82AA050460FF0C2F801466FF450606B
:1048300000238244BAF1060F7AD9908C4FF0961279
:1048400084F84A31A4F8FC30C4F8F82040F2E2427F
:104850000FF0ADF803F0DCFE40F2E2430146A4F8AD
:104860000C32C4F8E010C4F8081201F037FB8306DC
:10487000A97B53BF1B236B88AA881A46A4F81C3156
:104880005B4BA4F81E211B6884F808111BB194F936
:10489000481138469847574B1B6813B15649204674
:1048A0009847EB7B003B18BF012384F84931534BF9
:1048B0001B681BB15249B4F8C20098470123A4F801
:1048C000F630504B1B681BB14F49B4F8C2009847F3
:1048D0004E4B1B681BB14E49B4F8C20098474D4B74
:1048E0001B6813B1B4F8C20098474B4B1B6813B157
:1048F000B4F8C2009847494B1B6813B1B4F8C20022
:104900009847AB8804F1D8006A886978033303328A
:1049100001919BB2297892B2009104F1DC01FCF77D
:10492000A7FCD4F8D8307BB94AF64950FBF7BAFF58
:104930004FF04D12A4F8FC300123C4F8F82084F89D
:104940004A314FF47A738AE7D4F8DC3013B945F66C
:10495000CF00EBE70FF006F8C4F8E400B9F1000F60
:1049600005D002F0AFFC20F07F40C4F8EC0096F8D0
:104970004A302046E96906EB4306338EA4F8E83056
:10498000F38EA4F8EA3013F088F8414604F11E00D3
:1049900010F0D9FC95F86F3013B9FF2384F8553225
:1049A0002B6F04F1C00523B1012204F5A77128463D
:1049B00098471B4928460FF0BBFF02F083FC0C23ED
:1049C000B0FBF3F202FB1300C0B2431DDBB2082BB5
:1049D0009CBF0D30C3B2204684F82A3010F077FC1B
:1049E00004B0BDE8F08700BF60F303009812002018
:1049F000C07B0020B87B0020A4120020D47B0020C4
:104A0000C4120020D07B0020FA120020CC7B0020B2
:104A1000EC120020B07B0020B47B0020A87B00209B
:104A2000A212002010B503210020FCF789FB0446E8
:104A300068B90321FCF748FB044618B946F6BC10D8
:104A4000FBF730FF034B93F9741012F0BEFB2046C6
:104A500010BD00BF98120020014B5888704700BF5E
:104A600098120020014B93F82800704798120020FC
:104A700038B510F0E4FA002501F0B6FE244C01F040
:104A800061FA10F0D3FF03F043FC02F003F908F0E1
:104A9000E7FA012001F0DEF91E4B1F4A29461D608E
:104AA0004FF01B13A4F86C5084F86E50A581E57389
:104AB000A57484F83A50C4E900234FF4A47310227B
:104AC000A360F9232382154BD3F80500B3F809300E
:104AD000E06304F14400A4F8403014F03EFB0123ED
:104AE00042F2107204F1620084F844302375C4E984
:104AF000122213F0DCF904F1540013F0FCF9002247
:104B0000002384F8805084F82850C4E91E2338BD5F
:104B100098120020BC7B002003021B008B7903004D
:104B2000064B41F64C521B211A629973C3E90622C7
:104B300041F288325A62FFF79BBF00BF98120020F3
:104B400073B53F4D0446AB69AE7BC0F80031EB7BDB
:104B5000003B18BF012380F849313A4BC0F8E030E0
:104B600002F06CFB002818BF002601F0B7F983069D
:104B700084F8086153BF1B236B88AA881A46A4F8DF
:104B80001C31314BA4F81E211B6823B194F9481144
:104B9000B4F8C20098472D4B1B6813B12C4920462E
:104BA00098472C4B1B681BB12B49B4F8C20098479F
:104BB0002A4904F1C0000FF0BBFE0123A4F8F6302F
:104BC000274B1B681BB10021B4F8C2009847254B46
:104BD0001B681BB10021B4F8C2009847224B1B6828
:104BE00013B1B4F8C2009847204B1B6813B1B4F856
:104BF000C20098471E4B1B6813B1B4F8C200984717
:104C0000AB8804F1D8006A886978033303320191D4
:104C10009BB2297892B2009104F1DC01FCF728FBE9
:104C2000D4F8D8301BB942F20B20FBF73BFED4F886
:104C3000DC3013B94FF65420F7E702B070BD00BF67
:104C40009812002000093D00C07B0020B87B0020A6
:104C5000A4120020D47B0020C4120020A212002045
:104C6000D07B0020CC7B0020B07B0020B47B0020D8
:104C7000A87B00202DE9F34104460E4612F0E5FA28
:104C8000002800F09580204612F013FC40B1B6F8E1
:104C90000130013B7F2B03D9122002B0BDE8F08127
:104CA000204612F00AFC08B90C20F6E7204612F064
:104CB00045F90028F8D1204612F071FA8046002804
:104CC000F2D1204605F0A4F90028E5D042F2107395
:104CD000B6F80170F17820465F4312F0D5FB04214D
:104CE0003078FCF72DFA054606213078FCF728FAD3
:104CF00025B138B14CF25120FBF7D4FD18B305466D
:104D000090F8E5802B4E3368EBB14035284611F022
:104D1000A0FEC0B1284611F07CFEA0B9B8F1000F8A
:104D200007D0254B28461B68984760B14DF2735059
:104D3000E2E72249424633682846096A984710B19B
:104D400040F6B920D8E7204612F0ABFB014638B94F
:104D50003A46204604F022FA40B34FF68800CBE7EB
:104D600002210DF10600FCF779F9054608B90D207E
:104D700093E7BDF8061001F037FF2946204612F0F0
:104D8000CEFB2846FFF7DCFE3A462946204604F0D3
:104D900005FA024610B141F2D770ADE7074B1B6F21
:104DA00023B105F5A77105F1C0009847002074E70D
:104DB000422072E7C87B0020C47B002098120020AC
:104DC000024B1B6803B118470C207047BC7B0020C6
:104DD000014B93F97400704798120020034B5A88D6
:104DE00002801B7883700020704700BF981200205B
:104DF00070B5837806461A2B08D8042B04D92E4A9E
:104E000022FA03F3DB0705D412200EE0292B01D090
:104E10003B2BF9D13088B0F5706FF5D210F030FA35
:104E200070B190F84C210AB10C2070BDB27880F8B6
:104E30004D21FF2280F84C210EF037FF0020F4E7CF
:104E400009213088FCF77CF9044690B3B0F8AC0136
:104E500010F016FA05460028E6D00821B4F8AE0195
:104E6000FCF76EF918B949F2BC00FBF71BFD03789B
:104E70001BB994F8C831032BD6D195F86631002BB5
:104E8000D2D194F8F031002BCED1B4F8B031A5F8DE
:104E9000683194F8B83185F86A31037D85F86B3153
:104EA000B37885F86C3184F8F031FF2385F86631EA
:104EB000C4E70220B9E700BF2000380438B50588F0
:104EC00000224488A8B2A1B20EF0DAFD10B9024B5C
:104ED000DD801C8138BD00BF9812002038B50278F3
:104EE000447802F0010302F0020254EA030101D106
:104EF000112038BDD2B98578002DF9D0002B18BF0C
:104F0000002400E01D4620460EF08BFD0028EFD067
:104F100028460EF086FD0028EAD0074B00201A7BB9
:104F20009C7222F00302DD721A73E2E7002BE9D0D3
:104F300000242546E7E700BF9812002010B500883E
:104F400010F0B8F9D0B190F8612112B13A2420469E
:104F500010BD90F86C2002F0FF04002AF6D190F802
:104F60006320920705D1FF2280F861210EF09DFE9B
:104F7000EDE70349643010F080FDE8E70224E6E73E
:104F8000B76801002DE9F04703780446032B03D9E5
:104F900012252846BDE8F0874378032BF8D8437ED6
:104FA0008578002B4ED1012DF2D100F0B5FF85435D
:104FB00040F0918094F8028018F0010506D001239A
:104FC0002269A168E078FFF783FB054618F0020F1D
:104FD00007D002232269A168E078FFF779FB284314
:104FE000C5B218F0040F7AD094F803A00423D4F8C3
:104FF0000890226950464946FFF76AFB284310F0A3
:10500000FF05C6D1B8F1050F0ED194F80480042332
:10501000E16862694046FFF75BFB05460028B8D1AE
:10502000C24558D1894556D1237E013B062BAFD8C6
:1050300001210020FCF784F8054648B941F68A6052
:10504000FBF730FC6B1E062BA2D8AA07A0D4ACE756
:10505000A8300EF076F918B195F854309B073CD182
:10506000657EE278003DA078A16818BF0125012A7D
:10507000B4F800E000F0040314BFB2FA82F2022296
:1050800094F818C018BF520910F0010F1FD02669FC
:105090005BB16769F319994207D24B089E4228BF5A
:1050A0001E468B1B9F4228BF1F460E4B83F8415064
:1050B000002583F83C0083F83D20A3F83EE083F808
:1050C00040C083F844001F65C3E9121661E7002B56
:1050D000EBD02769E9E711255BE70C2559E7002D9F
:1050E000A2D056E79812002000B589B0437940F26B
:1050F00071218DF8043083798DF8053001238DF806
:10510000063003788DF80730B0F801304B43039335
:10511000B0F803204A430D4991F840100592A2F6D9
:10512000C4128DF81C1000218DF81D1008498A4208
:1051300009D8A3F6C4138B4205D801A8FFF722FFB4
:1051400009B05DF804FB3020FAE700BF9812002098
:105150003C369C002DE9FF4106460078012813D11A
:105160007378012B03D9022B0CD1B38853B1728809
:10517000B2B1B388A3B10A214A434FF4A0614B43B3
:105180009A420DDB122479E00028FBD10121FBF7C4
:10519000D7FF0546002840F08D8042F2665007E0B8
:1051A00001210020FBF7CCFF054618B947F2E25079
:1051B000FBF778FBB388002B76D10DF04EFD00286D
:1051C00074D195F81431002B72D12846FFF7A2FA5A
:1051D00004460028D6D10121DFF82C810846FBF7D0
:1051E000AFFF98F81310074619B110B94CF2C4007C
:1051F000DEE798F83C200023CDE9023312F00103EA
:105200001CBFD8F84C000290520741BF04AA02EB21
:105210008303D8F8502043F8082C002941D097F890
:105220001431002B3DD07388DBBB98F83C303846F6
:10523000009302ABD8F8482098F83E100DF0E3FD3B
:1052400078B338460EF083F807F14003064605F1BF
:105250004002683753F8041BBB4242F8041BF9D1E3
:105260002846FFF757FA024610B140F2EF609FE779
:105270000C2E07D1014628460EF010FA204604B045
:10528000BDE8F08116B147F28C1091E798F83D30F7
:105290002846296D43F0040385F854300EF0DEF9FA
:1052A000ECE7B2887188E6E71124E7E73A24E5E7FE
:1052B0000C24E3E70DF0F6FF04460028DED195F854
:1052C000543095F8A62022B195F8A720134385F80D
:1052D000A600053B012BD1D82B6D13B943F6AE6068
:1052E00066E701210846FBF72BFF4FF4C072294601
:1052F00006460CF0A9FD002386F894300423316D96
:10530000304686F85430C9E7981200202DE9F04F56
:10531000457A8BB00446A90718D545F001054572BA
:10532000072D15D800F0F8FD35EA000040F04F8158
:1053300094F848308BB9012D0AD1A369A54AA3F28C
:105340005373934200F24181012609E06A07E7D1D5
:10535000122420460BB0BDE8F08F15F00106ECD109
:10536000AB0745BF731CB1464FF0FF09DEB26F07B4
:105370000AD5B31D984A54F82330A3F6C4139342B8
:1053800000F223810136F6B204F1080704F1220588
:105390004FF000085FFA88F39E422BD823789A1EBC
:1053A000022A40F21481012BD2D813B9A378012B21
:1053B000CED86378032BCBD894F84930013B062B29
:1053C000C6D8864F01210020FBF7BAFEFB7C0546BC
:1053D000002B44D101210846FBF7B2FE002818BF7C
:1053E000054605F1A8000DF0ACFF0646002850D098
:1053F0000C24AEE799452DD0D7F804A03B6953455E
:10540000A6D86A8B2B8C9A42A2D80120B5F814B08A
:105410006988EB892A89CDE900B00020CDE9021323
:10542000FFF794F9002800F0D080B8F1000F11D0F8
:105430002888029988428BD1E988914288D1AA892B
:10544000039B9A4284D16B8A5B4581D13B689A4524
:1054500040F0BD8008F10108043702359AE7A83012
:105460000DF06FFF0028B5D06FF00043D5E92A1288
:105470009A4208BFB1F1FF3FACD1637A284600934E
:1054800004F11803E26861780DF0BDFC06460028BF
:10549000A0D028460DF0E7FB08B13A2459E728468A
:1054A0000DF0DBFB0028F8D1BB7C4BB906AF0693AF
:1054B0007B6006238DF81E303846FBF77BFE60B319
:1054C00000210DF11600FBF7C9FD074600287AD030
:1054D00001232246BDF81610FFF782F9384612F074
:1054E000F4FA1EB9617828460DF049FC04F103086E
:1054F000A2782178284643460DF0EFFB00286FD1B3
:1055000012240021B7F8C200FBF730FE00283FF458
:1055100020AF4DF62D70FBF7C5F9069B93F8CD2013
:10552000802AC9D093F8E530002BC5D060E7637AB4
:105530008DF8186013F00102E16818BFA0690791A7
:105540001EBF089001208DF818009E0744BF01324D
:10555000D2B258071BD59DF81800063203F0050398
:1055600054F8222040F00400052B09928DF8180011
:105570000DD108981318994209D24B08834228BFCD
:105580000346C91A0893914294BF0991099206A94A
:105590002846FEF7CBFB94F848102846003918BF80
:1055A00001210DF097FB94F8491028460DF078FB87
:1055B00028460DF080FC394628460EF04FF80024AE
:1055C000C7E60B249DE70D24C3E63024C1E6112471
:1055D000BFE600BF3CF67002CBF3700298120020C9
:1055E00016B92846FDF7EAFF21784346A2782846F7
:1055F0000DF0D2FB94F8099000F08EFC09EA00014E
:10560000284601F005010DF04EFB16B9042385F87C
:1056100054302F654246A0780EF0C3F90146284663
:105620000DF0D5FB237833B94246A1783846FEF712
:10563000FFFF0028C5D1002E3FF479AF0421284692
:105640000DF075FB0028BAD10C245AE710B5437948
:1056500094B0032B57D823F00203027940F2712152
:105660008DF80630D0F806308DF80420CDF80730DC
:105670004389027BADF80B3001238DF805208DF8AE
:105680000D3003884B43049342884A430792A2F6A5
:10569000C412847B417B41EA0421ADF82810047CCC
:1056A000C17B41EA0421ADF82E10847C417C41EAA3
:1056B0000421ADF83410047DC17C41EA0421ADF829
:1056C0003A10417D847D41EA0421ADF84010C17D4E
:1056D000007E41EA00210E48ADF8461000218DF809
:1056E0004C108DF84E100B4990F840008A428DF80E
:1056F0004D000AD8A3F6C4138B4206D801A8FFF7C1
:1057000005FE14B010BD1220FBE73020F9E700BF02
:10571000981200203C369C0073B506230025CDE985
:1057200000558DF806306846FBF744FD08B10026A9
:1057300010E0009D95F8CD30802BF4D095F8E56011
:10574000002EF0D095F83131002BECD195F8CC300B
:10575000002BE8D101210020FBF7F2FC044618B928
:105760004DF6D140FBF79EF8A8300DF0EAFD224B34
:10577000DB7C73B3E0B194F85430053B012B17D8B0
:1057800020460DF0E4FD054610B14FF24920E9E74F
:105790002046FDF79DFE94F854302A46294623F012
:1057A0000403204684F854300DF078FF00250DE006
:1057B00001210846FBF7C4FC044610B941F66740D6
:1057C000D0E7A8300DF0BDFD60B90C25284602B029
:1057D00070BD28B9002EF8D0FF2385F8CC30E5E75E
:1057E000002EF9D120460DF0B2FD05460028EDD17E
:1057F0002046FDF76DFEE9E79812002070B583782A
:1058000005460A2B34D800880FF03AFD044688B3C9
:1058100012212888FBF794FC18B948F68B70FBF727
:1058200041F894F8633113B10C26304670BD837A89
:1058300003F0FF06002BF7D194F875301B0706D450
:10584000FF2384F86231FF2384F86331EDE794F895
:105850007930DB0907D0037BA978427B8B4228BFD4
:105860000B469A42EFD30449023010F0FDF8DCE712
:105870001226DAE70226D8E733850100F7B5067865
:1058800004460F46EF2E03D91226304603B0F0BD72
:1058900090F901204378002AF6DB82789207F3D151
:1058A00013F010001DD19D0603F0030216D5002A47
:1058B000EAD11907E8D42179E278E57942EA0122B0
:1058C000617942EA0142A17941EA0521257A41EA5A
:1058D00005418A42D8D81F2A12D8D5E7032AE8D131
:1058E000D2E713F0600FCFD103F00702052A05D0ED
:1058F00003F00F010D22CA40D207C5D51D07DAD526
:10590000627A013A062ABFD8A27A032ABCD813F0D9
:10591000040302D1023A012A03D8E27A012AB3D859
:1059200013B9A37C032BAFD8237DF8B1012BABD1E6
:10593000237E012BA8D818B36378D90702D500F0CD
:1059400029FA20B36378227D03F01803082B2ED1A7
:10595000022A1CD103213046FBF7F2FB054660B357
:1059600011F0ECFA002834D00C268EE7022B8BD0F5
:10597000A37D013B022B87D8E37D0F2BD8D983E78A
:1059800000F0CAFA820707D4237D022B01D1112629
:105990007BE7A37D022BFAD000F0BEFA4307CBD4FD
:1059A000237D032BF3D0A37D032BC5D1EFE7022A80
:1059B000D0D0237F002BCDD0E9E703213046FBF781
:1059C00083FB0546002843D0224B93F9741011F055
:1059D000FCFB0021304612F044FA28BB284611F0A7
:1059E0005DFD21463870E074284611F05CFCE37ED2
:1059F0000646002B3FF449AF00287FF446AF02462D
:105A0000E96C6846FBF714FD3246E86C01210CF0A6
:105A100041FFE96C68460422FBF70AFD3246314635
:105A2000E86C0CF037FF30E7403011F012F8002836
:105A3000D4D0637813F0330F7FF426AFA67D2846C9
:105A4000296A11F049FDFEF761FD8642C6D08BE759
:105A500007261AE79812002030B502798BB003466A
:105A6000042A4FD84088B0F5804F4BD826490024EF
:105A70001144ADF800408DF808400A7CCD7A42F020
:105A800010028DF8244042EA45024D7D897E42EAAB
:105A9000850242EAC102694602F01F028DF8002029
:105AA000BDF80020ADF809201A888DF80E00000A14
:105AB0008DF80B20120A8DF80D408DF80C208DF812
:105AC0000F008DF810405A7BD3F807008DF8112095
:105AD0005A79059002A88DF812209A798DF8132032
:105AE000B3F80B209B7BADF818208DF81A307F237C
:105AF0008DF81B304FF00113CDE90734FFF7BEFEE0
:105B00000BB030BD1220FBE78B79030008B540F2E3
:105B1000BE7000F0ABF940F2BD7000F0A7F940F2A2
:105B2000BC7000F0A3F940F2BB7000F09FF940F2A6
:105B3000BA7000F09BF901F06BFD074B074A40F289
:105B4000BF701A6000F092F901F098FD5321012016
:105B5000BDE8084001F078BBB87B0020A1460000FA
:105B60000278034672B1427862B142881A2A09D992
:105B700082881A2A06D90068034A106000209B8890
:105B8000938070471220704798120020026800200E
:105B9000014B9A61704700BF9812002002680020F4
:105BA000014BDA61704700BF981200200378A3F11F
:105BB0000A02112A9BBF024A0020122093737047E9
:105BC000981200200378FF2B15D14378FF2B12D1B8
:105BD0008378FF2B0FD1C378FF2B0CD1037923F0EF
:105BE000E0021F2A07D11F2B05D05B09034A0020C2
:105BF00082F8403070471220704700BF9812002092
:105C0000014B18740020704798120020014B587403
:105C10000020704798120020024B1B6803B1184700
:105C200011207047AC7B002008B5052000F01EF95C
:105C300012F0DAF8014B024A1A6708BD98120020E8
:105C40007D45000008B5052000F010F905F0E8FDDD
:105C5000014B024A1A6708BD981200207D450000DA
:105C600008B53F2000F002F901F0C2FC02F06EFA24
:105C700007F0B4F9014B024A1A6008BDB07B00205E
:105C800075D3000008B53F2000F0F0F801F0B8FC33
:105C900002F05CFA05F0D0FD014B024A1A6008BD23
:105CA000B07B002075D300000278531E012B16D85C
