:1000000000B200203D2E020001E60300292E02006E
:10001000292E0200292E0200292E020000000000D5
:10002000000000000000000000000000A52F0200FA
:10003000292E020000000000452F0200292E020098
:100040009D310200111D04009D3102009D3102000E
:100050009D3102009D3102009D3102009D31020060
:10006000271D04009D3102009D310200FB1C04008D
:100070009D3102009D3102009D3102009D31020040
:100080009D3102009D3102009D3102009D31020030
:100090009D3102009D3102009D3102009D31020020
:1000A0009D3102009D3102009D3102009D31020010
:1000B0009D3102009D3102009D3102009D31020000
:1000C0009D3102009D3102009D3102009D310200F0
:1000D0009D3102009D3102009D3102009D310200E0
:1000E0009D3102009D3102009D3102009D310200D0
:1000F0009D3102009D3102009D3102009D310200C0
:1001000080EA101404F0F01480EA0410604081EAE0
:10011000111404F0F01481EA0411614082EA12140F
:1001200004F0F01482EA0412624083EA131404F02B
:10013000F01483EA0413634080EA102404F47F443B
:1001400080EA0420604081EA112404F47F4481EABB
:100150000421614082EA122404F47F4482EA0422EA
:10016000624083EA132404F47F4483EA0423634057
:1001700081EA500404F0553480EA4400614083EA87
:10018000520404F0553482EA4402634082EA900447
:1001900004F0333480EA8400624083EA910404F07E
:1001A000333481EA84016340704700BF82EA9004DF
:1001B00004F0333480EA8400624083EA910404F05E
:1001C000333481EA8401634081EA500404F05534F9
:1001D00080EA4400614083EA520404F0553482EA24
:1001E0004402634080EA102404F47F4480EA04203F
:1001F000604081EA112404F47F4481EA04216140D3
:1002000082EA122404F47F4482EA0422624083EAF0
:10021000132404F47F4483EA0423634080EA101427
:1002200004F0F01480EA0410604081EA111404F034
:10023000F01481EA0411614082EA121404F0F0140F
:1002400082EA0412624083EA131404F0F01483EA91
:1002500004136340704700BF2DE9F14F94464FEA05
:10026000930B8A68CB6808684968FFF749FF0BF170
:10027000060E33E083EA134480EA134582EA13470B
:1002800046BA96EA3444604000F00F1684EA063419
:1002900020F00F1684EA161054BA94EA0106724050
:1002A00002F00F1486EA043622F00F1486EA1412C4
:1002B0004CBA6540694001F00F1485EA043521F01D
:1002C0000F1485EA14115CBA67407B4003F00F14E9
:1002D00087EA043723F00F1487EA1413BCE8F00010
:1002E0006040694072407B4000F0E03400F010351F
:1002F00000F00F3040EA540040EAC50080EA900464
:1003000004F0332480EA8400604001F0E03401F01E
:10031000103501F00F3141EA540141EAC50181EA8B
:10032000910404F0332481EA8401614002F0E03456
:1003300002F0103502F00F3242EA540242EAC502DE
:1003400082EA920404F0332482EA8402624003F0D9
:10035000E03403F0103503F00F3343EA540343EA6B
:10036000C50383EA930404F0332483EA84036340DF
:1003700081EA324787EA134581EA354690EA060466
:1003800084EA034B82EA1B4280EA044484EA05447F
:1003900083EA144A85EA14448BEA044B84EA37441E
:1003A00081EA0B4181EA164104EA0A00454082EAEB
:1003B00004082BEA080041408AEA0B0602EA06001C
:1003C00084EA34438AEA3A4603EA0607784045401D
:1003D000414088EA38478BEA3B4007EA000985EA52
:1003E000090583EA0709464006EA0906714085EADD
:1003F000010005EA3546464006EA314181EA3041CE
:1004000081EA364606EA304686EA3546344008EA4E
:10041000010886EA01052A4086EA364003405A4030
:1004200081EA31431F407C4080EA030709EA07095B
:1004300088EA0908544088EA020806EA0A0601EA3E
:100440000B018AEA0B0215408AEA3A421040454005
:100450008BEA3B4003405E404240174079404D40AC
:100460004E40E443F64386EA18435D4085EA054082
:1004700083EA134386EA034183EA384284EA11435C
:1004800083EA04435FEA3343BEF1010E3FF6F2AE66
:100490001ED4BCE8F0006040694072407B4020BC44
:1004A000FFF784FE28606960AA60EB60BDE8F08F0A
:1004B0002DE9E0414FF2F00280EA1031114080EA6C
:1004C0000130484041088208C3084FF0000E4FE752
:1004D00000F0113001F0113102F0113203F011334C
:1004E00040EA410040EA820040EAC3004FF2F002D5
:1004F00080EA1031114080EA01304840BDE8E081D7
:100500002DE9F04F02F11C050646074600EB850871
:1005100051F8040B043A46F8040BF9D14FF0010CE2
:10052000FFF7C6FF5FEA302080EA0C001ECF414093
:100530004A4053405C401EC62000464517D04FEA53
:100540004C0C1CF4807F18BFACF1E50C2C2DE7D0CF
:100550003C2D06D1FFF7ACFF06CF41404A4006C60E
:10056000100006CF41404A4006C61000D8E736E9E1
:100570000F00FFF7C5FD043D86E80F00F7D1BDE889
:10058000F08F00BF2DE9F14F03F11C0402EB840C46
:100590004FEA930B8A68CB6808684968FFF7B0FD9B
:1005A0003CE9F0006040694072407B400BF1060E70
:1005B0004EE083EA134480EA134582EA134746BAC1
:1005C00096EA3444604000F00F1684EA063420F0C6
:1005D0000F1684EA161054BA94EA0106724002F02B
:1005E0000F1486EA043622F00F1486EA14124CBA6D
:1005F0006540694001F00F1485EA043521F00F14BD
:1006000085EA14115CBA67407B4003F00F1487EA57
:10061000043723F00F1487EA141344BA44404DBA48
:100620004D4056BA56405FBA5F4087EA174886EA9F
:10063000174B84EA17464FEA38488BEA1B4485EA91
:100640001B4788EA1B4580EA3440694072407B4082
:1006500000F0703400F0803500F00F3040EA4400C4
:1006600040EAD50080EA900404F0332480EA840054
:10067000604001F0703401F0803501F00F3141EA43
:10068000440141EAD50181EA910404F0332481EA6E
:100690008401614002F0703402F0803502F00F32C4
:1006A00042EA440242EAD50282EA920404F0332488
:1006B00082EA8402624003F0703403F0803503F074
:1006C0000F3343EA440343EAD50383EA930404F077
:1006D000332483EA84036340C943DB4381EA000493
:1006E00083EA044686EA020183EA014382EA33454B
:1006F00083EA14435C4084EA00077FEA040A8AEA3A
:10070000024A8AEA010B87EA11488AEA374A80EAF4
:10071000060181EA1A418AEA030A04EA0A0045400E
:1007200088EA040707EA0B0041408AEA0B0608EA58
:10073000060084EA34428AEA3A4602EA060358404E
:100740004540414087EA37438BEA3B4003EA0009D2
:1007500085EA090582EA0309464006EA090671406E
:1007600085EA010005EA3546464006EA314181EA5C
:10077000304181EA364606EA304686EA354634405C
:100780000F4086EA010508EA050886EA364002407D
:1007900088EA020881EA314213405C4080EA0203A1
:1007A00009EA030987EA0907674088EA040806EAB4
:1007B0000A0601EA0B018AEA0B0425408AEA3A4458
:1007C000204045408BEA3B4B02EA0B02564084EA4C
:1007D0000B04234059406E40694087EA364080EA66
:1007E000384080EA060380EA104481EA134585EA2E
:1007F000344585EA17427D4082EA354180EA05406A
:100800003CE9F0006040694072407B40BEF1010E5F
:100810003FF6CFAE20BCFFF7C9FC28606960AA6034
:10082000EB60BDE8F08F00BFFFF76ABE2DE9F0076F
:1008300091E8F807B2E802105B1854EB0C04B2E838
:1008400002104D4156EB0C06B2E802104F4158EB36
:100850000C08B2E8021059EB01095AEB0C0A80E8C7
:10086000F80780410130BDE8F00770472DE9F00737
:1008700091E8F807B2E802105B1A74EB0C04B2E8D6
:1008800002108D4176EB0C06B2E802108F4178EB36
:100890000C08B2E8021079EB01097AEB0C0A80E847
:1008A000F80780414042BDE8F00770472DE9F007A6
:1008B000524290E87800B1E880071740DB1918EA47
:1008C000020854EB080419EA020955EB09051AEA73
:1008D000020A56EB0A0678C090E87800B1E8800773
:1008E00017407B4118EA020854EB080419EA020990
:1008F00055EB09051AEA020A56EB0A0678C0804150
:100900000130BDE8F00770472DE9F007524290E84A
:100910007800B1E880071740DB1B18EA020874EB87
:10092000080419EA020975EB09051AEA020A76EBCE
:100930000A0678C090E87800B1E880071740BB410C
:1009400018EA020874EB080419EA020975EB0905B4
:100950001AEA020A76EB0A0678C080414042BDE8F6
:10096000F00770472DE9F00152424FF0040890E87B
:10097000300091E8C000A31B1340E41AF618EB1BEB
:100980001340ED1AFF1830C0C0C1B8F10108EED114
:10099000BDE8F001704700BF00B592E8DC072DE923
:1009A000DC07B1E8805702B4A7FB02510A95A8FB07
:1009B000020BE7FB6310E9FB62B00B91A8FB03514C
:1009C000EAFB6201E7FB64B5E7FB6605E8FB661539
:1009D000CDF830B0A9FB03B6EAFB6316ECFB635617
:1009E000E8FB640BE9FB641BEAFB645BECFB646BF8
:1009F0000D90ACFB0230059CEEFB6250E9FB64609D
:100A0000EAFB64B0E7FB6431E8FB6451069CE8FB59
:100A10006461E9FB64B1EAFB64010E93A7FB043255
:100A2000079CE7FB6462E8FB64B2E9FB6402EAFB53
:100A30006412049CE9FB6453EAFB6463089CE7FBD3
:100A400064B3E8FB6403E9FB6413EAFB64230F95DA
:100A50005DF8049B99E80006DDF80080A9FB0854C6
:100A6000EAFB68B4DDF81080ECFB6804EEFB681468
:100A7000E9FB6824EAFB6834DDF80480EEFB686576
:100A8000E9FB68B5EAFB6805DDF81480ECFB681546
:100A9000EEFB6825E9FB6835EAFB68450F96DDF853
:100AA0000880AEFB0876E9FB6806EAFB6816DDF80D
:100AB0001880ECFB6826EEFB6836E9FB6846EAFB2B
:100AC0006856DDF80C80ECFB68B7EEFB6807E9FBC5
:100AD0006817EAFB6827DDF81C80ECFB6837EEFB43
:100AE0006847E9FB6857EAFB686708B000BD00BFCC
:100AF0002DE9F14F87B0FFF74FFFDDF81C8008F1BB
:100B0000200888E8FF00FFBC87E87F08BDE8F08F79
:100B100000B591E89857A3FB03520195A3FB04018C
:100B2000E3FB6420E3FB67100292A3FB0752E3FBA5
:100B30006802E4FB6415E3FB6805E3FB69250391A8
:100B4000A4FB07B6E3FB6926E3FB6A56E4FB670BED
:100B5000E4FB682BE3FB6A5BE3FB6C6B0490A4FB98
:100B60000810E4FB6950E3FB6C60E3FB6EB0E7FB4D
:100B70006721E4FB6951E4FB6A61E3FB6EB1E4FBCE
:100B80006E010592A7FB0832E4FB6A62E4FB6CB2DB
:100B9000E4FB6E02E7FB6E12E7FB6853E7FB696359
:100BA000E4FB6CB3E7FB6C03E7FB6E13E8FB6E231F
:100BB0000695A7FB0954E7FB6AB4E7FB6C04E8FB66
:100BC0006C14E8FB6E24E9FB6E34E8FB6865E7FB18
:100BD0006AB5E8FB6A05E8FB6C15E9FB6C25E9FBE7
:100BE0006E35EAFB6E450796A8FB0976E8FB6A06B8
:100BF000E9FB6A16E9FB6C26EAFB6C36EAFB6E46FB
:100C0000ECFB6E56E8FB69B7E9FB6907E9FB6A177D
:100C1000EAFB6A27EAFB6C37ECFB6C47ECFB6E5790
:100C2000EEFB6E6700BD00BF2DE9F14F87B0FFF707
:100C30006FFFDDF81C8008F1200888E8FF00FFBC8A
:100C400087E87F08BDE8F08F30B44FF0000310F85C
:100C5000014B11F8015B013A84EA050443EA0403FD
:100C6000F5D1A3F101034FEAD37030BC704700BF48
:100C70004FF0000310F8012B013943EA0203F9D1C8
:100C8000A3F101034FEAD370704700BF30B411F8ED
:100C9000014B12F8015B6C4000F8014B013BF6D1AF
:100CA00030BC70472DE9F00791E8F807B2E8021070
:100CB0005B1854EB0C04B2E802104D4156EB0C06E5
:100CC000B2E802104F4158EB0C08B2E8021059EBA1
:100CD00001095AEB0C0A8941B3F1FF3374F1FF3477
:100CE00075F1FF3576F1000677F1000778F100081D
:100CF00079F101097AF1FF3A51F100015B184C4199
:100D00004D4156F1000657F1000758F1000859EB24
:100D1000D1795AEB010A80E8F807BDE8F00770477F
:100D20002DE9F00791E8F807B2E802105B1A74EBBE
:100D30000C04B2E802108D4176EB0C06B2E802100A
:100D40008F4178EB0C08B2E8021079EB01097AEBDD
:100D50000C0A89415B184C414D4156F1000657F190
:100D6000000758F1000859EBD1795AEB010A80E8E5
:100D7000F807BDE8F007704718EB040859EB0509C0
:100D80005AEB060A5BEB070B5FF0000C4CF1000C12
:100D900018EB050859EB06095AEB070A5BEB070B42
:100DA00050EB0C005FF0000C51EB0C0152EB0C020D
:100DB00063414CF1000CB8EB070879F100097AF1B6
:100DC000000A7BEB040BA841B141A241B3416CF195
:100DD000000CBBEB050BB041B941AA41BB416CF122
:100DE000000C4CF001068CF0020718EB060859EBDA
:100DF0006C095AEB6C0A7BEB6C0B70EB6C0471EBBF
:100E00006C0572EB670653EB6C076CEB6C0C18EB24
:100E10000C0059EB0C015AEB0C025BF1000354F18E
:100E2000000455F1000556EBDC7657EB0C077047D4
:100E30002DE9F14F87B0FFF7AFFDDDF81080DDF849
:100E40001490DDF818A0FFF797FFBDE8000FFFF73B
:100E500093FF03B05DF8048B88E8FF00BDE8F08FD6
:100E60002DE9F14F87B0FFF753FEDDF81080DDF874
:100E70001490DDF818A0FFF77FFFBDE8000FFFF723
:100E80007BFF03B05DF8048B88E8FF00BDE8F08FBE
:100E9000054B1B780022013382600260034A4260E6
:100EA000C371FF23037270476016002028010800F9
:100EB000064B074A9B7802604FF418728280C37118
:100EC0000822002382710372704700BF6016002061
:100ED00061C40100064B074ADB7802604FF43672AA
:100EE0008280C3710822002382710372704700BFA1
:100EF000601600202BC10100064B074ADB7A026016
:100F00004FF4B4728280C3710822FF23827103728E
:100F1000704700BF601600206BBC01002DE9F34153
:100F2000C41D002824F00704064614BF20460020F4
:100F300000F0E2FC071E04DA6FF00B0002B0BDE81F
:100F4000F081364DE988A8886B7A2A7A033103301C
:100F500089B280B217F0DFFA0028EDDBA978EB78D0
:100F60003C440334002E194424F0030400FB01F137
:100F700014BF2046002000F045FE20440EB9002892
:100F8000DADBEA7A0446B2B1EB7B697C134419449C
:100F9000FF29D1D80330002E20F0030414BF2046CF
:100FA0000020AA89C9B200F09FFE0028C4DB0444D7
:100FB0000EB9002CC0DB012000F094FCB0B1A97B7D
:100FC000A1B195F82A3033B340234FF4817207342E
:100FD000002E24F0070414BF2046002005F05AFA22
:100FE0000028A9DB04440EB9002CA5DBAB7AF3B1D1
:100FF000EB7AABB10734002E24F0070414BF20466F
:101000000020A97A0BF0FAF8002895DB044476B9A1
:10101000002C0CDA90E725232822D8E76016002060
:10102000012000F05FFC10B1AB7B002BE2D1734BD1
:101030001B6893B1A97D81B10334002E24F0030411
:1010400014BF20460020EA7D98470028FFF674AFC1
:10105000044416B9002CFFF66FAF694B1B688BB1C7
:10106000297C79B10334002E24F0030414BF2046F8
:10107000002098470028FFF65FAF044416B9002C03
:10108000FFF65AAF5F4B1F68AFB1697C99B12B7DFA
:1010900000930334002E24F0030414BF20460020E4
:1010A000EB7CAA7CB8470028FFF646AF044416B98B
:1010B000002CFFF641AF072000F014FC98B1A97D89
:1010C00089B10334002E24F0030414BF204600200D
:1010D0002A7E00F0F7FE0028FFF62EAF044416B972
:1010E000002CFFF629AF95F82300B6FA86F77F09A2
:1010F000A0B16B7FA97E033424F00704194444F0A7
:1011000004043B462246C9B200F01CFF0028FFF64B
:1011100013AF044416B9002CFFF60EAF95F8241057
:1011200000294CD004F10708002E28F0070814BF4E
:1011300040460020EA8C17F002FA041EFFF6FCAECF
:101140004444002E3ED1002CFFF6F6AEA97F0029C4
:1011500045D095F82230002B41D02A8C0734002E40
:1011600002F1240224F0070814BF4046002092B286
:1011700017F0E5F90028FFF6DFAE404416B9002865
:10118000FFF6DAAE2B7FA97E033020F0070040F097
:101190000404194495F822003B462246C9B200F0E7
:1011A000C3FE0028FFF6C8AE044486B9002CFFF643
:1011B000C3AEEB6AF3B1C6B1EC620020BEE6002E0E
:1011C000C4D08846E98C404612F0F6FABEE72A8C75
:1011D000A97F083292B2404612F0F4FAE9E7002EF5
:1011E000E7D0002211461046F6E728343FF5A4AEBA
:1011F0002046A3E6002EE0D1FAE700BF2405002038
:10120000280500202C0500201FB572B6194B1D6B58
:10121000EDB9BFF34F8F1849184BCA6802F4E0626A
:101220001343CB60BFF34F8F00BFFDE72346B2FBF4
:10123000F6F25C1C002AF9D104AEDCB256FA83F354
:1012400003F80C2C0A2234B901A8A847E1E70246AA
:1012500000230A26EDE7631E04AEDCB256FA83F3E0
:10126000B0FBF2F602FB1600303003F80C0C3046EF
:10127000E9E700BF6016002000ED00E00400FA0579
:1012800013B5124C2389ADF80030E388ADF8043073
:101290006846A388ADF8023008F0DAFC18B1FC21EA
:1012A0009C20FFF7B1FF207D08F036FD08B1FF213B
:1012B000F6E7E07C08F02AFD10B14FF48071EFE70B
:1012C00094F8280010F000F802B010BD601600205D
:1012D00038B50546002840D015F0D8FE10B94FF0BB
:1012E000FF3038BD15F03AFAB0F5FA7FF7D81C4C4C
:1012F0001C4825631B2500F06FFA00212A4604F1E3
:101300000F0084F83410217084F82A10E16216F07E
:1013100053F90123A370E370E372A3742376F723D8
:10132000032108202384FB2302222172A072A173CF
:101330001F204921E3840A23A580E5806272A081F1
:10134000E174E27584F82830EFF3108472B600F08F
:1013500009FE04B962B60020C3E76FF01500C0E7CC
:10136000601600208112000038B51446002840F0B5
:10137000C480634D95F83430032B00F0BB80B9B1C5
:1013800012B96FF0150038BD0139172900F2B58088
:10139000DFE801F00C1D20366069873C6C6F8142EC
:1013A00048565B8D909FA2A596B3B3A81378AB70F7
:1013B0000020FFF7B3FD0028B7BF0123022385F803
:1013C00034306FF00B00A8BF85F83430DBE71378BA
:1013D000EB70EDE71379002BD3D05379002BD0D0ED
:1013E0001288FB2ACDD863881B3B9BB2E02BC8D860
:1013F0001A2AC6D923686B60424BA2889A80D7E725
:101400001378EA7B9342BCD3EB72D1E71378EA7A84
:101410009342B6D8EB73CBE71378EA7A9342B0D80D
:101420006B74C5E71378002BABD05378013BDBB26C
:10143000F82BA6D813886B82334B92789A70B7E753
:10144000107868750FF03AFFB2E71378002B98D048
:101450002B76ADE7012000F045FA237808B1012B87
:101460008FD9AB73A4E71388AB81A1E71378AB7571
:101470009EE7072000F036FA10B92378012B80D9B7
:10148000072000F02FFA18B12378002B3FF479AF32
:101490002378EB758CE71378082B3FF672AF2B742B
:1014A00086E71388FF2B3FF66CAFAB7280E71378AB
:1014B0006B767DE713780E2B3FF663AFAB7677E75D
:1014C0002368124AC5F81E3063685360238913816C
:1014D0006EE71378EB766BE713786B7768E7137832
:1014E0002B7765E713785A1E092A3FF64AAF85F82D
:1014F00028305DE74FF0FF3045E76FF02C0042E702
:101500006016002064160020721600207E1600204F
:10151000F8B50D46064630B329B311F0070422D1C1
:10152000124F97F83430012B02D16FF00B00F8BD49
:10153000032B02D14FF0FF30F9E700F07DF80028CF
:10154000F8D02846FFF7EAFC0028EEDB1BF05BF83A
:101550003046F96A08F0C2FCFFF792FE032387F8D1
:1015600034302046E3E76FF01500E0E76016002016
:1015700010B5074C94F83430032B03D108F0CAFCA3
:1015800009F036FE17F02FF9002084F8340010BD62
:101590006016002050B1074B03F1140253F8041BEE
:1015A00040F8041B9342F9D1002070476FF01500FA
:1015B000704700BF53BC040008B508F019FCBDE833
:1015C00008400249032000F085B900BFF90E000071
:1015D00008B508F021FCBDE808400249022000F0EF
:1015E00079B900BFD50E000008B5094B93F82A3031
:1015F0005BB108F051FC0749012000F06BF9BDE830
:1016000008400549002000F065B908F027FCF2E722
:1016100060160020910E0000B10E0000024B02681F
:101620001A600020704700BF98160020014B1B680D
:10163000184700BF98160020024B1868003818BFE2
:101640000120704798160020F7B52E4E0446071D5E
:101650002C48376009F0ECFD0228054606D12949DF
:10166000204616F00DF9284603B0F0BD042842D1FB
:101670003378092B0AD0262B1ED03146204616F08F
:1016800064F9B0F5817F2DD3722112E005213E204F
:1016900016F0C8F80028F0D1F378327901A943EAAE
:1016A00002236846ADF8003016F009FD0028CFD0BF
:1016B00053210820FFF7A8FD1A213E2016F0B2F8AA
:1016C0000028DAD17368C3F30F23ADF804306946FC
:1016D000112301A88DF8063016F013FD0028B7D0AD
:1016E0006521E6E70028B3D0A178207816F09AF8B3
:1016F0000028B8D1ACE70828B5D10249204616F039
:10170000EEF8B0E79C160020074B4FF0FF3141F692
:10171000FF72C3E9001205490022C1E900221F211E
:10172000C3E90212704700BFC0040020A0170020C8
:101730003F280CD801380B4BC0F3421200F01F00B9
:1017400053F8223023FA00F000F001007047FF2820
:1017500006D04038C0F34212034B00F01F00EFE701
:1017600001207047C0040020A01700200146074B4D
:10177000006849681A4603C240F48C221A6041F09E
:10178000107242F4FF625A60704700BFC00400202C
:101790000246024B0068516803C37047A01700203F
:1017A0000246024B0068516803C37047C80400201A
:1017B000382800F1FF33DBB21FBF064A590902EB9C
:1017C000810203F01F031DBF9068D84000F00100A4
:1017D00000207047C0040020014B1860704700BF14
:1017E000A817002010B5FFF78FFF17F0D6FA034BAC
:1017F0001B68044603B19847204610BDA817002077
:10180000F0B50C88C37C0288A5B2C4F30E0404F1C1
:1018100018060233865B1A44334497B213FA82F3F4
:10182000013B4288B3FBF7F313FB07439BB29A4299
:10183000044A93BF22EA05032A4013439BB20B805C
:10184000F0BD00BF0080FFFF4A1E062A08B5034610
:10185000084604D84FF4D1711520FFF7D5FC094A8A
:10186000914202D940F2A311F6E711B903B1196010
:1018700008BD2BB11B680022C3E901211A1D1A60A3
:101880000430F5E7FAFFFF7F10B5114B00EB410480
:101890001A786389B3FBF2F303FB0223013A1A447B
:1018A000B2F5706F0279807828BF00231A440B18B4
:1018B000B2FBF0F100FB11215B1AB3FBF0F100FB6E
:1018C000113313446FEA43436FEA5343638110BDFE
:1018D000AC170020024B03EB80035960704700BF38
:1018E000AC170020034B03EB80035868003818BF87
:1018F00001207047AC1700202DE9F04F10F0070AC7
:1019000085B0054604D040F261111720FFF77CFC3A
:10191000534F07F14C06B1460446B0464FF0010B59
:1019200057F8043B8DF80BA03BB101A898479DF8F0
:101930000A30082B01D9E821E7E79DF80B1041BBDD
:1019400005B131604F4506F10406E9D1002D6FD095
:10195000DFF81091002289F800209646122758F8E7
:1019600027A0013FBAF1000F55D09AF804609AF809
:1019700002C0FF2E60D039460023481C38D19C4459
:10198000BCF1FF0F3FD90AB189F800E040F22711FE
:10199000BBE79DF80AC06046022838BF02204B1DF5
:1019A0005A0004EB4303441E2344BDF8084064443A
:1019B000013CCCF1000C04EA0C044042B4F5803F39
:1019C00003EA000301D3F8219FE775B19A1A326048
:1019D0009170148082F803B09DF80C00107101988A
:1019E00010814FEA104CA2F806C004FB0134A9E7AD
:1019F00058F8210028B190F804B0B34504BF8078AE
:101A00001B180139B9E7DBB2E6458AF804303CBF60
:101A10005FFA8CFE01227B1CA1D10AB189F800E09B
:101A2000122640F6FF6A58F82670B7B9013EFAD27E
:101A3000601B05B0BDE8F08F0023E5E707EB41032D
:101A40003846A3F80AA0FFF71FFF09F10109BB7888
:101A50005FFA89F18B42F1D8E8E74FF00009F6E729
:101A6000B0170020AC17002038B54FF6FF73038085
:101A7000184B03EB81030246186DA8B184780379F3
:101A8000B3FBF4F104FB1133DBB2194600EB410563
:101A9000B5F90A50002D0EDB0131B1FBF4F504FB62
:101AA0001511C9B28B42F1D1002038BD6381BDE868
:101AB000384016F00CBD00EB41046389C3F30E03FC
:101AC0001380C278002AF1D14FF4D5711720FFF7A7
:101AD0009BFB00BFAC1700201C4B03EB810370B5D0
:101AE0001C6D054644B3030404D54FF4DC71172084
:101AF000FFF78AFB0146204616F0CBFCFF28014683
:101B000004D02046BDE8704016F0E1BCA078B5FBDB
:101B1000F0F300FB1353DBB219460A1D04EB420637
:101B2000B6F90260002E09DB0131B1FBF0F200FBD7
:101B30001211C9B28B42F0D1002070BD8B4201D08E
:101B40000023E37004EB42025580DAE7AC17002073
:101B5000094B03EB810310B51C6D0146204616F0BE
:101B600098FCFF28014604D02046BDE8104016F03E
:101B7000AEBC002010BD00BFAC170020F8B5104B64
:101B800003EB810307461C6D0146204616F081FCDD
:101B9000FF28054611D0E288238953EA024606D081
:101BA0000146204616F093FC01463846B0472046D1
:101BB0002946FFF769FE0020F8BD0520FCE700BFBD
:101BC000AC17002038B50E4B827903EB8203044634
:101BD000186D08B9052038BD8278E1799142F9D2B3
:101BE0004B1CE37100EB41035D89B3F90A30002B14
:101BF000F3DBA58016F06BFC20600020EBE700BF54
:101C0000AC17002070B5044610F003000E4603D058
:101C10004E211820FFF7F8FAFFF716FE054624B10B
:101C2000034831460460FFF70FFE284670BD00BF31
:101C3000481800202DE9F14FDFF870B09DF828A07A
:101C40009DF82C901E46DBF8003007460D46904666
:101C50001BB960211820FFF7D7FA524609214046E8
:101C600016F094FA4A4684B20921304616F08EFAEC
:101C700014FA80F1DBF8000016F0DFFB386018B9C9
:101C8000286001B0BDE8F08F04442C6038685346EA
:101C90004146092216F03DFA28684B460922314692
:101CA00001B0BDE8F04F16F034BA00BF481800206C
:101CB00070B50E46044616F07CFA0546304616F01E
:101CC00078FA044B2A1821461868BDE8704016F0CF
:101CD000D9BB00BF48180020024B186808B116F0A5
:101CE000A0BB7047481800201F2AF8B504461346C9
:101CF0000ED89200033222F00303B3F5803F2DD2B9
:101D0000184DACB1A00710D05F210920FFF77CFA75
:101D1000FF2B4FEA420204D9FF339A42A8BF1A466A
:101D2000E8E77C2AB8BF7C22E4E729706C602B814D
:101D300022F003022823120403FB01F001276B6841
:101D4000120C0025EEB2B14200D8F8BD14B126182D
:101D50001F705E60104401352833F3E74FF0FF3009
:101D6000F3E700BF4C18002070B5154A157853688A
:101D70000021C8B2854203D8AB210920FFF744FAFD
:101D80001C46184614F8286B01310EB92346F0E7BB
:101D900000219970128999610124D96159685C7098
:101DA000920803F11E0403F1260524F8022FA54230
:101DB00043F8041F1144F8D100234361037070BD40
:101DC0004C1800200A4B1B89B3F5FF7F4FEA9300A4
:101DD00006D25A089B1A9BB2984238BF18467047E1
:101DE000B3F5EE6F01D8FF22F4E740F27263F3E738
:101DF0004C1800204B782DE9F04106460C4602F0C5
:101E0000040702F0FB05E3B1A5BBFF23A3707B0829
:101E100004EB57073A7D032A02D1022D18BF013384
:101E2000E2180121117503F10C0104EB8303002278
:101E300024F811205B68A2703360B2803046BDE8A0
:101E4000F081002DE1D101234B701D4B8D611B8969
:101E5000CD6101F11E0249689B08204604F1260C61
:101E600022F8023F944540F8041F1944F8D100239A
:101E70006361CAE7D1F80480142200216170A018C0
:101E800015F09AFB0E4B1B89B3F5FF7F0FD25A0852
:101E90009B1A9BB208EB0301C4F804802384A16061
:101EA0006284C4F80C80A3842161E284ADE7B3F5B9
:101EB000EE6F4FF0FF02EBD940F27263EAE700BF2A
:101EC0004C1800202DE9F84305460C46F720052163
:101ED000914616F05BF9061E21DB1DB914FB06F0D6
:101EE000BDE8F88315F0030703D098211920FFF708
:101EF0008BF9DFF83080C8F81050A8F81460BBB236
:101F00009C42EBD9B8F81450D8F810004B4607FBA8
:101F100005000522F72116F0FCF80137EFE74FF036
:101F2000FF30DDE76018002007B5CDE900230B4640
:101F300003490246081D16F030FC03B05DF804FBAF
:101F40007818002013B5064CCDE900230B46024655
:101F500004F1080104F10C0016F01FFC02B010BDE2
:101F600078180020134B012200214FF0FF309A60B7
:101F7000C3F80012C3F80803C3F80015C3F804251A
:101F80009A60C3F80803C3F80015C3F804250A498A
:101F90000A4A03F580334FF40040C3F80825C1F81E
:101FA0008000BFF34F8FBFF36F8FC1F88001C3F87C
:101FB0000825704700F0004000E100E00000F63F17
:101FC0008C46342300B50CF8033B054B8E4607CBFB
:101FD000CEF80300CCF80410CCF808205DF804FB20
:101FE0009418002010B5154C10F002FB0FF036FBD2
:101FF000636A608C00219847237E9BB9104B628CEA
:1020000093E803000AF02AF9E36A18880AF0ACF8AA
:10201000636B94F8301094F831009847002384F8EB
:10202000383010BD94E8070004F10C0383E8070082
:10203000044904F1190018F0A4FCDFE78818002017
:10204000B0180020C11F0000034B93F8383003B9CB
:102050007047FFF7C7BF00BF8818002008B540F2DF
:102060009D410620FFF7D0F808B5094B93F83820BA
:10207000022A07D1DA7A42F00102DA72BDE808409A
:10208000FFF7B0BF40F24F212720FFF7BDF800BF98
:102090008818002038B5364D95F8283004460BB125
:1020A00001280ED0012918D82B6C20469847A0B1E2
:1020B00095F830308BB995F8280080B18CB118466E
:1020C00038BD6B8F1807EDD5EA6B137803F0030367
:1020D000032BE7D1D378022BE4D1012038BD012CAA
:1020E000EED195F844401CBBE86C18F0A2FB2B6DB8
:1020F0005BB3A0F10103B3FA83F35B0995F82810F1
:102100006A8F61B191070AD5EA6B137803F0030374
:10211000032BE2D1D078023818BF012038BD002A45
:10212000DBD144EA030080F0010000F0010038BD7B
:1021300095F84530032B0DD1EB6BDB78022B15D0D6
:10214000A86C16F0B8F80446CEE7B5F85420002A7B
:10215000D4D1CEE7A86C16F0AEF828B908F03AF959
:1021600080F00100C4B2BFE70124BDE70024BBE753
:1021700088180020F8B52B4CE56A94F85C3095F887
:102180009420E76C95F87510A76503EB820306466B
:1021900008B9FF2B27D018460FF0D2FE95F89430DF
:1021A000002B38D0206E10F035FB94F82830D5F88D
:1021B000F020216EA06D6267003B18BF012384F8F8
:1021C0007C30D5F8F430A3670FF012FAB6B1A88EC0
:1021D0000FF02AFE95F87410002010F043FC022343
:1021E00084F83830F8BD95F874008842D3D1002ABD
:1021F000D8D1384610F00EFB0FF030FA95F8753054
:102200002A8F033B012B8CBF00202820104480B272
:1022100010F0AAFBDBE7A06D10F0FCFA0FF01EFA3D
:10222000D4E700BF88180020F0B5834C83B0E56A7E
:10223000002395F874108DF8053040B995F8942076
:1022400094F85C3003EB8203FF2B00F0BB80FF208F
:102250000FF076FE95F88A30032B00F2E880DFE875
:1022600003F0021D7E6E94F88B30ADF80630734893
:10227000A5F8643008F088F8002840F0A980A06C28
:102280000DF105020DF1060115F0BAFF0746E063F6
:1022900020B195F8CF30002B00F0AD80684FE76398
:1022A00095F88B203B78D20003F0030602F0080279
:1022B00003F0F303134395F88C20920002F004021C
:1022C0001343032E3B705DD0A06C15F0F4FF002883
:1022D00040F0868008F07EF880F001031B01DAB23E
:1022E000E06B3B7823F0100313433B7095F8933079
:1022F00013B14378002B50D110F08CFA0FF0AEF9E7
:1023000009F070F808B1032E6ED0E88E0FF08CFD46
:1023100095F87510012010F0A5FB0125E06B84F8FD
:102320008D5018F086FAE36B84F844001B7884F82B
:10233000385003F0030384F8453003B0F0BD3F4844
:1023400008F022F800286DD0E76BFB781B2B15D125
:10235000012105F110000FF03BFEE76B0EE0B5F830
:102360006430A06CADF806300DF105020DF10601E8
:1023700015F046FF0746E06300284ED0012384F89D
:102380008C308DE7FA78022A32D0A06C15F093FFDA
:102390000301DAB2E06B3B78A4E7206E10F03AFA62
:1023A00094F82830D5F8E820E16B206E6267B3FA24
:1023B00083F35B0984F87C30D5F8EC30A3670FF029
:1023C000DBF89DE795F875308B427FF440AF41E72D
:1023D000E76B012185F88510FB781B2BCED1B8E780
:1023E000E06B3B7810227DE7012013F057F88CE773
:1023F0003846002276E79DF8053033B1BDF8062057
:102400007A70012384F88C304AE703808370E06B94
:10241000012118F0FEF9E76BF0E740F2F1212720E7
:10242000FEF7F2FE40F2FB212720FEF7EDFE40F220
:1024300009312720FEF7E8FE88180020C418002084
:10244000101900202DE9F047414C94F83830012B49
:1024500082B075D1E66BE56A96F800800746304693
:102460005FFA83F98A4618F0E0F9304618F0D9F996
:10247000304618F0DEF995F88430767808F00308D5
:1024800093BBB8F1030F42D0002E18BF4FF00209E2
:1024900095F8943085F88A90EBB1E36A94F8282097
:1024A00093F87530003A18BF0122013BDBB284F883
:1024B0007C20D5F8F0206267032BD5F8F420A267C2
:1024C00094F85C2041D823490020CB5C009022493D
:1024D00001200EF0C7FF17B9BAF1000F25D102B0E5
:1024E000BDE8F047FFF77EBD638F002143F0040392
:1024F000638785F88410636A0420984794F828302D
:10250000002BBED0B8F1030F85F88690BCD195F8AA
:102510008A303BB9638FE16B43F00203638702208B
:10252000636A98474FF00309B2E739463846FFF728
:10253000B1FD0028D3D102B0BDE8F047FFF71ABEC5
:1025400040F204512720FEF75FFEFFF787FD00BF32
:1025500088180020383C0400EC18002070B50D4BA2
:102560000D4C0E4A1A6094F838301BB1F421272024
:10257000FEF74AFE03F0FF0206460D46227609F0FA
:1025800065FE012104F1880018F043F9E664256630
:1025900070BD00BF30050020881800208C2F00007F
:1025A00010B5074A92F8383013B10C24204610BDFC
:1025B00003F0FF04147609F049FE204610BD00BF69
:1025C00088180020024B012283F88E20704700BF3C
:1025D00088180020F0B5BD4C85B002AD85E8030039
:1025E00094F838000A9E002840F06881002A00F024
:1025F0006581002B00F06281002E00F05F8100F009
:10260000FF0184F88E1084F8301084F88F1084F85D
:10261000311084F88D1084F88C106187618495E8FE
:102620000300236404F1280383E80300E56A62627F
:1026300066630FF031FD0FF011F895F97C000FF093
:1026400087FEAE6A286A0FF089FE304610F0C6F8A1
:1026500095F8A4000FF08CFE94F82860002E00F08E
:10266000EC80E36A93F8C231002B40F0BE8019F091
:102670000CF895F8752000F1790101200FF060FF4A
:10268000934B944E186810F0AFF86B69D5F8FC10B6
:10269000D5F80021D5F8F800A364D5F80431AF6966
:1026A000C4F890700FC6E36AD5F8081193F88E202D
:1026B000C4F87D10D5F80C11C6F80D10A2F1260152
:1026C000012993F874700ED993F88F1026290AD037
:1026D000213A012A40F2E080242900F0C280032F31
:1026E00008BF042715E094F82820002A78D093F832
:1026F000A23273B1FA1ED2B2012A40F2D880DA1E99
:10270000012A40F2D480012F03D0012B0CBF0127F6
:10271000022705F13C063946304618F009FA3946D9
:1027200017F0EEFCB5F8483095F875100246934264
:1027300028BF1346304684F88B3018F0A7F995F877
:10274000751095F89470B5F85060042908BF0321FE
:1027500017F0D6FC0FB9043080B2864228BF064677
:10276000F6B284F8946008F03DFE00285ED194F83B
:10277000282084F85C60002A3AD195F89330D3B1D0
:1027800095F87430D5F8E81095F87E006167013B44
:102790000121DBB284F87C108000D5F8EC10A16731
:1027A000032BC0B200F28F804B490092CB5C4949A9
:1027B000FB220EF057FE0120FFF736FD0023C4E98F
:1027C0000033A360AB6F2988B5F8880095F8A42082
:1027D0006080218022710BB101221A6005B0F0BD2A
:1027E00093F80A32002B85D193E70FF037FC3EE7D0
:1027F00095F89430B3B195F87530D5F8F020D5F848
:10280000F410A167013BDBB20120032B626784F85F
:102810007C0058D83049CB5C0021009132462D49CC
:102820000EF020FE0120FFF7A5FCC7E708F0E0FD51
:10283000B04238BF3046C6B299E718F026FF95F887
:102840007420264B33F8123001463046244E03F5EF
:10285000FA73A6FB036301EB931157310FF070FE7F
:102860000EE794F82820002A3FF439AF93F82E2180
:1028700093F86D3013405A0719D413F0010218D1A0
:102880009B077FF546AFFB1EDBB2012B0FD902225F
:10289000012F18BF17463CE72429E2D094F82820DE
:1028A000002A3FF41CAF93F82E315907E5D50427D1
:1028B0002FE7FB1EDBB2012BEAD8F8E740F28311C9
:1028C0002720FEF7A1FCFFF7C9FB00BF88180020F6
:1028D00030050020EC180020383C0400C83E0400FD
:1028E000D34D621008B5124B93F8382092B193F88B
:1028F000282022B993F83830012B14D108BD93F861
:102900003820022A0AD1DB6AD3F8D801BDE8084092
:102910000FF0F6BFBDE80840FFF764BB40F231217D
:102920002720FEF771FC40F22D212720FEF76CFCDA
:1029300088180020FFF756BB014B1876704700BF80
:1029400088180020014B93F88D00704788180020EC
:10295000044B93F88C0018B993F82300C0F30010CF
:10296000704700BF88180020024B93F82300C0F383
:10297000C000704788180020014B93F88F00704703
:10298000881800202DE9F0433E4DAE6DD5F82C801F
:1029900083B0044630460F4617F047FF304617F025
:1029A00040FF304617F045FF14F00109767813D048
:1029B0000023A00785F8953034D4D8E93C3198F845
:1029C0008C20013341F100010132C8E93C3188F823
:1029D0008C2003B0BDE8F08395F89530032B4CD8DC
:1029E000DFE803F01E070202A3073AD403B0BDE8F4
:1029F000F083A207FAD52B6D002B39D0B5F85420FF
:102A0000A96D0332184614F017FE0346D5F890005E
:102A1000AB650022314603B0BDE8F04315F08CBC35
:102A2000A107E3D52B6D1BB3B5F85420A96D18464B
:102A3000033214F001FE0DF1020201A9A865D5F8D8
:102A4000900015F0E4FC019815F0C7FC01223860F5
:102A50003146D5F8900015F06FFCB9F1000FC5D0E4
:102A6000ABE7D5F8900003B0BDE8F04315F0CBBC60
:102A700040F2F6412720FEF7C7FB40F2A241272093
:102A8000FEF7C2FB881800202DE9F04FC04C94F8E7
:102A90003820E56A85B00023022ACDE9023340F0F0
:102AA0006382A66D07463046884696F800B017F058
:102AB000BCFE8146304617F0B4FE8246304617F021
:102AC000B8FE767895F89430002F4FD0002B40F068
:102AD0009A81A4F85460002E40F0AB81002095F854
:102AE0008B20638C206502F0010243F40073524591
:102AF000638400F00581D4F82CA09AF88A20C2B132
:102B0000022A00F0DC8194F8283000218AF88A102B
:102B100023B19AF88630002B40F0C4819AF88530B2
:102B2000002B40F093819AF88B3001338AF88B3078
:102B3000638C95F88C2002F0010243F400634A454F
:102B400063844FF0000A0BF0030B00F0E38008F001
:102B500049FC18B1BBF1030F00F0748195F8933074
:102B6000002B00F0FE800026B14626E0002B40F04E
:102B7000478194F88F30013384F88F30638C43F4AD
:102B80008063638495F87530033B012B04D908F00A
:102B900029FC002800F08F80012012F07FFC0FF04C
:102BA00051F9042895F8939000F00C81B9F1000FC9
:102BB00000F086800026B146B24694F8283095F899
:102BC0007E00D5F8E8206267B3FA83F35B0984F8E6
:102BD0007C3095F87430D5F8EC20A267013BDBB26D
:102BE0008000032BC0B200F2C4816A4A6A49D35CF8
:102BF00000220092FB220EF035FCB8F1000F07D145
:102C000094F88F100120FFF745FA002800F0C880E3
:102C10000FF0B6FF002E00F0128103A90320FFF78A
:102C2000B1FE4FF00109638C5A0607D4636A002194
:102C300040209847638C43F040036384BAF1000F4F
:102C400009D094F82830002B40F09780B4F8093070
:102C50000133A4F80930002F47D0B4F80530002222
:102C60000133A4F8053084F88F204C4809F06AFA43
:102C7000029830B115F0B1FBE16A0022027208F04F
:102C80001BFB039B33B1E16A00221A720C220398EA
:102C900008F0E0FAB9F1000F2DD1638C1B0607D4C0
:102CA000636A494680209847638C43F080036384BD
:102CB00005B0BDE8F08F95F89330002B7FF47AAF24
:102CC000B8F1000F40F0918094F88F100120FFF7C9
:102CD000E1F9002840F089804FF00009CA46002041
:102CE000FFF7A2FA9FE74FF00109B4F8073001336C
:102CF000A4F80730B9E7FFF775F905B0BDE8F08F24
:102D000095F88C2002F001024A45BA460BF0030BFD
:102D10007FF41DAFBBF1030FD4F82C9040F0B280CC
:102D200043F480536384638FA16D43F0010301205A
:102D3000638789F88400636A984799F88C30013377
:102D400089F88C30002E3FF402AFD9F8F03001330F
:102D5000C9F8F030D9F8F43043F10003C9F8F43081
:102D6000F5E6B8F1000F29D194F88F100120FFF794
:102D700091F918BB4FF00009B1E7B4F80530B4F889
:102D80000710B5F888200B4313433FF464AF5DE7A9
:102D900088180020383C0400EC180020B0180020EF
:102DA000002E9CD003A90120FFF7ECFD0020FFF7C7
:102DB0003BFA03A90220FFF7E5FD34E70FF0E0FE40
:102DC000B94630E71B2E7FF6F1AEB9F1000F73D193
:102DD000B8F1000F09D194F88F100120FFF75AF9CC
:102DE000824610B94FF0010979E70FF0C9FE638CF4
:102DF00059063FF578AF4FF0000A4FF0010915E78B
:102E00000EF088FCB5E60EF045FC00287FF461AEBC
:102E1000002E44D095F88C3003F001034B4518BFC9
:102E2000A4F8546005D1012384F83130FFF7DAF8B3
:102E30003EE7D4F89000314615F05EFA4FE64FF0C9
:102E40000109F0E6012012F029FB87E600218AF84B
:102E5000851007F0A9FA0021002800F09180638F07
:102E600043F0080363870820636A9847DAF8E8307C
:102E70000133CAF8E830DAF8EC3043F10003CAF85D
:102E8000EC3050E6BBF1000F3FF457AF4EBB99F862
:102E90008C30013389F88C3008F0A4FA5EE6A4F88F
:102EA00054601BE6638F8AF8861043F01003638733
:102EB0001020636A984731E60026B2467DE6A06C92
:102EC00002A915F0C2F9002855D0DAF8E83001332C
:102ED000CAF8E830DAF8EC3043F10003CAF8EC3015
:102EE00011E643F48053638499F894900EF0AAFF9E
:102EF000042894F8943007D1B9F1000F0CBF1F22B9
:102F00001B22934228BF13469E421CD8236D1BB33D
:102F100094F88E90B9F1000F21D108F063FA95F87A
:102F20009360002E7FF449AEB8F1000F08D194F8F9
:102F30008F100120FFF7AEF8814600283FF432AF32
:102F40000FF01EFE69E694F83030012043F01003C4
:102F500084F8303012F0A2FA08F044FAFEE5636A11
:102F6000002120209847F7E740F28B512720FEF7F9
:102F70004BF9FFF773F840F23B412720FEF744F985
:102F800040F252412720FEF73FF900BF69200000C0
:102F9000892A000045240000492000000B46062233
:102FA00003F8032BB0F809C0C27AA1F803C09A70E5
:102FB000704700BF08B54FF42E713220FEF724F998
:102FC00090F8DE2012B902F0FF00704710B53638D5
:102FD00082B00C4604F0A2F918230420237002B03A
:102FE00010BD00BF70B5002860D0437A0D4604467E
:102FF000002B3AD040890021FEF7AAFD06460028A2
:1030000059D0008807F082F930880021FEF7B6FD1C
:10301000002855D194F8546094F8A6302BB194F858
:10302000A7301E43002384F8A630204604F076F92A
:10303000B3072BD12B46132203F8032B04F109020B
:103040002934166850689168D2F80CC0C3F80CC0D7
:103050001032A2421E605860996003F11003F0D153
:10306000117819700022AA7170BD036DD0F80E207E
:10307000C3F80320428AA3F80720437B026D03F0C4
:10308000FD03003B18BF01239370C3E726F004063D
:10309000002284F854601146204604F02BFF0028DB
:1030A000C8D140F221313220FEF7AEF840F20131B2
:1030B0003220FEF7A9F840F20D313220FEF7A4F8D5
:1030C00040F211313220FEF79FF800BF044B1B681D
:1030D0000022A3F8212183F8232183F87020704770
:1030E0002019002008B507F025FE034B18700FF0DB
:1030F0007FFA032008BD00BFD004002008B507F008
:1031000019FE024B02461A70012008BDD0040020AF
:103110002DE9F041064615461C4649B1B36823B176
:103120001DBB2CBB0020BDE8F0810120BDE8F08173
:10313000194F396891F85A2091F87E0001F15B032C
:10314000783116F0DEFED7E900235B79082B19D021
:1031500092F856100129E1D00029E3D10028DDD1F1
:1031600092F84E209A42D9D0DCE72846BDE8F0819B
:103170000949B27C0968BDE8F04191F8410042314B
:1031800016F0BFBE92F85630012BC7D0002BC9D124
:103190000028C3D1C6E700BF2019002038B5114C64
:1031A00020686C3003F0E8F9656803F095F963680E
:1031B0002860186858B103F0BDF968B10FF02AFB18
:1031C00000200FF0D1FB636804221A7138BD40F271
:1031D000EC413220FEF718F840F2EE413220FEF7C3
:1031E00013F800BF2019002008B507F0A3FD04491B
:1031F000044B024648681A7003F036FA012008BDF5
:1032000020190020D0040020F0B5504C2368002283
:103210001F6D83B05A72FA690E4639885981054686
:1032200041F27071A2F57A70884274D94849A1FBC5
:103230000212C2F38F221A84BA8C5A84FA8C9A84AE
:103240004FF47F42DA844FF6FF721A85002D48D082
:103250000121304617F0E2F93278D209236893F859
:10326000481009B1002A46D1002159611983207BF9
:10327000082858D003F10E0203F10D0107F030FBCE
:1032800000285ED023685A7B42F002025A7303F191
:103290001A07002D39D103F1780002683A6082885C
:1032A000BA8093F95810186D07F01AFD2068294963
:1032B00017F05EFB20682849036D1A88A0F83320B8
:1032C00093F8963080F835302A3017F05AFB206892
:1032D000022104F0B5FF20686C3003F04DF903B013
:1032E000F0BDA068694617F061F8A3681A786846CF
:1032F000C2F38012B2E7427902F0C002402AB3D191
:1033000002685A6182881A83B1E70021304617F0BB
:1033100085F92368C1E71149A1FB0212920902F560
:10332000506292B287E793F87E00996F5873C3F8A2
:103330000E10B3F87C0058820021C3F81A10D9830C
:10334000AFE741F204413220FDF75EFF2019002073
:103350005917B7D1E52F00009D2F0000D34D621003
:1033600008B540F292313220FDF74EFF10B50478D7
:103370008CB004F00F04224602A903F035FC07F0DC
:10338000D9FC234A042C107002D003200CB010BDCD
:10339000204C0399236891F800E093F878C0E64543
:1033A000F3D191F801E093F879C0E645EDD191F8B9
:1033B00002E093F87AC0E645E7D191F803E093F88C
:1033C0007BC0E645E1D191F804E093F87CC0E64586
:1033D000DBD191F805C093F87D108C45D5D193F8D9
:1033E0007E309DF819109942CFD17F280DD00090E2
:1033F0004FF07F0C606882F800C0237C227B02A91A
:1034000003F05EFB03200CB010BDFFF7A9FF00BF67
:10341000D00400202019002010B50E4A53681979F5
:1034200002290DD9197908290FD81B79526903F19E
:1034300080439268033BBDE8104052F823301847A0
:1034400041F2AD413220FDF7DFFE41F2AE413220C4
:10345000FDF7DAFE2019002038B5194D6B681B798D
:10346000022B28D82B68027C83F8A420C1689966B7
:103470001A44044692F8242183F820214268C3F8B4
:103480008820037A022B0ED00EF006FE0FF0B8FA59
:103490000DF060FF0B480FF0A7F90B480FF09EF9F5
:1034A0000A480EF05BFF637C23B12B685B6E0BB1A7
:1034B00001221A6038BD40F6FA013220FDF7A4FE61
:1034C000201900203C05002055555500D6BE898E98
:1034D00070B53B4C63681A79032A064643D01A79C3
:1034E000042A40D0226892F85420920740D1A5685F
:1034F000002D4CD0236893F85430002B3DD03EB1C2
:10350000284617F051F9E0B9284617F068F9C0B914
:1035100063681A79022A3FD91A79082A41D81B7997
:10352000626903F180435269033B52F823309847A4
:103530000C2827D86369DB68BDE8704053F8203059
:10354000184763681A79022A30D91A79082A32D8BA
:103550001B79626903F180431269033B284652F8E4
:1035600023309847E4E7186802F0E4FF0546BFE718
:10357000186802F0E1FF0546BAE741F2BB3132209C
:10358000FDF742FE41F2CE313220FDF73DFE41F221
:10359000B5313220FDF738FE41F29B313220FDF784
:1035A00033FE41F29C313220FDF72EFE41F23B31D9
:1035B0003220FDF729FE41F23C313220FDF724FE96
:1035C0002019002070B5154D2C6894F84830EBB1E7
:1035D000D4E920126FF000439A4208BFB1F1FF3FD7
:1035E00014D011F08FFCD4E92023904299410DD3DF
:1035F0002E6896F8483053B907F06CF9044611F07C
:1036000081FC074BE4FB0301C6E9200170BD0120EA
:1036100007F022FA0028F9D02E68EDE720190020E3
:1036200040420F002DE9F0471A4B93F90090B9F191
:103630007F0F84B02CD0184C66687F221A703379C3
:10364000032B80460F461AD03379062B14BF4FF058
:10365000010A4FF0030A236803F142050EF0F2FB62
:10366000CDE9029A00902B46257B01953A464146CA
:10367000304603F045F828B904B0BDE8F0874FF0B4
:10368000000AE8E7606804B0BDE8F04702F0ACBFAC
:10369000FFF766FED00400202019002038B505464B
:1036A0000C4606F09DFC420704D4A37803F0E00327
:1036B000402B0DD006F094FC830704D4A37803F0CC
:1036C000E003202B04D0237803F03F03242B01D9FF
:1036D000002038BD0EF0BCFB94F900206378002A6E
:1036E000A27802F01F0CB4BF4FF496711E2143EA7A
:1036F0000C2301FB03F3191AB1F5877FE8D3984235
:10370000E6D8064923880868A0F8213180F82321EB
:103710002946BDE8384003F0C9BE00BF201900208B
:103720002DE9F047334FD7F8048098F8063084B07D
:10373000002B4DD03D6895F8953004460E4633B9C0
:103740000378002B14BF0223012385F8953098F8E5
:103750000430062BDAB23FD0072A0CBF4FF0020A22
:103760004FF0010A244B93F90090B9F17F0F3ED03E
:103770007F221A700EF066FBCDE9029A0090397B29
:10378000019105F1420332464046214602F0B8FF5E
:10379000F0B16378DB0618D5A1690220FFF77EFF40
:1037A000E8B13A68002382F896306369DBB1597852
:1037B000C1F3031182F8971059781B7801F00F01BB
:1037C00043EA0123A2F8983003E0786802F00CFF86
:1037D000002004B0BDE8F0874FF0030AC2E7786824
:1037E00002F042FFF4E7FF2382F89730F1E7FFF79A
:1037F000B7FD00BF20190020D004002010B50446FA
:103800008AB007F097FA2378174A03F00F03072BC3
:10381000107002D001200AB010BD6946204603F0A6
:1038200089FA684603F06EFB9DF80030002BF1D159
:103830009DF80130DB07EDD50C4C019923689DF80C
:10384000110093F87E20783316F05BFB0028E1D05E
:1038500020680121A03016F0D4F8FF216846FFF758
:103860005FFF0130C0B2D6E7D0040020201900204D
:103870002DE9F04304468BB007F05CFA2378424A06
:1038800003F00F03082B107004D0012528460BB05D
:10389000BDE8F0836946204603F0DEF99DF800504C
:1038A000002DF2D19DF8013003F00303032BECD17E
:1038B000364E376897F84D306BB397F84E80737B70
:1038C0006BBB9DF81100019997F87E2007F17803F2
:1038D00016F017FB0028D8D097F84820376897F8DB
:1038E00041904237002A3ED19DF8120002990128EA
:1038F0003B464A4627D016F004FB0028C5D0306866
:103900000121A03016F07DF8737BABBB214601206E
:10391000FFF77AFCBAE7736893F80580CFE716F0F3
:1039200034FB8146B9F1080F9DF81100019997F811
:103930007E20CBD007F1780386F80C9016F0E1FAE0
:10394000C145C9D0C6E74F7916F0DBFA0028D6D1B9
:1039500007F0C007402F98D10299404607F0B0F811
:103960000028CCD191E7404607F0E4F800281CBFBE
:1039700007464FF00109B7E70FF042F80DF0EAFCF7
:1039800000237373C2E700BFD00400202019002079
:103990002DE9F04FDFF8DCA09846DAF800309346C6
:1039A000827C93F84850012A83B00446894685F00A
:1039B00001053DD0002637469AF80D203AB393F81A
:1039C000542052072DD46368B3B1DAF804305B7920
:1039D000082B18D01846019306F096FE2843C5B26E
:1039E000B7B19AF80F20019B6AB316F0D8FA0023FA
:1039F00007468AF80F300BE0DAF80430186803F055
:103A0000D5F80028E1D11FB19AF80E1009B30027AC
:103A10008BF8007089F8006088F8005003B0BDE8AA
:103A2000F08F93F84D20002ACDD093F84E30CFE799
:103A30008268567906F0C006A6F14006B6FA86F608
:103A400076093746B8E7A168184607F039F80746FF
:103A5000DEE7A06806F05CFF07468AF80D00002844
:103A6000D5D016F092FA0828D1D0DAF8043058717F
:103A7000CEE700BF201900202DE9F04F044687B0A3
:103A800006290AD8DFE801F0512E0F0909090400C0
:103A9000B24D68688379002B71D10EF0A9FD032027
:103AA00007B0BDE8F08F0EF0A3FDAC4A136893F8A1
:103AB00054108F07F3D0506881790029EFD0A84DBA
:103AC00095F900107F2900F025820291127B019266
:103AD0002146FF227F240092423302222C7002F002
:103AE00047FFDCE79D4DA27C2968686891F8483063
:103AF00090F806A090F80790012A83F001035AD0AD
:103B0000002791F8542012F0040600F0EF8091F89D
:103B10004D60002E59D091F84E80B8F1080F59D160
:103B200091F84100002680466DE08C4DD5E90030CB
:103B300093F8542057071AD5C279002A00F0DF8085
:103B4000626893F85B1016788E4200F03C8193F81F
:103B50005620012A00F05B8193F84E30082B03D0E9
:103B600042799A4200F053810EF042FD68688379F1
:103B7000002B40F0C880C379002B90D18DE72B68D3
:103B800093F85420960740F1ED80754A92F90010A1
:103B90007F2900F0BF81029121462C7B0194FF24F4
:103BA00000947F2442331470062202F0E1FE0023C9
:103BB00009202B7474E7A268577907F0C007A7F1B2
:103BC0004007B7FA87F77F099BE790F80580B8F1BF
:103BD000080F40D04046059306F096FD059B8346AE
:103BE000002F40F04581296891F8542091F84180D8
:103BF00002F0040C3E464046BCF1000F41D043EABF
:103C00000B0B5FFA8BF3626891F85BC092F800E0EF
:103C1000E64500F0FF804FF0000B6A685279082AF1
:103C200000F03D8191F84EC0ACEB0202B2FA82F294
:103C300052090592E6B1B9F1000F1DD091F8563046
:103C4000012B00F0E48023B9059B5BEA030B40F0F5
:103C5000DE804E4610E0626891F85BC092F800E0AA
:103C600091F84100E64500F0D480B34680460596C1
:103C7000002B40F0178100260EF0BAFC2B6893F859
:103C8000542093073FF40BAF0EF0B2FCBAF1000FD3
:103C90003FF405AF2968A36891F84100A27C423146
:103CA00016F02FF9002840F01981002E40F01681FF
:103CB0002B6893F85520023A012A3FF6F0AE002F08
:103CC0003FF4EDAE264E96F900207F2A00F02281C7
:103CD00002922A7B686801922146FE227F2400928C
:103CE00042330122347002F043FED8E690F805809A
:103CF000B8F1080F7FF46EAF91F84180C1E7837986
:103D0000002B3FF4CAAE2B6893F85420960744D496
:103D1000D0077FF5C4AE510700F1F380104B93F943
:103D200000207F2A00F0F68002922A7B0192FF2277
:103D300000927F2018702B68686821464233002269
:103D400002F016FE03206B68DA79002A7FF4A8AE31
:103D50009B79002B7FF4A4AE9FE600BF20190020C2
:103D6000D0040020D1077FF598AE530700F1B3804F
:103D7000694B93F900207F2A00F0CC8002922A7BC5
:103D80000192FF2200927F201870D5E90030214671
:103D90004233062202F0ECFD81E65F4A92F9001000
:103DA0007F2900F0B780029121462C7B0194FF24EB
:103DB00000947F2442331470002202F0D9FD0123C5
:103DC00009202B74BFE7567893F85C108E427FF47D
:103DD000BEAE967893F85D108E427FF4B8AED6787A
:103DE00093F85E108E427FF4B2AE167993F85F10AE
:103DF0008E427FF4ACAE517993F8602091427FF40B
:103E0000A6AE617C93F85A2091427FF4A0AE0A20BE
:103E100046E6804692F801E091F85CC0E6457FF402
:103E2000FAAE92F802E091F85DC0E6457FF4F3AE99
:103E300092F803E091F85EC0E6457FF4ECAE92F8AC
:103E400004E091F85FC0E6457FF4E5AE92F805C066
:103E500091F8602094457FF4DEAE94F811B091F8AB
:103E60005A20ABEB0202D2F1000B4BEB020BD4E673
:103E7000A1680593404606F023FE2968059B91F84A
:103E80005420064602F0040C91F84100002E3BD06D
:103E900040F00208BCF1000F7FF4B1AEF1E6002261
:103EA0000592C7E6A368A27C423116F02AF8B9F160
:103EB000000F3FF4E0AE2B6893F85630012B07D08B
:103EC000002B7FF4D8AE059B53EA0B0B3FF4D3AE27
:103ED00000289CD1CFE60EF08BFB49E70E4E96F9F9
:103EE00000307F2B16D002932B7BCDE90083D5E9E0
:103EF000003021467F2401224233347002F038FD25
:103F0000CDE50EF075FB09E78046BCF1000F7FF4AC
:103F100076AEB6E6FFF724FAD004002008B5054BCC
:103F2000586802F061FB06F005FF034B02461A7069
:103F3000012008BD20190020D00400202DE9F843FD
:103F4000724D0746A868D5F8008000230380894693
:103F50000EF09CFC002800F0B180AC68032F2378A1
:103F6000064600F0B78023F02F0343EA491343F0DD
:103F7000050323702968222363700B6D1B6AC4F844
:103F80000F300A6D936AE374180A1B0C2075637571
:103F900092F87EC0108ED36ABCF1000F40F0A28070
:103FA000DFF86CC1ACFB00E0ACFB03C3800A9B0AEA
:103FB000E375C3F30723A0752376D36941F27070CC
:103FC000A3F57A7C844540F298805148A0FB030316
:103FD000C3F38F23002063F307001B0A63F30F2052
:103FE000938C63F317401B0A63F31F60C4F8190036
:103FF000D38C63771B0AA377D2F89730C4F81F30AD
:1040000092F89B3084F823300B6D94F8242093F8B9
:10401000A23022F01F0203F01F03134384F8243060
:1040200006F004F894F8243003F01F0343EA401329
:1040300084F82430AC68D8F87830C4F80930B8F87F
:104040007C30A4F80D3098F87E10204616F0C2F9A6
:104050002B6893F8482093F8418003F14209A2B3FA
:1040600093F85420520732D593F84D207AB393F841
:104070004E0006F05FFD044638B34FF00108A86813
:104080002368C0F80330A388A0F80730414616F033
:1040900094F9204BD3F8043173B9052F12D12B6852
:1040A00021681A6DC2F80A10A188D1811B6D83F8AE
:1040B00009803046BDE8F8830EF09AFA032007F035
:1040C000E9F800263046BDE8F8834C46D7E76B6830
:1040D0005879CEE723F00F0343F0030323700C233A
:1040E0006370A8E7DFF830C0ACFB00E0ACFB033C3A
:1040F000C0F347104FEA5C135AE70848A0FB0303DC
:104100009B0903F550639BB264E700BF20190020B0
:104110005917B7D1001000401F85EB51D34D6210E5
:1041200038B5154C236893F854309B0718D1A5680F
:10413000E5B12368FF2093F820110DF001FF284618
:104140000EF068FB236893F82031033B012B94BFEA
:10415000282000200EF008FC636807221A7138BD81
:104160006368186802F0E8F90546E1E740F2135188
:104170003220FDF749F800BF2019002038B51E4C49
:1041800023680E2093F820110DF0DAFE236893F8CF
:1041900054309B0724D1A56845B328460EF03AFB5E
:1041A000236893F82031033B012B94BF2820002083
:1041B0000EF0DAFB2368681D93F8205106F0D6FB59
:1041C000607348B1033D012D8CBF502555250DF07E
:1041D000A3F828460EF008FC636808221A7138BD5F
:1041E0006368186802F0A8F90546D5E74FF4A061A6
:1041F0003220FDF709F800BF2019002070B50D4DE1
:10420000D5E9000302221A7103F09CFE00B170BDD3
:104210002E68044606F16C0002F026FAA6F8214149
:1042200086F8234186F870402868BDE8704003F0A6
:10423000DDBF00BF2019002010B50A4C06F07AFD42
:10424000094A637B10701BB90EF0D2F9032010BD30
:104250000EF0D6FB0DF07EF8002363730EF0C8F964
:10426000032010BD20190020D004002070B52D4C73
:10427000236893F8232105465F2A93F821019CBF08
:104280005109294A00F03F0094BF565C00260EF009
:104290006FF8236893F958000EF05AF8EDB12368CF
:1042A0003246996E01200EF04BF9236893F8963050
:1042B000022B14BFFF20402031460DF041FE236841
:1042C00093F8542092070ED193F89530A568A3B1C6
:1042D0002846BDE870400EF09DBA3246AA21012062
:1042E0000EF02EF9E1E76368186802F025F92368FB
:1042F00093F895300546002BEAD1681D06F036FB91
:1043000060730028E4D0042E14BF502455240DF00F
:1043100003F820460EF068FB2846BDE870400EF01A
:1043200079BA00BF201900203C3C0400F0B52E4CA7
:10433000236893F823215F2A9EBF51092B4A575CBB
:104340009A6E83B0064688BF0027002A3FD1D3F873
:1043500088000EF0D5FA256895F854309A0703D5F1
:1043600095F89620022A2AD05B0724D4636818683F
:10437000CEB902F01BFC63680646186802F01CFC0C
:10438000024605F19A00256895F8963095F8205177
:104390000095314602F060FD2268002382F820710A
:1043A000A37303B0F0BD02F013FC014605F19A00BF
:1043B00002F046FDF0E795F89630012BD6D1042F98
:1043C0000AD0394600200EF04DFB2568CEE70120CB
:1043D000FFF74CFF2368BAE795F85930012B0CBF63
:1043E00003210421EEE700BF201900203C3C04001B
:1043F00010B50B4C637B63B9A1680020FEF704FF86
:1044000023680022A3F8212183F8232183F8702058
:1044100010BD0EF0F5FA0CF09DFF00236373EBE77F
:104420002019002010B50F4C637B9BB9D4E90030F4
:1044300000224FF0010C80F804C003F16C00A3F8D7
:10444000212183F8232102F097F82068BDE810406D
:1044500003F0CCBE0EF0D4FA0CF07CFF00236373A3
:10446000E4E700BF201900202DE9F04F072904469A
:1044700087B040680D46904644D100285ED0637CEA
:10448000012B00F0AB80A74E73685879082844D000
:1044900004AA0DF10F0106F023FA002800F069814B
:1044A0009DF80F0004A917F0D2F88146D6E900174D
:1044B00091F8543013F0030240F08280BA715A0729
:1044C00063D40023FB71984B1B6823B141462046FF
:1044D000984738727768636843B13268617C82F8C4
:1044E0007E10196891679B88A2F87C303B7A012086
:1044F000002B00F04381A3680BB1072D4DD007B00E
:10450000BDE8F08F874E002800F08680637C7268DB
:10451000012B4DD050790828BAD16168607C17F022
:1045200096F87268616881460532607C06F00EF983
:1045300077680028BAD1F8803872DCE7794ED6E97E
:10454000001791F8543003F00302B8F1000F65D062
:10455000002A40F0B88013F00403BA71B2D091F889
:104560004DA0FB799146002BACD063688BB93868BD
:1045700002F01CFB0346002840F0A380BAF1000FB4
:1045800000F0F380776853469CE7062D91F84DA024
:104590007DD84AEA0900C3B294E779790829AED0F8
:1045A0000028ACD0184606F0D1F90123F373A6E732
:1045B000437903F0C003402BACD1737B13BBA9E755
:1045C000062D91F84CA04CD84AEA090A5B0787F8F7
:1045D00006A07FF576AF91F84DA0DAE7437903F0B6
:1045E000C003402B7FF44FAF4E4E737B002B3FF444
:1045F0004BAFB8F1000F05D1336893F820110129B2
:1046000000F09D80776815F0C0FC73687871587968
:1046100030730123B37339E7814647E7B2F10009EC
:1046200018BF4FF0010913F0040387F8069005D076
:104630002378A3F10103B3FA83F35B09FB7191F8CB
:104640009430002B3FF45BAF3368D3F890005030C8
:1046500017F007F800287FF452AF736801221A722E
:104660004DE7082D02D90023BB712AE797F806B061
:10467000B8F1000F2CD16268002A46D04AEA090A34
:10468000580787F806A07FF51CAF91F84DA0082DBC
:104690003FF617AFFB79B8F1000F7FF464AF6268A3
:1046A000002A7FF476AF62780193D30657D4386836
:1046B00002F07CFA00283FF461AF019B002B3FF42D
:1046C0005DAF7768FEE691F84CA097F806B081469A
:1046D000BBF1000F2AD06268002ACFD1386802F0FF
:1046E00065FA80B9BAF1000F3BD07768326887F875
:1046F00006A092F8543013F004033FF4E3AE92F8AE
:104700004DA0FB79C7E78246EFE76278D0061DD45B
:10471000386802F04BFA0028E4D0BBF1000FE1D07A
:10472000DA46E2E720190020380500205B0787F809
:1047300006B07FF5C6AE91F84DA0FB7913E706F001
:10474000E7F8707300287FF45DAF9DE60120B87133
:1047500058077FF5B6AE91F84DA0FB79A4E7012389
:10476000B0E605F0EDFF8246BFE705F0E9FF03463E
:10477000A7E740F6A7313220FCF746FDF88800385D
:1047800018BF0120B7E600BF70B5194E8AB00546C4
:1047900006F0D0FA3368174A93F85430107013F0CB
:1047A000060F16D12C7804F00F04224628466946DD
:1047B00002F01AFA214600226846FFF755FE21460C
:1047C0006846FFF759F9737B044643B920460AB09F
:1047D00070BD0122962100200DF0C6FEE2E70EF02A
:1047E0000FF90CF0B7FD0023204673730AB070BDBB
:1047F00020190020D004002010B5114C06F09AFAC0
:10480000104A637B10709BB9D4E9003000224FF04E
:10481000010C80F804C003F16C00A3F8212183F897
:10482000232101F0A9FE2068BDE8104003F0DEBCA2
:104830000EF0E6F80CF08EFD00236373E4E700BF92
:1048400020190020D004002010B5104C606801F041
:104850000BFF637B9BB9D4E9003000224FF0010CC1
:1048600080F804C003F16C00A3F8212183F8232110
:1048700001F082FE2068BDE8104003F0B7BC0EF0E6
:10488000BFF80CF067FD00236373E4E720190020F4
:1048900010B5124C606801F0E7FE06F04BFA104AC2
:1048A000637B10709BB9D4E9003000224FF0010CFB
:1048B00080F804C003F16C00A3F8212183F82321C0
:1048C00001F05AFE2068BDE8104003F08FBC0EF0E6
:1048D00097F80CF03FFD00236373E4E720190020F4
:1048E000D004002010B506F025FA134C134B0246F5
:1048F00020681A700021A03015F083F8637B9BB903
:10490000D4E9003000224FF0010C80F804C003F11C
:104910006C00A3F8212183F8232101F02DFE2068EB
:10492000BDE8104003F062BC0EF06AF80CF012FD16
:1049300000236373E4E700BF20190020D0040020A7
:1049400010B5154C606801F04FFE06F0F3F9024611
:104950002068124B0021A0301A7015F052F8637BCA
:104960009BB9D4E9003000224FF0010C80F804C05C
:1049700003F16C00A3F8212183F8232101F0FCFD51
:104980002068BDE8104003F031BC0EF039F80CF09F
:10499000E1FC00236373E4E720190020D004002029
:1049A00010B500210320FFF7C9FA164C20B120688A
:1049B000032102F07BFDA8B9637BDBB9D4E90030A9
:1049C00000224FF0010C80F804C003F16C00A3F842
:1049D000212183F8232101F0CFFD2068BDE810409C
:1049E00003F004BC012108460EF03CF8636809227C
:1049F0001A7110BD0EF004F80CF0ACFC00236373C8
:104A0000DCE700BF2019002010B51D4CD4E90003DD
:104A10000C2201211A7103F013FC00210520FFF77D
:104A20008DFA20B12068062102F040FDA8B9637B11
:104A3000FBB9D4E9003000224FF0010C80F804C02B
:104A400003F16C00A3F8212183F8232101F094FDE8
:104A50002068BDE8104003F0C9BB2368012093F82B
:104A600020110DF0FFFF23681B6D012283F89620B3
:104A700010BD0DF0C5FF0CF06DFC00236373D8E78B
:104A80002019002070B5234C236893F823215F2A56
:104A90009EBF5109204A565C9A6E88BF002662BBB1
:104AA000D3F888000DF02CFF256895F854309A074C
:104AB00003D595F89620022A17D05B0703D595F801
:104AC0009630012B11D06368186802F081F8014616
:104AD00005F19A0002F0B4F900232168A37363681A
:104AE00081F8206106221A7170BD042E0AD0314669
:104AF00000200DF0B7FF2568E5E70120FFF7B6FBC2
:104B00002368CDE795F85930012B0CBF0321042110
:104B1000EEE700BF201900203C3C040038B5234CD0
:104B20006368186801F006FD00283AD063680A221D
:104B300005461A712068002103F082FB22682B7859
:104B4000126D92F8965005EA531505F001050520FF
:104B50002946FFF7F3F948B12068042102F0A6FCCA
:104B600020B123681B6D83F8965038BD637B8BB9E9
:104B7000D4E9003000220125057103F16C00A3F88F
:104B8000212183F8232101F0F7FC2068BDE838409B
:104B900003F02CBB0DF034FF0CF0DCFB002363733F
:104BA000E6E74FF4AB613220FCF72EFB2019002022
:104BB00010B51F4C636888B981B11A79082A2DD9BC
:104BC0001A790C2A2FD81B79626903F18043526845
:104BD000093BBDE8104052F823301847184601F051
:104BE00043FD637B9BB9D4E9003000224FF0010CF8
:104BF00080F804C003F16C00A3F8212183F823217D
:104C000001F0BAFC2068BDE8104003F0EFBA0DF0E7
:104C1000F7FE0CF09FFB00236373E4E741F27D4154
:104C20003220FCF7F1FA41F27E413220FCF7ECFA37
:104C30002019002038B5174C0521206802F036FCF9
:104C400048B12368012093F820110DF00BFF636831
:104C50000B221A7138BD0546606801F005FD637BC3
:104C60008BB9D4E9003000220125057103F16C00F5
:104C7000A3F8212183F8232101F07EFC2068BDE800
:104C8000384003F0B3BA0DF0BBFE0CF063FB657364
:104C9000E7E700BF20190020F0B52A4C236893F8FD
:104CA00023215F2A9EBF5109274A575C9A6E83B021
:104CB00088BF0027002A39D1D3F888000DF020FEE4
:104CC000256895F854309A0703D595F89620022A5E
:104CD00024D05B0703D595F89630012B1ED063686E
:104CE000186801F063FF63680646186801F064FF06
:104CF000024605F19A00256895F8963095F82051FE
:104D00000095314602F0A8F800232168A373636878
:104D100081F8207105221A7103B0F0BD042F0AD06A
:104D2000394600200DF09EFE2568D8E70120FFF7E8
:104D30009DFA2368C0E795F85930012B0CBF032179
:104D40000421EEE7201900203C3C0400F0B55A4C49
:104D5000206883B06C3001F00FFC656801F0BCFB8B
:104D6000636828601868002800F09C8001F0E2FB6E
:104D70000546002800F09B80236893F8A630002B9E
:104D800048D1D4E9000290F8A430034493F8247188
:104D900080F82071137913B11379012B4BD190F85E
:104DA000A520464B134418790DF0E2FA236893F8D6
:104DB000A420134493F82461022E3AD04DD8012E3A
:104DC0004ED101F083FB31460DF0BAF828460DF0C4
:104DD00021FD314601200DF0D9FA012F31D1E81C17
:104DE00005F0C4FD607328B140250CF095FA284603
:104DF0000DF0FAFDD4E9000208210023517121735E
:104E00000321D3801372E38180F8953023741171EC
:104E100003B0F0BD236893F8542093F8A700196DF0
:104E2000C3F81011024383F85420002283F8A6200F
:104E3000A7E70D20C7E7002102F038FBA8B12068E2
:104E4000ADE7681D05F092FD60730028D2D0033FE6
:104E5000012F8CBF50255525C7E7F31E012BB0D974
:104E600040F2FA713220FCF7CFF9637B93B9D4E9B1
:104E7000003000220125057103F16C00A3F8212107
:104E800083F8232101F078FB206803B0BDE8F040EF
:104E900003F0ACB901900DF0B3FD0CF05BFA019892
:104EA0006073E4E740F249413220FCF7ADF940F28B
:104EB0004B413220FCF7A8F9201900203C3C0400AB
:104EC00008B505F037FF044B18700DF091FBBDE8F5
:104ED0000840FFF73BBF00BFD004002010B50C4CCA
:104EE00005F028FF0B4A637B10702BB90DF080FB97
:104EF000BDE81040FFF72ABF0DF082FD0CF02AFA42
:104F0000002363730DF074FBBDE81040FFF71EBF74
:104F100020190020D004002010B50446FEF79CFAAA
:104F2000237A032B34D01D4A12683BBB92F8A5307C
:104F30001B490133A1FB030C0CF4FF7404EB5C046C
:104F400092F84B001B1B40FA03F4E40713D401331F
:104F5000A1FB034C2CF0010404EB5C041B1B40FA86
:104F600003F4E00707D40133A1FB034121F001045E
:104F700004EB51015B1ADBB282F8A53092F95800BC
:104F80000DF0E6F9FFF7E2FEBDE81040FEF71ABBB0
:104F900040F629113220FCF737F900BF2019002014
:104FA000ABAAAAAA10B50446FEF756FA237A032B39
:104FB0004AD0012B51D039D82F4C304A216891F872
:104FC000A53091F84B000133A2FB03CE0EF4FF7C19
:104FD0000CEB5E0CA3EB0C0340FA03FC1CF0010F7E
:104FE00013D10133A2FB03CE2EF0010C0CEB5E0CAF
:104FF000A3EB0C031841C00707D40133A2FB030243
:1050000022F0010000EB52029B1ADBB281F8A530BE
:1050100091F958000DF09CF92368002283F895203F
:10502000FFF794FEBDE81040FEF7CCBA023B012B1F
:1050300009D8114C236893F8950088B9FFF776F9E1
:10504000636805221A7110BD0B4B1B68986E70B90E
:10505000FFF70CF9237A012BADD1074C2168D7E774
:105060000120FFF763F9636806221A7110BD40F64C
:105070003F113220FCF7C8F820190020ABAAAAAAD9
:105080002DE9F047DFF8A882D8F8005095F857309E
:1050900086B0ABB1D8F80470BB790446A3B12678CA
:1050A000012E1AD0022E61D056B995F854209107DE
:1050B00006D0002B40F091803B7A002B40F08D8091
:1050C000032006B0BDE8F087FA79002AE7D13A7AE2
:1050D000002AF5D02678012EE4D195F820216378B6
:1050E000022A00F0F48003F01803182BE8D195F899
:1050F00054305A0700F1F1808E4B93F900607F2EF7
:1051000000F049817F221A70D8E9003703F1420587
:105110000CF098FE0296009098F80C100191002176
:1051200003912B46FF223846214601F0E9FA002878
:10513000C6D0A1690120FEF7B1FA0028C0D0D8F886
:105140000020012382F896306369002B41D0597802
:10515000C1F3031182F8971059781B7801F00F0101
:1051600043EA0123A2F898300220AAE795F85430C8
:105170009B07A5D0637803F01803182BA0D16D4BC3
:1051800093F90090B9F17F0F00F005817F221A702A
:105190000CF058FECDF80890009098F80C20019281
:1051A0000022039205F142033846FF22214601F016
:1051B000A7FA002884D0A1690120FEF76FFA002821
:1051C0003FF47EAFD8F8002082F896606369002B28
:1051D000BDD1FF2382F89730C6E7637813F0100F34
:1051E0000CBF012208229A43C3F300157FF468AF75
:1051F000A26800238DF815308DF81630002A00F0D3
:1052000091800DF117030DF116010DF115022046E5
:10521000FEF7BEFBD8F800109DF8153091F84190CC
:10522000002B40F0B180A368A27C4231484614F0C4
:1052300068FE70B9D8F8003093F85530023B012B66
:105240003FF63EAF9DF81630002B3FF439AF4FF0DC
:10525000FE09384A92F90070002D6DD07F2F00F0C2
:105260009A80D8F80030D8F8046003F142057F2313
:1052700013700CF0E7FD0297009098F80C10019164
:105280002B4600254A4630460395214601F038FA60
:1052900000283FF415AFA1690120FEF7FFF90028AF
:1052A0003FF40EAFD8F8003083F896506269002AB8
:1052B0006DD05178C1F3031183F8971051781278AB
:1052C00001F00F0142EA0122A3F898204CE703F015
:1052D0001903192B7FF4F4AE09E761680023B1FAD2
:1052E00081F11A4649092046FDF712FF00283FF4D4
:1052F000E7AEA3699B781F2B07D8D8F8003093F846
:105300004930002B7FF4F8AEDAE603F0E003402BDF
:105310007FF4F2AED8F8003093F84A30002B7FF4D7
:10532000EBAECDE68DF817204FF0FF0991E700BFF7
:1053300020190020D00400207F2F2CD0D8F8045052
:105340007F2313702B79032B04D02B79062B14BFEA
:1053500001260326D8F8003003F1420A0CF072FD52
:10536000CDE902760090214698F80C40019453460E
:105370004A46284601F0C4F900283FF4A1AED8F807
:10538000040001F031F99BE649F0020961E7FF22D0
:1053900083F89720E8E6FDF7E3FF00BF30B5054648
:1053A0008BB005F0C7FC2C783D4B024604F00F048F
:1053B000284669463B4D1A7001F0BCFC072C2B684F
:1053C0003DD093F8542012F0060210D121466846D1
:1053D000FFF74AF82B6893F82031042B1BD8022BD7
:1053E00054D903246B7BDBB920460BB030BD93F856
:1053F000A420134493F82421012A4CD000222146F2
:105400006846FFF731F82B6893F82031012B10D054
:10541000023B022BE5D941F236213220FBF7F4FEA4
:105420000DF0EEFA0BF096FF002320466B730BB0E5
:1054300030BD062C1BD018D90DF0DAF8D1E793F85F
:105440002011684601F0AEFC002221466846FFF7B5
:105450000BF82B6893F82031042BDCD8022B0CD9E5
:105460006846FFF70DFE0446BCE7022CE4D821464F
:105470006846FEF701FB0446B4E7012BF0D0022B8F
:10548000C9D19DF80030012BABD1E9E7012BD0D079
:10549000022BA6D0BFE7962100200DF065F8ADE7FE
:1054A000D0040020201900202DE9F047A84C92B02C
:1054B0000D4608A901F03EFC206808A99A3001F0C9
:1054C000F3FC23689DF8201093F89620914205D1B3
:1054D000032D17D09DF82120160766D4606801F0CF
:1054E000C3F80125637B1BB9284612B0BDE8F087DD
:1054F0000DF086FA0BF02EFF00232846637312B0DE
:10550000BDE8F08793F89720FF2AE3D108A82A4640
:105510000721FEF7A9FF6068C38813B9037A002B3F
:10552000DDD00A9B00228DF81D208DF81E208DF8FD
:105530001F20002B4AD00DF11F030DF11D020DF1AC
:105540001E0108A8FEF724FA23689DF81D7093F841
:1055500041509DF820609DF81E809DF81F3045EA5F
:105560004705012EEDB239D0022E00F0A380002EA7
:10557000B4D1216891F854309B07B2D09DF8213006
:105580009E0700F1CA80FF2563681B7A33B1714B17
:105590001B681BB10F9808B111999847294608A8B4
:1055A000FEF7BEF8451CEDB29CE70D9993F8970005
:1055B0004A78B0EB121F91D10978B3F8983002F015
:1055C0000F0241EA02229A4288D19FE79DF82060AB
:1055D000012E98461F464FF0FF05C5D19DF82100CA
:1055E000226800F0090CBCF1090F92F89A1005D05E
:1055F00000293FF476AF00077FF573AF92F854208F
:10560000D4F8049050070BD599F8072042B13A46D8
:1056100008A8FDF77DFD002840F0E880D4F804904C
:1056200099F80630002B3FF45CAFD4F800A09AF84C
:1056300054309A073FF455AF9DF8213013F0020320
:1056400000F0B18057B90A9B9DF832209AF84100CA
:105650000AF1420114F055FC00284ED03E4B93F95C
:105660000090B9F17F0F00F04E81D4F804807F22C2
:105670001A7098F80430032B00F0F18098F8043089
:10568000062B08BF0326236803F142070CF0DAFB60
:10569000CDE9029600902A46257B01953B4608A954
:1056A000404601F02DF800283FF41BAF606800F081
:1056B0009BFF16E7216891F8542090073FF411AF43
:1056C000D4F8049099F8060000283FF40AAF9DF83A
:1056D000210000F00906092E7FF403AF12F0020644
:1056E00000F0020A3AD0BAF1000F00F08880002FD3
:1056F00040F0E180002B40F0D380236893F85530D0
:10570000023B012B3FF6EDAEB8F1000F3FF4E9AEDE
:10571000FE2108A8FDF786FFE3E6002F7FF434AFF3
:1057200091F841000A9B9DF83220423114F0E9FBC8
:1057300000287FF429AF236893F85530023B012BF2
:105740003FF6CFAEB8F1000F3FF4CBAEFE251BE71E
:105750002019002034050020D0040020BAF1000FE9
:105760007FD04FB991F841000A9B9DF83220423119
:1057700014F0C7FB0028C0D0644B93F90090B9F136
:105780007F0F00F0C080D4F804807F221A7098F850
:105790000430032B3FF477AF98F80430062B14BF86
:1057A000012603266FE7594A92F900507F2D00F039
:1057B000AA8099F804107F20032910706ED099F800
:1057C0000430062B08BF03260CF03CFBCDE9025643
:1057D00000900AF14203257B0195FF2208A9484663
:1057E00000F08EFF00283FF47CAE5FE72068A03019
:1057F00014F029F900283FF411AF0C2572E6434B51
:1058000093F90080B8F17F0F7DD07F2251460320AD
:105810001A70FEF793FB2368D4F80490064603F150
:1058200042070CF00FFBCDF8088000902A46257B3C
:10583000019501253B4608A94846039500F060FF05
:10584000002E3FF44BAE00283FF448AE2068A03055
:1058500014F0F9F800283FF429AF0B2542E60026A2
:1058600011E72A4B93F900507F2D4CD099F8042072
:105870007F20032A187007D099F80430062B14BF34
:105880004FF0010A4FF0030A05910CF0DBFA05997D
:105890000090CDE9025A01F142039CE71E4693E7CE
:1058A00091F841000A9B9DF83220423114F029FB07
:1058B00000283FF422AF154B93F90080B8F17F0F19
:1058C00021D07F22002103201A70FEF737FB2368C6
:1058D000D4F80490064603F142070CF0B3FACDF871
:1058E000088000902A46257B019501253B4608A9A2
:1058F0004846039500F004FF002E3FF473AF0028E4
:105900003FF4EFADA2E7FDF72BFD00BFD004002070
:1059100010B5044605F00EFA2378094A03F00F0388
:10592000072B107005D120460121BDE81040FFF77C
:10593000BBBD044B586800F097FE012010BD00BFAE
:10594000D00400202019002010B5044605F0F2F91B
:105950002378094A03F00F03072B107005D1204666
:105960000321BDE81040FFF79FBD044B586800F0CD
:105970007BFE012010BD00BFD004002020190020B4
:1059800090F83E00003818BF01207047007A0038B8
:1059900018BF0120704700BF036D10B583B102220C
:1059A0004272198841814FF6FF73FF220446038536
:1059B000064980F8272014F0DBFF0023236510BD83
:1059C0004FF456713220FBF71FFC00BFE52F00009B
:1059D00038B5012105460020FCF7BAF820B304468B
:1059E00001F08AFC02E094F870301BB194F870303A
:1059F000012BF8D13F220021204611F0DDFD0023CC
:105A000040F201110722A4F84C1084F8543084F8B5
:105A1000A53084F8585084F84B20636684F894309D
:105A2000C4F8903084F8A63001210846FCF790F8BD
:105A3000044618B301F060FC02E094F870301BB12A
:105A400094F87030012BF8D13F220021204611F04C
:105A5000B3FD002340F201110722A4F84C1084F892
:105A6000543084F8A53084F8585084F84B2063668D
:105A700084F89430C4F8903084F8A630BDE83840FB
:105A800000F01ABDF8B51D4D02460E46002001215A
:105A9000AA60FCF721F830B34FF494720021044659
:105AA00011F08AFD01210846FCF716F86F690546DA
:105AB00080B14FF49472002111F07EFDC7B13046E1
:105AC000FFF786FF204601F0F9FB2846BDE8F840C5
:105AD00001F0F4BB67B13046FFF77AFF2046BDE81E
